:100000004CC0000066C0000064C0000062C0000078
:1000100060C000005EC000005CC000005AC000006C
:1000200058C0000056C0000054C0000052C000007C
:1000300050C000004EC000000C94FC144AC00000E8
:1000400048C0000046C0000044C0000042C000009C
:1000500040C00000DCC100003CC000003AC000000D
:100060000C941C0E36C000006901B0016B016F01D9
:1000700079017D018101830185018701A701AB0120
:10008000B001B001B001B001B00189018D01910151
:1000900099019B019E01A401A10111241FBECFEF74
:1000A000D4E0DEBFCDBF12E0A0E0B1E0E4E4FAE3CB
:1000B00002C005900D92A232B107D9F714E0A2E276
:1000C000B2E001C01D92A537B107E1F703D00C944F
:1000D000201D96CFA1E0B0E0E0E7F0E00C94EC1C2E
:1000E00086E084B989EF85B917B88FE788B98CE9BC
:1000F0008AB980EF8BB9ABD372D20E948E1033D104
:100100000E94ED14D7D6A7D50E94A80D0E94D81240
:100110000E94D9138091F4030E94E70D86E060E00D
:1001200070E03AD2789482E058D1809140038823DD
:10013000E1F31092400380914E0390914F031DD53F
:100140001092400360914E0370914F0380E224D2DD
:1001500082E260E070E020D280915903982F9E7F68
:100160009093590380640E941E0F8091590382600E
:1001700080935903BB24B3946E010894C11CD11C15
:1001800080917404882309F44FC0109274048AE0AB
:1001900090E084D38091590383FF2FC084FF13C064
:1001A00080E2EAD190932502809324026091260296
:1001B000709127028617970731F09093230280935E
:1001C000220280E2E9D180E2D7D190932702809386
:1001D00026028091590385FD06C09091810380918C
:1001E0001404981751F4609122027091230280E266
:1001F000D3D10E94E10D0E94CD0D909163038091B7
:100200006203882311F4992329F00E94DF12B0922F
:10021000280208C080E061E040E050E00E949813AE
:100220001092280282E0D9D080914A03882341F0BD
:1002300010924A03609147037091480383E1ACD167
:1002400080914903882341F0109249038091500323
:10025000909151030E94860D80914003882331F1D3
:1002600010924003E0904E03F0904F0380912802DB
:10027000813071F49091630380916203882311F4BB
:10028000992331F00E941D130E94ED121092280252
:10029000C701B60113D68C010E942314C8010E9425
:1002A000E513BC01C70149810E944C0F0E94130E47
:1002B000882309F455C00E94000E90E0FC01E0582C
:1002C000F040E931F10508F04BC0EC5CFF4F0C94B5
:1002D0001A1DC9D245C08091590381603FC08091E9
:1002E0005903982F9E7F9093590380640E941E0F9C
:1002F00037C080915903826031C0809159038D7F4E
:100300002DC095D12DC006D22BC063D129C077D284
:1003100027C080915903846021C0809159038B7F4D
:100320001DC01092400380914E0390914F0325D43D
:1003300017C0FDD415C00E94B70D12C00E94C20D97
:100340000FC00E94D50D0CC00E94DB0D09C080912A
:100350005903806403C0809159038F7B80935903B4
:100360000E94B5130DCF10924903109251031092C1
:1003700050031092400310924F0310924E031092BC
:1003800053031092520310924603109245031092A9
:1003900041031092420310924303109244031092BF
:1003A0004B0310924D0310924C0310924A0310928B
:1003B00048031092470388B1887F88B9EEE7F0E0E0
:1003C00080818760808382E480937C0083E08093D7
:1003D0007B008FE880937A000895282F823071F493
:1003E00080E190E090935303809352031092410375
:1003F000109242031092430310924403206420930E
:100400007C0080917A00806480937A0008951F9226
:100410000F920FB60F9211242F933F934F935F9338
:100420006F937F938F939F93AF93BF93EF93FF93BC
:10043000609178007091790080917C00282F30E0E5
:100440002F70307022303105A9F0233031054CF483
:100450002115310509F45AC02130310509F07BC05E
:1004600066C02330310509F45AC02730310509F040
:1004700072C060C020914103309142034091430318
:1004800050914403CB01A0E0B0E0820F931FA41F62
:10049000B51F8093410390934203A0934303B0930D
:1004A0004403809152039091530301979093530317
:1004B000809352038091520390915303892B09F04A
:1004C00041C08091410390914203A0914303B091B8
:1004D00044030496A11DB11D33E0B695A7959795E9
:1004E00087953A95D1F79093460380934503809181
:1004F0004503909146039695879590934F0380937B
:100500004E0381E08093400380E01DC0709351034F
:100510006093500381E08093490383E014C070939B
:1005200048036093470381E080934A030CC080E155
:1005300033D011C081E080934B0370934D036093DF
:100540004C0309C082E0806480937C0080917A0033
:10055000806480937A00FF91EF91BF91AF919F915A
:100560008F917F916F915F914F913F912F910F905C
:100570000FBE0F901F901895E82F8FB7F894F0E0FA
:100580008FBFEC5AFC4F818190E0208130E0322F08
:100590002227822B932B08952FB7F894E4E5F3E0FC
:1005A000E80FF11D872F9927808361832FBF08955E
:1005B00080919303893010F01092930390919303EC
:1005C000E92FF0E0E050FF4F80819F5F909393030D
:1005D00008950E940D110E946A0D0C94B6138FE3CA
:1005E000E4E5F3E0DF011D928A95E9F791E090934D
:1005F00054039093550383E08093560390935703DD
:10060000109293030C94BB13F999FECF92BD81BD58
:10061000F89A80B50895F999FECF1FBA92BD81BDB1
:1006200060BD0FB6F894FA9AF99A0FBE0895A2E049
:10063000B0E0EDE1F3E00C94F11C0CE813E094E081
:10064000F80181918F01980FF3E004391F07C1F77A
:100650009A8384E0898380E090E0BE016F5F7F4FE2
:1006600042E050E02BE033E00E946D1C0850104047
:1006700082E090E0B80148E050E02BE033E00E94D7
:100680006D1C04EF13E094E0F80181918F01980F45
:10069000F4E003321F07C1F799838AE090E0BE01BE
:1006A0006F5F7F4F41E050E02BE033E00E946D1C14
:1006B0008BE090E0B8016F5270404FE250E02BE0C9
:1006C00033E00E946D1C0F5E1F4F94E0F801819192
:1006D0008F01980FF4E004341F07C1F799838BE36F
:1006E00090E0BE016F5F7F4F41E050E02BE033E0D0
:1006F0000E946D1C8CE390E0B8016051704040E1B5
:1007000050E02BE033E00E946D1C81E02296E4E093
:100710000C940D1DA2E0B0E0E0E9F3E00C94F11CB4
:10072000CE01019660E070E042E050E024E033E06A
:100730000E94531C8981843009F05CC08CE893E0EE
:1007400062E070E048E050E024E033E00E94531C97
:100750002A81ECE8F3E094E08191980F83E0E4399A
:10076000F807D1F7291709F045C0CE0101966AE0D4
:1007700070E041E050E024E033E00E94531C84EF3D
:1007800093E06BE070E04FE250E024E033E00E9441
:10079000531C298104EF13E094E0F80181918F014B
:1007A000980FF4E003321F07C1F7291719F5CE019E
:1007B00001966BE370E041E050E024E033E00E94FA
:1007C000531CC80141966CE370E040E150E024E026
:1007D00033E00E94531C2981F801719694E08191C5
:1007E000980F84E0E434F807D1F780E0291719F472
:1007F00081E001C080E02296E4E00C940D1DA0E1B0
:10080000B0E0E5E0F4E00C94EF1C8E010F5F1F4FA9
:10081000C8016FEF70E040E150E00E944C1CEE24F4
:10082000FF24C701B80140E150E02BE033E00E9413
:100830006D1C80E190E0E80EF91E90E0E91692E070
:10084000F90679F781E06096E6E00C940B1DF894C8
:1008500084B7877F84BFE0E6F0E080818861808391
:1008600010827894089580915903982F9E7F9093D9
:10087000590380640E941E0FF89488E880936000FA
:100880007894FFCF90919D0380919403981718F46A
:100890008150891B0895895F891B0895A8E0B0E005
:1008A000E4E5F4E00C94E71C9C018091590382FF7D
:1008B00041C19091940380919D03981789F41092FF
:1008C000950310929603109297031092980310923A
:1008D000990310929A0310929B0310929C03EEC00E
:1008E00040E050E08091950390919603A09197038A
:1008F000B0919803820F931FA41FB51F8093950397
:1009000090939603A0939703B09398030F2EF0E073
:100910006F2EF0E07F2EF0E08F2EF0E09F2EF02D76
:10092000B8C02E193F09400B510B2093950330930B
:100930009603409397035093980380919903909165
:100940009A03A0919B03B0919C038E199F09A00B61
:10095000B10B8093990390939A03A0939B03B09358
:100960009C03909194039F5F977090939403809160
:100970009D03292F30E09817E1F5C901880F991FD1
:10098000FC0163E0EE0FFF1F6A95E1F7E81BF90B2E
:10099000E75DFD4FE280F3800481158100D000D037
:1009A000EDB7FEB7618272828382948280E090E02C
:1009B00060E070E0A80197010F2EF0E0AF2EF0E0AC
:1009C000BF2EF0E0CF2EF0E0DF2EF02D0E941B11A5
:1009D0001092950310929603109297031092980329
:1009E0001092990310929A0310929B0310929C0309
:1009F00040C09F5F9770892F90E000D000D0880F93
:100A0000991FDC0143E0AA0FBB1F4A95E1F7A81B21
:100A1000B90BA75DBD4F6D917C911197C901880FEE
:100A2000991FFC0123E0EE0FFF1F2A95E1F7E81B59
:100A3000F90BE75DFD4F2281338144815581129688
:100A4000ED90FD900D911C911597A284B384C48400
:100A5000D58416968D919D910D90BC91A02DEDB7EA
:100A6000FEB781839283A383B48380E090E00E94E9
:100A70001B110F900F900F900F9090919D038091FC
:100A80009403981710F4815001C0895F891B8093EB
:100A900066032091950330919603409197035091FE
:100AA00098038091B2039091B3037C0100E010E0C1
:100AB000E216F3060407150708F433CF8091950377
:100AC00090919603BE016F5F7F4FAE014B5F5F4F0A
:100AD0000E94DE116D817E818F81988520E030E05B
:100AE00040E251E40E94EF166D837E838F839887E6
:100AF00069817A818B819C8120E030E040E05FE376
:100B00000E94C8160E9491199B01AC0180E2B901B4
:100B100043DD6D817E818F81988520E030E040E06B
:100B20005FE30E94C8160E9491199B01AC0182E20A
:100B3000B90132DD2896EEE00C94031D86E260E0F8
:100B400070E02ADD88E260E070E026DD8AE260E0A5
:100B500070E022DD84E260E070E01EDD1092800330
:100B600090919D0380919403981710F4815001C0D7
:100B7000895F891B809366030895AF92BF92CF92DD
:100B8000DF92EF92FF920F931F93109295031092B2
:100B90009603109297031092980310929903109263
:100BA0009A0310929B0310929C0310929D03109243
:100BB000940310922A0210922902AA2797FDA09569
:100BC000BA2FBC01CD010E9437197B018C016093C3
:100BD0002B0270932C0280932D0290932E0280E0C2
:100BE00090E0A0E0B0E080932F0290933002A093B9
:100BF0003102B09332028093330290933402A09377
:100C00003502B093360200D000D0EDB7FEB7818335
:100C10009283A383B48380E090E060E070E0A80159
:100C200097010F2EF0E0AF2EF0E0BF2EF0E0CF2EB8
:100C3000F0E0DF2EF02D0E941B110F900F900F900F
:100C40000F907CDF1F910F91FF90EF90DF90CF907E
:100C5000BF90AF900895AF92BF92CF92DF92EF9284
:100C6000FF920F931F931092950310929603109288
:100C70009703109298031092990310929A0310927E
:100C80009B0310929C0310929D0310929403109268
:100C90002A021092290280E090E0A0E0B4E4809360
:100CA0002B0290932C02A0932D02B0932E0280E091
:100CB00090E0A0E0B0E080932F0290933002A093E8
:100CC0003102B09332028093330290933402A093A6
:100CD0003502B093360200D000D0EDB7FEB7818365
:100CE0009283A383B48380E090E060E070E020E032
:100CF00030E040E054E479018A010F2EF0E0AF2E9D
:100D0000F0E0BF2EF0E0CF2EF0E0DF2EF02D0E94BD
:100D10001B110F900F900F900F9010DF1F910F91EC
:100D2000FF90EF90DF90CF90BF90AF9008956F92BB
:100D30007F929F92AF92BF92CF92DF92EF92FF92FB
:100D40000F931F93CF93DF9390909D03939487E02D
:100D5000982280919403981609F49DC086E20CDCD9
:100D60007C0188E209DC5C018AE206DC3C0184E269
:100D700003DCEC01009709F48EC0892D90E0880F08
:100D8000991F8C01E3E0000F111FEA95E1F7081BA2
:100D9000190B075D1D4FF801D183C083B701882768
:100DA00077FD8095982F0E9437196B017C01F8011F
:100DB0006283738384839583B501882777FD80954B
:100DC000982F0E94371920E030E040E85AE30E9453
:100DD000EF16F8016683778380879187B3018827B0
:100DE00077FD8095982F0E94371920E030E040E889
:100DF0005AE30E94EF16F80162877387848795870C
:100E00009091940380919D03981749F500D000D0EC
:100E10002091A8033091A9034091AA035091AB03FC
:100E200080E090E0A0E0B0E0EDB7FEB78183928370
:100E3000A383B48380E090E0BE01870176010F2E8A
:100E4000F0E0AF2EF0E0BF2EF0E0CF2EF0E0DF2E8E
:100E5000F02D0E941B110F900F900F900F909E018C
:100E600040E050E08091990390919A03A0919B03F8
:100E7000B0919C03820F931FA41FB51F8093990309
:100E800090939A03A0939B03B0939C0390929D032D
:100E900055DE81E001C080E0DF91CF911F910F917D
:100EA000FF90EF90DF90CF90BF90AF909F907F909A
:100EB0006F9008958FEF809309010895A0E0B0E04E
:100EC000E4E6F7E00C94E31C2C011B018091450340
:100ED000909146039C0140E050E0B3E0220F331FA5
:100EE000441F551FBA95D1F72C5F3F4F4F4F5F4FAF
:100EF000809109018F3F41F42093990230939A0227
:100F000040939B0250939C02220F331F441F551F96
:100F10008091990290919A02A0919B02B0919C02BB
:100F2000280F391F4A1F5B1FCA01B90123E030E0B7
:100F300040E050E00E94C81C209307033093080350
:100F40004093090350930A03809159038170809361
:100F5000F602F1011082C2016DE972E00E94C9142B
:100F60009093FA028093F9022091A1023091A2029B
:100F7000821B930B97FD03C001E010E002C00FEF4E
:100F80001FEF80E061E00E94791363EA72E00E9443
:100F9000C9149C01209FC001219F900D309F900D8E
:100FA00011249093F8028093F7028091F9029091B6
:100FB000FA029093A2028093A10280E2DDDA90937C
:100FC00004038093030382E2D7DA9093FE028093B6
:100FD000FD028091F50390E0909306038093050352
:100FE00081E068E00E9479139C019093FC02809359
:100FF000FB0280910303909104038217930724F46A
:10100000309304032093030381E06AE00E94791384
:101010009C019093FC028093FB02809103039091CA
:1010200004032817390724F430930403209303039F
:101030008091030390910403AA2797FDA095BA2FEE
:10104000F4E0880F991FAA1FBB1FFA95D1F70896E5
:10105000A11DB11D8093FF0290930003A093010393
:10106000B0930203809109018F3FE1F4809107035F
:1010700090910803A0910903B0910A038093A702FD
:101080009093A802A093A902B093AA025092AC0236
:101090004092AB028093990290939A02A0939B0294
:1010A000B0939C028091AD029091AE020196909314
:1010B000AE028093AD021816190634F08FEF9FE749
:1010C0009093AE028093AD02A0900703B090080306
:1010D000C0900903D0900A03E090AF02F090B002F4
:1010E0000091B1021091B202350146016E187F08DD
:1010F000800A910AC091AD02D091AE029E014427B0
:1011000037FD4095542FC401B3010E94C81C2093A1
:10111000B3023093B4024093B5025093B602AE14BA
:10112000BF04C006D10609F461C02397BCF4C40112
:10113000B30197FE07C090958095709561957F4F9C
:101140008F4F9F4FE4E09595879577956795EA9542
:10115000D1F7633071058105910584F01092AE02DC
:101160001092AD02A092AF02B092B002C092B10252
:10117000D092B20281E08093B70227C01091B702EB
:10118000111604F5220F331F441F551F6091B8023A
:101190007091B9028091BA029091BB02620F731FE5
:1011A000841F951F23E030E040E050E00E94C81CFF
:1011B0002093B3023093B4024093B5025093B60229
:1011C00012301CF41F5F1093B7028091B30290910C
:1011D000B402A091B502B091B6028093B802909388
:1011E000B902A093BA02B093BB0237C06091FD026E
:1011F0007091FE026031710574F4CB01AA2797FD4E
:10120000A095BA2F8093B3029093B402A093B50235
:10121000B093B60222C08091B7028B30F4F0220F57
:10122000331F441F551F6091B8027091B90280911D
:10123000BA029091BB02620F731F841F951F23E0B7
:1012400030E040E050E00E94C81C2093B30230938D
:10125000B4024093B5025093B602A0920A01B09234
:101260000B01C0920C01D0920D0134E0D594C794CB
:10127000B794A7943A95D1F788E0B5018DD98091BC
:10128000B3029091B4026CEB72E00E94C914BC01ED
:101290008AE082D9C0910303D091040380910E01AA
:1012A00090910F018C179D0731F49091C0028091AD
:1012B000F602981719F081E08093090180910901E5
:1012C000882309F44EC05092110140921001809180
:1012D0000A0190910B01A0910C01B0910D01809336
:1012E000C1029093C202A093C302B093C40281E0F2
:1012F0008093C5028091FD029091FE0290931301AC
:101300008093120181E090E0909315018093140185
:101310001092C60280E090E0A0E0B0E08093CB02A3
:101320009093CC02A093CD02B093CE028093CF02D3
:101330009093D002A093D102B093D2021092D30224
:101340001092D4021092D5021092D6021092090186
:1013500050921701409216015092D8024092D70243
:101360002CC08091160190911701841595052CF4DD
:1013700050921701409216010BC08091D7029091B4
:10138000D8024816590624F45092D8024092D70247
:101390002091FD023091FE02809118019091190177
:1013A0002817390751F0309313012093120181E07F
:1013B00090E09093150180931401E090FF02F0906B
:1013C00000030091010310910203A0900A01B09064
:1013D0000B01C0900C01D0900D01A80197012A19B2
:1013E0003B094C095D092093EE023093EF024093D4
:1013F000F0025093F102E0910503F0910603882773
:1014000099278E1B9F0BAA2797FDA095BA2F281707
:1014100039074A075B071CF480E090E00FC060E0EA
:10142000CF01AA2797FDA095BA2F82179307A4078B
:10143000B5070CF461E081E06827862F982E809331
:10144000E9028091C602882389F52091100130912C
:101450001101C217D307B4F08091070390910803DC
:10146000A0910903B0910A038E159F05A007B1074B
:101470001CF081E090E018C02C173D071CF480E0C0
:1014800090E012C020E030E08091070390910803C3
:10149000A0910903B0910A03E816F9060A071B0791
:1014A00014F021E030E0C9018093C6028091C502AA
:1014B0008823E1F19920C1F58091C6028823A1F526
:1014C0008091FD029091FE028050904869F18091D8
:1014D0001001909111018C179D0794F48091B30233
:1014E0009091B402A091B502B091B6028A0D9B1DF5
:1014F000AC1DBD1D8E159F05A007B107ACF416C02D
:10150000C817D9079CF48091B3029091B402A091BE
:10151000B502B091B6028A0D9B1DAC1DBD1DE8162B
:10152000F9060A071B0714F01092C5028091C50244
:10153000882309F477C080911001909111018C17D4
:101540009D0754F58091120190911301AA2797FDF0
:10155000A095BA2F2091C1023091C2024091C302DE
:101560005091C402820F931FA41FB51F8093C10224
:101570009093C202A093C302B093C4022091FF02D1
:1015800030910003409101035091020382179307A9
:10159000A407B5077CF12CC0C817D9075CF580916A
:1015A000120190911301AA2797FDA095BA2F2091BF
:1015B000C1023091C2024091C3025091C402281B63
:1015C000390B4A0B5B0B2093C1023093C20240934C
:1015D000C3025093C4028091FF0290910003A09136
:1015E0000103B091020382179307A407B50714F013
:1015F0001092C5028091C5028823A1F08091C1029A
:101600009091C202A091C302B091C4028A199B09B1
:10161000AC09BD098093EE029093EF02A093F00213
:10162000B093F1028DEC9CECACECBDE38093E50251
:101630009093E602A093E702B093E8028091EE0255
:101640009091EF02A091F002B091F10224E0880F96
:10165000991FAA1FBB1F2A95D1F78093EE02909382
:10166000EF02A093F002B093F102A090EE02B090CE
:10167000EF02C090F002D090F102C601B5010E94C5
:10168000371920E030E040E85BE30E94EF167B0171
:101690008C016093EA027093EB028093EC029093CA
:1016A000ED022091CF023091D0024091D1025091B1
:1016B000D2020E949D162DEC3CEC4CEC5DE30E94A6
:1016C000E4176093C7027093C8028093C902909395
:1016D000CA02992029F4A114B104C104D10461F40F
:1016E0008091D3029091D402A091D502B091D602FC
:1016F0000097A105B10521F08091F602882329F415
:1017000080E090E0A0E0B0E03BC0C801B7012091CC
:10171000E5023091E6024091E7025091E8020E9412
:10172000EF162091CB023091CC024091CD02509126
:10173000CE020E94C8167B018C016093CB0270938D
:10174000CC028093CD029093CE0220E030E040E8BE
:1017500053EC0E94E11888232CF480E090E0A0E88C
:10176000B3EC0EC0C801B70120E030E040E853E41C
:101770000E948B18181664F480E090E0A0E8B3E4AF
:101780008093CB029093CC02A093CD02B093CE0273
:1017900081E062E0AED7A0E0B0E0BC01CD010E94E4
:1017A000E21920E030E040E85BE30E94EF16209170
:1017B000EA023091EB024091EC025091ED020E945E
:1017C000EF167B018C0181E066E093D7A0E0B0E0EA
:1017D000BC01CD010E94E21920E030E040E85BE36B
:1017E0000E94EF162091CB023091CC024091CD02A5
:1017F0005091CE020E94EF169B01AC01C801B701C7
:101800000E94C8167B018C0181E064E072D7A0E0E1
:10181000B0E0BC01CD010E94E21920E030E040E8D8
:101820005BE30E94EF162091C7023091C8024091FD
:10183000C9025091CA020E94EF169B01AC01C80177
:10184000B7010E94C8167B018C016093E10270937E
:10185000E2028093E3029093E40220E030E040E073
:1018600050E00E948B1818164CF4C801B70120E014
:1018700030E040E05FE30E94C81612C0C801B70123
:1018800020E030E040E050E00E94E118882384F43A
:10189000C801B70120E030E040E05FE30E949D1600
:1018A0006093E1027093E2028093E3029093E4027A
:1018B000E090E102F090E2020091E3021091E40274
:1018C000C801B70120E030E04FE753E40E94B618AA
:1018D00088232CF08FEF90E0A0E0B0E037C0C80183
:1018E000B70120E030E04FE753EC0E940C191816C6
:1018F0002CF081E09FEFAFEFBFEF28C0C801B70128
:101900000E9491196093F2027093F3028093F402A3
:101910009093F5026115710581059105F9F48091A7
:10192000EE029091EF02A091F002B091F102B7FFA8
:1019300005C08FEF9FEFAFEFBFEF08C00097A10585
:10194000B10561F081E090E0A0E0B0E08093F202A8
:101950009093F302A093F402B093F5026091F20227
:101960007091F3028091F4029091F5020E94371970
:101970009B01AC01C801B7010E949D166093D9027A
:101980007093DA028093DB029093DC028091E9028B
:10199000882321F48091F6028823E1F480E090E02E
:1019A000A0E0B0E08093D9029093DA02A093DB022A
:1019B000B093DC028093CB029093CC02A093CD0233
:1019C000B093CE021092F2021092F3021092F4023F
:1019D0001092F5028091C602882379F08091F2027C
:1019E0009091F302A091F402B091F5020097A10545
:1019F000B10519F481E0F10180835092AC0240926C
:101A0000AB028091070390910803A0910903B09164
:101A10000A038093990290939A02A0939B02B09339
:101A20009C02809103039091040390930F01809393
:101A30000E018091FD029091FE0290931901809316
:101A400018018091F2029091F302A091F402B091FA
:101A5000F5028093DD029093DE02A093DF02B09343
:101A6000E00220910A0130910B0140910C0150914C
:101A70000D012093A7023093A8024093A90250932E
:101A8000AA022091F6022093C0022091EA0230912E
:101A9000EB024091EC025091ED022093CF02309383
:101AA000D0024093D1025093D2022091EE023091A5
:101AB000EF024091F0025091F1022093D302309353
:101AC000D4024093D5025093D602CDB7DEB7E2E1FF
:101AD0000C94FF1C80E18093F50381E062E040E616
:101AE00054E026D681E064E040E451E021D681E074
:101AF00066E040E850E01CD681E068E048E250E053
:101B000017D681E06AE046EB53E012C620910B0342
:101B1000E22FF0E0EE0FFF1FE45FFC4F9183808324
:101B20002F5F277020930B03ECE0F3E060E070E0A0
:101B300081919191680F791F83E0EC31F807C1F72B
:101B400083E0769567958A95E1F78CE00C94CC025A
:101B500010920B03ECE0F3E01192119283E0EC3170
:101B6000F807D1F78CE060E070E00C94CC02EAEB6F
:101B7000F0E0808181608083809159038860809348
:101B800059030895EAEBF0E080818E7F8083809195
:101B90005903877F809359030895809159038F7D5E
:101BA00080935903109281030895809159038062B4
:101BB000809359030895809159038061809359035C
:101BC0000895809159038F7E809359030895109250
:101BD0001F0310921E03880FEAEBF0E080838081E0
:101BE0008E7F80838091590310928103877C80933C
:101BF00059038FEF8093BB0085EC8093BC00089560
:101C000090911E0380911F039817D1F380911F03B9
:101C10008F5F837080931F03E0911F03F0E0E05E0D
:101C2000FC4F8081089590911E0380911F0320E056
:101C3000981321E0822F08951F920F920FB60F92F2
:101C400011242F933F934F935F936F937F938F93C1
:101C50009F93AF93BF93EF93FF938091B90088391F
:101C600009F4D8C08939B0F4803709F460C08137ED
:101C700038F4882309F4CCC0803609F0CBC057C0B3
:101C8000883809F4C7C0803909F454C0803809F095
:101C9000C1C050C0883B81F0893B38F4803A09F4D8
:101CA000B9C0883A09F0B6C007C0883C09F4B2C090
:101CB000883F09F0AFC0B1C080911C0390918303AD
:101CC0008F77803458F4813021F40E94D802E82FB5
:101CD00026C0E82FF0E0EC5AFC4F20C0923091F47F
:101CE000803530F48054E82FF0E0EC5CFB4F16C0F8
:101CF000803640F48055E82FF0E0EC5CFB4F8081AB
:101D00008035F0F28054E92FF0E096E0EE0FFF1FEF
:101D10009A95E1F7E80FF11DEC54FC4FE0818091BA
:101D20001C038F5F80931C03E093BB0073C0109271
:101D30001D0370C04091BB0080911D03882321F0DA
:101D4000813009F067C015C047FD06C040931C03F1
:101D500081E080931D035EC080911E038F5F8370BE
:101D600080931E03E0911E03F0E0E05EFC4F408391
:101D700051C090911C0380915903282F30E02270AC
:101D80003070809183039F779032E0F1983330F484
:101D90009F3261F4433050F042E008C02115310514
:101DA00019F4903440F42EC0903428F4E92FF0E078
:101DB000EC5AFC4F26C0813019F08230B1F403C0D8
:101DC000232B01F112C0903530F49054E92FF0E04C
:101DD000EC5CFB4F16C0903640F49055E92FF0E0D4
:101DE000EC5CFB4F9081903570F29054E82FF0E05E
:101DF00086E0EE0FFF1F8A95E1F7E90FF11DEC5425
:101E0000FC4F408380911C038F5F80931C0302C0B2
:101E100085ED01C085EC8093BC00FF91EF91BF91EF
:101E2000AF919F918F917F916F915F914F913F9172
:101E30002F910F900FBE0F901F901895982FF89428
:101E400080912403882321F4809125038823D1F0F5
:101E50008BB180698BB91092800085B1897F85B97B
:101E600080E002C000008F5F8431E1F7992319F010
:101E70008BB18C6002C08BB1837F8BB9109224032D
:101E800010922503109289001092880010928B0006
:101E900010928A0078940895A0E0B0E0E2E5FFE0B7
:101EA0000C94ED1C6C01EB01E42E81E06DE021D47B
:101EB00020912603309127038217930739F49091DC
:101EC000030480912803981709F45FC08BB1837FC6
:101ED0008BB980E002C000008F5F8431E1F785B1EB
:101EE000897F85B9809180008F7380938000809175
:101EF00080008F7C80938000109224031092250331
:101F000081E06DE0F6D39093270380932603F09051
:101F10000304F09228038C0134E0000F111F3A955E
:101F2000E1F701501040A0E0B0E024E0880F991FD5
:101F3000AA1FBB1F2A95D1F70197A109B109BC01BE
:101F4000CD0124E630E040E050E00E94A61CCA012A
:101F5000B90124E630E02F193109442737FD4095B7
:101F6000542F0E94871C060F171F109387000093A1
:101F700086001092850010928400109289001092C1
:101F8000880010928B0010928A0081E068E0B1D343
:101F90008C0181E06AE0ADD3980144E00030140781
:101FA00010F02FEF33E0C216D30620F4D7FF02C0A3
:101FB000C0E0D0E024E08030920710F08FEF93E093
:101FC0008C159D0528F41C161D0614F4C0E0D0E005
:101FD0008091590380FD04C0A0E4EA2EE8228FC05E
:101FE000D7FF47C0CE018195682F209126033091FD
:101FF0002703F894809124038823B9F48BB1806976
:102000008BB95B981092800085B1897F85B980E09B
:1020100002C000008F5F8431E1F78091800080680A
:10202000809380005A9A10922503609324031092A3
:102030008B0010928A0070E080E090E040E050E079
:10204000F4E0220F331F441F551FFA95D1F721509A
:102050003040404050400E94871C2FEF30E040E06D
:1020600050E00E94A61C3093890020938800789449
:1020700048C0209709F443C06C2F2091260330916B
:102080002703F894809125038823A9F48BB18069F4
:102090008BB95A981092800085B1897F85B980E00C
:1020A00002C000008F5F8431E1F780E280938000FE
:1020B0005B9A10922403609325031092890010927A
:1020C000880070E080E090E040E050E0E4E0220F23
:1020D000331F441F551FEA95D1F72150304040402F
:1020E00050400E94871C2FEF30E040E050E00E94FB
:1020F000A61C30938B0020938A00789402C08E2D0A
:102100009DDE809124038093620380912503809358
:102110006303CDB7DEB7E8E00C94091DBF92CF9200
:10212000DF92EF92FF920F931F9381E06DE0E1D277
:102130009093270380932603B0900304B092280362
:102140002BB1237F2BB92BB120692BB92AB12C6974
:102150002AB925B1297F25B924B1266024B9109266
:1021600085001092840070E8E72EF12CF7011082B0
:1021700061E8C62ED12CF6011082109282001092D6
:102180006F008C0154E0000F111F5A95E1F70150C8
:102190001040A0E0B0E044E0880F991FAA1FBB1FC9
:1021A0004A95D1F70197A109B109BC01CD0124E6F7
:1021B00030E040E050E00E94A61CCA01B90124E6CC
:1021C00030E02B193109442737FD4095542F0E94E8
:1021D000871C060F171F109387000093860010922C
:1021E00089001092880010928B0010928A00F701EB
:1021F000108281E1F60180831092620310926303E2
:10220000E9E5F3E08081806480831F910F91FF9066
:10221000EF90DF90CF90BF90089581E06DE040E6B1
:1022200050E086D280E68093030480915903806455
:10223000809359030895A0E0B0E0E1E2F1E10C944D
:10224000E31C2093390330933A0340933B035093AC
:102250003C039093B1038093B0037093A303609306
:10226000A203681B790B7093B3036093B20380E001
:1022700090E00E94E2193B014C01609329037093A6
:102280002A0380932B0390932C03C601B501A4016C
:102290009301A5D51B012C016D897E898F89988DAD
:1022A000A40193019CD53B014C018091390390918D
:1022B0003A03A0913B03B0913C0380939E0390931B
:1022C0009F03A093A003B093A103E092A803F09210
:1022D000A9030093AA031093AB032092AC0330929E
:1022E000AD034092AE035092AF036092A40370928C
:1022F000A5038092A6039092A703BC01CD019B0188
:10230000AC0146D55B016C01C801B70120E030E0AB
:1023100040E050EC64D59B01AC01C601B50138D555
:10232000A201910135D5A401930132D560932D030B
:1023300070932E0380932F039093300360913903A1
:1023400070913A0380913B0390913C0320E030E090
:1023500040E450EC44D55B016C01C801B70120E0BA
:1023600030E040E450E43BD59B01AC01C601B5012F
:102370000FD57B018C01C201B10120E030E040E0CB
:1023800050EC2DD59B01AC01C801B70101D5A401CA
:102390009301D3D46093310370933203809333035A
:1023A00090933403209235033092360340923703E2
:1023B000509238032096E2E10C94FF1CA0E1B0E0BB
:1023C000E4EEF1E10C94E31C9C01788B6F875E874F
:1023D0004D874091B0035091B10348175907C8F099
:1023E00080919E0390919F03A091A003B091A103BF
:1023F000FB0180839183A283B3832417350708F1FF
:102400008091AC039091AD03A091AE03B091AF0366
:1024100025C06091A2037091A3038617970728F146
:102420008091A8039091A903A091AA03B091AB0356
:10243000EF85F88980839183A283B3836217730742
:1024400028F480E090E0A0E0B0E008C08091A40310
:102450009091A503A091A603B091A703ED85FE85F9
:1024600080839183A283B3839FC08091290390913D
:102470002A03A0912B03B0912C0389879A87AB87FD
:10248000BC87241B350BB90180E090E09BD72985E0
:102490003A854B855C8598D55B016C01A601950159
:1024A0009ED43B014C0180912D0390912E03A0916D
:1024B0002F03B09130038D839E83AF83B887209024
:1024C00031033090320340903303509034038091B5
:1024D000350390913603A0913703B0913803898377
:1024E0009A83AB83BC83C401B301A601950177D461
:1024F0009B01AC016D817E818F81988570D47B01B9
:102500008C01C201B101A401930169D49B01AC010A
:10251000C801B7013DD47B018C0169817A818B812F
:102520009C81A60195015BD49B01AC01C801B70158
:102530002FD42091390330913A0340913B035091BD
:102540003C0326D4AF85B8896D937D938D939C937E
:1025500013976D817E818F81988520E030E040E483
:1025600050E43DD4A40193013AD47B018C01C20113
:10257000B101A20191010CD4A601950130D49B01B7
:10258000AC01C801B70104D429813A814B815C8137
:10259000FFD329853A854B855C8516D5ED85FE856B
:1025A00060837183828393836096E2E10C94FF1CC5
:1025B000089583E080931E0480931F040895F89487
:1025C000E0E8F0E0808180933D0380818F73808319
:1025D00080818F7C808378940895F89480913D0366
:1025E0008093800078940895F894882329F46623D2
:1025F00039F05C985F9A04C0662311F45F985C9A86
:1026000020911F0490E035E604C0832F8A95F1F7EE
:102610009F5F9217D0F38BB180698BB9789487E074
:102620000E94ED0180914B038823E1F310924B034C
:1026300080914C0390914D0308958F929F92AF9299
:10264000BF92CF92DF92EF92FF920F931F938090F1
:1026500062039090630360911E0470E080E090E05C
:10266000B1D65B016C0120E030E04AEF54E4B7D30F
:102670007B018C0120E030E040E85FE3A2D58823B5
:102680001CF461E070E020C0C801B70120E03FEF1A
:102690004FE757E440D51816A4F4C601B50120E071
:1026A00030E040E251E49BD3D6D188EC90E005C005
:1026B000FC013197F1F76150704061157105C1F768
:1026C00006C0C801B701C7D1CB010197F1F7882D2A
:1026D000692D8ADFAC0180E061E02AD01F910F9163
:1026E000FF90EF90DF90CF90BF90AF909F908F9032
:1026F0000895282F8FB7F89430E070E08FBFA4EBD7
:10270000B3E056E0220F331F5A95E1F7FD01E20FC7
:10271000F31FE60FF71F818190E0260F371FA20FEE
:10272000B31F2C9130E0322F2227822B932B089558
:102730001F931FB7F89490E070E0A4EBB3E036E08D
:10274000880F991F3A95E1F7FC01E60FF71FEA0F92
:10275000FB1F252F33272083A80FB91FA60FB71FF4
:1027600011964C931FBF1F910895089580E18093A7
:10277000F403F5D01ECF80E4E4EBF3E0DF01982F03
:102780001D929A95E9F7E4EFF3E0DF01982F1D928F
:102790009A95E9F7E4E3F4E0DF011D928A95E9F701
:1027A000109283030E948A03882311F40C94E90297
:1027B00008951092B40310923F0310923E03249A9E
:1027C0002C988FEF8093120408959C0180913E0312
:1027D00090913F032115310539F0880F991FA90108
:1027E000481B590BCA010895880F991F08952C9A08
:1027F0000895809112049091B403892309F42C98D0
:10280000089590911304982309F091E0892F089579
:1028100021E030E002C0220F331F8A95E2F72095B5
:102820008091B40328232093B403089521E030E07D
:1028300002C0220F331F8A95E2F78091B403822BE6
:102840008093B4030895A0E0B0E0E9E2F4E10C94D1
:10285000E71C80911304882311F42A9B7BC080E13C
:102860000E94BC025C018CE00E94BC0283E10E94D9
:10287000BC023C0181E062E13CDF7C0181E064E17B
:1028800038DF8C0181E066E134DF6C0181E060E1DA
:1028900030DF88E00E94BC024C0180E20E94BC0252
:1028A000EC019091130490FF15C0EA14FB0438F476
:1028B000E114F10421F08091B403826009C0A016F4
:1028C000B10640F40115110529F08091B40384602C
:1028D0008093B403C614D70490F4C114D10479F0E2
:1028E000937069F08091B40388608093B403809101
:1028F0005903982F9E7F9093590380649FDACE01ED
:1029000002968815990520F022978C169D0658F49A
:102910008091130482FF07C08091B403806180938B
:10292000B4032C9A05C08091B4038F7E8093B403C6
:10293000809112049091B403892309F42C9880911A
:102940003E0390913F03009729F0019790933F0336
:1029500080933E03CDB7DEB7EEE00C94031D81E01B
:1029600062E140E050E0E4DE81E064E140E050E01C
:10297000DFDE81E066E140E050E0DADE81E060E148
:1029800040E050E0D5DE8FEF809313048093120473
:102990000895FB012081318142815381AA2797FD4F
:1029A000A095BA2F820F931FA41FB51F62E0559503
:1029B0004795379527956A95D1F7821B930BA40B02
:1029C000B50B80839183A283B38322E0B595A7954D
:1029D000979587952A95D1F708951092740483E00E
:1029E00085BB92E090936E0016BC83EC87BD18BC4B
:1029F00094BD85E085BD08951F920F920FB60F928A
:102A000011242F933F934F935F936F937F938F93F3
:102A10009F93AF93BF93EF93FF9386E00E94BC0216
:102A2000BC016F5F7F4F86E00E94CC0216BC81E044
:102A300080937404FF91EF91BF91AF919F918F911B
:102A40007F916F915F914F913F912F910F900FBEAA
:102A50000F901F901895EF92FF920F931F937B0199
:102A60008C0120E030E040E05FE480D388237CF0FC
:102A7000C801B70120E030E040E05FE45ED151D40E
:102A80009B01AC01205030404040504805C0C80177
:102A9000B70147D49B01AC01B901CA011F910F9145
:102AA000FF90EF900895A0E0B0E0E8E5F5E18BC776
:102AB000DC012B01FA019C91923008F439C1EB0141
:102AC0008881823008F433C1943069F4843009F08D
:102AD0002FC111969C9111978981981709F428C1EB
:102AE000AAE1B1E025C1843009F421C18230A9F402
:102AF000923009F01DC19A01AD0188E0EA01099008
:102B0000AE01E90109929E018150C1F7E20189817C
:102B100011969C918923818308C1923009F407C1E1
:102B200012962D903C901397EB018A819B8114960D
:102B3000AD90BD90CD90DC901797EC80FD800E811C
:102B40001F819101281B390BB90137FF04C066278B
:102B50007727621B730B603271050CF061C012168F
:102B600013066CF537014801062E04C0969487942D
:102B7000779467940A94D2F721E030E040E050E087
:102B800004C0220F331F441F551F6A95D2F72150EE
:102B90003040404050402E213F21402351232115F9
:102BA00031054105510521F021E030E040E050E0E1
:102BB00079018A01E628F728082919293CC0232B26
:102BC000D1F1260E371E35014601062E04C096941B
:102BD0008794779467940A94D2F721E030E040E03C
:102BE00050E004C0220F331F441F551F6A95D2F7CF
:102BF00021503040404050402A213B214C215D2152
:102C0000211531054105510521F021E030E040E07A
:102C100050E059016A01A628B728C828D9280BC056
:102C2000821593052CF01C01AA24BB24650103C066
:102C3000EE24FF24870111969C91D20111968C916C
:102C4000981709F445C0992339F0A80197012A196A
:102C50003B094C095D0906C0A60195012E193F09E3
:102C6000400B510B57FD08C011823382228224830E
:102C70003583468357831DC081E08183338222825E
:102C800088279927DC01821B930BA40BB50B848347
:102C90009583A683B7830DC0220F331F441F551F92
:102CA000248335834683578382819381019793835D
:102CB00082832481358146815781DA01C9010197D8
:102CC000A109B1098F5F9F4FAF4FBF4328F30BC0DE
:102CD000918333822282EA0CFB1C0C1D1D1DE482B1
:102CE000F5820683178383E08083248135814681C2
:102CF000578157FF1AC0C901AA2797FDA095BA2F7F
:102D000081709070A070B070569547953795279553
:102D1000822B932BA42BB52B84839583A683B78317
:102D200082819381019693838283DF0101C0D20166
:102D3000CD01CDB7DEB7E2E162C6A0E2B0E0E2EAE3
:102D4000F6E14DC669837A838B839C832D833E8312
:102D50004F835887E9E0EE2EF12CEC0EFD1ECE01DC
:102D60000196B701C8D48E010F5E1F4FCE010596A4
:102D7000B801C1D48A8991E089278A8BC701B8013B
:102D8000AE01475E5F4F8FDEE1D3A096E6E043C61B
:102D9000A0E2B0E0EDECF6E122C669837A838B8392
:102DA0009C832D833E834F835887F9E0EF2EF12CCF
:102DB000EC0EFD1ECE010196B7019DD48E010F5E73
:102DC0001F4FCE010596B80196D4C701B801AE01D8
:102DD000475E5F4F68DEBAD3A096E6E01CC6A0E26D
:102DE000B0E0E4EFF6E1EFC569837A838B839C83DF
:102DF0002D833E834F835887CE010196BE01675FC6
:102E00007F4F79D4CE010596BE016F5E7F4F73D49C
:102E10009985923088F089898230C8F0943019F40D
:102E2000823051F404C0843029F4923081F48AE174
:102E300091E0C6C0923049F420E09A858A899813BF
:102E400021E02A87CE010996BBC0823049F420E0F8
:102E50009A858A89981321E02A8BCE014196B0C0C9
:102E60002D843E844F8458886D887E888F88988C06
:102E7000EE24FF248701AA24BB24650140E050E032
:102E800060E070E0E0E0F0E0C10181709070892BBB
:102E9000E9F0E60CF71C081D191D9A01AB012A0D7B
:102EA0003B1D4C1D5D1D80E090E0A0E0B0E0E6140D
:102EB000F7040805190520F481E090E0A0E0B0E0F7
:102EC000BA01A901480F591F6A1F7B1FAA0CBB1C1E
:102ED000CC1CDD1C97FE08C081E090E0A0E0B0E0D3
:102EE000A82AB92ACA2ADB2A3196E032F10549F02C
:102EF000660C771C881C991C569447943794279429
:102F0000C3CFFA85EA892B893C898B859C85280F5C
:102F1000391F2E5F3F4F17C0CA0181709070892BF7
:102F200061F016950795F794E79480E090E0A0E0B3
:102F3000B0E8E82AF92A0A2B1B2B76956795579556
:102F400047952F5F3F4F77FDE7CF0CC0440F551FCC
:102F5000661F771F17FD4160EE0CFF1C001F111F3D
:102F600021503040403090E0590790E0690790E4EC
:102F7000790760F32B8F3C8FDB01CA018F7790704C
:102F8000A070B07080349105A105B10561F447FDD2
:102F90000AC0E114F1040105110529F0405C5F4FFE
:102FA0006F4F7F4F40781A8EFE1711F081E08A8FA5
:102FB0004D8F5E8F6F8F78A383E0898FCE01499606
:102FC000C5D2A096E2E11BC5A8E1B0E0E9EEF7E1C9
:102FD00002C569837A838B839C832D833E834F83D1
:102FE0005887B9E0EB2EF12CEC0EFD1ECE010196B8
:102FF000B70181D38E010F5E1F4FCE010596B80138
:103000007AD32985223008F47EC03989323010F411
:10301000B8017CC08A859A8989278A87243011F073
:10302000223031F4231709F06EC06AE171E06EC0FE
:10303000343039F41D861E861F86188A1C861B862E
:1030400004C0323021F484E08987B7015FC02B854A
:103050003C858B899C89281B390B3C872B87ED8409
:10306000FE840F851889AD88BE88CF88D88CEA1475
:10307000FB040C051D0540F4EE0CFF1C001F111F86
:10308000215030403C872B8720E030E040E050E08A
:1030900080E090E0A0E0B0E460E070E0EA14FB04BF
:1030A0000C051D0540F0282B392B4A2B5B2BEA1809
:1030B000FB080C091D09B695A79597958795EE0C09
:1030C000FF1C001F111F6F5F7F4F6F31710531F7BC
:1030D000DA01C9018F779070A070B07080349105CB
:1030E000A105B10561F427FD0AC0E114F104010551
:1030F000110529F0205C3F4F4F4F5F4F20782D87FF
:103100003E874F87588BBE01675F7F4FCB011ED232
:103110006896EAE07CC4A8E1B0E0E0E9F8E15FC4C9
:1031200069837A838B839C832D833E834F83588767
:1031300089E0E82EF12CEC0EFD1ECE010196B701C0
:10314000DAD28E010F5E1F4FCE010596B801D3D2A1
:103150008985823038F08989823020F0C701B80132
:1031600042D301C08FEF6896E6E055C4A8E1B0E015
:10317000EBEBF8E134C469837A838B839C832D83E2
:103180003E834F83588789E0E82EF12CEC0EFD1E1C
:10319000CE010196B701AFD28E010F5E1F4FCE0157
:1031A0000596B801A8D28985823038F089898230A5
:1031B00020F0C701B80117D301C08FEF6896E6E091
:1031C0002AC4A8E1B0E0E6EEF8E109C469837A8395
:1031D0008B839C832D833E834F83588789E0E82E21
:1031E000F12CEC0EFD1ECE010196B70184D28E01AA
:1031F0000F5E1F4FCE010596B8017DD289858230C2
:1032000038F08989823020F0C701B801ECD201C0C2
:1032100081E06896E6E0FFC3A8E1B0E0E1E1F9E112
:10322000DEC369837A838B839C832D833E834F83A4
:10323000588789E0E82EF12CEC0EFD1ECE01019698
:10324000B70159D28E010F5E1F4FCE010596B8010E
:1032500052D28985823038F08989823020F0C701C6
:10326000B801C1D201C081E06896E6E0D4C3A8E00D
:10327000B0E0ECE3F9E1B0C39B01AC0183E08983EA
:10328000DA01C9018827B7FD83959927AA27BB27AB
:10329000B82E211531054105510519F482E08983C5
:1032A00039C08823A9F0203080E0380780E0480743
:1032B00080E8580729F460E070E080E09FEC2EC0C1
:1032C000EE24FF248701E21AF30A040B150B02C057
:1032D00079018A018EE1C82ED12CDC82CB82ED826D
:1032E000FE820F831887C801B701E1D00197181635
:1032F000190684F4082E04C0EE0CFF1C001F111FD9
:103300000A94D2F7ED82FE820F831887C81AD90A71
:10331000DC82CB82BA82CE01019618D12896E9E0F0
:1033200077C3ACE0B0E0E6E9F9E15DC369837A8395
:103330008B839C83CE010196BE016B5F7F4FDBD1F7
:103340008D81823061F1823050F1843021F48E81A0
:10335000882351F12EC02F81388537FD20C06E8122
:103360002F3131051CF06623F9F023C08EE190E087
:10337000821B930B29853A854B855C8504C0569545
:103380004795379527958A95D2F76623B1F05095E2
:103390004095309521953F4F4F4F5F4F0EC020E035
:1033A00030E040E050E009C02FEF3FEF4FEF5FE724
:1033B00004C020E030E040E050E8B901CA012C969A
:1033C000E2E02DC3A8E0B0E0E7EEF9E104C37B0141
:1033D0008C01611571058105910519F482E08983DD
:1033E0005FC083E089838EE1C82ED12CDC82CB8242
:1033F000ED82FE820F831887C801B70158D0FC0107
:103400003197F7FF3BC0222733272E1B3F0B570175
:103410006801022E04C0D694C794B794A7940A9466
:10342000D2F740E050E060E070E081E090E0A0E0A2
:10343000B0E004C0880F991FAA1FBB1F2A95D2F7BE
:103440000197A109B1098E219F21A023B1230097E3
:10345000A105B10521F041E050E060E070E04A29AB
:103460005B296C297D294D835E836F8378878EE18C
:1034700090E08E1B9F0B9C838B8312C0309781F052
:103480000E2E04C0EE0CFF1C001F111F0A94D2F771
:10349000ED82FE820F831887CE1ADF0ADC82CB8290
:1034A0001A82CE01019652D02896EAE0B0C2EF927D
:1034B000FF920F931F937B018C0180E0E81680E060
:1034C000F80681E0080780E0180788F48FEFE81617
:1034D000F1040105110531F028F088E090E0A0E04A
:1034E000B0E017C080E090E0A0E0B0E012C080E063
:1034F000E81680E0F80680E0080781E0180728F069
:1035000088E190E0A0E0B0E004C080E190E0A0E0BD
:10351000B0E020E230E040E050E0281B390B4A0BDD
:103520005B0B04C016950795F794E7948A95D2F73C
:10353000F701EE5DFE4F8081281B310941095109D9
:10354000C9011F910F91FF90EF900895DF92EF92C4
:10355000FF920F931F93FC01E480F5800681178191
:10356000D1808081823048F480E090E0A0E1B0E03A
:10357000E82AF92A0A2B1B2BA5C0843009F49FC026
:10358000823021F4EE24FF24870105C0E114F10408
:103590000105110519F4E0E0F0E096C06281738145
:1035A0009FEF623879070CF05BC022E83FEF261BE3
:1035B000370B2A3131052CF020E030E040E050E0BC
:1035C0002AC0B801A701022E04C0769567955795C9
:1035D00047950A94D2F781E090E0A0E0B0E004C003
:1035E000880F991FAA1FBB1F2A95D2F70197A1091F
:1035F000B1098E219F21A023B1230097A105B10518
:1036000021F081E090E0A0E0B0E09A01AB01282B2E
:10361000392B4A2B5B2BDA01C9018F779070A07090
:10362000B07080349105A105B10539F427FF09C0B8
:10363000205C3F4F4F4F5F4F04C0215C3F4F4F4FC7
:103640005F4FE0E0F0E02030A0E03A07A0E04A075A
:10365000A0E45A0710F0E1E0F0E079018A0127C008
:103660006038710564F5FB01E158FF4FD801C701CF
:103670008F779070A070B07080349105A105B1056E
:1036800039F4E7FE0DC080E490E0A0E0B0E004C0B3
:103690008FE390E0A0E0B0E0E80EF91E0A1F1B1FC8
:1036A00017FF05C016950795F794E794319687E0C4
:1036B00016950795F794E7948A95D1F705C0EE24FF
:1036C000FF248701EFEFF0E06E2F6795662767957F
:1036D000902F9F77D794DD24D7948E2F8695492FEE
:1036E000462B582F5D29B701CA011F910F91FF90FA
:1036F000EF90DF900895FC01DB0140815181228130
:10370000622F6F7770E0221F2227221F9381892F5B
:10371000880F822B282F30E0991F9927991F119627
:103720009C93119721153105A9F5411551056105A6
:10373000710511F482E037C082E89FEF13969C93E5
:103740008E9312979A01AB0167E0220F331F441F3B
:10375000551F6A95D1F783E08C930DC0220F331F5C
:10376000441F551F12968D919C91139701971396A4
:103770009C938E931297203080E0380780E04807B2
:1037800080E4580758F314962D933D934D935C9322
:10379000179708952F3F310579F4411551056105BB
:1037A000710519F484E08C93089564FF03C081E0EF
:1037B0008C9312C01C9210C02F57304013963C932C
:1037C0002E93129783E08C9387E0440F551F661F5A
:1037D000771F8A95D1F7706414964D935D936D931E
:1037E0007C93179708951F93DC01FB019C91923005
:1037F00008F447C08081823008F443C0943051F40B
:1038000011961C91843099F58181682F70E0611BBD
:1038100071093FC0843021F0923031F48230B9F127
:103820008181882389F12DC011961C9111978230D6
:10383000F1F081811817D9F412962D913C911397CC
:10384000828193818217930794F028173907BCF07F
:1038500014968D919D910D90BC91A02D2481358160
:1038600046815781281739074A075B0718F4112347
:1038700041F00AC082179307A407B50740F411234B
:1038800019F061E070E005C06FEF7FEF02C060E00B
:1038900070E0CB011F910895DC0101C06D93415090
:1038A0005040E0F70895A0E0B0E0E8E5FCE195C005
:1038B0007C01EB018A01690109C0CE012196F60164
:1038C0000995F70181937F01015010400115110501
:1038D000A1F7CDB7DEB7E8E09CC0A0E0B0E0E2E73A
:1038E000FCE17BC0EC017B018A01690109C0CE01CA
:1038F0002196F70161917F01F60109950150104071
:1039000001151105A1F7CDB7DEB7E8E082C0629FCF
:10391000D001739FF001829FE00DF11D649FE00DC7
:10392000F11D929FF00D839FF00D749FF00D659F28
:10393000F00D9927729FB00DE11DF91F639FB00D27
:10394000E11DF91FBD01CF0111240895A1E21A2E36
:10395000AA1BBB1BFD010DC0AA1FBB1FEE1FFF1F33
:10396000A217B307E407F50720F0A21BB30BE40B83
:10397000F50B661F771F881F991F1A9469F76095CA
:103980007095809590959B01AC01BD01CF01089584
:1039900097FB092E05260ED057FD04D0D7DF0AD09D
:1039A000001C38F450954095309521953F4F4F4F6E
:1039B0005F4F0895F6F790958095709561957F4FCC
:1039C0008F4F9F4F08952F923F924F925F926F9229
:1039D0007F928F929F92AF92BF92CF92DF92EF929F
:1039E000FF920F931F93CF93DF93CDB7DEB7CA1B20
:1039F000DB0B0FB6F894DEBF0FBECDBF09942A884B
:103A0000398848885F846E847D848C849B84AA84F2
:103A1000B984C884DF80EE80FD800C811B81AA817F
:103A2000B981CE0FD11D0FB6F894DEBF0FBECDBF4A
:103A3000ED010895EE0FFF1F0590F491E02D09941C
:043A4000F894FFCF28
:103A44004F70656E536572766FFFFFFFFFFFFFFFD8
:103A5400FFFF01000100FFFFFFFF00000000000066
:103A64000000000102020303030304040404040429
:103A740004040505050505050505050505050505F4
:103A840005050606060606060606060606060606D4
:103A940006060606060606060606060606060606C2
:103AA40006060707070707070707070707070707A4
:103AB4000707070707070707070707070707070792
:103AC4000707070707070707070707070707070782
:103AD4000707070707070707070707070707070772
:103AE4000707080808080808080808080808080854
:103AF4000808080808080808080808080808080842
:103B04000808080808080808080808080808080831
:103B14000808080808080808080808080808080821
:103B24000808080808080808080808080808080811
:103B34000808080808080808080808080808080801
:103B440008080808080808080808080808080808F1
:103B540008080808080808080808080808080808E1
:023B640008084F
:00000001FF
