:100000000C9436000C9451000C9451000C94510047
:100010000C9451000C9451000C9451000C9451001C
:100020000C9451000C9451000C9451000C9451000C
:100030000C9451000C9451000C94A7010C945100A5
:100040000C9451000C9451000C9451000C945100EC
:100050000C9451000C9450010C9451000C945100DC
:100060000C94D1080C9451000C94360011241FBE3E
:10007000CFEFD4E0DEBFCDBF12E0A0E0B1E0E4E717
:10008000F9E202C005900D92AE30B107D9F713E046
:10009000AEE0B2E001C01D92A833B107E1F70C94C5
:1000A00053000C940000EF92FF920F931F9386E091
:1000B00084B989EF85B917B88FE788B98CE98AB90F
:1000C00083EF8BB90E94BD020E9403020E94F00AD6
:1000D0000E9424010E943B060E94EF040E949608A1
:1000E0008091F8020E94A70886E067E040E050E0B7
:1000F0000E94EE0178948091D1028823E1F310925E
:10010000D1020091D3021091D402C8010E94800450
:1001100080E161E1A8010E94EE0182E163E140E03B
:1001200050E00E94EE018091DD0283608093DD0249
:10013000EE24E394F090D102FF2091F08AE090E069
:100140000E94DE021092D1020091D3021091D402DB
:10015000C8016F2D0E944206BC01C8010E94A70978
:100160008091D202882341F01092D2028091D50270
:100170009091D6020E9472080E94C8088823D1F28A
:100180000E94B5088738F1F1883870F4833839F166
:10019000843828F48038E1F0823861F61CC0853854
:1001A00051F1863860F523C08139C1F1823940F4BC
:1001B000893871F1893848F1803909F0BBCF2BC0FB
:1001C0008339B1F1833970F1843909F0B3CF39C083
:1001D0000E94C702AFCF8091DD02816026C080916E
:1001E000DD028E7F8093DD020E947709A3CF80918C
:1001F000DD0282601AC08091DD028D7F16C00E94F0
:10020000270298CF0E94540295CF0E94FB0192CF03
:100210000E9481028FCFE092D7028CCF8091DD02C5
:10022000846003C08091DD028B7F8093DD0282CFEA
:100230001092D1028091D3029091D4020E94800446
:1002400079CF0E945C0576CF1092D2021092D6022E
:100250001092D5021092D1021092D4021092D302C1
:1002600081E08093D70288B1887F88B9EEE7F0E01B
:1002700080818760808382E480937C0093E0909308
:100280007B008FE880937A0095BB92E090936E009C
:1002900016BC83EC87BD18BC94BD85E085BD089570
:1002A0001F920F920FB60F9211242F933F934F93EB
:1002B0005F936F937F938F939F93AF93BF93EF93CE
:1002C000FF93409178005091790080917C0090E0FC
:1002D0008F7090708130910519F18230910519F07D
:1002E000892B51F023C05093D4024093D30281E074
:1002F0008093D10280E40CC05093D6024093D50283
:1003000081E08093D2028091D702882379F081E442
:1003100080937C0080917A00806480937A0006C08C
:100320001092D70284E165E10E94EE01FF91EF9106
:10033000BF91AF919F918F917F916F915F914F91FD
:100340003F912F910F900FBE0F901F9018951F9205
:100350000F920FB60F9211242F933F934F935F93F9
:100360006F937F938F939F93AF93BF93EF93FF937D
:1003700086E067E00E94DC01AC014F5F5F4F86E0E2
:1003800067E00E94EE0182E480937C00EAE7F0E0FF
:10039000808180648083FF91EF91BF91AF919F91A5
:1003A0008F917F916F915F914F913F912F910F901E
:1003B0000FBE0F901F9018959FB7F8949FBFA8EDA0
:1003C000B2E0FD01E60FF11D208130E0A80FB11D64
:1003D0009C9180E0282B392BC90108959FB7F89490
:1003E000E8EDF2E0DF01A80FB11D5C93E60FF11D0F
:1003F00040839FBF089580E18093F8020E942F0BF5
:100400000E944E080895CF93DF93C8EDD2E080E4B8
:10041000FE0111928A95E9F781E08093D8028093DA
:10042000D9021092DA0282E08093DB020E94540229
:10043000882351F4CE01809660E270E040E450E001
:100440000E948B140E94FB01DF91CF9108950F93BE
:100450001F93DF93CF9300D0CDB7DEB708EF12E044
:1004600092E0F80181918F01980FF3E008311F07A6
:10047000C1F79A8382E08983CE01019660E070E043
:1004800042E050E00E94A214C801809762E070E050
:1004900040E250E00E94A21481E00F900F90CF91B3
:1004A000DF911F910F910895DF93CF9300D0CDB7C7
:1004B000DEB7CE01019660E070E042E050E00E94BD
:1004C00092148981823011F080E016C088EF92E0AA
:1004D00062E070E040E250E00E9492142A81E8EF6E
:1004E000F2E092E08191980F83E0E831F807D1F7CC
:1004F00080E0291709F481E00F900F90CF91DF91F0
:100500000895DF92EF92FF920F931F93DF93CF93A3
:10051000CDB7DEB760970FB6F894DEBF0FBECDBF84
:100520008E010F5F1F4FC8016FEF70E040E150E098
:100530000E948B14EE24FF24D02E012F8D2D902F9E
:10054000B70140E150E00E94A21480E190E0E80E83
:10055000F91E90E0E91692E0F90681F781E06096D5
:100560000FB6F894DEBF0FBECDBFCF91DF911F91C4
:100570000F91FF90EF90DF90089584B7877F84BF3D
:10058000E0E6F0E0808188618083108208958091A8
:10059000DD028E7F8093DD020E94770988E88093D8
:1005A0006000FFCF9091210380911803981718F4F1
:1005B0008150891B0895895F891B08956F927F92EE
:1005C0008F929F92AF92BF92CF92DF92EF92FF9263
:1005D0000F931F93DF93CF93CDB7DEB728970FB656
:1005E000F894DEBF0FBECDBF9C018091DD0282FF7B
:1005F00053C19091180380912103981789F41092A8
:10060000190310921A0310921B0310921C031092EC
:100610001D0310921E0310921F0310922003FCC0B2
:1006200040E050E08091190390911A03A0911B03C0
:10063000B0911C03820F931FA41FB51F8093190351
:1006400090931A03A0931B03B0931C030F2EF0E0AA
:100650006F2EF0E07F2EF0E08F2EF0E09F2EF02D39
:10066000C6C02E193F09400B510B2093190330933C
:100670001A0340931B0350931C0380911D03909118
:100680001E03A0911F03B09120038E199F09A00B98
:10069000B10B80931D0390931E03A0931F03B0938F
:1006A0002003009118030F5F0770009318038091D7
:1006B0002103C02EDD240817D9F5F60163E0EE0F03
:1006C000FF1F6A95E1F7EC19FD09EE0FFF1FE05FD0
:1006D000FD4FE080F1800281138100D000D0EDB7A2
:1006E000FEB7618272828382948280E090E060E053
:1006F00070E0A80197010F2EF0E0AF2EF0E0BF2EC2
:10070000F0E0CF2EF0E0DF2EF02D0E94360B10929D
:10071000190310921A0310921B0310921C031092DB
:100720001D0310921E0310921F031092200357C046
:100730000F5F077010E000D000D0C801880F991F2C
:10074000DC0133E0AA0FBB1F3A95E1F7A81BB90BF8
:10075000A25FBD4F6D917C911197F60123E0EE0FE2
:10076000FF1F2A95E1F7EC19FD09EE0FFF1FE05F6F
:10077000FD4F2081318142815381F80183E0EE0FEA
:10078000FF1F8A95E1F7E01BF10BEE0FFF1FE05F03
:10079000FD4FE080F18002811381C601880F991F0F
:1007A000FC01EE0FFF1FEE0FFF1FEE0FFF1FE81BF8
:1007B000F90BE25FFD4FA284B384C484D5841696FE
:1007C0008D919D910D90BC91A02DEDB7FEB78183C9
:1007D0009283A383B48380E090E00E94360B0F9055
:1007E0000F900F900F900E94D2028093EF02209101
:1007F000190330911A0340911B0350911C038091FF
:100800003603909137037C0100E010E0E216F30616
:100810000407150708F425CF8091190390911A0356
:10082000BE016F5F7F4FAE014B5F5F4F0E94230C95
:100830006D817E818F81988520E030E040E251E437
:100840000E94A60F6D837E838F83988769817A814A
:100850008B819C8120E030E040E05FE30E94790FD3
:100860000E94AA119B01AC0180E161E1A9010E94F3
:10087000EE016D817E818F81988520E030E040E03F
:100880005FE30E94790F0E94AA119B01AC0182E1F3
:1008900063E1A9010E94EE0128960FB6F894DEBF2D
:1008A0000FBECDBFCF91DF911F910F91FF90EF90C1
:1008B000DF90CF90BF90AF909F908F907F906F9080
:1008C00008958AE16BE140E050E00E94EE018CE186
:1008D0006DE140E050E00E94EE018EE16FE140E00A
:1008E00050E00E94EE0188E169E140E050E00E94A2
:1008F000EE011092EE020E94D2028093EF02089560
:10090000AF92BF92CF92DF92EF92FF920F931F931D
:100910001092190310921A0310921B0310921C03D9
:1009200010921D0310921E0310921F0310922003B9
:10093000109221031092180310920F0210920E02CF
:10094000AA2797FDA095BA2FBC01CD010E944C119A
:100950007B018C016093100270931102809312024C
:100960009093130280E090E0A0E0B0E08093140246
:1009700090931502A0931602B09317028093180269
:1009800090931902A0931A02B0931B0200D000D0DA
:10099000EDB7FEB781839283A383B48380E090E0B8
:1009A00060E070E0A80197010F2EF0E0AF2EF0E0BC
:1009B000BF2EF0E0CF2EF0E0DF2EF02D0E94360BA0
:1009C0000F900F900F900F900E9461041F910F9154
:1009D000FF90EF90DF90CF90BF90AF900895AF92CF
:1009E000BF92CF92DF92EF92FF920F931F931092DC
:1009F000190310921A0310921B0310921C031092F9
:100A00001D0310921E0310921F03109220031092D8
:100A100021031092180310920F0210920E0280E030
:100A200090E0A0E0B4E48093100290931102A093B0
:100A30001202B093130280E090E0A0E0B0E0809357
:100A4000140290931502A0931602B093170280939C
:100A5000180290931902A0931A02B0931B0200D0BF
:100A600000D0EDB7FEB781839283A383B48380E087
:100A700090E060E070E020E030E040E054E4790194
:100A80008A010F2EF0E0AF2EF0E0BF2EF0E0CF2E67
:100A9000F0E0DF2EF02D0E94360B0F900F900F909C
:100AA0000F900E9461041F910F91FF90EF90DF90D3
:100AB000CF90BF90AF9008954F925F926F927F92C8
:100AC0009F92AF92BF92CF92DF92EF92FF920F93DD
:100AD0001F93CF93DF9390902103939487E0982204
:100AE00080911803981609F4B5C08AE16BE10E9461
:100AF000DC016C018CE16DE10E94DC013C018EE1C6
:100B00006FE10E94DC012C0188E169E10E94DC01B7
:100B1000EC01009709F49EC0292D30E0C901880F2F
:100B2000991F7C01F3E0EE0CFF1CFA95E1F7E81A3F
:100B3000F90AEEE0F2E0EE0EFF1EF701D183C0836A
:100B40008901E3E0000F111FEA95E1F7021B130B87
:100B5000000F111F005F1D4FB601882777FD80959C
:100B6000982F0E944C115B016C01F8016083718326
:100B700082839383B301882777FD8095982F0E9405
:100B80004C1120E030E040E85AE30E94A60FF70144
:100B90006683778380879187B201882777FD809568
:100BA000982F0E944C1120E030E040E85AE30E9468
:100BB000A60FF70162877387848795879091180342
:100BC00080912103981749F500D000D020912C0383
:100BD00030912D0340912E0350912F0380E090E03F
:100BE000A0E0B0E0EDB7FEB781839283A383B48326
:100BF00080E090E0BE01860175010F2EF0E0AF2E7F
:100C0000F0E0BF2EF0E0CF2EF0E0DF2EF02D0E94BE
:100C1000360B0F900F900F900F909E0140E050E028
:100C200080911D0390911E03A0911F03B09120039A
:100C3000820F931FA41FB51F80931D0390931E0363
:100C4000A0931F03B0932003909221030E9461049C
:100C500081E001C080E0DF91CF911F910F91FF9063
:100C6000EF90DF90CF90BF90AF909F907F906F906C
:100C70005F904F9008958FEF9FEF909301018093C5
:100C800000010895CF92DF92EF92FF920F931F938E
:100C9000CF93DF93EC01E62E8091DD02817080938B
:100CA0008302D0938F02C0938E0280917E02909136
:100CB0007F029E01281B390B3093910220939002F2
:100CC00080E161E10E94DC01909399028093980297
:100CD00082E163E10E94DC01909397028093960287
:100CE0008AE26BE20E94DC01909395028093940269
:100CF0008CE26DE20E94DC01909393028093920259
:100D0000809106038823A9F10FEF13E0A8014C1B83
:100D10005D0B88E069E00E94EE01409190025091E5
:100D20009102509541955F4F8AE06BE00E94EE0181
:100D30008091980290919902A801481B590B5093F9
:100D400099024093980280919402909195029801A3
:100D5000281B390B309395022093940280919202C4
:100D600090919302081B190B109393020093920227
:100D70000DC088E069E0AE010E94EE014091900252
:100D8000509191028AE06BE00E94EE018091F9029D
:100D900080939E0210929F022091940230919502BE
:100DA00080919802909199028217930724F43093CE
:100DB000990220939802209192023091930280919F
:100DC0009802909199022817390724F430939902D8
:100DD00020939802809198029091990297FF04C005
:100DE0001092990210929802809198029091990223
:100DF0008050944034F08FEF93E090939902809369
:100E00009802409100015091010120919802309187
:100E100099024217530731F4909180028091830226
:100E20009817D9F04F5F5F4F41F4D0937F02C09382
:100E30007E0210928202109281023093010120936F
:100E40000001D0930301C0930201D0930501C09328
:100E500004018091830280938002EE2081F16091F1
:100E60000201709103016217730749F180919602A4
:100E7000909197021816190614F5409104015091AB
:100E800005014217530754F4860F971F90930301EF
:100E9000809302018217930794F00DC02417350741
:100EA00074F4AB01481B590B5093030140930201AA
:100EB0002417350724F03093030120930201809119
:100EC0000201909103018217930721F4C0918E02D1
:100ED000D0918F029C012C1B3D0B30939D022093DF
:100EE0009C02EE20D1F08091810290918202820FCB
:100EF000931F90938202809381025FEF8038950761
:100F00001CF480E89FEF05C08138910534F080E83B
:100F100090E0909382028093810280917E02909172
:100F20007F028C1B9D0B90939B0280939A02D0931F
:100F30007F02C0937E0282E263E20E94DC01909312
:100F400089028093880286E267E20E94DC01909326
:100F500087028093860284E265E20E94DC016C01D4
:100F6000909385028093840210928A0210928B02E1
:100F700010928C0210928D02C0919C02D0919D0221
:100F800020919E0230919F022C173D073CF088274C
:100F90009927821B930BC817D907ECF5609186023D
:100FA0007091870280E090E020918102309182026E
:100FB000442737FD4095542F0E9413147B018C0168
:100FC000609188027091890280E090E09E01442740
:100FD00037FD4095542F0E941314E60EF71E081F8C
:100FE000191FB60180E090E020919A0230919B0297
:100FF000442737FD4095542F0E9413146E0D7F1D1A
:10100000801F911F60938A0270938B0280938C02E1
:1010100090938D0204C010928202109281028091FE
:101020008A0290918B02A0918C02B0918D02892F3F
:101030009A2FAB2FBB27A7FDBA9580938A02909376
:101040008B02A0938C02B0938D028F3F9105A10576
:10105000B10531F02CF08FEF90E0A0E0B0E009C0D6
:1010600081509F4FAF4FBF4F64F481E09FEFAFEFD0
:10107000BFEF80938A0290938B02A0938C02B0936F
:101080008D0280918A0290918B02DF91CF911F9106
:101090000F91FF90EF90DF90CF90089581E08093C3
:1010A000F90282E263E240EA51E00E94EE0186E248
:1010B00067E244E050E00E94EE0184E265E240E233
:1010C00051E00E94EE018AE26BE244E650E00E94A9
:1010D000EE018CE26DE244E853E00E94EE011092D2
:1010E000060308952091A002E22FF0E0EE0FFF1F0B
:1010F000EF55FD4F918380832F5F27702093A002CF
:10110000E1EAF2E040E050E081919191480F591FEF
:1011100082E0E13BF807C1F783E0569547958A9551
:10112000E1F78CE06DE00E94EE0108951092A002BC
:10113000E1EAF2E01192119282E0E13BF807D1F787
:101140008CE06DE040E050E00E94EE0108951092C6
:10115000B4021092B302880F8093BA008FEF80938D
:10116000BB0085EC8093BC0008959091B302809100
:10117000B4029817D1F38091B4028F5F837080938B
:10118000B402E091B402F0E0EB54FD4F8081089589
:101190009091B3028091B40220E0981321E0822F55
:1011A00008951F920F920FB60F9211242F938F93D1
:1011B0009F93EF93FF938091B900803A09F48AC01E
:1011C000813A60F48036D9F1813620F4882309F41D
:1011D0007FC080C0803809F07DC034C0803C09F4F5
:1011E00079C0813C30F4883A59F0883B09F072C0EC
:1011F00007C0883C09F46EC0883F09F06BC06DC021
:10120000E091B102EF77E03328F0E03678F0E03794
:1012100030F4E053F0E0E852FD4FE08108C0E054C4
:10122000F0E0E852FD4FE081E03760F3E0E08091CC
:10123000B1028F5F8093B102E093BB004BC010926C
:10124000B20248C02091BB008091B202882321F0F5
:10125000813009F03FC015C027FD06C02093B102C0
:1012600081E08093B20236C08091B3028F5F8370B9
:101270008093B302E091B302F0E0EB54FD4F208382
:1012800029C0E091B1028091DD0290E082709070FF
:10129000EF77E031B8F0E03248F0009799F0E033B2
:1012A00028F0E03678F0E03730F4E053F0E0E85230
:1012B000FD4F208307C0E055F0E0E852FD4FE0818C
:1012C000E03730F38091B1028F5F8093B10202C0AA
:1012D00085ED01C085EC8093BC00FF91EF919F915B
:1012E0008F912F910F900FBE0F901F901895F8942B
:1012F0008091B902882321F48091BA028823A9F051
:101300008BB180698BB91092800085B1897F85B9D6
:1013100080E002C000008F5F8431E1F78BB18C6008
:101320008BB91092B9021092BA02109289001092F1
:10133000880010928B0010928A0078948091B902F4
:101340008093E6028091BA028093E7020895EF92BB
:10135000FF920F931F93CF93DF937C01EB0188E201
:1013600069E20E94DC012091BB023091BC0282172D
:101370009307C1F18BB1837F8BB980E002C000007D
:101380008F5F8431E1F7809180008F7380938000BC
:10139000809180008F7C8093800085B1897F85B9A2
:1013A0001092B9021092BA0288E269E20E94DC014E
:1013B0009093BC028093BB02A4E0880F991FAA956A
:1013C000E1F7019790938700809386001092850043
:1013D00010928400109289001092880010928B0065
:1013E00010928A0080910603882331F18CE26DE22D
:1013F0000E94DC01182F092F8AE26BE20E94DC01B7
:10140000BC01212F302FC901AC0184E040305807C6
:1014100010F04FEF53E09B0194E06030790710F03B
:101420002FEF33E08FEF93E0BC01641B750BAB0132
:10143000BC01621B730B1BC08AE26BE20E94DC01E1
:10144000182F092F8CE26DE20E94DC01BC01212FD4
:10145000302FC901AC0184E04030580710F04FEF45
:1014600053E094E06030790710F06FEF73E0E4161A
:10147000F50620F4D7FF02C0C0E0D0E06E157F056E
:1014800028F41C161D0614F4C0E0D0E08091DD02A3
:1014900080FF9DC0D7FF4EC0BE016195162F2091E1
:1014A000BB023091BC02F8948091B9028823B9F450
:1014B0008BB180698BB95B981092800085B1897F70
:1014C00085B980E002C000008F5F8431E1F7809130
:1014D00080008068809380005A9A1092BA0210931C
:1014E000B902612F70E080E090E040E050E0F4E06D
:1014F000220F331F441F551FFA95D1F7215030405A
:10150000404050400E9413142FEF30E040E050E084
:101510000E943214309389002093880010928B002F
:1015200010928A0078941093E6028091BA02809318
:10153000E7024FC0209709F44AC01C2F2091BB023C
:101540003091BC02F8948091BA028823A9F48BB13F
:1015500080698BB95A981092800085B1897F85B9CE
:1015600080E002C000008F5F8431E1F780E2809369
:1015700080005B9A1092B9021093BA02109289000F
:1015800010928800612F70E080E090E040E050E031
:10159000E4E0220F331F441F551FEA95D1F7215075
:1015A0003040404050400E9413142FEF30E040E0A4
:1015B00050E00E94321430938B0020938A0078947C
:1015C0008091B9028093E6021093E70202C00E9464
:1015D0007709DF91CF911F910F91FF90EF900895C0
:1015E00088E269E20E94DC019093BC028093BB0216
:1015F0002BB1237F2BB92BB120692BB92AB12C69D0
:101600002AB925B1297F25B924B1266024B91092C1
:10161000850010928400E0E8F0E01082A1E8B0E0DC
:101620001C921092820010926F0024E0880F991F84
:101630002A95E1F701979093870080938600109296
:1016400089001092880010928B0010928A001082FC
:1016500081E18C931092E6021092E702089588E2ED
:1016600069E240E450E00E94EE0108952F923F921B
:101670004F925F926F927F928F929F92AF92BF92A2
:10168000CF92DF92EF92FF920F931F93DF93CF934E
:10169000CDB7DEB72093CD023093CE024093CF0278
:1016A0005093D002909335038093340370932703B3
:1016B00060932603681B790B70933703609336039E
:1016C00080E090E00E94FE113B014C016093BD025E
:1016D0007093BE028093BF029093C002C601B50111
:1016E000A40193010E94A60F1B012C016D897E8924
:1016F0008F89988DA40193010E94A60F3B014C0194
:101700008091CD029091CE02A091CF02B091D002F3
:101710008093220390932303A0932403B093250383
:10172000E0922C03F0922D0300932E0310932F03CD
:1017300020923003309231034092320350923303AF
:10174000609228037092290380922A0390922B03BF
:10175000BC01CD019B01AC010E94790F5B016C01C2
:10176000C801B70120E030E040E050EC0E94A60F35
:101770009B01AC01C601B5010E94790FA201910144
:101780000E94790FA40193010E94790F6093C10216
:101790007093C2028093C3029093C4026091CD0201
:1017A0007091CE028091CF029091D00220E030E083
:1017B00040E450EC0E94A60F5B016C01C801B70128
:1017C00020E030E040E450E40E94A60F9B01AC0111
:1017D000C601B5010E94790F7B018C01C201B101E4
:1017E00020E030E040E050EC0E94A60F9B01AC01ED
:1017F000C801B7010E94790FA40193010E94480F0C
:101800006093C5027093C6028093C7029093C8028A
:101810002092C9023092CA024092CB025092CC026E
:10182000CF91DF911F910F91FF90EF90DF90CF90BC
:10183000BF90AF909F908F907F906F905F904F90F0
:101840003F902F9008952F923F924F925F926F9208
:101850007F928F929F92AF92BF92CF92DF92EF9240
:10186000FF920F931F93DF93CF93CDB7DEB76097AF
:101870000FB6F894DEBF0FBECDBF9C01788B6F878B
:101880005E874D87409134035091350348175907BF
:10189000C8F08091220390912303A0912403B0917A
:1018A0002503FB0180839183A283B383241735072B
:1018B00008F18091300390913103A0913203B091EF
:1018C000330325C06091260370912703861797077D
:1018D00028F180912C0390912D03A0912E03B091BB
:1018E0002F03EF85F88980839183A283B3836217E6
:1018F000730728F480E090E0A0E0B0E008C0809199
:10190000280390912903A0912A03B0912B03ED8520
:10191000FE8580839183A283B383B0C08091BD0292
:101920009091BE02A091BF02B091C00289879A87B0
:10193000AB87BC87241B350BB90180E090E00E9487
:10194000FE1129853A854B855C850E94A0105B01BC
:101950006C01A60195010E94A60F3B014C018091EC
:10196000C1029091C202A091C302B091C4028D83C2
:101970009E83AF83B8872090C5023090C602409006
:10198000C7025090C8028091C9029091CA02A091EA
:10199000CB02B091CC0289839A83AB83BC83C40110
:1019A000B301A60195010E94A60F9B01AC016D81B8
:1019B0007E818F8198850E94A60F7B018C01C201D8
:1019C000B101A40193010E94A60F9B01AC01C801C3
:1019D000B7010E94790F7B018C0169817A818B812B
:1019E0009C81A60195010E94A60F9B01AC01C80134
:1019F000B7010E94790F2091CD023091CE02409123
:101A0000CF025091D0020E94790FAF85B8896D93B3
:101A10007D938D939C9313976D817E818F819885A3
:101A200020E030E040E450E40E94A60FA4019301BE
:101A30000E94A60F7B018C01C201B101A20191019C
:101A40000E94790FA60195010E94A60F9B01AC018F
:101A5000C801B7010E94790F29813A814B815C81CD
:101A60000E94790F29853A854B855C850E94A010DC
:101A7000ED85FE85608371838283938360960FB6C4
:101A8000F894DEBF0FBECDBFCF91DF911F910F91B4
:101A9000FF90EF90DF90CF90BF90AF909F908F908E
:101AA0007F906F905F904F903F902F9008955D983A
:101AB000559A882319F03A98429A02C042983A9A65
:101AC00055985D9A4D9BFECF08955D98559A3A982A
:101AD000429A55985D9A4D9BFECF86B190E09695BF
:101AE000879596958795817008951F93CF93DF937F
:101AF000182FC0E0D0E0812F881F8827881F0E9400
:101B0000570D110F2196C830D105A9F70E94650D18
:101B100091E08927DF91CF911F91089555985D9AA3
:101B20003A98429A0895AF92BF92CF92DF92FF9275
:101B30000F931F93CF93DF935B016A0142983A9A08
:101B40000E94750D882319F400E010E01AC000E02F
:101B500010E014C0FF24C0E0D0E0FF0C0E94650D2F
:101B6000F82A2196C830D105C1F780E00E94570DB0
:101B7000F501E00FF11FF0820F5F1F4F0C151D05DF
:101B80004CF342983A9A3A98429A802FDF91CF913B
:101B90001F910F91FF90DF90CF90BF90AF9008956D
:101BA000EF92FF920F931F93CF93DF937B018A01F4
:101BB00042983A9A0E94750D882319F4C0E0D0E04B
:101BC0000FC0C0E0D0E009C0F701EC0FFD1F80811D
:101BD0000E94750D882321F02196C017D107A4F328
:101BE00042983A9A3A98429A8C2FDF91CF911F915E
:101BF0000F91FF90EF900895A0E0B0E0E2E0FEE0EA
:101C00000C945414DC012B01FA019C91923008F4DD
:101C100039C1EB018881823008F433C1943069F412
:101C2000843009F02FC111969C91119789819817E2
:101C300009F428C1A6E0B1E025C1843009F421C12E
:101C40008230A9F4923009F01DC19A01AD0188E0FB
:101C5000EA010990AE01E90109929E018150C1F7A4
:101C6000E201898111969C918923818308C1923078
:101C700009F407C112962D903C901397EB018A81CD
:101C80009B811496AD90BD90CD90DC901797EC8021
:101C9000FD800E811F819101281B390BB90137FF8F
:101CA00004C066277727621B730B603271050CF046
:101CB00061C0121613066CF537014801062E04C0E8
:101CC00096948794779467940A94D2F721E030E051
:101CD00040E050E004C0220F331F441F551F6A9597
:101CE000D2F721503040404050402E213F21402328
:101CF0005123211531054105510521F021E030E046
:101D000040E050E079018A01E628F72808291929DE
:101D10003CC0232BD1F1260E371E35014601062E7D
:101D200004C096948794779467940A94D2F721E03C
:101D300030E040E050E004C0220F331F441F551F25
:101D40006A95D2F721503040404050402A213B2133
:101D50004C215D21211531054105510521F021E07E
:101D600030E040E050E059016A01A628B728C828B1
:101D7000D9280BC0821593052CF01C01AA24BB2482
:101D8000650103C0EE24FF24870111969C91D201C6
:101D900011968C91981709F445C0992339F0A80140
:101DA00097012A193B094C095D0906C0A601950156
:101DB0002E193F09400B510B57FD08C01182338289
:101DC000228224833583468357831DC081E081832B
:101DD0003382228288279927DC01821B930BA40B74
:101DE000B50B84839583A683B7830DC0220F331F61
:101DF000441F551F248335834683578382819381F3
:101E00000197938382832481358146815781DA014A
:101E1000C9010197A109B1098F5F9F4FAF4FBF4320
:101E200028F30BC0918333822282EA0CFB1C0C1D29
:101E30001D1DE482F5820683178383E0808324815D
:101E400035814681578157FF1AC0C901AA2797FDDE
:101E5000A095BA2F81709070A070B070569547957C
:101E600037952795822B932BA42BB52B84839583B1
:101E7000A683B78382819381019693838283DF0156
:101E800001C0D201CD01CDB7DEB7E2E10C947014F0
:101E9000A0E2B0E0EEE4FFE00C94601469837A8382
:101EA0008B839C832D833E834F835887E9E0EE2EFE
:101EB000F12CEC0EFD1ECE010196B7010E949B1382
:101EC0008E010F5E1F4FCE010596B8010E949B1335
:101ED0008A8991E089278A8BC701B801AE01475EE4
:101EE0005F4F0E94FC0D0E94C612A096E6E00C9483
:101EF0007C14A0E2B0E0EFE7FFE00C94601469838B
:101F00007A838B839C832D833E834F835887F9E0AC
:101F1000EF2EF12CEC0EFD1ECE010196B7010E94B2
:101F20009B138E010F5E1F4FCE010596B8010E94D4
:101F30009B13C701B801AE01475E5F4F0E94FC0DC5
:101F40000E94C612A096E6E00C947C14A0E2B0E0D9
:101F5000ECEAFFE00C94541469837A838B839C83AE
:101F60002D833E834F835887CE010196BE01675F64
:101F70007F4F0E949B13CE010596BE016F5E7F4F7F
:101F80000E949B139985923088F089898230C8F02D
:101F9000943019F4823051F404C0843029F4923022
:101FA00081F486E091E0C6C0923049F420E09A8541
:101FB0008A89981321E02A87CE010996BBC0823016
:101FC00049F420E09A858A89981321E02A8BCE0172
:101FD0004196B0C02D843E844F8458886D887E8899
:101FE0008F88988CEE24FF248701AA24BB246501E6
:101FF00040E050E060E070E0E0E0F0E0C1018170BE
:102000009070892BE9F0E60CF71C081D191D9A0148
:10201000AB012A0D3B1D4C1D5D1D80E090E0A0E052
:10202000B0E0E614F7040805190520F481E090E01B
:10203000A0E0B0E0BA01A901480F591F6A1F7B1F39
:10204000AA0CBB1CCC1CDD1C97FE08C081E090E0F4
:10205000A0E0B0E0A82AB92ACA2ADB2A3196E032E9
:10206000F10549F0660C771C881C991C569447941E
:1020700037942794C3CFFA85EA892B893C898B85CD
:102080009C85280F391F2E5F3F4F17C0CA018170F2
:102090009070892B61F016950795F794E79480E08E
:1020A00090E0A0E0B0E8E82AF92A0A2B1B2B7695ED
:1020B0006795579547952F5F3F4F77FDE7CF0CC04A
:1020C000440F551F661F771F17FD4160EE0CFF1C64
:1020D000001F111F21503040403090E0590790E020
:1020E000690790E4790760F32B8F3C8FDB01CA010D
:1020F0008F779070A070B07080349105A105B10504
:1021000061F447FD0AC0E114F1040105110529F04D
:10211000405C5F4F6F4F7F4F40781A8EFE1711F073
:1021200081E08A8F4D8F5E8F6F8F78A383E0898FD8
:10213000CE0149960E94C612A096E2E10C9470145A
:10214000A8E1B0E0E6EAF0E10C945C1469837A83DC
:102150008B839C832D833E834F835887B9E0EB2E7E
:10216000F12CEC0EFD1ECE010196B7010E949B13CF
:102170008E010F5E1F4FCE010596B8010E949B1382
:102180002985223008F47EC03989323010F4B80134
:102190007CC08A859A8989278A87243011F0223069
:1021A00031F4231709F06EC066E071E06EC0343080
:1021B00039F41D861E861F86188A1C861B8604C05D
:1021C000323021F484E08987B7015FC02B853C85DC
:1021D0008B899C89281B390B3C872B87ED84FE84D7
:1021E0000F851889AD88BE88CF88D88CEA14FB0487
:1021F0000C051D0540F4EE0CFF1C001F111F2150A3
:1022000030403C872B8720E030E040E050E080E029
:1022100090E0A0E0B0E460E070E0EA14FB040C059C
:102220001D0540F0282B392B4A2B5B2BEA18FB08A5
:102230000C091D09B695A79597958795EE0CFF1C7F
:10224000001F111F6F5F7F4F6F31710531F7DA018A
:10225000C9018F779070A070B07080349105A1058E
:10226000B10561F427FD0AC0E114F104010511056F
:1022700029F0205C3F4F4F4F5F4F20782D873E87DE
:102280004F87588BBE01675F7F4FCB010E94C612FC
:102290006896EAE00C947814A8E0B0E0E2E5F1E199
:1022A0000C945D149B01AC0183E08983DA01C901C0
:1022B0008827B7FD83959927AA27BB27B82E211514
:1022C00031054105510519F482E089833AC088231C
:1022D000A9F0203080E0380780E0480780E8580700
:1022E00029F460E070E080E09FEC30C0EE24FF2431
:1022F0008701E21AF30A040B150B02C079018A0167
:102300008EE1C82ED12CDC82CB82ED82FE820F833F
:102310001887C801B7010E9477120197181619068D
:1023200084F4082E04C0EE0CFF1C001F111F0A9439
:10233000D2F7ED82FE820F831887C81AD90ADC8291
:10234000CB82BA82CE0101960E94C6122896E9E09D
:102350000C947914ACE0B0E0E0EBF1E10C9464147F
:1023600069837A838B839C83CE010196BE016B5F68
:102370007F4F0E949B138D81823061F1823050F13A
:10238000843021F48E81882351F12EC02F8138852D
:1023900037FD20C06E812F3131051CF06623F9F026
:1023A00023C08EE190E0821B930B29853A854B85F3
:1023B0005C8504C056954795379527958A95D2F741
:1023C0006623B1F050954095309521953F4F4F4F82
:1023D0005F4F0EC020E030E040E050E009C02FEF3A
:1023E0003FEF4FEF5FE704C020E030E040E050E80F
:1023F000B901CA012C96E2E00C948014A8E0B0E088
:10240000E4E0F2E10C945C147B018C016115710530
:102410008105910519F482E0898360C083E0898396
:102420008EE1C82ED12CDC82CB82ED82FE820F831E
:102430001887C801B7010E947712FC013197F7FF96
:102440003BC0222733272E1B3F0B57016801022E6A
:1024500004C0D694C794B794A7940A94D2F740E0E6
:1024600050E060E070E081E090E0A0E0B0E004C007
:10247000880F991FAA1FBB1F2A95D2F70197A109A0
:10248000B1098E219F21A023B1230097A105B10599
:1024900021F041E050E060E070E04A295B296C29BE
:1024A0007D294D835E836F8378878EE190E08E1B5C
:1024B0009F0B9C838B8312C0309781F00E2E04C03B
:1024C000EE0CFF1C001F111F0A94D2F7ED82FE8252
:1024D0000F831887CE1ADF0ADC82CB821A82CE01E4
:1024E00001960E94C6122896EAE00C947814EF92A6
:1024F000FF920F931F937B018C0180E0E81680E030
:10250000F80681E0080780E0180788F48FEFE816E6
:10251000F1040105110531F028F088E090E0A0E019
:10252000B0E017C080E090E0A0E0B0E012C080E032
:10253000E81680E0F80680E0080781E0180728F038
:1025400088E190E0A0E0B0E004C080E190E0A0E08D
:10255000B0E020E230E040E050E0281B390B4A0BAD
:102560005B0B04C016950795F794E7948A95D2F70C
:10257000F701E25FFE4F8081281B310941095109B3
:10258000C9011F910F91FF90EF900895DF92EF9294
:10259000FF920F931F93FC01E480F5800681178161
:1025A000D1808081823048F480E090E0A0E1B0E00A
:1025B000E82AF92A0A2B1B2BA5C0843009F49FC0F6
:1025C000823021F4EE24FF24870105C0E114F104D8
:1025D0000105110519F4E0E0F0E096C06281738115
:1025E0009FEF623879070CF05BC022E83FEF261BB3
:1025F000370B2A3131052CF020E030E040E050E08C
:102600002AC0B801A701022E04C076956795579598
:1026100047950A94D2F781E090E0A0E0B0E004C0D2
:10262000880F991FAA1FBB1F2A95D2F70197A109EE
:10263000B1098E219F21A023B1230097A105B105E7
:1026400021F081E090E0A0E0B0E09A01AB01282BFE
:10265000392B4A2B5B2BDA01C9018F779070A07060
:10266000B07080349105A105B10539F427FF09C088
:10267000205C3F4F4F4F5F4F04C0215C3F4F4F4F97
:102680005F4FE0E0F0E02030A0E03A07A0E04A072A
:10269000A0E45A0710F0E1E0F0E079018A0127C0D8
:1026A0006038710564F5FB01E158FF4FD801C7019F
:1026B0008F779070A070B07080349105A105B1053E
:1026C00039F4E7FE0DC080E490E0A0E0B0E004C083
:1026D0008FE390E0A0E0B0E0E80EF91E0A1F1B1F98
:1026E00017FF05C016950795F794E794319687E094
:1026F00016950795F794E7948A95D1F705C0EE24CF
:10270000FF248701EFEFF0E06E2F6795662767954E
:10271000902F9F77D794DD24D7948E2F8695492FBD
:10272000462B582F5D29B701CA011F910F91FF90C9
:10273000EF90DF900895FC01DB01408151812281FF
:10274000622F6F7770E0221F2227221F9381892F2B
:10275000880F822B282F30E0991F9927991F1196F7
:102760009C93119721153105A9F541155105610576
:10277000710511F482E037C082E89FEF13969C93B5
:102780008E9312979A01AB0167E0220F331F441F0B
:10279000551F6A95D1F783E08C930DC0220F331F2C
:1027A000441F551F12968D919C9113970197139674
:1027B0009C938E931297203080E0380780E0480782
:1027C00080E4580758F314962D933D934D935C93F2
:1027D000179708952F3F310579F44115510561058B
:1027E000710519F484E08C93089564FF03C081E0BF
:1027F0008C9312C01C9210C02F57304013963C93FC
:102800002E93129783E08C9387E0440F551F661F29
:10281000771F8A95D1F7706414964D935D936D93ED
:102820007C9317970895629FD001739FF001829F58
:10283000E00DF11D649FE00DF11D929FF00D839F4F
:10284000F00D749FF00D659FF00D9927729FB00DEC
:10285000E11DF91F639FB00DE11DF91FBD01CF01FF
:1028600011240895A1E21A2EAA1BBB1BFD010DC065
:10287000AA1FBB1FEE1FFF1FA217B307E407F50730
:1028800020F0A21BB30BE40BF50B661F771F881F0C
:10289000991F1A9469F760957095809590959B01A2
:1028A000AC01BD01CF0108952F923F924F925F92EC
:1028B0006F927F928F929F92AF92BF92CF92DF9250
:1028C000EF92FF920F931F93CF93DF93CDB7DEB7B5
:1028D000CA1BDB0B0FB6F894DEBF0FBECDBF099449
:1028E0002A88398848885F846E847D848C849B84A0
:1028F000AA84B984C884DF80EE80FD800C811B81AE
:10290000AA81B981CE0FD11D0FB6F894DEBF0FBEDC
:10291000CDBFED010895DC0101C06D9341505040E1
:10292000E0F70895DC01CB01FC01F999FECF06C068
:10293000F2BDE1BDF89A319600B40D92415050407D
:10294000B8F70895DC01CB0103C02D910E94AD14AE
:1029500041505040D0F70895262FF999FECF1FBA65
:1029600092BD81BD20BD0FB6F894FA9AF99A0FBEB8
:04297000019608952F
:10297400FFFFFFFFFFFF0000000000000000000158
:102984000202030303030404040404040404050509
:1029940005050505050505050505050505050606E1
:1029A40006060606060606060606060606060606C3
:1029B40006060606060606060606060606060707B1
:1029C4000707070707070707070707070707070793
:1029D4000707070707070707070707070707070783
:1029E4000707070707070707070707070707070773
:1029F4000707070707070707070707070707080861
:102A04000808080808080808080808080808080842
:102A14000808080808080808080808080808080832
:102A24000808080808080808080808080808080822
:102A34000808080808080808080808080808080812
:102A44000808080808080808080808080808080802
:102A540008080808080808080808080808080808F2
:102A640008080808080808080808080808080808E2
:0E2A74000808080808080808080808080808E4
:00000001FF
