:100000006AC0AAC083C082C081C080C07FC07EC0D9
:100010007DC07CC07BC0BDC879C078C077C076C0C9
:1000200075C074C073C000CDD914F13C28E5A16C33
:1000300078B5509D894409021200010100807D09B4
:1000400004000000FF00000012010101FF00000891
:1000500064190100060101020001040309043C03C4
:10006000550053004200740069006E0079002000C2
:1000700028006D003800290020005300500049007E
:100080002C002000490032004300200041006400A1
:10009000610070007400650072003C034400690058
:1000A00063006B002000530074007200650065005F
:1000B00066006C0061006E0064002C0020004200AD
:1000C000610072007200790020004300610072003C
:1000D00074006500720011241FBECFE5D4E0DEBFBE
:1000E000CDBF10E0A0E6B0E0ECE3F2E102C0059085
:1000F0000D92AA3BB107D9F711E0AAEBB0E001C01D
:100100001D92A73AB107E1F71DD896C879CFDC0157
:100110009FEF8FEF46E2F0E018C02D918227E82F85
:10012000EF70E40F3591E82FE295892F932F31700E
:10013000E327EF709295392F9F70307E8327E40F6D
:10014000359193273170932783276A9532F78095ED
:1001500090958D939D9308950F931F932F93DF9305
:10016000CF930FB70F939999FECF99990BC0999997
:1001700009C0999907C0999905C0999903C000E4ED
:100180000ABFACC0C0918A01DD27C557DE4F0BE026
:1001900013E022E0999BE9CF3F934F936F9363B3B2
:1001A00030E803C063B3432B499344276370262789
:1001B000215023B32370A9F137953C3FA0F5622766
:1001C000615063B3637037953C3F98F52627215003
:1001D000379523B323703C3F90F5622761503795E4
:1001E0003C3F63B36370A0F52627215037953C3F11
:1001F000C8F523B323706227615037953C3FB0F5B3
:100200000A9563B37AF063702627215037953C3FF7
:1002100088F523B323706227615037953C3F10F275
:100220002DC031C052C0612723B323703F77416096
:10023000C6CF3F77426063B363702127C7CF3F7754
:100240004460612723B32370622761503795C8CF7C
:100250003F7748602127316063B3637026272150C0
:100260003795C6CF3F7740616127C1CF3F77406266
:100270002127C4CF3F7740646127C9CF3F774068CB
:10028000212700C08FCF30E43ABF0B500195C01B2F
:10029000D040288121FD2DC019811F774091A101F7
:1002A000141799F4293691F400917B010023F1F0A1
:1002B000409189014423D1F440937B01409187010F
:1002C0004093A101CCE7D1E02BC022272093BA00B4
:1002D0006F914F913F910AB706FD45CF0F910FBF28
:1002E000CF91DF912F911F910F911895C0E6D0E02B
:1002F00016C0217059F32091BA00222339F340919E
:100300008901442399F70093890120938801009182
:100310008A014BE0401B40938A01C1E6D0E001E036
:1003200025B32C7F216014B3136025BB14BB13E0ED
:1003300030E830FF212725BB379547954C3FC0F566
:1003400030FF2127379525BB47954C3FA8F530FF57
:1003500021273795000025BB47954C3F78F530FFA6
:1003600021273795000025BB47954C3F48F530FFC6
:100370002127699125BB379547954C3F18F530FFEC
:100380002127379525BB47954C3F00F530FF2127A6
:100390003795479525BB4C3FD8F430FF212737953B
:1003A000362F479525BB4C3FA8F40A9512F614C08A
:1003B0002127442725BBC2CF2127C5CF2127CBCF5B
:1003C0002127D1CF2127442725BBD7CF2127DACF1B
:1003D0002127DFCF2127E5CF2C7F25BB6F914F91C0
:1003E0003F9100E40ABFDF91CF9114B3022F216047
:1003F00025BB1C7FDFBFDF912F91000014BB05BB25
:100400001F910F91189585B7836085BF8BB7806466
:100410008BBF789408951F93CF93DF9360918901E8
:10042000662309F474C080918A01CCE0D0E0C81B37
:10043000D109C557DE4F81E08093BE0080918801CD
:100440008D3209F056C01E818F8181111FEF888186
:10045000807671F58981811104C01882198282E049
:1004600040C0853021F48A818093870139C086306D
:10047000A9F482E08093BE008B81813009F1823043
:1004800019F1833069F58A81882311F1813021F1D6
:10049000823031F58CE3CEE5D0E023C0883019F40A
:1004A00081E088831EC08A30D9F4188281E019C0A7
:1004B000CE016CD28F3FA9F483E08093BE0013C0BD
:1004C00082E1C8E4D0E00DC082E1C6E3D0E009C01B
:1004D00084E0CAE5D0E005C08CE3CAE9D0E001C001
:1004E00080E0811708F0812FD093BC00C093BB003F
:1004F00005C0635011F0CE0185D480E08093BD002B
:1005000083EC80937C0110927B0110928901809191
:100510007B01811150C08091BE00882309F44BC03B
:1005200090917C0128E8922790937C011091BD0066
:10053000193018F4112399F101C018E0833031F417
:10054000612F8DE791E069D1182F24C0E091BB00A5
:10055000F091BC00813081F4DF014DE751E0EA0108
:100560009D012F5F3F4FF9018C9189938C2F841B44
:10057000811760F4D901F4CF2DE731E0D9018491DE
:100580008D9331968A2F821B8117C8F3F093BC009C
:10059000E093BB008091BD00811B8093BD00612F63
:1005A0008DE791E0B4DD83E0810F80937B0118300B
:1005B00010F41092BE008AE0989906C08150E1F7CD
:1005C000109287011092A101DF91CF911F910895A0
:1005D000CF93DF93FB01AC014C5F5F4FEC01A9911E
:1005E000CE0128E030E070E860E0B72FBA2309F0D0
:1005F000C39AB0917A010B2E00C000000A94E1F773
:10060000C59AB0917A010B2E00C000000A94E1F760
:10061000660FB4996F5FC398C598769521503109DC
:100620002115310511F7619384179507B9F6DF910C
:10063000CF91089580917601909177019C012F5F71
:100640003F4F30937701209376012091730127FF6C
:1006500002C0880F991F80FD286020936F019C01C4
:10066000232F3327269520937001969587958093A5
:1006700071016BE671E08FE691E0AACF83B986B78E
:10068000806886BF06B607FEFDCF81B1887F90E007
:10069000089588E10FB6F89481BD11BC0FBE2FE01C
:1006A00088E190E00FB6F894A89581BD0FBE21BDFA
:1006B000F894FFCF6430710519F40898089A03C0C4
:1006C00021B12C7F21B980B981E090E00895BD98D7
:1006D000C59884B38F7C84BBAC98AD9816BE61E09E
:1006E00070E08AE090E0E6DF86B7846086BF089518
:1006F0001092480186B7806986BF0895EF92FF92F5
:100700000F931F93CF93DF9300D0CDB7DEB77B015C
:10071000042F96B7906A96BF06B607FEFDCF91B13B
:10072000987F90934B0191B1987F983029F091B1C7
:10073000987F903109F050C090E0043141F4880F67
:10074000991F81609BDF26B72F7D26BF05C096B716
:100750009F7596BF880F92DF182F80934C0197FFEB
:1007600006C089839A83C4DF89819A8106C0883351
:10077000910541F08834910529F08034910589F084
:10078000043149F484E086BF10934A01F7011083D5
:10079000809148012DC08032910529F0489781F55C
:1007A00031C0053149F484E886BF10934A01F7014E
:1007B0001083809148011EC0043121F5F701868124
:1007C000823018F48781882319F086B7806486BF49
:1007D00086B7806886BF16C084E886BF81B1887FEF
:1007E00080934A01F701808380914801043111F41C
:1007F000887F01C0867F8093480180E090E004C03C
:10080000053189F281E090E00F900F90DF91CF9158
:100810001F910F91FF90EF9008958F929F92BF923A
:10082000CF92DF92EF92FF920F931F93CF93DF93BC
:10083000CDB7DEB78C01B62ECDB6DEB680914801BD
:1008400080FF4EC084FF15C080914901F801282F18
:10085000201BA22FAE0F9E2F901B9B1530F4B0E0F3
:10086000A65BBE4F9C919193F4CF8B0D8093490171
:100870006EC081FF6CC0F801A2E5B1E020E030E07D
:10088000422F2B1550F506B607FEFDCF93B181B16F
:10089000887F883531F4809148018B7F80934801AF
:1008A0001DC09193A9018D9380914701882319F070
:1008B00081508093470180914701813021F486B7B0
:1008C0008F73806886BF2F5F3F4F809147018823D9
:1008D00029F086B7806886BFD3CF4B2DB42E37C0A2
:1008E00080914401883299F18C3311F0780124C051
:1008F0008DB69EB6462F50E08DB79EB7841B950BE4
:100900000FB6F8949EBF0FBE8DBFEDB7FEB7319600
:100910007F0160E070E0CF0169D4D801F7018E2F2C
:100920008E198B1518F481918D93F9CF0FB6F89429
:100930009EBE0FBE8DBE0BC08E2D801B8B1538F456
:1009400079DE80916E01F70181937F01F5CF8B2DC8
:100950000FB6F894DEBE0FBECDBEDF91CF911F91D2
:100960000F91FF90EF90DF90CF90BF909F908F906E
:10097000089589E685BD13BCBB9A81E0809343014D
:10098000089583B783BF109243010895AF92BF9239
:10099000DF92EF92FF920F931F93CF93DF93EC01BF
:1009A0002981222309F4C9C1213209F472DE2831D8
:1009B00031F46C8170E08A8190E07CDEACC126313C
:1009C00061F480914801982F9A7009F456C086B757
:1009D000806986BF10924801AEC1273141F48091F1
:1009E000480181618093480110924901A8C12431D6
:1009F00059F510924A018E8180934E019F81909308
:100A00004F01911103C08093470102C0109247012A
:100A1000909148019C7E9360909348018C81209135
:100A20006A01281302C092FD8AC180936A01946012
:100A30009093480144E1BE0161DE21E0892B09F475
:100A400020E0822F81957EC1253161F410924A0108
:100A50008C8180936A0199E09093480145E1BE0141
:100A60004DDE69C1809148018E7F809348013C81B1
:100A7000E32FF0E0213019F48081888362C14A813C
:100A8000223011F4408357C1542F577081E090E019
:100A9000052E01C0880F0A94EAF7233021F48095CF
:100AA0009081982304C0243021F49081982B908366
:100AB00042C1253091F416BE11B88A8180937A0123
:100AC000A49A8C81882311F0AC9A01C0AC98A598A7
:100AD000AD988DEE87BB88BB2EC1263031F4AC9A21
:100AE000F6DD87B3827187BB26C188B3882309F4FA
:100AF00022C1273031F4BE01CE01029669DD84E0C7
:100B000021C1283031F4409379018B8180937801A1
:100B100012C18C819D819093770180937601293059
:100B200011F480E203C02B3021F480EA809373013A
:100B300006C18A819B8190937501809374012A304C
:100B400011F480E403C02C3021F480EC8093730115
:100B5000F2C02E3109F057C0309345014093460151
:100B6000A2E6AA2EA0E0BA2E28E630E080E090E0CF
:100B7000E42EF12C41E050E0B701082E02C075953B
:100B800067950A94E2F760FF33C0BF01082E02C0E8
:100B9000759567950A94E2F7D50160FF19C06D91CC
:100BA0007C91DB01DC908A01D9010C9002C0000F1E
:100BB000111F0A94E2F7D02ADB01DC92D5011296CC
:100BC0006D917C911397DB011C91102B1C9310C02D
:100BD0006D917C91DB01DC908A01D9010C9002C0FF
:100BE000000F111F0A94E2F700950D21DB010C9311
:100BF0000196B8E0AB0EB11C285F3F4F86309105DF
:100C000009F0BACF4DC02F3109F04DC060914601B7
:100C100070E0A4E6B0E0E8E6AE2EE0E0BE2E80E0B4
:100C200090E041E050E09B01082E02C035952795E9
:100C30000A94E2F720FF2CC02C8130E0082E02C07D
:100C4000359527950A94E2F720FF12C02D913C912B
:100C50001197F901F0808A01F501008002C0000FB0
:100C6000111F0A94E2F700950F21F901008310C0CB
:100C70002D913C911197F901F0808A01F5010080D6
:100C800002C0000F111F0A94E2F7F02AF901F08266
:100C900001961896F8E0AF0EB11C8630910519F652
:100CA00081E0888348C0203229F51882E8E6F0E028
:100CB00080E090E041E050E0DF0112970D90BC91A0
:100CC000A02D2C9130E0008002C0359527950A9424
:100CD000E2F720FF09C068819A01082E01C0220FA7
:100CE0000A94EAF7622B688301963896863091055C
:100CF00019F727C02832A1F02932E9F0223371F424
:100D0000311102C03EDE07C080914301811102C053
:100D100030DE01C033BD81E0888314C02C3319F468
:100D2000209344010CC02D3319F42093440103C0D7
:100D300081E02E3339F080E005C088E003C08FEFFA
:100D400001C081E0DF91CF911F910F91FF90EF9053
:100D5000DF90BF90AF900895109245011092460128
:100D6000089510BC8DE489B988E98AB986E880BD08
:100D7000E3ECF0E081E0E334F80711F01192FACFF0
:100D800080E88093C1001092C2001092A4011092DA
:100D9000A3011092A6011092A50181E28CB90895D9
:100DA000E3ECF0E0119281E0E334F807D9F7109218
:100DB000C20008955D9910C02091A5013091A6014F
:100DC000A9014F5F5F4F5093A6014093A501213BBE
:100DD000344080F38FEF08958CB91092A6011092E1
:100DE000A50181E00895CF93DF93EC0189918823D9
:100DF00029F0E0DF87FFFACF8FEF01C081E0DF91BC
:100E0000CF910895CF92DF92EF92FF920F931F93AD
:100E1000CF93DF93EC01D62E8091480180FF1EC056
:100E20008E01802F8C1B8D1508F06FC0F801819109
:100E30008F0124DC88329105A1F38033910589F379
:100E40008F3FFFEF9F0769F380934A0180934D0125
:100E500086B7806986BF10924801E3CF8091440134
:100E6000893251F4CE01DF91CF911F910F91FF9004
:100E7000EF90DF90CF90B7CF8D3321F08E01B0E6A9
:100E8000CB2E31C0E199FECF4D2D50E060E070E0F7
:100E9000CE01DF91CF911F910F91FF90EF90DF90E6
:100EA000CF90B4C180917A01F0E28F9FE00CF11CE9
:100EB00011248091740190917501E816F90698F457
:100EC0006BE671E08FE691E083DB80916E0190919B
:100ED00072018913E7CF90917901891719F39091E5
:100EE00078018917F9F2802F8C1B8D1570F4F801A9
:100EF00081918F01809372019DDB80916F018C2520
:100F000080936F01E12CF12CD4CFDF91CF911F9111
:100F10000F91FF90EF90DF90CF900895BF92CF9206
:100F2000DF92EF92FF920F931F93CF93DF93CDB792
:100F3000DEB7B82ECDB6DEB6282F30E02E5F3F4F9D
:100F40008DB79EB7821B930B0FB6F8949EBF0FBE52
:100F50008DBF0DB71EB70F5F1F4F6B2DC8015DDC36
:100F6000882369F078018E2D801B8B1528F4F701FA
:100F700081917F011FDFF7CF81E090E002C08FEF0A
:100F80009FEF0FB6F894DEBE0FBECDBEDF91CF91BE
:100F90001F910F91FF90EF90DF90CF90BF90089539
:100FA00082E990E020CFCF93C0E044E160E070E0C0
:100FB0008C2FA4DB892B21F08C2FFCDE80E2FADE63
:100FC000CF5FC03891F7CF910895CF93DF93CDB71E
:100FD000DEB728970FB6F894DEBF0FBECDBF809165
:100FE000C200882309F4A0C08091A3019091A401BC
:100FF00001969093A4018093A3018132934070F0F5
:101000008091A201882351F0CBDE1092A4011092AE
:10101000A3011092A20186E990E0E5DE8091A20191
:10102000823039F48091C00079DF97FD80C0B8DE4E
:101030004FC0843091F48091C2006091C00090E074
:101040000397262F30E0281739070CF06DC087EC86
:1010500090E0D8DE1092A2014CC09091C200933073
:10106000D0F18091C3008235B9F48091C40080939F
:10107000BF009091C5009093C00024E12A839F8314
:1010800018868D83CE01019681DC882301F18EE9DB
:1010900090E0A9DE82E018C0873509F045C0809154
:1010A000C4008093BF009091C5009093C00025E1DB
:1010B0002A839F838D83CE01019668DC811107C04E
:1010C0008EE990E090DE84E08093A2012DC068DF7D
:1010D0001092A20129C09091C2009923D9F0909159
:1010E000C300963441F481111FC05DDF81EA90E0B6
:1010F0007ADE56DE19C09335B9F48823A9F086E16B
:101100008A83CE01019642DC1092A20149DE89EA6F
:1011100090E009C09091C200933030F0811104C07A
:101120003FDE81EB90E05FDE80E090E002C08FEF79
:101130009FEF28960FB6F894DEBF0FBECDBFDF91AC
:10114000CF91089583E081BB84E088BB17BAC39830
:10115000C498C5982FE088E190E00FB6F894A89560
:1011600081BD0FBE21BDA895FCDD4DD97894AFDAC5
:10117000F3DD789450D929DF97FDF3DDA89581B18F
:10118000887FC1F7809150018F5F809350019FDA73
:10119000F1CF1F920F920FB60F9211242F938F93BE
:1011A0009F93EF93FF931092A4011092A301F894E0
:1011B0008CB12091C2009091C100291302C01092FD
:1011C000C200E091C20091E09E0F9093C200F0E057
:1011D000ED53FF4F80837894FF91EF919F918F9112
:1011E0002F910F900FBE0F901F901895DC01CB012F
:1011F000FC01E199FECF06C0FFBBEEBBE09A319641
:101200000DB20D9241505040B8F70895DC01CB016A
:1012100002C02D9105D041505040D8F70895262F97
:10122000E199FECF9FBB8EBB2DBB0FB6F894E29A1F
:0C123000E19A0FBE01960895F894FFCFDC
:10123C005AD231003200300001003100320030004F
:10124C000000370038003600040037003800360044
:10125C000300340035003300040034003500330043
:10126C0005004552520054494D454F5554004F4BC3
:10127C00004F4B205343414E004F4B2053544F5083
:0A128C00004741524241474521004E
:00000001FF
