:100000006AC0AAC083C082C081C080C07FC07EC0D9
:100010007DC07CC07BC0A6C779C078C077C076C0E1
:1000200075C074C073C000CDD914F13C28E5A16C33
:1000300078B5509D894409021200010100807D09B4
:1000400004000000FF00000012010101FF00000891
:1000500064190100070101020001040309043C03C3
:10006000550053004200740069006E0079002000C2
:1000700028006D003800290020005300500049007E
:100080002C002000490032004300200041006400A1
:10009000610070007400650072003C034400690058
:1000A00063006B002000530074007200650065005F
:1000B00066006C0061006E0064002C0020004200AD
:1000C000610072007200790020004300610072003C
:1000D00074006500720011241FBECFE5D4E0DEBFBE
:1000E000CDBF10E0A0E6B0E0E8E4F2E102C0059088
:1000F0000D92AA3BB107D9F711E0AAEBB0E001C01D
:100100001D92A33BB107E1F779D49CC879CFDC01FC
:100110009FEF8FEF46E2F0E018C02D918227E82F85
:10012000EF70E40F3591E82FE295892F932F31700E
:10013000E327EF709295392F9F70307E8327E40F6D
:10014000359193273170932783276A9532F78095ED
:1001500090958D939D9308950F931F932F93DF9305
:10016000CF930FB70F939999FECF99990BC0999997
:1001700009C0999907C0999905C0999903C000E4ED
:100180000ABFACC0C091EA00DD27C551DF4F0BE0CC
:1001900013E022E0999BE9CF3F934F936F9363B3B2
:1001A00030E803C063B3432B499344276370262789
:1001B000215023B32370A9F137953C3FA0F5622766
:1001C000615063B3637037953C3F98F52627215003
:1001D000379523B323703C3F90F5622761503795E4
:1001E0003C3F63B36370A0F52627215037953C3F11
:1001F000C8F523B323706227615037953C3FB0F5B3
:100200000A9563B37AF063702627215037953C3FF7
:1002100088F523B323706227615037953C3F10F275
:100220002DC031C052C0612723B323703F77416096
:10023000C6CF3F77426063B363702127C7CF3F7754
:100240004460612723B32370622761503795C8CF7C
:100250003F7748602127316063B3637026272150C0
:100260003795C6CF3F7740616127C1CF3F77406266
:100270002127C4CF3F7740646127C9CF3F774068CB
:10028000212700C08FCF30E43ABF0B500195C01B2F
:10029000D040288121FD2DC019811F774091010197
:1002A000141799F4293691F40091DB000023F1F042
:1002B0004091E9004423D1F44093DB004091E700F2
:1002C00040930101CCEDD0E02BC022272093BA004F
:1002D0006F914F913F910AB706FD45CF0F910FBF28
:1002E000CF91DF912F911F910F911895C0E6D0E02B
:1002F00016C0217059F32091BA00222339F340919E
:10030000E900442399F70093E9002093E800009165
:10031000EA004BE0401B4093EA00C1E6D0E001E078
:1003200025B32C7F216014B3136025BB14BB13E0ED
:1003300030E830FF212725BB379547954C3FC0F566
:1003400030FF2127379525BB47954C3FA8F530FF57
:1003500021273795000025BB47954C3F78F530FFA6
:1003600021273795000025BB47954C3F48F530FFC6
:100370002127699125BB379547954C3F18F530FFEC
:100380002127379525BB47954C3F00F530FF2127A6
:100390003795479525BB4C3FD8F430FF212737953B
:1003A000362F479525BB4C3FA8F40A9512F614C08A
:1003B0002127442725BBC2CF2127C5CF2127CBCF5B
:1003C0002127D1CF2127442725BBD7CF2127DACF1B
:1003D0002127DFCF2127E5CF2C7F25BB6F914F91C0
:1003E0003F9100E40ABFDF91CF9114B3022F216047
:1003F00025BB1C7FDFBFDF912F91000014BB05BB25
:100400001F910F91189585B7836085BF8BB7806466
:100410008BBF789408951F93CF93DF936091E90089
:10042000662309F474C08091EA00CCE0D0E0C81BD8
:10043000D109C551DF4F81E08093BE008091E80073
:100440008D3209F056C01E818F8181111FEF888186
:10045000807671F58981811104C01882198282E049
:1004600040C0853021F48A818093E70039C086300E
:10047000A9F482E08093BE008B81813009F1823043
:1004800019F1833069F58A81882311F1813021F1D6
:10049000823031F58CE3CEE5D0E023C0883019F40A
:1004A00081E088831EC08A30D9F4188281E019C0A7
:1004B000CE019FD08F3FA9F483E08093BE0013C08C
:1004C00082E1C8E4D0E00DC082E1C6E3D0E009C01B
:1004D00084E0CAE5D0E005C08CE3CAE9D0E001C001
:1004E00080E0811708F0812FD093BC00C093BB003F
:1004F00005C0635011F0CE01F7D180E08093BD00BC
:1005000083EC8093DC001092DB001092E900809174
:10051000DB00811150C08091BE00882309F44BC0DC
:100520009091DC0028E892279093DC001091BD00A8
:10053000193018F4112399F101C018E0833031F417
:10054000612F8DED90E058D1182F24C0E091BB00B1
:10055000F091BC00813081F4DF014DED50E0EA0103
:100560009D012F5F3F4FF9018C9189938C2F841B44
:10057000811760F4D901F4CF2DED30E0D9018491D9
:100580008D9331968A2F821B8117C8F3F093BC009C
:10059000E093BB008091BD00811B8093BD00612F63
:1005A0008DED90E0B4DD83E0810F8093DB001830A7
:1005B00010F41092BE008AE0989906C08150E1F7CD
:1005C0001092E70010920101DF91CF911F910895E1
:1005D00088E10FB6F89481BD11BC0FBE2FE088E111
:1005E00090E00FB6F894A89581BD0FBE21BDF89498
:1005F000FFCFCF93DF93EC019981992309F4F6C0E3
:10060000913209F4E5DF983131F46C8170E08A8130
:1006100090E01BD2D9C0963121F452D2109202013F
:10062000E3C0973141F4809102018161809302011E
:1006300010922F01DDC0943159F5109204018E8182
:10064000809308019F8190930901911103C08093C9
:10065000310102C010923101909102019C7E9360A1
:10066000909302018C8120912801281302C092FDF1
:10067000BFC08093280194609093020144E1BE01C1
:100680002AD221E0892B09F420E0822F8195B1C084
:10069000953161F4109204018C818093280199E0D6
:1006A0009093020145E1BE0116D29EC080910201E5
:1006B0008E7F809302018C81E82FF0E0913011F45D
:1006C000808178C06A81923011F460838DC0462F9A
:1006D000477021E030E0042E01C0220F0A94EAF7AF
:1006E000933021F420958081822304C0943021F43A
:1006F0008081822B808378C0953091F416BE11B82A
:100700008A818093CA00A49A8C81882311F0AC9AC4
:1007100001C0AC98A598AD988DEE87BB88BB64C02E
:10072000963031F4AC9A9ED187B3827187BB5CC09E
:1007300028B3222309F458C0973031F4BE01CE010A
:10074000029609D584E055C0983031F460933001A9
:100750008B818093250148C02C813D813093C90055
:100760002093C800993011F480E203C09B3021F43B
:1007700080EA8093C7003CC02A813B8130932A01E4
:10078000209329019A3011F480E403C09C3021F4B5
:1007900080EC8093C70028C09E3111F42CD403C094
:1007A0009F3121F471D481E088831EC0903229F4F6
:1007B0001882ADD4888381E01CC0983251F0993200
:1007C00099F0923321F408D481E0888312C09C33DD
:1007D00019F4909303010CC09D3319F49093030115
:1007E00003C081E09E3329F080E003C088E001C0AF
:1007F0008FEFDF91CF9108959F92AF92BF92CF92EA
:10080000DF92EF92FF920F931F93CF93DF93CDB7B9
:10081000DEB78C01962ECDB6DEB68091020180FF48
:100820001AC084FF12C0F8018E2F801B891508F0B2
:1008300049C0A0912F0181E08A0F80932F01B0E081
:10084000AC5FBE4F8C918193EFCF81FF3BC0C8015D
:10085000D1D1982E37C080910301883299F18C3321
:1008600011F0780124C0ADB6BEB6462F50E08DB76A
:100870009EB7841B950B0FB6F8949EBF0FBE8DBF1D
:10088000EDB7FEB731967F0160E070E0CF01B4D4E0
:10089000D801F7018E2F8E19891518F481918D9347
:1008A000F9CF0FB6F894BEBE0FBEADBE0BC08E2DF5
:1008B000801B891538F47ED48091C200F7018193A2
:1008C0007F01F5CF892D0FB6F894DEBE0FBECDBEE9
:1008D000DF91CF911F910F91FF90EF90DF90CF901C
:1008E000BF90AF909F900895CF92DF92EF92FF92CA
:1008F0000F931F93CF93DF93EC01D62E80910201CB
:1009000080FF1CC08E01802F8C1B8D1508F06DC0E0
:10091000F80181918F01BDD088329105A1F3803318
:10092000910589F38F3FFFEF9F0769F380930401DF
:1009300080930701C5D010920201E5CF8091030199
:10094000893251F4CE01DF91CF911F910F91FF9029
:10095000EF90DF90CF90E3C18D3321F08E0180E6E0
:10096000C82E31C0E199FECF4D2D50E060E070E01F
:10097000CE01DF91CF911F910F91FF90EF90DF900B
:10098000CF904AC48091CA00F0E28F9FE00CF11C26
:1009900011248091290190912A01E816F90698F412
:1009A0006FEB70E083EC90E0D6D38091C200909121
:1009B000C6008913E7CF90913001891719F3909100
:1009C00025018917F9F2802F8C1B8D1570F4F80121
:1009D00081918F018093C600EDD38091C3008C2557
:1009E0008093C300E12CF12CD4CFDF91CF911F91E4
:1009F0000F91FF90EF90DF90CF90089583E081BB3F
:100A000084E088BB17BAC398C498C5982FE088E1E2
:100A100090E00FB6F894A89581BD0FBE21BDA895B2
:100A20003CD1F1DC78941ED0E1D27894F4DCDDD1B5
:100A300097FD33D1A89581B1887FC1F780910A01D4
:100A40008F5F80930A010ED0F1CF6430710519F4E5
:100A50000898089A03C021B12C7F21B980B981E0A0
:100A600090E00895BD98C59884B38F7C84BBAC9802
:100A7000AD9816BE61E070E08AE090E0E6DF86B7F0
:100A8000846086BF089506B607FEFDCF81E090E042
:100A9000089583B986B7806886BFF5DF97FD04C0E7
:100AA00081B1887F90E008958FEF9FEF0895EBDF8D
:100AB00097FD03C083B190E008958FEF9FEF0895F5
:100AC00086B7806986BF089586B7806A86BFDBCF08
:100AD00010920201F5CFEF92FF920F931F93CF93E5
:100AE000DF9300D0CDB7DEB7182F7B01042FECDFEA
:100AF00097FF03C0F70110825DC091B1987F90937A
:100B0000050191B1987F983021F091B1987F903193
:100B1000E1F4812F90E0043141F4880F991F816046
:100B2000B8DF26B72F7D26BF05C096B79F7596BF45
:100B3000880FAFDF182F8093060197FF13C08983BA
:100B40009A83C6DF89819A8113C084E886BF81B108
:100B5000887F80930401F701808380910201043132
:100B600031F513C08833910541F08834910529F09F
:100B70008034910591F0043151F484E086BF1093E4
:100B80000401F701108380910201887F11C0803237
:100B9000910529F0489709F522C0053171F484E8E0
:100BA00086BF10930401F701108380910201867FB4
:100BB0008093020180E090E014C0043181F4F701D9
:100BC0008681823018F48781882319F086B7806483
:100BD00086BF86B7806886BF02C0053101F381E019
:100BE00090E00F900F90DF91CF911F910F91FF90A8
:100BF000EF900895CF92DF92EF92FF920F931F93A1
:100C0000CF93DF931F92CDB7DEB78C013CE0E32E8C
:100C100031E0F32EC12CD12CC61698F5698347DF3D
:100C200091B1987FF80181938F019601F70191931B
:100C30007F01A6014F5F5F4F6981983539F480913C
:100C400002018B7F80930201CA011DC08091310196
:100C5000882319F0815080933101809131018130D6
:100C600021F496B79F73906896BF6A018091310115
:100C7000811103C0C901019606C096B7906896BF5E
:100C8000CBCF862F90E00F90DF91CF911F910F91E6
:100C9000FF90EF90DF90CF90089510BC8DE489B95C
:100CA00088E98AB986E880BDE3E3F1E081E0E33BCF
:100CB000F80711F01192FACF80E88093CF001092DC
:100CC000D00010922C0110922B0110922E01109244
:100CD0002D0181E28CB90895E3E3F1E0119281E006
:100CE000E33BF807D9F71092D00008955D9910C042
:100CF00020912D0130912E01A9014F5F5F4F50933C
:100D00002E0140932D01213B344080F38FEF089555
:100D10008CB910922E0110922D0181E00895CF938D
:100D2000DF93EC018991882329F0E0DF87FFFACF78
:100D30008FEF01C081E0DF91CF910895BF92CF92F4
:100D4000DF92EF92FF920F931F93CF93DF93CDB774
:100D5000DEB7B82ECDB6DEB6282F30E02E5F3F4F7F
:100D60008DB79EB7821B930B0FB6F8949EBF0FBE34
:100D70008DBF0DB71EB70F5F1F4F6B2DC8013CDD38
:100D8000882369F078018E2D801B8B1528F4F701DC
:100D900081917F01ABDFF7CF81E090E002C08FEF60
:100DA0009FEF0FB6F894DEBE0FBECDBEDF91CF91A0
:100DB0001F910F91FF90EF90DF90CF90BF9008951B
:100DC00082E990E0ACCFCF93C0E044E160E070E016
:100DD0008C2F81DE892B21F08C2F88DF80E286DF4B
:100DE000CF5FC03891F7CF910895CF93DF93CDB700
:100DF000DEB728970FB6F894DEBF0FBECDBF809147
:100E0000D000882309F4A0C080912B0190912C017F
:100E1000019690932C0180932B018132934070F0C6
:100E200080912401882351F057DF10922C011092F9
:100E30002B011092240186E990E071DF809124015A
:100E4000823039F48091CE0079DF97FD80C044DF95
:100E50004FC0843091F48091D0006091CE0090E03A
:100E60000397262F30E0281739070CF06DC087E371
:100E700091E03ADD109224014CC09091D000933063
:100E8000D0F1809133018235B9F48091340180939F
:100E9000CD00909135019093CE0024E12A839F8369
:100EA00018868D83CE010196A4DB882301F18EE99B
:100EB00090E035DF82E018C0873509F045C08091A9
:100EC00034018093CD00909135019093CE0025E1BF
:100ED0002A839F838D83CE0101968BDB811107C00E
:100EE0008EE990E01CDF84E0809324012DC068DF50
:100EF0001092240129C09091D0009923D9F09091AB
:100F00003301963441F481111FC05DDF81EA90E026
:100F100006DFE2DE19C09335B9F48823A9F086E133
:100F20008A83CE01019665DB10922401D5DE89EA21
:100F300090E009C09091D000933030F0811104C04E
:100F4000CBDE81EB90E0EBDE80E090E002C08FEF43
:100F50009FEF28960FB6F894DEBF0FBECDBFDF918E
:100F6000CF9108951F920F920FB60F9211242F93D5
:100F70008F939F93EF93FF9310922C0110922B016C
:100F8000F8948CB12091D0009091CF00291302C029
:100F90001092D000E091D00091E09E0F9093D0008D
:100FA000F0E0ED5CFE4F80837894FF91EF919F918C
:100FB0008F912F910F900FBE0F901F90189589E67B
:100FC00085BD13BCBB9A81E080932701089583B748
:100FD00083BF109227010895811101C0F8CF90912D
:100FE0002701911101C0EBCF83BD08951092260116
:100FF000109232010895CF93DF938093260160937E
:101000003201E2E6F0E0A8E6B0E080E090E041E006
:1010100050E02091320130E0082E02C0359527952E
:101020000A94E2F720FF27C02091260130E0082E25
:1010300002C0359527950A94E2F7C081D181688175
:1010400020FF0FC09A010C9002C0220F331F0A9498
:10105000E2F7622B6883C281D3813881322B3883D7
:101060000AC09A010C9002C0220F331F0A94E2F7C3
:101070002095262328830196389618968630910568
:1010800041F6DF91CF9108951F93CF93DF93A4E6AC
:10109000B0E0E8E6F0E020E030E090E061E070E011
:1010A0004091320150E0022E02C0559547950A94B6
:1010B000E2F740FF21C0AC01022E02C055954795D2
:1010C0000A94E2F7CD91DC911197188140FF0BC093
:1010D000AB01008002C0440F551F0A94E2F740950F
:1010E0004123488309C0AB01008002C0440F551F53
:1010F0000A94E2F7142B18832F5F3F4F1896389607
:101100002630310569F6DF91CF911F910895E8E609
:10111000F0E020E030E080E061E070E0DF01129775
:101120000D90BC91A02D4C9150E0008002C05595CF
:1011300047950A94E2F740FF07C0AB01022E01C0B9
:10114000440F0A94EAF7842B2F5F3F4F38962630DE
:10115000310521F70895CF93DF93FB01AC014C5F7C
:101160005F4FA0E0EC01B991CE0128E030E070E8DB
:1011700060E0C72FCB2309F0C39A0A2E00C00000FD
:101180000A94E1F7C59A0A2E00C000000A94E1F71C
:10119000660FB4996F5FC398C59876952150310951
:1011A0002115310531F7619384179507D9F6DF9141
:1011B000CF9108958091D9009091DA009C012F5F22
:1011C0003F4F3093DA002093D90080FD03C0109286
:1011D000D50003C028E02093D5009C01232F33279E
:1011E00026952093D600969587958093D70061ED3C
:1011F00070E085ED90E0AFCFDC01CB01FC01E1991F
:10120000FECF06C0FFBBEEBBE09A31960DB20D9249
:1012100041505040B8F70895DC01CB0102C02D9138
:1012200005D041505040D8F70895262FE199FECFC0
:101230009FBB8EBB2DBB0FB6F894E29AE19A0FBE0E
:0812400001960895F894FFCF18
:101248005AD2310032003000010031003200300043
:101258000000370038003600040037003800360038
:101268000300340035003300040034003500330037
:1012780005004552520054494D454F5554004F4BB7
:10128800004F4B205343414E004F4B2053544F5077
:0A1298000047415242414745210042
:00000001FF
