:100000006AC0A5C082C081C080C07FC07EC07DC0E4
:100010007CC07BC07AC079C078C077C076C075C01C
:1000200074C073C072C000CDD914F13C28E5A16C36
:1000300078B5509D89443C034400690063006B001F
:1000400020005300740072006500650066006C00BB
:1000500061006E0064002C0020004200610072000C
:100060007200790020004300610072007400650096
:1000700072003C03550053004200740069006E009A
:100080007900200028006D0038002900200053006E
:10009000500049002C00200049003200430020009D
:1000A000410064006100700074006500720012017C
:1000B0000101FF00000864190100050101020001AF
:1000C0000902120001010080C80904000000FF00BD
:1000D00000000403090411241FBECFE5D4E0DEBFF5
:1000E000CDBF10E0A0E6B0E0EAE5FBE002C005907D
:1000F0000D92A236B107D9F710E0A2E6B0E001C038
:100100001D92A23CB107E1F745C37ACFDC019FEF16
:100110008FEF660FB9F046E2F0E0229560FF2D9177
:10012000E82FE227EF70929582958F70392F307FFC
:10013000832B9F70E40F359193273170932783278A
:100140006A9559F7809590958D939D9308950F9397
:100150001F932F93DF93CF930FB70F939999FECFF0
:1001600099990BC0999909C0999907C0999905C0A7
:10017000999903C000E40ABFA8C0C091AA00DD2776
:10018000C555DF4F0BE013E022E0999BE9CF3F9389
:100190004F936F9363B330E803C063B3432B49932A
:1001A000442763702627215023B32370A9F1379584
:1001B0003C3FA0F56227615063B3637037953C3FC5
:1001C00098F526272150379523B323703C3F90F5AF
:1001D0006227615037953C3F63B36370A0F52627D3
:1001E000215037953C3FC8F523B3237062276150F7
:1001F00037953C3FB0F50A9563B37AF063702627D4
:10020000215037953C3F88F523B323706227615016
:1002100037953C3F10F22DC031C048C0612723B351
:1002200023703F774160C6CF3F77426063B363700E
:100230002127C7CF3F774460612723B3237062270C
:1002400061503795C8CF3F7748602127316063B34D
:100250006370262721503795C6CF3F7740616127CD
:10026000C1CF3F7740622127C4CF3F7740646127E9
:10027000C9CF3F774068212700C08FCF30E43ABF15
:100280000B500195033090F0C01B2881233C91F165
:100290002B3481F119811F774091C100141731F47B
:1002A0002936D9F02D3249F0213E39F044274093C8
:1002B00062006F914F913F9108C0209362006F914F
:1002C0004F913F910AB706FD49CF0F910FBFCF91D4
:1002D000DF912F911F910F91189500919C000023A1
:1002E000F1F04091A9004423D1F440939C00CDE962
:1002F000D0E018C0209162002223C1F24091A900F1
:10030000442369F40093A9002093A8000091AA0057
:100310004BE0401B4093AA00C0E6D0E002C0C1E61B
:10032000D0E001E025B32C7F216014B3136025BB1E
:1003300014BB13E030E830FF212725BB37954795E4
:100340004C3FC0F530FF2127379525BB47954C3FE3
:10035000A8F530FF21273795000025BB47954C3F76
:1003600078F530FF21273795000025BB47954C3F96
:1003700048F530FF2127699125BB379547954C3FBC
:1003800018F530FF2127379525BB47954C3F00F5E1
:1003900030FF21273795479525BB4C3FD8F430FFD8
:1003A00021273795362F479525BB4C3FA8F40A9552
:1003B00012F614C02127442725BBC2CF2127C5CF61
:1003C0002127CBCF2127D1CF2127442725BBD7CF2A
:1003D0002127DACF2127DFCF2127E5CF2C7F25BBAF
:1003E0006F914F913F9100E40ABFDF91CF9114B319
:1003F000022F216025BB1C7FDFBFDF912F91000002
:1004000014BB05BB1F910F91189585B7836085BFFD
:100410008BB780648BBF789408951F93CF93DF933D
:100420006091A900662309F475C08091AA009927FC
:10043000CC27DD27C81BD90BC954DF4F91E090931F
:1004400063008091A8008D3209F055C01E818F8114
:1004500081111FEF88818076F1F58981882321F44D
:100460001882198292E03FC0853021F48A818093FE
:100470006700AFC0863029F582E0809363008B81EE
:10048000813019F4CEEAD0E004C0823021F4C0EC0F
:10049000D0E092E128C0833009F09BC08A81882394
:1004A00021F4C2EDD0E094E01EC0813019F4C6E31F
:1004B000D0E005C0823009F08CC0C2E7D0E09CE3F8
:1004C00012C0883011F4988304C08A3009F081C0CA
:1004D000188291E008C0CE0163D2982F8F3F19F4A3
:1004E00083E080936300191708F0192FD0936600FA
:1004F000C093650005C0635011F0CE016FD110E0CC
:100500001093640083EC80939D0010929C001092E5
:10051000A90005C080919C00882309F050C020915B
:100520006300222309F447C080919D0098E8892741
:1005300080939D0010916400193010F018E003C002
:10054000112309F448C0233031F4612F8EE990E083
:10055000E8D0182F1EC0E0916500F09166002130B0
:1005600021F090E0AEE9B0E00EC090E0AEE9B0E07E
:1005700003C081918D939F5F9117D9F706C0849135
:1005800031968D939F5F9117D1F7F0936600E093BA
:10059000650080916400811B80936400612F8EE967
:1005A00090E0B4DD1D5F10939C001350183038F4B8
:1005B0001092630004C0809167008093C1008AE0BC
:1005C00002C0815019F0989BFCCF0DC010926700BB
:1005D0000AC010E08BCF60E08EE990E097DD83E009
:1005E00080939C00E5CFDF91CF911F910895DC01AE
:1005F000FB019091680060E07D9140E050E820E0D0
:1006000030E0872F852309F0C39A092E00C000002F
:100610000A94E1F7C59A092E00C000000A94E1F798
:10062000440FB4994F5FC398C59856952F5F3F4FBD
:100630002830310531F740836F5F643011F0319617
:10064000DBCF089520916B0030916C002F5F3F4FFE
:1006500030936C0020936B002150304080916F00EC
:1006600087FF02C0220F331F8093700020FF03C05A
:10067000886080937000C901892F9927869580939F
:100680007100369527952093720064E770E080E74B
:1006900090E0ADDF089587B387BBC59A84B384BB70
:1006A000AC9AAD9AB99A16BE81B18C7F81B98AE0B5
:1006B00080B986B7846086BF089506B607FEFDCF71
:1006C0000895DC0120919B0030919A0040E022C007
:1006D000E42FFF2706B607FEFDCF83B1EA0FFB1F0D
:1006E000808351B1E42FFF27E758FF4F5087222323
:1006F00039F02150213021F486B780688F7B02C009
:1007000086B7806886BF583509F43B7F86B7806816
:1007100086BF4F5F4617E1F620939B0030939A0007
:1007200008950F931F93CF93DF93EC01062F8091D1
:100730009A00992780FD02C010E023C084FF14C0F6
:100740009091990020E00BC0FE01E20FF11DA92F4E
:10075000BB27A758BF4F8C9180832F5F9F5F2017C7
:1007600099F7909399000FC081FF0DC0CE01A9DFCA
:100770000AC068DFFE01E10FF11D809177008083E0
:100780001F5F1017B1F7802F9927DF91CF911F912D
:100790000F9108958BE481BB939A88E190E02FE05C
:1007A0000FB6F894A89581BD0FBE21BDA8952DDE8A
:1007B00072DF33DEA89581B18823D9F780917F005D
:1007C0008F5F80937F00F4CF83B986B7806886BF40
:1007D00006B607FEFDCF81B1992708958F929F92AB
:1007E000AF92BF92CF92DF92EF92FF920F931F933F
:1007F000CF93DF935C01862E10919A0010FF02C008
:1008000000E025C0C0906D00D0906E00809168001F
:10081000082F112765E0000F111F6A95E1F79090EE
:100820006900E0906A00FF243CC0F501E00FF11D73
:100830008081CADF883251F0803341F080937900A3
:1008400080937C0086B7806986BF10E00F5F081533
:1008500061F710939A0027C0F501EF0DF11D80811B
:1008600080937300EFDE8091700090E6892780937B
:100870007000C0E0D0E011C064E770E080E790E075
:10088000B6DE9091770080917300981721F4991546
:1008900011F09E1529F4C00FD11FCC15DD0560F3B2
:1008A000F394F814C9F6DF91CF911F910F91FF9047
:1008B000EF90DF90CF90BF90AF909F908F90089572
:1008C0001F93CF93DF93982FEB01142F86B7806A85
:1008D00086BF06B607FEFDCF81B180937A0081B155
:1008E000883019F081B18031D1F4292F33271431A8
:1008F00051F4220F331F822F816066DF982F86B755
:100900008F7D86BF07C086B78F7586BF822F880F01
:100910005BDF982F90937B00983389F416C084E8AE
:1009200086BF81B180937900888380919A001431C9
:1009300099F0867F80939A0080E090E02DC09834F3
:1009400021F0903479F0143149F484E086BF90931B
:100950007900988380919A00887FECCF903221F0C3
:100960009831C1F0153141F484E886BF9093790045
:10097000988380919A00DDCF143161F48E818230AA
:1009800018F48F81882319F086B7806486BF86B7F4
:10099000806886BF81E090E0DF91CF911F9108953C
:1009A000CF93DF93FC013181332319F488E090E089
:1009B000D1C0363169F490919A00892F8A7031F054
:1009C00086B7806986BF10929A0045C0908352C056
:1009D000373141F480919A00816180939A0010929E
:1009E0009900B6C0343151F5109279008681809318
:1009F0007D00878180937E008781882321F4868112
:100A000080939B0002C010929B0090919A0093608B
:100A10009F7E90939A00248180917800821711F430
:100A200092FD96C020937800946090939A0044E1E0
:100A3000BF01822F45DF892B71F08AC0353171F4F7
:100A40001092790084818093780099E090939A00C5
:100A500045E1BF0135DF80E090E07CC080919A00E5
:100A60008E7F80939A008481A82FBB27313029F490
:100A70008C91808381E090E06DC04281323011F42E
:100A80004C93E9CFEF012296242F277081E090E06C
:100A9000982F01C0990F2A95EAF7333021F48C91F1
:100AA0009095892304C0343021F48C91892B8C9348
:100AB000D2CF353081F416BE11B8828180936800A0
:100AC000A49A8481882311F0AC9A01C0AC988DEE71
:100AD00087BB88BBC0CF363031F4AC9ADCDD87B33E
:100AE000827187BBB8CF88B3882309F4B4CF37307D
:100AF00031F4BF01CE017BDD84E090E02BC03830C3
:100B000031F440936900838180936A00A4CF84818B
:100B1000958190936C0080936B00393011F480E2E2
:100B200003C03B3021F480EA80936F0011C08281C2
:100B3000938190936E0080936D003A3011F480E4BD
:100B400004C03C3009F087CF80EC80936F0083CFE6
:0A0B50008FEF90E0DF91CF91089540
:020B5A00D25A6D
:00000001FF
