:100000006AC0A6C083C082C081C080C07FC07EC0DD
:100010007DC07CC07BC07AC079C078C077C076C014
:1000200075C074C073C000CDD914F13C28E5A16C33
:1000300078B5509D89443C034400690063006B001F
:1000400020005300740072006500650066006C00BB
:1000500061006E0064002C0020004200610072000C
:100060007200790020004300610072007400650096
:1000700072003C03550053004200740069006E009A
:100080007900200028006D0038002900200053006E
:10009000500049002C00200049003200430020009D
:1000A000410064006100700074006500720012017C
:1000B0000101FF00000864190100060101020001AE
:1000C00009021200010100807D0904000000FF0008
:1000D00000000403090411241FBECFE5D4E0DEBFF5
:1000E000CDBF10E0A0E6B0E0EEE1F2E102C0059085
:1000F0000D92AA3BB107D9F711E0AAEBB0E001C01D
:100100001D92A63AB107E1F7EFD687C879CFDC0197
:100110009FEF8FEF660FB9F046E2F0E0229560FFA7
:100120002D91E82FE227EF70929582958F70392FED
:10013000307F832B9F70E40F359193273170932785
:1001400083276A9559F7809590958D939D9308958F
:100150000F931F932F93DF93CF930FB70F9399991B
:10016000FECF99990BC0999909C0999907C099999F
:1001700005C0999903C000E40ABFA8C0C0918901D5
:10018000DD27C657DE4F0BE013E022E0999BE9CF55
:100190003F934F936F9363B330E803C063B3432B34
:1001A0004993442763702627215023B32370A9F174
:1001B00037953C3FA0F56227615063B36370379574
:1001C0003C3F98F526272150379523B323703C3FB9
:1001D00090F56227615037953C3F63B36370A0F59B
:1001E0002627215037953C3FC8F523B3237062275B
:1001F000615037953C3FB0F50A9563B37AF0637070
:100200002627215037953C3F88F523B3237062277A
:10021000615037953C3F10F22DC031C048C0612776
:1002200023B323703F774160C6CF3F77426063B30B
:1002300063702127C7CF3F774460612723B32370C2
:10024000622761503795C8CF3F77486021273160DA
:1002500063B36370262721503795C6CF3F7740613F
:100260006127C1CF3F7740622127C4CF3F774064E9
:100270006127C9CF3F774068212700C08FCF30E486
:100280003ABF0B500195033090F0C01B2881233CEE
:10029000B1F12B34A1F119811F774091A0011417FE
:1002A00031F42936D9F02D3249F0213E39F0442776
:1002B0004093BA006F914F913F9108C02093BA00CC
:1002C0006F914F913F910AB706FD49CF0F910FBF34
:1002D000CF91DF912F911F910F91189500917A0185
:1002E000002311F1409188014423F1F440937A01F5
:1002F000409186014093A001CBE7D1E018C0209146
:10030000BA002223A1F240918801442369F40093AA
:10031000880120938701009189014BE0401B4093A5
:100320008901C0E6D0E002C0C1E6D0E001E025B31B
:100330002C7F216014B3136025BB14BB13E030E89D
:1003400030FF212725BB379547954C3FC0F530FF3F
:100350002127379525BB47954C3FA8F530FF21272E
:100360003795000025BB47954C3F78F530FF212796
:100370003795000025BB47954C3F48F530FF2127B6
:10038000699125BB379547954C3F18F530FF2127DC
:10039000379525BB47954C3F00F530FF2127379512
:1003A000479525BB4C3FD8F430FF21273795362F92
:1003B000479525BB4C3FA8F40A9512F614C0212797
:1003C000442725BBC2CF2127C5CF2127CBCF21274B
:1003D000D1CF2127442725BBD7CF2127DACF21270B
:1003E000DFCF2127E5CF2C7F25BB6F914F913F9128
:1003F00000E40ABFDF91CF9114B3022F216025BB27
:100400001C7FDFBFDF912F91000014BB05BB1F9144
:100410000F91189585B7836085BF8BB780648BBFBC
:10042000789408951F93CF93DF936091880166239A
:1004300009F477C080918901CCE0D0E0C81BD109D4
:10044000C657DE4F81E08093BB00809187018D32DB
:1004500009F059C01E818F8181111FEF888180763C
:1004600009F041C08981882321F41882198292E021
:1004700042C0853021F48A8180938601B1C08630E4
:1004800039F582E08093BB008B81813021F492E1C9
:10049000CEEAD0E030C0823021F492E1C0ECD0E06E
:1004A0002AC0833009F09CC08A81882321F494E01B
:1004B000C2EDD0E020C0813021F49CE3C6E3D0E05F
:1004C0001AC0823009F08CC09CE3C2E7D0E013C0B0
:1004D000883019F481E0888304C08A3009F080C034
:1004E000188291E008C0CE0182D1982F8F3F19F475
:1004F00083E08093BB00191708F0192FD093BE003A
:10050000C093BD0005C0635011F0CE0118D410E0B7
:100510001093BC0083EC80937B0110927A011092BF
:10052000880180917A01882309F04EC02091BB0098
:10053000222309F449C080917B0198E889278093A0
:100540007B011091BC00193010F018E002C011239B
:1005500079F1233031F4612F8CE791E01ED3182F0D
:1005600022C03091BD004091BE00213061F4832F44
:10057000942FFC01ACE7B1E081918D938E2F831B0A
:100580008117D0F30CC0832F942FFC01ACE7B1E0AE
:10059000849131968D938E2F831B8117C8F3F0932E
:1005A000BE00E093BD008091BC00811B8093BC0025
:1005B000612F8CE791E0ABDD1D5F10937A01135042
:1005C000183010F41092BB008AE002C0815019F07C
:1005D000989BFCCF07C0109286011092A00102C028
:1005E00090E08BCFDF91CF911F910895DC01FB014B
:1005F0006091C10050E07D9190E040E828E030E05B
:10060000842F872309F0C39A062E00C000000A94A5
:10061000E1F7C59A062E00C000000A94E1F7990F91
:10062000B4999F5FC398C59846952150304041F7D3
:1006300090835F5F543011F03196DDCF08952091A3
:10064000C4003091C5002F5F3F4F3093C500209309
:10065000C400215030408091C80087FF02C0220FA3
:10066000331F8093C90020FF03C088608093C900B6
:10067000832F86958093CA00369527952093CB00CB
:100680006DEC70E089EC90E0B1DF0895BC0180EE84
:100690009EE2AFD5603130F0862F90E0409795957F
:1006A0008795682F862F90E0089585B385BB85B325
:1006B00085BB84B384BB16BE81B18C7F81B98AE0CF
:1006C00080B986B7846086BF08951092F30086B71C
:1006D000806986BF0895982FFB0186B7806A86BF20
:1006E00006B607FEFDCF81B18093D30081B188307B
:1006F00019F081B1803161F5292F30E0443191F456
:10070000220F331F822F816083B986B7806886BF2E
:1007100006B607FEFDCF81B1282F30E086B78F7D6A
:1007200086BF0FC086B78F7586BF220F331F23B9D0
:1007300086B7806886BF06B607FEFDCF81B1282F39
:1007400030E0922F2093D4002833310561F40EC09D
:1007500084E886BF81B18093D20080838091F300CA
:10076000443169F515C02834310531F484E086BF81
:100770009093D20090830AC020343105B9F04431FF
:1007800049F484E086BF2093D20020838091F30057
:10079000887F16C02032310531F484E886BF20936B
:1007A000D20020830AC028313105E9F0453169F4CF
:1007B00084E886BF9093D20090838091F300867F77
:1007C0008093F30020E030E010C0443161F4868172
:1007D000823018F48781882319F086B7806486BF39
:1007E00086B7806886BF21E030E0C9010895AF92E6
:1007F000BF92CF92DF92EF92FF920F931F93CF930E
:10080000DF93DC01EC013981332311F488E0BAC1B4
:10081000383151F4FC01948180E0258130E0822B55
:10082000932B34DF80B9ABC1363169F49091F3007A
:10083000892F8A7031F086B7806986BF1092F300E5
:100840009EC19C9359C0373141F48091F30081617E
:100850008093F3001092F20094C1343159F5109254
:10086000D200EC019E819093D6008F818093D700B7
:10087000882319F49093F40002C01092F400909130
:10088000F3009C7E93609093F300FD01248180919E
:10089000D100821711F492FD74C12093D1009460AD
:1008A0009093F30044E1BD01822F15DF892B09F4F9
:1008B00066C167C1353169F41092D200EC018C81B8
:1008C0008093D10099E09093F30045E1BD0103DFEF
:1008D00056C18091F3008E7F8093F30024E0C22EF6
:1008E000D12CCA0EDB1EFD015481652F70E0313022
:1008F00029F4EB0188818C9381E044C1323021F4EA
:10090000FD018281EB011AC0FD013296ED014A81A1
:10091000242F277081E090E0982F01C0990F2A952D
:10092000EAF7333031F49095FB018081892380838D
:1009300026C1343029F4EB018881892B88831FC1BB
:10094000353071F416BE11B84093C100A49A5523F6
:1009500011F0AC9A01C0AC988DEE87BB88BB0FC17B
:100960003630A1F4AC9A85B385BB85B385BB84B31F
:1009700084BB16BE81B18C7F81B98AE080B986B70D
:10098000846086BF87B3827187BBF9C088B3882330
:1009900009F4F5C0373029F4BD01CF0127DE84E02A
:1009A000F1C0383039F44093C200FD018381809357
:1009B000C300E5C0ED018C819D819093C5008093BB
:1009C000C400393011F480E203C03B3021F480EAE6
:1009D0008093C800D6C0FD01828193819093C700A7
:1009E0008093C6003A3011F480E403C03C3021F417
:1009F00080EC8093C800C3C03E3109F040C05093E2
:100A0000F600ED018E818093F500CAE8D0E040E069
:100A100050E0082F10E091E0E92EF12CC801042EDF
:100A200002C0959587950A94E2F780FF21C0CB011B
:100A3000042E02C0959587950A94E2F7E881F98122
:100A40009E8180FF0AC02081570102C0AA0CBB1CF6
:100A50009A95E2F72A2920830BC02081670102C002
:100A6000CC0CDD1C9A95E2F7C60180958223808329
:100A70004F5F5F4F28964630510581F64DC03F319C
:100A800009F04DC08091F500082F10E08091F6002C
:100A9000682F70E0CCE8D0E040E050E081E0E82E44
:100AA000F12CC801042E02C0959587950A94E2F7AF
:100AB00080FF2CC0CB01042E02C0959587950A9427
:100AC000E2F780FF23C0F601808190E0042E02C08F
:100AD000959587950A94E2F7E881F9819C8180FFDA
:100AE0000CC02081570102C0AA0CBB1C9A95E2F7EA
:100AF000C50180958223808309C02081570102C0EF
:100B0000AA0CBB1C9A95E2F72A2920834F5F5F4FFE
:100B100028964630510529F681E08C9330C030325A
:100B200049F5C0E9D0E040E050E061E070E0FA0152
:100B300013E0EE0FFF1F1A95E1F7E257FF4F808198
:100B400090E0088002C0959587950A94E2F780FDB1
:100B50000AC09B01042E02C0220F331F0A94E2F741
:100B60008C9182278C934F5F5F4F289646305105BA
:100B7000F1F605C0313219F43093F70002C080E07D
:100B800001C08FEFDF91CF911F910F91FF90EF90F8
:100B9000DF90CF90BF90AF9008950F931F93CF93A6
:100BA000DF93782F062F5091F30050FF43C054FF7E
:100BB00015C04091F200872F9C01D90190E008C038
:100BC000E92FE40FF0E0EE52FF4F80818D939F5F9D
:100BD0009017B0F3400F4093F2003CC051FF3AC071
:100BE0004091F400AAEDB0E0872F9C01F90119C0F3
:100BF00006B607FEFDCF83B1808391B19C9341116E
:100C00004150413019F486B78F7301C086B78068B0
:100C100086BF983509F45B7F86B7806886BF3196BA
:100C200011968E2F871B801718F34093F400509372
:100C3000F30010C08091F700813261F0872F9C0192
:100C4000E90110E005C0FBDC8091D00089931F5FB3
:100C50001017C8F3802FDF91CF911F910F91089546
:100C60001092F6001092F500089510BC8DE489B939
:100C700088E98AB986E880BD20E081E890E006C076
:100C8000E22FF0E0E850FF4F10822F5F0197C1F78D
:100C900080E880937901109278011092A30110925C
:100CA000A2011092A5011092A40181E28CB90895CD
:100CB000E8EFF0E0119281E0E837F807D9F71092F9
:100CC00078010895482F2091A4013091A5010DC00D
:100CD0002F5F3F4FC9010197815B944030F0309303
:100CE000A5012093A4018FEF08955D9BF1CF4CB92E
:100CF0001092A5011092A40181E00895FC011AC090
:100D00002091A4013091A5010DC02F5F3F4FC90173
:100D10000197815B944030F03093A5012093A401AA
:100D20008FEF08955D9BF1CF4CB91092A501109201
:100D3000A40131964081442319F781E008957F9200
:100D40008F929F92AF92BF92CF92DF92EF92FF92DB
:100D50000F931F93CF93DF93AC01862E6091F30026
:100D600060FF22C0FC0130E01AC0808183B986B7E1
:100D7000806886BF06B607FEFDCF21B1822F90E0C6
:100D80008832910551F0C09741F02093D200209312
:100D9000D50086B7806986BF60E03F5F3196381521
:100DA00020F36093F30043C08091F7008232B1F0EA
:100DB000A090C600B090C7009090C200C090C30041
:100DC0008091C100E82EFF2465E0EE0CFF1C6A95BF
:100DD000E1F78A01DD2430E6732E27C0CA018EDFD9
:100DE00026C0F80180818093CC0029DC8091C90065
:100DF00087258093C900C0E0D0E011C06DEC70E0A1
:100E000089EC90E0F3DB9091D0008091CC009817B2
:100E100021F4991511F09C1529F4CE0DDF1DCA158A
:100E2000DB0560F3D3940F5F1F4FD814D0F2DF912E
:100E3000CF911F910F91FF90EF90DF90CF90BF90D7
:100E4000AF909F908F907F90089579DF81E090E040
:100E5000089582E690E052DF08950F931F93CF9399
:100E6000DF9310E0C1E8D0E000E237C044E160E089
:100E700070E0812F30DC892B79F12091A401309131
:100E8000A50107C02F5F3F4FC9010197815B9440C7
:100E9000A0F45D9BF7CF1CB91092A5011092A4019C
:100EA00010C02F5F3F4FC9010197815B944068F0EC
:100EB0003093A5012093A4010FC03093A501209386
:100EC000A4012091A4013091A5015D9BEACF0CB94A
:100ED0001092A5011092A4011F5F219739F6DF91AE
:100EE000CF911F910F91089583E081BBC29A84E056
:100EF00087BBC29A939A2FE088E190E00FB6F894EE
:100F0000A89581BD0FBE21BDA89585B3836085BB23
:100F100080ED97E02CE231E0F9013197F1F701978C
:100F2000D9F778DA85B385BB85B385BB84B384BB39
:100F300016BE81B18C7F81B98AE080B986B78460A2
:100F400086BF1092F6001092F5001AE06BDAA895B1
:100F500081B18823D9F78091D8008F5F8093D80022
:100F600085B385BB85B385BB84B384BB16BE81B115
:100F70008C7F81B910B986B7846086BFE7CFCF92E6
:100F8000DF92EF92FF921F93DF93CF93CDB7DEB73F
:100F9000182FCDB6DEB690E002962DB73EB7281BCF
:100FA000390B0FB6F8943EBF0FBE2DBFEDB6FEB69F
:100FB0000894E11CF11C612FC701EFDD882319F4AF
:100FC0002FEF3FEF20C02091A4013091A50140E018
:100FD00012C0F701E40FF11DE08107C02F5F3F4F02
:100FE000C9010197815B944028F45D9BF7CFECB970
:100FF00020E030E04F5F411760F33093A50120936C
:10100000A40121E030E0C9010FB6F894DEBE0FBEA6
:10101000CDBECF91DF911F91FF90EF90DF90CF90E9
:101020000895DF93CF93CDB7DEB728970FB6F89426
:10103000DEBF0FBECDBF8091A2019091A3010196AA
:101040009093A3018093A20181529340B0F08091CC
:10105000A101882391F0E8EFF0E0119281E0E837F8
:10106000F807D9F7109278011092A3011092A2010B
:101070001092A10186E690E041DE9091A1019230AC
:1010800091F48091BF007BDF97FF03C02FEF3FEF0C
:10109000A6C0E8EFF0E0119221E0E837F207D9F7B7
:1010A0001092780156C09430C9F480917801609113
:1010B000BF0090E00397262F30E0281739070CF087
:1010C0008CC08CEF90E03BDE1092A101E8EFF0E0E5
:1010D000119281E0E837F807D9F753C08091780181
:1010E0008330D0F18091F8008235B9F42091F90075
:1010F0002093C0009091FA009093BF0084E18A830E
:101100009F8318862D83CE01019671DB882301F120
:101110008EE690E0F3DD82E018C0873509F05DC00F
:101120002091F9002093C0009091FA009093BF00A5
:1011300085E18A839F832D83CE01019658DB882326
:1011400039F48EE690E0DADD84E08093A10145C0B9
:1011500080DE1092A10141C080917801882359F16D
:101160008091F800863481F49923B9F576DE81E721
:1011700090E0C4DDE8EFF0E0119221E0E837F207FB
:10118000D9F71092780129C0833539F5992329F1CF
:1011900086E18A83CE0101962ADB1092A101E8EF55
:1011A000F0E0119281E0E837F807D9F71092780162
:1011B00089E790E011C080917801833070F0992325
:1011C00061F4E8EFF0E0119221E0E837F207D9F797
:1011D0001092780181E890E091DD20E030E0C901D3
:1011E00028960FB6F894DEBF0FBECDBFCF91DF912A
:1011F0000895AA1BBB1B51E107C0AA1FBB1FA6175E
:10120000B70710F0A61BB70B881F991F5A95A9F7AF
:0E12100080959095BC01CD010895F894FFCF14
:10121E00D25A4552520054494D454F5554004F4BEA
:10122E00004F4B205343414E004F4B2053544F50D1
:10123E000047415242414745210031003200300003
:10124E000100310032003000000037003800360057
:10125E000400370038003600030034003500330038
:0A126E0004003400350033000500D1
:00000001FF
