:100000006AC0A5C082C081C080C07FC07EC07DC0E4
:100010007CC07BC07AC079C078C077C076C075C01C
:1000200074C073C072C000CDD914F13C28E5A16C36
:1000300078B5509D89443C034400690063006B001F
:1000400020005300740072006500650066006C00BB
:1000500061006E0064002C0020004200610072000C
:100060007200790020004300610072007400650096
:1000700072003C03550053004200740069006E009A
:100080007900200028006D0038002900200053006E
:10009000500049002C00200049003200430020009D
:1000A000410064006100700074006500720012017C
:1000B0000101FF00000864190100060101020001AE
:1000C00009021200010100807D0904000000FF0008
:1000D00000000403090411241FBECFE5D4E0DEBFF5
:1000E000CDBF10E0A0E6B0E0E2E2FEE002C0059085
:1000F0000D92A239B107D9F710E0A2E9B0E001C032
:100100001D92A43FB107E1F73BC67ACFDC019FEF18
:100110008FEF660FB9F046E2F0E0229560FF2D9177
:10012000E82FE227EF70929582958F70392F307FFC
:10013000832B9F70E40F359193273170932783278A
:100140006A9559F7809590958D939D9308950F9397
:100150001F932F93DF93CF930FB70F939999FECFF0
:1001600099990BC0999909C0999907C0999905C0A7
:10017000999903C000E40ABFA8C0C091DC00DD2744
:10018000C352DF4F0BE013E022E0999BE9CF3F938E
:100190004F936F9363B330E803C063B3432B49932A
:1001A000442763702627215023B32370A9F1379584
:1001B0003C3FA0F56227615063B3637037953C3FC5
:1001C00098F526272150379523B323703C3F90F5AF
:1001D0006227615037953C3F63B36370A0F52627D3
:1001E000215037953C3FC8F523B3237062276150F7
:1001F00037953C3FB0F50A9563B37AF063702627D4
:10020000215037953C3F88F523B323706227615016
:1002100037953C3F10F22DC031C048C0612723B351
:1002200023703F774160C6CF3F77426063B363700E
:100230002127C7CF3F774460612723B3237062270C
:1002400061503795C8CF3F7748602127316063B34D
:100250006370262721503795C6CF3F7740616127CD
:10026000C1CF3F7740622127C4CF3F7740646127E9
:10027000C9CF3F774068212700C08FCF30E43ABF15
:100280000B500195033090F0C01B2881233CB1F145
:100290002B34A1F119811F774091F300141731F429
:1002A0002936D9F02D3249F0213E39F044274093C8
:1002B00092006F914F913F9108C0209392006F91EF
:1002C0004F913F910AB706FD49CF0F910FBFCF91D4
:1002D000DF912F911F910F9118950091CD00002370
:1002E00011F14091DB004423F1F44093CD004091A3
:1002F000D9004093F300CEECD0E018C020919200DA
:100300002223A1F24091DB00442369F40093DB0037
:100310002093DA000091DC004BE0401B4093DC00AE
:10032000C0E6D0E002C0C1E6D0E001E025B32C7FFA
:10033000216014B3136025BB14BB13E030E830FF19
:10034000212725BB379547954C3FC0F530FF212726
:10035000379525BB47954C3FA8F530FF21273795AA
:10036000000025BB47954C3F78F530FF2127379596
:10037000000025BB47954C3F48F530FF2127699188
:1003800025BB379547954C3F18F530FF212737950A
:1003900025BB47954C3F00F530FF21273795479502
:1003A00025BB4C3FD8F430FF21273795362F479592
:1003B00025BB4C3FA8F40A9512F614C02127442708
:1003C00025BBC2CF2127C5CF2127CBCF2127D1CF16
:1003D0002127442725BBD7CF2127DACF2127DFCFFD
:1003E0002127E5CF2C7F25BB6F914F913F9100E4F2
:1003F0000ABFDF91CF9114B3022F216025BB1C7F70
:10040000DFBFDF912F91000014BB05BB1F910F913F
:10041000189585B7836085BF8BB780648BBF789450
:1004200008951F93CF93DF936091DB00662309F457
:1004300074C08091DC009927CC27DD27C81BD90B1D
:10044000C751DF4F91E0909393008091DA008D3295
:1004500009F055C01E818F8181111FEF8881807640
:10046000F1F58981882321F41882198292E03FC036
:10047000853021F48A818093D900AAC0863029F57D
:1004800082E0809393008B81813019F4CEEAD0E032
:1004900004C0823021F4C0ECD0E092E128C0833067
:1004A00009F096C08A81882321F4C2EDD0E094E05F
:1004B0001EC0813019F4C6E3D0E005C0823009F0D7
:1004C00087C0C2E7D0E09CE312C0883011F4988363
:1004D00004C08A3009F07CC0188291E008C0CE01C7
:1004E0008FD2982F8F3F19F483E0809393001917D0
:1004F00008F4912FD0939600C093950005C06350E7
:1005000011F0CE01F4D190E09093940083EC8093AD
:10051000CE001092CD001092DB008091CD00882398
:1005200009F04AC040919300442309F445C08091EA
:10053000CE0098E889278093CE001091940019305E
:1005400010F018E002C0112359F1433031F4612F4B
:100550008FEC90E05DD1182F1EC020919500309156
:100560009600413051F4F901AFECB0E081918D93E8
:100570008E2F821B811758F4F9CFF901AFECB0E050
:10058000849131968D938E2F821B8117C8F3F0933F
:100590009600E093950080919400811B80939400D5
:1005A000612F8FEC90E0B2DD1D5F1093CD001350F2
:1005B000183010F4109293008AE002C0815019F0B4
:1005C000989BFCCF07C01092D9001092F30002C094
:1005D00090E090CFDF91CF911F910895DC01FB0156
:1005E0009091970060E07D9140E050E820E030E09D
:1005F000852F872309F0C39A092E00C000000A94B2
:10060000E1F7C59A092E00C000000A94E1F7440FF3
:10061000B4994F5FC398C59856952F5F3F4F2830C8
:10062000310531F740836F5F643011F03196DBCFD5
:10063000089520919A0030919B002F5F3F4F309397
:100640009B0020939A002150304080919E0087FFAC
:1006500002C0220F331F80939F0020FF03C08860D9
:1006600080939F00C901892F992786958093A000C8
:10067000369527952093A10063EA70E08FE990E01A
:10068000ADDF0895BC0180EE9EE2A4D3603130F06E
:10069000862F9927409762E070E0B0D3862F992784
:1006A000089585B385BB85B385BB84B384BB16BE73
:1006B00081B18C7F81B984E690E0E4DF80B986B7B0
:1006C000846086BF089580E090E008C022E089350C
:1006D000920719F48FEF9FEF0895019606B607FE73
:1006E000F5CF81E090E0089583B986B7806886BF32
:1006F000EADF97FF03C08FEF9FEF089581B199273D
:1007000008951092C90086B7806986BF08950F9337
:100710001F93CF93DF93082FEB01142F86B7806AC6
:1007200086BFD1DF97FF02C018825AC081B1809383
:10073000A90081B1883019F081B1803101F5202FF5
:100740003327143151F4220F331F822F8160CCDF05
:100750009C0186B78F7D86BF07C086B78F7586BF21
:10076000822F880FC1DF9C01922F2093AA0037FFB0
:1007700011C01092C90086B7806986BF0BC084E89B
:1007800086BF81B18093A80088838091C90014310D
:1007900099F023C02833310541F02834310529F080
:1007A0002034310589F0143149F484E086BF9093F8
:1007B000A80098838091C900887F10C0203231053D
:1007C00029F028313105E9F0153169F484E886BF54
:1007D0009093A80098838091C900867F8093C90078
:1007E00080E090E010C0143161F48E81823018F402
:1007F0008F81882319F086B7806486BF86B78068AA
:1008000086BF81E090E0DF91CF911F910F91089515
:10081000CF92DF92EF92FF920F931F93CF93DF93CC
:10082000D62E0091C900202F332720FD03C0EC01F4
:1008300010E050C024FF13C02091C800DC0190E0FC
:1008400008C0E92FE20FFF27E855FF4F80818D9305
:100850009F5F9D15B1F72D0D2093C8003DC021FF6E
:100860003BC01091CA00EC0178EAE72E70E0F72E49
:10087000CC2424C028DF97FF07C01093CA00009340
:10088000C90080E090E02AC083B1888391B1F7016C
:10089000908711111150113019F486B78F7301C070
:1008A00086B7806886BF983509F40B7F86B7806865
:1008B00086BFC39421960894E11CF11CCD14D1F697
:1008C0001093CA000093C90007C0B3DE8091A60050
:1008D00089931F5F1D15C9F78D2D9927DF91CF9142
:1008E0001F910F91FF90EF90DF90CF9008954F925E
:1008F0005F926F927F928F929F92AF92BF92CF92B0
:10090000DF92EF92FF920F931F93CF93DF939C019F
:10091000462E1091C90010FD1CC0A0909C00B09004
:100920009D0050909800C090990080919700E82E0B
:10093000FF24A5E0EE0CFF1CAA95E1F7E901DD24F8
:10094000F3EA6F2EF0E07F2EEFE98E2EE0E09E2E90
:100950003FC0EC0100E016C08881C6DE88329105F8
:1009600079F08033910561F02FEF8F3F920741F0CE
:100970008093A8008093AB0086B7806986BF10E0A3
:100980000F5F2196041541F71093C90023C0888199
:100990008093A2004EDE80919F0090E6892780938D
:1009A0009F0000E010E00FC0B301C40117DE90917A
:1009B000A6008091A200981721F4951511F09C15BE
:1009C00029F40E0D1F1D0A151B0570F3D3942196F3
:1009D000D414E9F6DF91CF911F910F91FF90EF9022
:1009E000DF90CF90BF90AF909F908F907F906F904F
:1009F0005F904F9008951092CC001092CB00089514
:100A0000EF92FF920F931F93CF93DF93DC01EC01E2
:100A10003981332319F488E090E0ABC1383161F4B7
:100A2000FC01848125819927982F88273327822BE1
:100A3000932B28DE80B998C1363169F49091C900B2
:100A4000892F8A7031F086B7806986BF1092C900FD
:100A50008BC19C935BC0373141F48091C9008161A7
:100A60008093C9001092C80082C1343171F5109290
:100A7000A800EC018E818093AC008F818093AD0043
:100A80008F81882321F48E818093CA0002C0109246
:100A9000CA009091C9009C7E392F33603093C90001
:100AA000FD0124818091A700821711F432FD5FC1FE
:100AB0002093A70097609093C90044E1BD01822F65
:100AC00026DE892B09F450C152C1353169F41092E8
:100AD000A800EC018C818093A70099E09093C90055
:100AE00045E1BD0114DE40C18091C9008E7F809335
:100AF000C90004E0E02EF12CEA0EFB1EFD0184810A
:100B0000E82FFF27313029F480818C9381E090E039
:100B100030C1ED014A81323011F4408325C1ED012D
:100B20002296242F277081E090E0982F01C0990F22
:100B30002A95EAF7333021F480819095982304C0F8
:100B4000343021F48081982B90830EC1353089F4A4
:100B500016BE11B8FD01828180939700A49A84810A
:100B6000882311F0AC9A01C0AC988DEE87BB88BB8E
:100B7000FBC0363031F4AC9A94DD87B3827187BB09
:100B8000F3C088B3882309F4EFC0373031F4BD01D6
:100B9000CE0124DD84E090E0ECC0383039F440939D
:100BA0009800ED018B8180939900DEC0FD01848166
:100BB000958190939B0080939A00393011F480E2E4
:100BC00003C03B3021F480EA80939E00D0C0ED0149
:100BD0008A819B8190939D0080939C003A3011F410
:100BE00080E403C03C3021F480EC80939E00BCC0C4
:100BF0003E3109F042C0F70190819093CC00ED01A5
:100C00008E818093CB00C2E6D0E040E050E0082F18
:100C10001127692F7727C801042E02C09595879563
:100C20000A94E2F780FF22C0CB01042E02C0959502
:100C300087950A94E2F7E881F9813E8180FF0BC035
:100C4000208181E090E002C0880F991F3A95E2F779
:100C5000282B20830BC0208181E090E002C0880F08
:100C6000991F3A95E2F78095822380834F5F5F4F0B
:100C700028964630510579F64BC03F3109F04BC0FC
:100C80008091CB00082F11278091CC00682F772707
:100C9000C4E6D0E040E050E0C801042E02C09595C3
:100CA00087950A94E2F780FF2DC0CB01042E02C085
:100CB000959587950A94E2F780FF24C0F70180811B
:100CC0009927042E02C0959587950A94E2F7E8814A
:100CD000F9813C8180FF0CC0208181E090E002C05E
:100CE000880F991F3A95E2F78095822380830AC086
:100CF000208181E090E002C0880F991F3A95E2F7C9
:100D0000282B20834F5F5F4F28964630510521F6F0
:100D100081E08C9329C0303239F5C8E6D0E040E05C
:100D200050E0FA0113E0EE0FFF1F1A95E1F7EA59C0
:100D3000FF4F80819927088002C0959587950A9476
:100D4000E2F780FD0BC02C9181E090E0042E02C000
:100D5000880F991F0A94E2F728272C934F5F5F4F63
:100D6000289646305105E9F680E090E002C08FEF0A
:100D700090E0DF91CF911F910F91FF90EF90089538
:100D800083E081BBC29A84E087BBC29A939A88E1D0
:100D900090E02FE00FB6F894A89581BD0FBE21BD5D
:100DA000A89585B3836085BB80E090E00197F1F75B
:100DB00030DB77DC1092CC001092CB0032DBA895B0
:100DC00081B18823D9F78091AE008F5F8093AE0008
:100DD00068DCF4CFAA1BBB1B51E107C0AA1FBB1FD5
:100DE000A617B70710F0A61BB70B881F991F5A95B7
:100DF000A9F780959095BC01CD01089597FB092E28
:100E000007260AD077FD04D0E5DF06D000201AF4CB
:100E1000709561957F4F0895F6F7909581959F4F56
:020E2000089533
:100E2200D25A31003200300001003100320030006D
:100E32000000370038003600040037003800360062
:100E42000300340035003300040034003500330061
:020E5200050099
:00000001FF
