:100000000C944F000C946A000C946A000C946A00E3
:100010000C946A000C946A000C946A000C946A00B8
:100020000C946A000C946A000C946A000C946A00A8
:100030000C946A000C946A000C9455020C946A00AB
:100040000C946A000C946A000C946A000C946A0088
:100050000C946A000C94DD010C946A000C946A0004
:100060000C94C8090C946A000C944F004F0197013E
:10007000520156015E01640168016B016E0171015C
:1000800097019701970197019701970174017801F2
:100090007C01800189018C018F019501920111245D
:1000A0001FBECFEFD4E0DEBFCDBF11E0A0E0B1E0D6
:1000B000EAEDF1E302C005900D92A231B107D9F744
:1000C00013E0A2E1B1E001C01D92A134B107E1F754
:1000D0000C946C000C940000CFEFD4E0DEBFCDBFD9
:1000E00086E084B989EF85B917B88FE788B98CE9BC
:1000F0008AB983EF8BB90E94F8030E94BF020E9465
:10010000E80A0E949A010E9413070E943E040E947E
:10011000E7080E948F0F8091C1020E94C60A40E04A
:1001200050E067E086E00E949702789482E00E94A7
:10013000D401809103028823E1F31092030280919D
:100140000B0290910C020E94A504109203024091B0
:100150000B0250910C0261E280E20E94970240E0A3
:1001600050E063E282E20E9497028091160283606F
:100170008093160280911002882309F477C01092B0
:1001800010028AE090E00E940805809116029927EB
:1001900083FF31C084FF17C061E280E20E948402C5
:1001A000909315018093140140911601509117010D
:1001B0008417950741F0909313018093120161E237
:1001C00080E20E94970261E280E20E9484029093A2
:1001D0001701809316018091160285FF0CC0409193
:1001E00012015091130161E280E20E9497020E9485
:1001F00024090E9440090E94460F82E00E94D40117
:1002000080910302882341F480910602882321F41F
:10021000809107028823A1F31092060200910D023B
:1002200010910E02109207024091040250910502B3
:1002300064E183E10E949702C8010E94C3080E9402
:10024000A70F0E94540F10920302E0900B02F0904F
:100250000C02C7010E9444078C010E94B010C80123
:100260000E946E10BC01C7010E94960B0E940C09EF
:10027000882309F45CC00E94F8089927AA27BB27A5
:10028000FC01E058F040E931F10508F050C0EA5CAB
:10029000FF4FEE0FFF1F0590F491E02D09940E948F
:1002A000040445C08091160281600BC08091160243
:1002B0008E7F809316020E94670B39C080911602D0
:1002C00082608093160233C0809116028D7FF9CF31
:1002D0000E9411032CC00E947D0329C00E94B80215
:1002E00026C00E94E00223C081E080930F021FC05D
:1002F000809116028460E5CF809116028B7FE1CF5A
:100300001092030280910B0290910C020E94A504AE
:100310000EC00E944E060BC00E94350908C00E9404
:100320002A0905C00E941E0902C00E9418090E94E5
:100330004E1020CF1092060210920E0210920D0263
:100340001092030210920C0210920B0281E0809333
:100350000F02109210021092080210920A021092DC
:10036000090210920702109205021092040288B14D
:10037000887F88B9EEE7F0E080818760808382E43F
:1003800080937C0093E090937B008FE880937A00C9
:1003900095BB92E090936E0016BC83EC87BD18BCB1
:1003A00094BD85E085BD0895806480937C00EAE774
:1003B000F0E080818064808308951F920F920FB6D1
:1003C0000F9211242F933F934F935F936F937F93DB
:1003D0008F939F93AF93BF93EF93FF9340917800D8
:1003E0005091790080917C0099278F7090708230B5
:1003F000910579F08330910534F4009799F00197D5
:1004000009F042C02BC083309105B9F10797E1F59F
:100410002CC050930C0240930B0281E080930302A6
:1004200080E414C050930E0240930D0281E080934B
:10043000060283E480937C0080917A00806480933C
:100440007A0080910F028823F9F081E480937C0088
:1004500080917A00806480937A0016C010920F0217
:1004600061E180E10E9497020FC081E08093080261
:1004700050930A024093090207C081E0809307026B
:100480005093050240930402FF91EF91BF91AF9109
:100490009F918F917F916F915F914F913F912F919C
:1004A0000F900FBE0F901F9018951F920F920FB6CE
:1004B0000F9211242F933F934F935F936F937F93EA
:1004C0008F939F93AF93BF93EF93FF9367E086E083
:1004D0000E9484020196AC0167E086E00E949702C8
:1004E00081E080931002FF91EF91BF91AF919F91B6
:1004F0008F917F916F915F914F913F912F910F90CD
:100500000FBE0F901F9018959FB7F8949FBFA1E161
:10051000B2E0FD01E80FF11D80819927982F88270F
:10052000A60FB11D2C913327822B932B08952FB743
:10053000F894E1E1F2E0DF01A80FB11D852F9927C2
:100540008C93E60FF11D40832FBF089580916002C8
:10055000883010F01092600290916002E92FFF271E
:10056000E050FF4F80819F5F90936002992708952C
:100570000E94DD0A0E941C070E944F1008958FE41C
:10058000E1E1F2E011928A95E9F781E080931102AE
:100590008093120283E080931302809314021092DE
:1005A00060020E9455100895FC0104C08191480F1B
:1005B0006150704061157105C9F7842F992708951E
:1005C0000F931F93CF93DF93CDB7DEB760970FB62E
:1005D000F894DEBF0FBECDBF40E150E06FEF70E09A
:1005E0008E010F5F1F4FC8010E94501880E090E0FD
:1005F00040E19801DC01F901142E0E94D4184096C4
:10060000F2E080309F07B1F781E090E060960FB68E
:10061000F894DEBF0FBECDBFDF91CF911F910F9138
:100620000895DF92EF92FF920F931F93CF93DF9382
:10063000CDB7DEB722970FB6F894DEBF0FBECDBFA1
:1006400083E0898309E412E043E068E070E0C801D8
:100650000E94D4028A8382E0A0E0B0E07E01089488
:10066000E11CF11CF701182E0E94D41888E0A2E0CA
:10067000B0E0F801182E0E94D41809E313E043E01B
:1006800068E070E0C8010E94D402898381E0D82E1E
:10069000AAE0B0E0F7011D2C0E94D41808531040C6
:1006A00080E1ABE0B0E0F801182E0E94D41801EC14
:1006B00012E043E067E170E0C8010E94D402898340
:1006C000ACE1B0E0F7011D2C0E94D41887E1ADE148
:1006D000B0E0F801182E0E94D41881E090E0229634
:1006E0000FB6F894DEBF0FBECDBFDF91CF911F9143
:1006F0000F91FF90EF90DF900895CF92DF92EF92ED
:10070000FF920F931F93CF93DF93CDB7DEB722975E
:100710000FB6F894DEBF0FBECDBF82E0A0E0B0E020
:100720007E010894E11CF11CF701182E0E94CF18DD
:100730008981833009F04BC088E029E432E0A2E0EF
:10074000B0E0F901182E0E94CF181A8143E068E04A
:1007500070E0C9010E94D4021817C9F501E0AAE0AF
:10076000B0E0F701102E0E94CF1891E0C92E93E05F
:10077000D92E80E1ABE0B0E0F601182E0E94CF1830
:10078000198143E060E170E0C601C8960E94D4027E
:100790001817E9F4ACE1B0E0F701102E0E94CF1871
:1007A000E1ECF2E087E1ADE1B0E0182E0E94CF1855
:1007B000198143E067E170E0C60108970E94D40206
:1007C00090E0181391E09027892F992702C080E0CC
:1007D00090E022960FB6F894DEBF0FBECDBFDF913A
:1007E000CF911F910F91FF90EF90DF90CF900895E0
:1007F000F89484B7877F84BFE0E6F0E08081886169
:100800008083108278940895809116028E7F809361
:1008100016020E94670BF89488E880936000789431
:10082000FFCF90916A0280916102981718F4891B9A
:10083000815003C0981B87E0891B9927089540E0E9
:1008400050E067E286E20E94970240E050E069E2F1
:1008500088E20E94970240E050E06BE28AE20E9448
:10086000970240E050E065E284E20E949702109215
:1008700035020E941104809323020895AF92BF9223
:10088000CF92DF92EF92FF920F931F93109262022A
:100890001092630210926402109265021092660236
:1008A00010926702109268021092690210926A0216
:1008B00010926102109219011092180180E090E0EC
:1008C000A0E0B4E480931A0190931B01A0931C0153
:1008D000B0931D0180E090E0A0E0B0E080931E01A5
:1008E00090931F01A0932001B093210180932201D6
:1008F00090932301A0932401B0932501BF93AF935C
:100900009F938F935C016D010F2EF0E0EF2EF0E0CE
:10091000FF2EF0E00F2FF4E41F2FF02DA801970118
:1009200060E070E080E090E00E94010D0E941F04F2
:100930000F900F900F900F901F910F91FF90EF90DD
:10094000DF90CF90BF90AF900895AF92BF92CF92BB
:10095000DF92EF92FF920F931F9310926202109218
:100960006302109264021092650210926602109265
:100970006702109268021092690210926A02109245
:1009800061021092190110921801AA2797FDA095F3
:10099000BA2FBC01CD010E945B159B01AC01609395
:1009A0001A0170931B0180931C0190931D0180E03C
:1009B00090E0A0E0B0E080931E0190931F01A0930F
:1009C0002001B09321018093220190932301A093F1
:1009D0002401B0932501BF93AF939F938F935C0144
:1009E0006D0179018A0160E070E080E090E00E9492
:1009F000010D0E941F040F900F900F900F901F91F8
:100A00000F91FF90EF90DF90CF90BF90AF9008953F
:100A1000AF92BF92CF92DF92EF92FF920F931F930C
:100A2000CF93DF93CDB7DEB728970FB6F894DEBF2C
:100A30000FBECDBF9C018091160282FF1EC1909116
:100A4000610280916A02981789F4109262021092F2
:100A50006302109264021092650210926602109274
:100A600067021092680210926902C9C04427552794
:100A70008091620290916302A0916402B09165023C
:100A8000820F931FA41FB51F80936202909363028D
:100A9000A0936402B09365029DC02E193F09400BDC
:100AA000510B20936202309363024093640250938F
:100AB00065028091660290916702A0916802B091F0
:100AC00069028E199F09A00BB10B80936602909367
:100AD0006702A0936802B0936902209161022F5FC0
:100AE00027702093610280916A02A22FBB272817EA
:100AF00091F58EE090E0A89FF001A99FF00DB89FBE
:100B0000F00D1124E85EFE4F22813381448155812E
:100B100080E090E0A0E0B0E0BF93AF939F938F930D
:100B20005C016D0179018A0160E070E080E090E095
:100B30000E94010D109262021092630210926402F0
:100B4000109265021092660210926702109268027B
:100B50001092690237C02F5F277033278EE090E034
:100B6000AD01489FD001499FB00D589FB00D112491
:100B7000A85EBE4FFD01A284B384C484D584AC01B9
:100B8000249FC001259F900D349F900D1124885EF5
:100B90009E4FFC01E280F38004811581FD012281DA
:100BA000338144815581FC01608171818681978107
:100BB000A085B185BF93AF939F938F9380E090E022
:100BC0000E94010D0F900F900F900F900E94110442
:100BD000809323022091620230916302409164026B
:100BE0005091650280917F02909180027C010027E4
:100BF0001127E216F3060407150708F44ECFAE01DD
:100C00004B5F5F4FBE016F5F7F4F8091620290919B
:100C100063020E94080E20E030E040E251E46D8162
:100C20007E818F8198850E94E1126D837E838F8300
:100C3000988720E030E040E05FE369817A818B8132
:100C40009C810E94B4120E94C415AB01BC0161E2F8
:100C500080E20E94970220E030E040E05FE36D8197
:100C60007E818F8198850E94B4120E94C415AB01C9
:100C7000BC0163E282E20E94970228960FB6F894C4
:100C8000DEBF0FBECDBFDF91CF911F910F91FF90BF
:100C9000EF90DF90CF90BF90AF9008955F926F92EA
:100CA0007F928F929F92AF92BF92CF92DF92EF92FC
:100CB000FF920F931F93CF93DF9350906A02539448
:100CC00087E0582280916102581609F49AC067E2C1
:100CD00086E20E9484027C0169E288E20E9484022A
:100CE0006C016BE28AE20E9484025C0165E284E2AC
:100CF0000E948402EC01892B09F483C0252D33273F
:100D00008EE090E0289F8001299F100D389F100DE4
:100D10001124085E1E4FF801D183C083B7018827D4
:100D200077FD8095982F0E945B153B014C01F801DF
:100D30006283738384839583B601882777FD8095CA
:100D4000982F0E945B1520E030E040E85AE30E94B3
:100D5000E112F8016683778380879187B501882740
:100D600077FD8095982F0E945B1520E030E040E8E9
:100D70005AE30E94E112F80162877387848795879E
:100D80009091610280916A029817E9F420917502AE
:100D900030917602409177025091780280E090E0A5
:100DA000A0E0B0E0BF93AF939F938F935C016D0180
:100DB00084017301BE0180E090E00E94010D0F905C
:100DC0000F900F900F909E01442755278091660247
:100DD00090916702A0916802B0916902820F931FFF
:100DE000A41FB51F8093660290936702A0936802C8
:100DF000B093690250926A020E941F0481E090E061
:100E000002C080E090E0DF91CF911F910F91FF90A1
:100E1000EF90DF90CF90BF90AF909F908F907F909A
:100E20006F905F9008951092A7011092A601109202
:100E3000A9011092A801089581E08093C20220E0E8
:100E400038E043E062E00E94381020E03CE045E0FA
:100E500064E081E00E94381020E030E047E066E086
:100E600081E00E94381020E630E049E068E081E04F
:100E70000E94381020EA33E04BE06AE081E00E94F3
:100E800038101092CD0208950F931F93CF93DF93E4
:100E9000EC018091A2019091A301A091A401B091D5
:100EA000A5019C01AD015595479537952795821B66
:100EB000930BA40BB50B9E01442737FD4095542F8F
:100EC000820F931FA41FB51F8093A2019093A301CB
:100ED000A093A401B093A501B595A7959795879583
:100EE0009C0190939101809390014091A8015091B1
:100EF000A901241B350B3093930120939201909309
:100F0000A9018093A80161E280E20E94840290938B
:100F10009B0180939A0163E282E20E948402909393
:100F200099018093980149E068E081E00E941E10D9
:100F300090939701809396014BE06AE081E00E94D4
:100F40001E1090939501809394018091CD02882387
:100F5000A9F10FEF13E0A8014C1B5D0B69E088E0DD
:100F60000E949702409192015091930150954195B2
:100F70005F4F6BE08AE00E94970280919A01909106
:100F80009B019801281B390B30939B0120939A01F8
:100F900080919601909197019801281B390B30930D
:100FA0009701209396018091940190919501081BDF
:100FB000190B10939501009394010DC0AE0169E0E7
:100FC00088E00E94970240919201509193016BE05A
:100FD0008AE00E9497028091C20299279093A10112
:100FE0008093A00120919A0130919B018091A601EC
:100FF0009091A7012817390721F4C0919001D09151
:1010000091013093A7012093A601809196019091C0
:1010100097012817390724F490939B0180939A0134
:10102000209194013091950180919A0190919B01BA
:101030002817390724F430939B0120939A0180915B
:101040009A0190919B018C1B9D0B90939F01809323
:101050009E01809198019091990120919201309187
:101060009301821B930B90939D0180939C0143E01D
:1010700062E081E00E941E109093890180938801B4
:1010800045E064E081E00E941E10EC0190938B012A
:1010900080938A0110928C0110928D0110928E0122
:1010A00010928F0160919E0170919F018091A0012B
:1010B0009091A1018617970734F0909581959F4FE5
:1010C00068177907A4F4882777FD8095982F2091D9
:1010D000880130918901442755270E945718609351
:1010E0008C0170938D0180938E0190938F0160919C
:1010F0009C0170919D01882777FD8095982F9E0116
:10110000442755270E94571820918C0130918D015A
:1011100040918E0150918F01260F371F481F591F94
:10112000232F342F452F552747FD5A9520938C01A7
:1011300030938D0140938E0150938F012F3F3105E5
:101140004105510531F02CF08FEF90E0A0E0B0E0C8
:1011500009C021503F4F4F4F5F4F64F481E09FEF34
:10116000AFEFBFEF80938C0190938D01A0938E0120
:10117000B0938F0180918C0190918D01DF91CF917F
:101180001F910F9108952091AA01E22FFF27EE0FE2
:10119000FF1FE555FE4F918380832F5F27702093BB
:1011A000AA0140E050E0EBEAF1E081919191480F13
:1011B000591F81E0EB3BF807C1F783E0569547954F
:1011C0008A95E1F76DE08CE00E94970208951092F5
:1011D000AA01EBEAF1E01192119281E0EB3BF807F2
:1011E000D1F740E050E06DE08CE00E949702089556
:1011F0009091BD018091BE019817D1F38091BE01FD
:101200008F5F83708093BE01E091BE01FF27E154A0
:10121000FE4F8081992708959091BD018091BE0174
:1012200020E030E0981711F021E030E0C901089586
:1012300080911602806180931602089580911602B3
:101240008062809316020895809116028F7E8093AB
:1012500016020895EAEBF0E080818E7F8083809112
:101260001602877F809316020895EAEBF0E08081F2
:1012700081608083809116028860809316020895B1
:10128000809116028F7D809316020895982F9F7784
:10129000903450F4913019F40E94A60227C0E92F2F
:1012A000FF27EF5EFD4F10C097FF03C080E090E086
:1012B0000895209140022230D9F4903538F49054AA
:1012C000E92FFF27EF5FFC4F808110C0903680F43C
:1012D0009055E92FFF27EF5FFC4F8081E82FFF2714
:1012E0009E2FE03528F48E2F0E94460999270895F5
:1012F0009054E22FFF2786E0EE0FFF1F8A95E1F75B
:10130000EF57FD4FE90FF11D808199270895E82FD0
:101310008091160299278270907020914002A22F2E
:10132000BB27EF77E03298F1E83330F4EF3259F42D
:10133000633048F062E007C0009719F4E03438F4F5
:101340000895E03420F4FF27EF5EFD4F0AC0E7FD6B
:101350001EC0223089F4E03530F4E054FF27EF5FFF
:10136000FC4F60830895E03638F4E055FF27EF5FC7
:10137000FC4FE081E035A8F2E05496E0AA0FBB1FD5
:101380009A95E1F7AF57BD4FAE0FB11D6C9308951D
:101390001F920F920FB60F9211240F931F932F934A
:1013A0003F934F935F936F937F938F939F93AF93ED
:1013B000BF93EF93FF938091B900883909F4D0C0AF
:1013C0008939A8F4803709F448C0813738F4882374
:1013D00009F4C4C0803609F0C3C03FC0883809F49E
:1013E000BFC08039E9F1803809F0BAC039C0883B04
:1013F00081F0893B38F4803A09F4B2C0883A09F0A8
:10140000AFC007C0883C09F4ABC0883F09F4ABC04B
:10141000A7C08091BB010E944609982F8091BC0112
:10142000843089F43091C3018091C4012091C501B9
:10143000381738F4290F2093C5013F5F3093C3015B
:1014400002C0922F05C08091BB018F5F8093BB01CA
:10145000892F99278093BB0083C01092BC0180C064
:101460006091BB008091BC01823089F1833030F4FF
:10147000882351F0813009F073C01FC0833089F197
:10148000843009F06DC038C067FD04C06093BB01B3
:1014900081E003C0613821F482E08093BC0160C028
:1014A0008091BD018F5F83708093BD01E091BD018C
:1014B000FF27E154FE4F608353C08091BB010E941F
:1014C00087098091BB018F5F8093BB0149C0862F44
:1014D0008F708093C4018093C5011092C30183E093
:1014E000DCCF8091C5016093BB019091BB01890F56
:1014F0008093C50184E0D1CF8091C3010091C401E4
:101500002091C501801770F4E82FFF27EF70F0706D
:10151000EA53FE4F6083260F2093C5018F5F8093AF
:10152000C3011EC06217E1F41092C30110E011C0A4
:101530008091BB01E12FFF27EF70F070EA53FE4F5F
:1015400060810E9487098091BB018F5F8093BB01FE
:101550001F5F101768F31093C30102C085ED01C02F
:1015600085EC8093BC00FF91EF91BF91AF919F916B
:101570008F917F916F915F914F913F912F911F912B
:101580000F910F900FBE0F901F9018951092BE01F3
:101590001092BD01880FEAEBF0E0808380818E7F9E
:1015A000808380911602877C809316028FEF809350
:1015B000BB0085EC8093BC00089520E430E04EE051
:1015C0006DE081E00E94381086E48093D002089597
:1015D000AF92BF92CF92DF92EF92FF920F931F9341
:1015E0004EE06DE081E00E941E108C019093D901C5
:1015F0008093D801E090D002FF24E092DA018BB111
:10160000837F8BB98BB180698BB98AB18C698AB9B8
:1016100085B1897F85B984B1866084B910928500CF
:101620001092840040E8C42ED12CF601108231E8DB
:10163000A32EB12CF50110821092820010926F003F
:10164000B8018827992724E0660F771F881F991F04
:101650002A95D1F7615070408040904024E630E0F8
:1016600040E050E00E947618CA01B90124E630E05B
:101670002E193F09442737FD4095542F0E945718D3
:1016800084E0000F111F8A95E1F7060F171F015024
:1016900010401093870000938600109289001092EA
:1016A000880010928B0010928A00F601108281E16E
:1016B000F501808310921F02109220021F910F915A
:1016C000FF90EF90DF90CF90BF90AF900895F89487
:1016D0008091D601882321F48091D7018823A1F03D
:1016E0008BB180698BB985B1897F85B910928000F3
:1016F00080E000008F5F8431E1F78BB18C608BB9A3
:101700001092D6011092D701109289001092880091
:1017100010928B0010928A0078948091D601809369
:101720001F028091D701809320020895CF92DF920B
:10173000EF92FF920F931F93CF93DF936C01EB0116
:101740004EE06DE081E00E941E102091D8013091A2
:10175000D9018217930739F49091D0028091DA0170
:10176000891709F45CC085B1897F85B980918000B3
:101770008F7380938000809180008F7C80938000A5
:101780008BB1837F8BB91092D6011092D7014EE0B6
:101790006DE081E00E941E108C019093D90180932E
:1017A000D801E090D002FF24E092DA01B801882746
:1017B0009927B4E0660F771F881F991FBA95D1F754
:1017C000615070408040904024E630E040E050E0BE
:1017D0000E947618CA01B90124E630E02E193F09AB
:1017E000442737FD4095542F0E945718A4E0000F5E
:1017F000111FAA95E1F7060F171F01501040109313
:101800008700009386001092850010928400109249
:1018100089001092880010928B0010928A008091AB
:10182000CD02882301F14BE06AE081E00E941E10A6
:101830008C0149E068E081E00E941E10A801005080
:10184000144010F04FEF53E09C018050944010F092
:101850002FEF33E08FEF93E0BC01641B750BAB01FE
:10186000821B930B17C049E068E081E00E941E10C4
:101870008C014BE06AE081E00E941E10A80100503C
:10188000144010F04FEF53E024E08030920710F046
:101890008FEF93E0C416D50620F4D7FF02C0C0E056
:1018A000D0E08C159D0528F41C161D0614F4C0E02C
:1018B000D0E08091160280FF99C0D7FF4BC0BE01D7
:1018C0006195062F2091D8013091D901F89480912B
:1018D000D6018823A1F485B1897F85B98BB1806950
:1018E0008BB95B981092800080E000008F5F84319C
:1018F000E1F780E8809380005A9A1092D701009314
:10190000D601602F77278827992744275527F4E0A9
:10191000220F331F441F551FFA95D1F72150304035
:10192000404050400E9457182FEF30E040E050E018
:101930000E947618309389002093880010928B00C3
:1019400010928A00789400931F028091D7018093AF
:1019500020024EC0209709F449C00C2F2091D801D5
:101960003091D901F8948091D7018823A1F485B1F1
:10197000897F85B98BB180698BB95A9810928000A4
:1019800080E000008F5F8431E1F780E28093800087
:101990005B9A1092D6010093D701109289001092A1
:1019A0008800602F77278827992744275527E4E068
:1019B000220F331F441F551FEA95D1F721503040A5
:1019C000404050400E9457182FEF30E040E050E078
:1019D0000E94761830938B0020938A00789480912F
:1019E000D60180931F020093200202C00E94670B61
:1019F000DF91CF911F910F91FF90EF90DF90CF90EB
:101A000008952F923F924F925F926F927F928F92A2
:101A10009F92AF92BF92CF92DF92EF92FF920F937D
:101A20001F93CF93DF93CDB7DEB724970FB6F8940B
:101A3000DEBF0FBECDBF4B0119012A01E982FA8238
:101A40000B831C8390937E0280937D0270937002BF
:101A500060936F02881A990A9092800280927F02A6
:101A6000B401882777FD8095982F0E945B157B0134
:101A70008C0197FE08C020E030E040E857E40E9467
:101A8000B4127B018C01E092DB01F092DC01009347
:101A9000DD011093DE01A8019701C601B5010E9486
:101AA000E1125B016C01A8019701698D7A8D8B8D24
:101AB0009C8D0E94E1123B014C0120926B023092FE
:101AC0006C0240926D0250926E0289819A81AB81C4
:101AD000BC818093750290937602A0937702B093B5
:101AE0007802A0927902B0927A02C0927B02D092E0
:101AF0007C026092710270927202809273029092E4
:101B00007402A2019101C201B1010E94B4127B01D1
:101B10008C0120E030E040E050EC69817A818B81DB
:101B20009C810E94E1129B01AC01C801B7010E9497
:101B3000B412A60195010E94B412A40193010E945F
:101B4000B4126093DF017093E0018093E101909300
:101B5000E20120E030E040E450ECC201B1010E941B
:101B6000E1127B018C0120E030E040E450E4698127
:101B70007A818B819C810E94E1129B01AC01C8019A
:101B8000B7010E94B4127B018C0120E030E040E0FC
:101B900050ECC601B5010E94E1129B01AC01C801E5
:101BA000B7010E94B412A40193010E9483126093B2
:101BB000E3017093E4018093E5019093E601A09224
:101BC000E701B092E801C092E901D092EA012092C7
:101BD000EB013092EC014092ED015092EE0124961F
:101BE0000FB6F894DEBF0FBECDBFDF91CF911F912E
:101BF0000F91FF90EF90DF90CF90BF90AF909F90AC
:101C00008F907F906F905F904F903F902F900895AE
:101C10002F923F924F925F926F927F928F929F92FC
:101C2000AF92BF92CF92DF92EF92FF920F931F93EA
:101C3000CF93DF93CDB7DEB760970FB6F894DEBFD2
:101C40000FBECDBF8C01788B6F875E874D8720914B
:101C50007D0230917E0228173907C8F080916B020F
:101C600090916C02A0916D02B0916E02FB01808395
:101C70009183A283B3830217130708F1809179023D
:101C800090917A02A0917B02B0917C0225C0409194
:101C90006F02509170028417950728F180917502A8
:101CA00090917602A0917702B0917802EF85F88941
:101CB00080839183A283B3834017510728F480E087
:101CC00090E0A0E0B0E008C08091710290917202B3
:101CD000A0917302B0917402ED85FE85808391839B
:101CE000A283B383BAC08091DB019091DC01A09103
:101CF000DD01B091DE0189879A87AB87BC87021B23
:101D0000130BB801882777FD8095982F0E945B15EB
:101D100017FF06C020E030E040E857E40E94B4120C
:101D200029853A854B855C850E94FF135B016C0118
:101D30009B01AC010E94E1123B014C018091DF014B
:101D40009091E001A091E101B091E2018D839E8329
:101D5000AF83B8872090E3013090E4014090E50123
:101D60005090E6018091E7019091E801A091E9018E
:101D7000B091EA0189839A83AB83BC83A601950164
:101D8000C401B3010E94E1129B01AC016D817E810F
:101D90008F8198850E94E1127B018C01A40193013F
:101DA000C201B1010E94E1129B01AC01C801B7015F
:101DB0000E94B4127B018C01A601950169817A8190
:101DC0008B819C810E94E1129B01AC01C801B7018B
:101DD0000E94B4122091EB013091EC014091ED0191
:101DE0005091EE010E94B412AF85B8896D937D9336
:101DF0008D939C93139720E030E040E450E46D8194
:101E00007E818F8198850E94E112A40193010E9436
:101E1000E1127B018C01A2019101C201B1010E947A
:101E2000B412A60195010E94E1129B01AC01C80108
:101E3000B7010E94B41229813A814B815C810E94D2
:101E4000B41229853A854B855C850E94FF13ED8588
:101E5000FE85608371838283938360960FB6F894C6
:101E6000DEBF0FBECDBFDF91CF911F910F91FF90CD
:101E7000EF90DF90CF90BF90AF909F908F907F902A
:101E80006F905F904F903F902F900895F894E0E806
:101E9000F0E080818093EF0180818F738083808167
:101EA0008F7C808378940895F8948091EF018093DB
:101EB000800078940895F894882329F4662341F0EB
:101EC0005C985F9A0FC0662319F45F985C9A0AC009
:101ED00020E030E042E061E080E00E94381080E0E5
:101EE00090E008952091E20290E03DEF04C0832F3E
:101EF0008A95F1F79F5F9217D1F78BB180698BB903
:101F0000789487E00E94D401809108028823E1F34D
:101F1000109208028091090290910A02089510928D
:101F2000F001E1EFF1E01192119282E0E130F80767
:101F3000D1F720E030E042E061E080E00E9438101C
:101F400082E08093E10283E08093E2020895CF92E1
:101F5000DF92EF92FF920F931F93C0901F02D090D9
:101F600020020091E1021127602F772767FD70950D
:101F7000872F972F0E945B1507FF06C020E030E0F7
:101F800040E853E40E94B41220E030E44CE955E408
:101F90000E94E1127B018C0120E030E040E85FE329
:101FA0000E94251588231CF481E090E012C020E0F7
:101FB0003FEF4FE757E4C801B7010E94B914181664
:101FC0001CF480E090E005C0C801B7010E94301108
:101FD000CB010197F1F710E06D2D8C2D0E945B0F66
:101FE0002091F001E22FFF27EE0FFF1FEF50FE4F71
:101FF000918380832F5F27702093F00120E030E0F1
:10200000E1EFF1E081919191280F391F81E0EF3FDD
:10201000F807C1F783E0369527958A95E1F71F5FAA
:102020001730D1F642E061E080E00E9438101F9145
:102030000F91FF90EF90DF90CF900895E82F8FB72A
:10204000F894FF278FBF36E0EE0FFF1F3A95E1F7B8
:10205000EF57FD4FDF01A60FB11D8C919927982FE7
:102060008827E40FF11D20813327822B932B0895BD
:10207000E82F5FB7F894FF2776E0EE0FFF1F7A9501
:10208000E1F7EF57FD4FDF01A60FB11D832F992711
:102090008C93E40FF11D20835FBF0895089580E1C4
:1020A0008093C1020E948C100895E1E8F2E080E480
:1020B000DF01982F1D929A95E9F7E05CFF4FA3E0AE
:1020C000E134FA07A9F7109240020E947D038823A9
:1020D00011F40E94B8020E94A91008959C018091F9
:1020E0000102909102022115310531F0880F991FEC
:1020F000281B390BC9010895880F991F08959091E5
:10210000810221E030E002C0220F331F8A95E2F7FE
:10211000922B90938102089520E030E043E162E148
:1021200081E00E94381020E030E045E164E181E088
:102130000E9438102AEF30E047E166E181E00E941A
:10214000381020E030E041E160E181E00E94381089
:1021500008951092810210920202109201020895D5
:102160008F929F92AF92BF92CF92DF92EF92FF92A7
:102170000F931F93CF93DF9361E180E10E9484026C
:102180005C016DE08CE00E948402EC0164E183E17B
:102190000E9484024C0143E162E181E00E941E1032
:1021A0007C0145E164E181E00E941E108C0147E161
:1021B00066E181E00E941E106C0141E160E181E076
:1021C0000E941E109C01EA14FB0430F4EF2821F059
:1021D00080918102826008C0A016B10638F4012BFC
:1021E00029F0809181028460809381022C173D0741
:1021F00070F42115310559F080918102816080933E
:102200008102C21BD30BD0930202C0930102C814F7
:10221000D90470F4CD2861F08091810288608093A8
:102220008102809116028E7F809316020E94670BB6
:102230008091010290910202009729F001979093FA
:10224000020280930102DF91CF911F910F91FF90C5
:10225000EF90DF90CF90BF90AF909F908F900895B8
:10226000EF92FF920F931F937B018C0120E030E0EF
:1022700040E05FE40E94EF1488237CF020E030E02F
:1022800040E05FE4C801B7010E9483120E94C415B8
:10229000605070408040904804C0C801B7010E945F
:1022A000C4151F910F91FF90EF900895A0E0B0E04A
:1022B000ECE5F1E10C949C18FC016A0190819230EC
:1022C00008F41BC1DB018C91823080F0943061F402
:1022D000843009F012C19181EB018981981709F4CA
:1022E0000CC1E9E0F1E009C1843011F4FB0105C142
:1022F000823091F4923009F000C1EA01DF0188E0F8
:102300000D9009928150E1F78181FB019181892330
:10231000E6018983F601F1C0923041F36280738057
:10232000EB018A809B80E480F580068117812C81F7
:102330003D814E815F815301A818B908C501B7FCE2
:10234000ABC080970CF457C0861497040CF4BEC041
:102350003401EE24FF2487019181FB0181819817CC
:1023600009F4A6C0992309F49CC02E193F09400B1B
:10237000510B57FDB0C0E60119827B826A82F601DB
:102380002483358346835783E6012C813D814E812A
:102390005F8179018A01DA01C9010197A109B109B7
:1023A0008F5F9F4FAF4FBF43F8F4E6016A817B8197
:1023B000A8019701220F331F441F551F6150704021
:1023C00079018A01DA01C9010197A109B1098F5F79
:1023D0009F4FAF4FBF4360F3E6017B836A83F601F3
:1023E000248335834683578383E0D6018C9357FD3E
:1023F00039C0F60182C086149704B4F4C0E0D0E07E
:10240000DA01C90181709070A070B070569547953F
:1024100037952795282B392B4A2B5B2B2196CA15EC
:10242000DB0571F78C0E9D1E681479040CF094CFB7
:10243000C0E0D0E05401A618B708D801C7018170E8
:102440009070A070B07016950795F794E794E82AFD
:10245000F92A0A2B1B2B2196AC16BD0671F76C0EC0
:102460007D1E7ACFDA01C901B695A7959795879514
:102470002170307040705070282B392B4A2B5B2B09
:10248000E6012C833D834E835F838A819B81019685
:102490009B838A83F60131C0882799278A199B0973
:1024A00050CFE21AF30A040B150BA801970161CF74
:1024B000E60199837B826A822E0D3F1D401F511FCA
:1024C000F60124833583468357838ECF20E030E0A6
:1024D00040E050E041CF81E0E60189837B826A825F
:1024E00050954095309521953F4F4F4F5F4FF601E6
:1024F000248335834683578347CFCF01EEE0CDB7A2
:10250000DEB70C94B818A0E2B0E0E9E8F2E10C9470
:10251000A41869837A838B839C832D833E834F83A6
:10252000588789E0E82EF12CEC0EFD1EB701CE0194
:1025300001960E9448178E010F5E1F4FB801CE0111
:1025400005960E9448178A8991E089278A8BAE01F7
:10255000475E5F4FB801C7010E9456110E941416D2
:10256000E6E0A0960C94C018A0E2B0E0EAEBF2E13D
:102570000C94A41869837A838B839C832D833E8378
:102580004F83588799E0E92EF12CEC0EFD1EB70120
:10259000CE0101960E9448178E010F5E1F4FB801B1
:1025A000CE0105960E944817AE01475E5F4FB80105
:1025B000C7010E9456110E941416E6E0A0960C94E2
:1025C000C018A0E2B0E0E7EEF2E10C94981869833D
:1025D0007A838B839C832D833E834F8358878E0120
:1025E000075F1F4FB801CE0101960E944817F1E125
:1025F000EF2EF12CEC0EFD1EB701CE0105960E94C8
:1026000048178985823078F09989923040F420E02B
:102610009A858A89981321E02A8BB701E9C0843012
:1026200051F4923061F020E09A858A89981321E074
:102630002A87B801DDC0943029F4823041F769E07F
:1026400071E0D6C0823079F3923009F32D853E8552
:102650004F8558898D899E89AF89B88D222433246E
:102660002101AA24BB246501EE24FF24870160E038
:1026700070E00DC06F5F7F4F6032710599F1880F78
:10268000991FAA1FBB1F569547953795279520FF81
:1026900019C0280E391E4A1E5B1E6624772443018A
:1026A000281639064A065B0628F4E1E06E2E712CE6
:1026B000812C912CAE0CBF1CC01ED11EA60CB71CC9
:1026C000C81CD91CEE0CFF1C001F111FB7FFD2CF76
:1026D000E1E06E2E712C812C912CE628F728082938
:1026E0001929C8CF8B859C852B893C89820F931F24
:1026F00002969C8F8B8F1A8E9A858A89981711F073
:1027000081E08A8FD7FE17C08B8D9C8DA0FE0CC0F8
:10271000569447943794279420E030E040E050E806
:10272000222A332A442A552AD694C794B794A794C8
:1027300001969C8F8B8F30E0A31630E0B30630E01B
:10274000C30630E4D30618F58B8D9C8D0EC0220C89
:10275000331C441C551C019720E0A21620E0B20651
:1027600020E0C20620E4D20680F4AA0CBB1CCC1CDC
:10277000DD1C57FEECCF31E0632E712C812C912CA7
:10278000A628B728C828D928E2CF9C8F8B8FD601DE
:10279000C5018F779070A070B07080349105A1054D
:1027A000B10551F0AD8EBE8ECF8ED8A283E0898F59
:1027B000BE01675E7F4F1CC0A7FCF4CF211431041B
:1027C0004104510479F380E490E0A0E0B0E0A80E69
:1027D000B91ECA1EDB1E80E8682E8FEF782E8FEFA1
:1027E000882E8FEF982EA620B720C820D920DACFC8
:1027F000CB010E941416E2E1A0960C94B418A8E153
:10280000B0E0E5E0F4E10C949E1869837A838B8351
:102810009C832D833E834F835887B9E08B2E912C68
:102820008C0E9D1EB401CE0101960E9448178E01A8
:102830000F5E1F4FB801CE0105960E9448172985EB
:10284000223008F46AC03989323008F468C08A85B9
:102850009A8989278A87243009F463C0223009F4D1
:1028600060C0343041F41D861E861F86188A1C867F
:102870001B86B40177C0323009F458C06B857C8563
:102880008B899C89681B790B7C876B872D853E859E
:102890004F855889ED88FE880F89188D2E153F05C4
:1028A0004007510740F4220F331F441F551F61504A
:1028B00070407C876B8780E090E0A0E0B0E4AA24C1
:1028C000BB24650160E070E02E153F05400751070D
:1028D00040F0A82AB92ACA2ADB2A2E193F09400B40
:1028E000510BB695A79597958795220F331F441FD7
:1028F000551F6F5F7F4F6F31710531F7D601C501ED
:102900008F779070A070B07080349105A105B105EB
:1029100089F0AD86BE86CF86D88AB40123C0B801BF
:1029200021C03217D1F769E071E01CC084E08987CB
:10293000B40118C0A7FCEDCF2115310541055105A3
:1029400041F380E490E0A0E0B0E0A80EB91ECA1EFA
:10295000DB1E80E89FEFAFEFBFEFA822B922CA22AB
:10296000DB22D7CFCB010E941416ECE068960C94C2
:10297000BA18A8E1B0E0EFEBF4E10C94A418698375
:102980007A838B839C832D833E834F83588789E092
:10299000E82EF12CEC0EFD1EB701CE0101960E942F
:1029A00048178E010F5E1F4FB801CE0105960E9499
:1029B00048178985823018F42FEF3FEF0BC08989C3
:1029C0008230D0F3B801C7010E94E717282F3327C0
:1029D00027FD3095C901E6E068960C94C018A8E17F
:1029E000B0E0E5EFF4E10C94A41869837A838B835B
:1029F0009C832D833E834F83588789E0E82EF12CFA
:102A0000EC0EFD1EB701CE0101960E9448178E0103
:102A10000F5E1F4FB801CE0105960E9448178985A9
:102A2000823018F42FEF3FEF0BC089898230D0F34A
:102A3000B801C7010E94E717282F332727FD3095DB
:102A4000C901E6E068960C94C018A8E1B0E0EBE29A
:102A5000F5E10C94A41869837A838B839C832D837E
:102A60003E834F83588789E0E82EF12CEC0EFD1E43
:102A7000B701CE0101960E9448178E010F5E1F4FCD
:102A8000B801CE0105960E9448178985823018F05A
:102A90008989823018F421E030E008C0B801C7010C
:102AA0000E94E717282F332727FD3095C901E6E05C
:102AB00068960C94C018A8E0B0E0E1E6F5E10C944B
:102AC000A7189B01AC0183E089831A8257FD51C08E
:102AD000211531054105510539F482E08983CE0184
:102AE00001960E9414164CC0EEE1F0E0FC83EB83EB
:102AF0008A818823C9F1203010E0310710E04107B6
:102B000010E85107C9F188279927DC01821B930B34
:102B1000A40BB50B8D839E83AF83B8872D813E8137
:102B20004F815885203080E0380780E0480780E4F6
:102B30005807A8F6EB81FC81DA01C901880F991FBB
:102B4000AA1FBB1F31979C01AD01803010E0910797
:102B500010E0A10710E4B10778F3FC83EB838D83C9
:102B60009E83AF83B887BBCF2D833E834F83588727
:102B7000D5CF81E08A83ACCF60E070E080E09FEC4D
:102B8000E3E028960C94C318ACE0B0E0EAECF5E181
:102B90000C94A81869837A838B839C83BE016B5F36
:102BA0007F4FCE0101960E9448178D81823061F0DF
:102BB000823050F0843069F48E81882359F52FEFEC
:102BC0003FEF4FEF5FE72AC020E030E040E050E009
:102BD00025C02F81388537FDF7CF2F31310564F7B8
:102BE0008EE190E0821B930B29853A854B855C85AD
:102BF00004C056954795379527958A95D2F78E81CB
:102C0000882361F050954095309521953F4F4F4F67
:102C10005F4F04C020E030E040E050E8CA01B90155
:102C2000E2E02C960C94C4184F925F926F927F92C0
:102C30008F929F92AF92BF92DF92EF92FF920F938B
:102C40001F9320E030E040E050E0FC01E480F5809C
:102C500006811781D1808081823038F4D801C70184
:102C6000A061AF77B0706FEFEFC0843009F474C02B
:102C7000823009F477C0E114F1040105110509F46B
:102C800071C0828193816FEF823896070CF070C01B
:102C900062E87FEF681B790B6A3171050CF08FC019
:102CA00047015801062E04C0B694A79497948794C0
:102CB0000A94D2F744245524320181E090E0A0E048
:102CC000B0E004C0880F991FAA1FBB1F6A95D2F7F6
:102CD0000197A109B109E822F9220A231B23E11473
:102CE000F1040105110529F0B1E04B2E512C612CA6
:102CF000712C85017401E428F52806291729D801CB
:102D0000C7018F779070A070B07080349105A105D5
:102D1000B10509F466C0D801C701CF96A11DB11D48
:102D200060E070E08030E0E09E07E0E0AE07E0E4C5
:102D3000BE0710F061E070E0FB01BC01CD01F7E0DF
:102D40009695879577956795FA95D1F7DC01CB0134
:102D5000AF77B0706E2F78C080E090E0A0E0B0E078
:102D60006FEF72C080E090E0A0E0B0E060E06CC087
:102D7000803891058CF7BC0161587F4FD801C7019D
:102D80008F779070A070B07080349105A105B10567
:102D9000E9F08FE390E0A0E0B0E0E80EF91E0A1F32
:102DA0001B1F17FD38C0D801C70127E0B695A795AE
:102DB000979587952A95D1F7AF77B07045C0E0E039
:102DC000F0E060E070E080E090E0C0CFE7FEE9CFA7
:102DD00080E490E0A0E0B0E0E80EF91E0A1F1B1F9F
:102DE000E0CFE7FC1FC080E090E060E0E61660E026
:102DF000F60660E0060760E4160710F081E090E058
:102E0000FC01C801B701A7E096958795779567956E
:102E1000AA95D1F79BCF16950795F794E7946F5F26
:102E20007F4FC1CFD801C701805C9F4FAF4FBF4FCD
:102E300060E070E08030E0E09E07E0E0AE07E0E4B4
:102E4000BE0708F479CF76CF282F392F8A2F8F77B6
:102E50004078482B862F8795882787954F77482B72
:102E600066955078562BD794DD24D7945F775D29EB
:102E7000CA01B9011F910F91FF90EF90DF90BF90B1
:102E8000AF909F908F907F906F905F904F9008953C
:102E9000FC01DB01208131819281492F4F7750E085
:102EA000991F9927991F8381682F660F692B881FA7
:102EB0008827881FFD018183662309F049C02115F9
:102EC00031054105510509F470C082E89FEFFD010D
:102ED00093838283220F331F441F551F220F331FFA
:102EE000441F551F220F331F441F551F220F331F2E
:102EF000441F551F220F331F441F551F220F331F1E
:102F0000441F551F220F331F441F551F83E08C930E
:102F10002030F0E03F07F0E04F07F0E45F0790F467
:102F200082E89FEF220F331F441F551F0197203067
:102F300060E0360760E0460760E4560798F3FD015D
:102F400093838283FD0124833583468357830895C9
:102F50006F3F71F1862F99278F579040FD01938322
:102F6000828383E08C93220F331F441F551F220F4F
:102F7000331F441F551F220F331F441F551F220F9D
:102F8000331F441F551F220F331F441F551F220F8D
:102F9000331F441F551F220F331F441F551F5064FA
:102FA0002483358346835783089582E08C93089564
:102FB000211531054105510519F484E08C930895DC
:102FC00044FD02C01C92BECF81E08C93BBCFEF9238
:102FD000FF920F931F93CF93DF93FC01DB0180815E
:102FE000823050F09C91923038F0843041F494302B
:102FF000B1F08181882381F461E070E04BC09430AE
:10300000E9F18230A1F09230A1F36181ED01898173
:10301000681791F0662381F36FEF7FEF3BC0EB0100
:103020008981682F77278181681B710933C09230AD
:1030300059F560E070E02EC022813381ED018A8174
:103040009B818217930734F3281739079CF0E4809B
:10305000F58006811781FD012481358146815781E4
:103060002E153F0540075107A8F2E216F3060407A4
:103070001507F8F6662309F0BFCFCECFFB0181819B
:10308000882309F0B9CFC8CFEB018981882309F0E3
:10309000B3CFC2CFCB01E6E0CDB7DEB70C94C018FA
:1030A000DC0101C06D9341505040E0F70895629FEC
:1030B000D001739FF001829FE00DF11D649FE00D30
:1030C000F11D929FF00D839FF00D749FF00D659F91
:1030D000F00D9927729FB00DE11DF91F639FB00D90
:1030E000E11DF91FBD01CF0111240895A1E21A2E9F
:1030F000AA1BBB1BFD010DC0AA1FBB1FEE1FFF1F9C
:10310000A217B307E407F50720F0A21BB30BE40BEB
:10311000F50B661F771F881F991F1A9469F7609532
:103120007095809590959B01AC01BD01CF010895EC
:103130002F923F924F925F926F927F928F929F92C7
:10314000AF92BF92CF92DF92EF92FF920F931F93B5
:10315000CF93DF93CDB7DEB7CA1BDB0B0FB6F89466
:10316000DEBF0FBECDBF09942A88398848885F84A6
:103170006E847D848C849B84AA84B984C884DF8017
:10318000EE80FD800C811B81AA81B981CE0FD11DFB
:103190000FB6F894DEBF0FBECDBFED01089509D084
:1031A00001921A94E1F7089501900BD01A94E1F777
:1031B0000895F999FECFB2BDA1BDF89A119600B459
:1031C0000895F999FECFB2BDA1BD00BC11960FB60E
:0A31D000F894FA9AF99A0FBE0895D8
:1031DA004F70656E536572766F0000000000000044
:0231EA000000E3
:00000001FF
