:100000000C944D000C9468000C9468000C946800EB
:100010000C9468000C9468000C9468000C946800C0
:100020000C9468000C9468000C9468000C946800B0
:100030000C9468000C9468000C945F020C946800A7
:100040000C9468000C9468000C9468000C94680090
:100050000C9468000C94F5010C9468000C946800F2
:100060000C94CD090C9468006601B20169016D0120
:10007000750179017D01800183018601A901AD012E
:10008000B201B201B201B201B20189018D01910147
:100090009A019D01A001A601A30111241FBECFEF6B
:1000A000D4E0DEBFCDBF12E0A0E0B1E0E8EAF1E3CA
:1000B00002C005900D92A231B107D9F714E0A2E178
:1000C000B2E001C01D92A332B107E1F70C946A00BF
:1000D0000C940000CFEFD4E0DEBFCDBF86E084B942
:1000E00089EF85B917B88FE788B98CE98AB983EFAA
:1000F0008BB90E94FE030E94C8020E94B80C0E94A5
:10010000B5010E9435070E949F040E9405090E94C4
:100110005A0F8091A3030E94DE0A40E050E067E09E
:1001200086E00E94A202789482E00E94EC01809115
:10013000F6028823E1F31092F6028091FE0290917C
:10014000FF020E943C041092F6024091FE02509180
:10015000FF0261E280E20E94A20240E050E063E21E
:1001600082E20E94A20280910803836080930803C8
:1001700080910203882309F490C0109202038AE060
:1001800090E00E94060580910803992783FF37C0FD
:1001900084FF17C061E280E20E948E0290931502F4
:1001A000809314024091160250911702841795070C
:1001B00041F0909313028093120261E280E20E9468
:1001C000A20261E280E20E948E0290931702809365
:1001D00016028091080385FD06C09091300380913E
:1001E000C303981761F4409112025091130261E227
:1001F00080E20E94A2020E9470090E946809009198
:100200001103E0901203002311F4EE2019F00E9474
:100210005B0F07C020E030E042E061E080E00E9438
:10022000061082E00E94EC018091F602882341F4DE
:100230008091F902882321F48091FA028823A1F3A6
:100240001092FA024091F7025091F80264E183E1C2
:100250000E94A2021092F902809100039091010382
:100260000E94E108002311F4EE2021F00E949F0F6C
:100270000E94690F1092F602E090FE02F090FF02D9
:10028000C7010E9466078C010E948710C8010E9466
:100290004C10BC01C7010E94400B0E948A098823B0
:1002A00009F460C00E9476099927AA27BB27FC01A0
:1002B000E058F040E931F10508F054C0EC5CFF4F24
:1002C000EE0FFF1F0590F491E02D09940E940A049F
:1002D00049C080910803816043C0809108038E7FEC
:1002E000809308030E94F70A3DC080910803826052
:1002F00037C0809108038D7F33C00E941B0332C03A
:100300000E948A032FC00E94C3022CC00E94E902EF
:1003100029C080910803846023C0809108038B7FEB
:100320001FC01092F6028091FE029091FF020E947F
:100330003C0418C00E94510615C00E94D30A12C086
:100340000E945D090FC00E94CD0A0CC00E94C70A1E
:1003500009C080910803886003C080910803877FEB
:10036000809308030E94241003CF1092F902109288
:100370000103109200031092F6021092FF021092F5
:10038000FE02109202031092FB021092FD021092E4
:10039000FC021092FA021092F8021092F70288B151
:1003A000887F88B9EEE7F0E080818760808382E40F
:1003B00080937C0093E090937B008FE880937A0099
:1003C00095BB92E090936E0016BC83EC87BD18BC81
:1003D00094BD85E085BD0895806480937C00EAE744
:1003E000F0E080818064808308951F920F920FB6A1
:1003F0000F9211242F933F934F935F936F937F93AB
:100400008F939F93AF93BF93EF93FF9340917800A7
:100410005091790080917C0099278F709070823084
:10042000910571F0833091052CF4009791F00197BC
:10043000A9F528C083309105A9F0079779F527C061
:100440005093FF024093FE0281E08093F60280E425
:1004500011C0509301034093000381E08093F9029F
:1004600083E408C05093F8024093F70281E0809340
:10047000FA0281E480937C0080917A00806480930A
:100480007A000CC061E180E10E94A20207C081E015
:100490008093FB025093FD024093FC02FF91EF9189
:1004A000BF91AF919F918F917F916F915F914F918C
:1004B0003F912F910F900FBE0F901F9018951F9294
:1004C0000F920FB60F9211242F933F934F935F9388
:1004D0006F937F938F939F93AF93BF93EF93FF930C
:1004E00067E086E00E948E020196AC0167E086E03C
:1004F0000E94A20281E080930203FF91EF91BF91DD
:10050000AF919F918F917F916F915F914F913F91AB
:100510002F910F900FBE0F901F901895282F8FB717
:10052000F8948FBFE3E0F3E0DF01A60FB11D8C91DB
:100530009927E20FF11D20813327322F2227822BAA
:10054000932B08952FB7F894E3E0F3E0DF01A80FB1
:10055000B11D852F99278C93E60FF11D40832FBF86
:10056000089580914203893010F0109242039091D7
:100570004203E92FFF27E050FF4F80819F5F909358
:100580004203992708950E943E070E94251008956E
:100590008FE3E3E0F3E011928A95E9F791E090931D
:1005A00003039093040383E0809305039093060371
:1005B000109242030E942D100895FC0104C0819105
:1005C000480F6150704061157105C9F7842F992754
:1005D00008950F931F93CF93DF93CDB7DEB7609746
:1005E0000FB6F894DEBF0FBECDBF40E150E06FEF15
:1005F00070E08E010F5F1F4FC8010E94371820E086
:1006000030E0A80180E1D901FA01182E0E94BB1840
:10061000205F3F4FF2E020303F07A1F781E090E0FC
:1006200060960FB6F894DEBF0FBECDBFDF91CF91BD
:100630001F910F910895DF92EF92FF920F931F93F6
:10064000CF93DF93CDB7DEB722970FB6F894DEBF16
:100650000FBECDBF83E089832BE3E22E23E0F22E91
:1006600043E068E070E0C7010E94DD028A8382E017
:10067000A0E0B0E08E010F5F1F4FF801182E0E941E
:10068000BB1888E0A2E0B0E0F701182E0E94BB186A
:1006900093EAE92E93E0F92E43E06DE270E0C701A2
:1006A0000E94DD028983DD24D394AAE0B0E0F80142
:1006B0001D2C0E94BB188DE2ABE0B0E0F701182EB4
:1006C0000E94BB1883EEE82E83E0F82E43E060E141
:1006D00070E0C7010E94DD028983A9E3B0E0F80160
:1006E0001D2C0E94BB1880E1AAE3B0E0F701182E90
:1006F0000E94BB1881E090E022960FB6F894DEBF0E
:100700000FBECDBFDF91CF911F910F91FF90EF9062
:10071000DF900895EF92FF920F931F93CF93DF9393
:10072000CDB7DEB722970FB6F894DEBF0FBECDBFB0
:1007300082E0A0E0B0E07E010894E11CF11CF7012A
:10074000182E0E94B6188981833009F048C088E0CD
:100750002BE333E0A2E0B0E0F901182E0E94B618B6
:100760001A8143E068E070E0C9010E94DD021817B9
:10077000B1F501E0AAE0B0E0F701102E0E94B61832
:1007800023EA33E08DE2ABE0B0E0F901182E0E94DD
:10079000B618198143E06DE270E0C9010E94DD02E4
:1007A0001817E9F4A9E3B0E0F701102E0E94B6187B
:1007B00023EE33E080E1AAE3B0E0F901182E0E94B5
:1007C000B618198143E060E170E0C9010E94DD02C2
:1007D00090E0181391E09027892F992702C080E0BC
:1007E00090E022960FB6F894DEBF0FBECDBFDF912A
:1007F000CF911F910F91FF90EF900895F89484B7D7
:10080000877F84BFE0E6F0E080818861808310828A
:1008100078940895F89488E8809360007894FFCFE6
:1008200090914C0380914303981718F4891B8150D1
:1008300002C0891B895F9927089540E050E067E274
:1008400086E20E94A20240E050E069E288E20E9453
:10085000A20240E050E06BE28AE20E94A20240E085
:1008600050E065E284E20E94A20210922F030E94EF
:100870001004809315030895AF92BF92CF92DF9238
:10088000EF92FF920F931F9310924403109245032F
:1008900010924603109247031092480310924903A6
:1008A00010924A0310924B0310924C031092430390
:1008B0001092190210921802AA2797FDA095BA2F3C
:1008C000BC01CD010E9420159B01AC0160931A026E
:1008D00070931B0280931C0290931D0280E090E0B5
:1008E000A0E0B0E080931E0290931F02A09320022C
:1008F000B09321028093220290932302A0932402BA
:10090000B0932502BF93AF939F938F935C016D01CA
:1009100079018A0160E070E080E090E00E94390D8A
:100920000E941D040F900F900F900F901F910F9138
:10093000FF90EF90DF90CF90BF90AF900895AF926F
:10094000BF92CF92DF92EF92FF920F931F9310927C
:1009500044031092450310924603109247031092ED
:1009600048031092490310924A0310924B031092CD
:100970004C0310924303109219021092180280E067
:1009800090E0A0E0B4E480931A0290931B02A0933D
:100990001C02B0931D0280E090E0A0E0B0E08093E4
:1009A0001E0290931F02A0932002B0932102809315
:1009B000220290932302A0932402B0932502BF93B6
:1009C000AF939F938F935C016D010F2EF0E0EF2E9C
:1009D000F0E0FF2EF0E00F2FF4E41F2FF02DA80120
:1009E000970160E070E080E090E00E94390D0E9485
:1009F0001D040F900F900F900F901F910F91FF907B
:100A0000EF90DF90CF90BF90AF900895AF92BF92DC
:100A1000CF92DF92EF92FF920F931F93CF93DF93CA
:100A2000CDB7DEB728970FB6F894DEBF0FBECDBFA7
:100A30009C018091080382FF23C190914303809120
:100A40004C03981789F410924403109245031092B6
:100A500046031092470310924803109249031092E4
:100A60004A0310924B03CEC044275527809144037C
:100A700090914503A0914603B0914703820F931FC5
:100A8000A41FB51F8093440390934503A09346038E
:100A9000B0934703A2C02E193F09400B510B20937E
:100AA000440330934503409346035093470380919A
:100AB000480390914903A0914A03B0914B038E19CA
:100AC0009F09A00BB10B8093480390934903A09317
:100AD0004A03B0934B03209143032F5F2770209369
:100AE000430380914C03422F55272817A1F5CA01D3
:100AF000880F991FFC01A3E0EE0FFF1FAA95E1F7F5
:100B0000E81BF90BE85EFD4F22813381448155815A
:100B100080E090E0A0E0B0E0BF93AF939F938F930D
:100B20005C016D0179018A0160E070E080E090E095
:100B30000E94390D1092440310924503109246030F
:100B400010924703109248031092490310924A03EF
:100B500010924B033AC02F5F27703327CA01880FCA
:100B6000991FDC0163E0AA0FBB1F6A95E1F7A81B80
:100B7000B90BA85EBD4FFD01A284B384C484D584A3
:100B8000220F331FC90143E0880F991F4A95E1F7EF
:100B9000821B930B885E9D4FFC01E280F3800481F1
:100BA0001581FD012281338144815581FC016081E1
:100BB000718186819781A085B185BF93AF939F9303
:100BC0008F9380E090E00E94390D0F900F900F906E
:100BD0000F900E94100480931503209144033091DC
:100BE00045034091460350914703809161039091E2
:100BF00062037C0100271127E216F306040715079C
:100C000008F449CFAE014B5F5F4FBE016F5F7F4F6E
:100C100080914403909145030E94260E20E030E02D
:100C200040E251E46D817E818F8198850E94CA12D5
:100C30006D837E838F83988720E030E040E05FE320
:100C400069817A818B819C810E949D120E947E1510
:100C5000AB01BC0161E280E20E94A20220E030E030
:100C600040E05FE36D817E818F8198850E949D12B7
:100C70000E947E15AB01BC0163E282E20E94A202E7
:100C800028960FB6F894DEBF0FBECDBFDF91CF918F
:100C90001F910F91FF90EF90DF90CF90BF90AF909A
:100CA00008955F926F927F928F929F92AF92BF92C0
:100CB000CF92DF92EF92FF920F931F93CF93DF9328
:100CC00050904C03539487E0582280914303581668
:100CD00009F49BC067E286E20E948E027C0169E211
:100CE00088E20E948E026C016BE28AE20E948E0210
:100CF0005C0165E284E20E948E02EC01892B09F41A
:100D000084C0852D9927880F991F8C0123E0000F3F
:100D1000111F2A95E1F7081B190B085E1D4FF801FA
:100D2000D183C083B701882777FD8095982F0E94D3
:100D300020153B014C01F801628373838483958302
:100D4000B601882777FD8095982F0E94201520E016
:100D500030E040E85AE30E94CA12F80166837783C4
:100D600080879187B501882777FD8095982F0E940D
:100D7000201520E030E040E85AE30E94CA12F80152
:100D800062877387848795879091430380914C0392
:100D90009817E9F420915703309158034091590373
:100DA00050915A0380E090E0A0E0B0E0BF93AF9391
:100DB0009F938F935C016D0184017301BE0180E0FC
:100DC00090E00E94390D0F900F900F900F909E01B0
:100DD000442755278091480390914903A0914A03E5
:100DE000B0914B03820F931FA41FB51F809348033C
:100DF00090934903A0934A03B0934B0350924C0342
:100E00000E941D0481E090E002C080E090E0DF914C
:100E1000CF911F910F91FF90EF90DF90CF90BF90F7
:100E2000AF909F908F907F906F905F900895FB019F
:100E30002081318142815381AA2797FDA095BA2F45
:100E4000820F931FA41FB51F55954795379527957A
:100E5000821B930BA40BB50B80839183A283B38376
:100E6000B595A7959795879508951092AB02109226
:100E7000AA021092AD021092AC02089581E0809314
:100E8000A40320E038E043E062E00E94061020E086
:100E90003CE045E064E081E00E94061020E030E0A4
:100EA00047E066E081E00E94061020E630E049E07D
:100EB00068E081E00E94061020EA33E04BE06AE03F
:100EC00081E00E9406101092AF030895EF92FF9206
:100ED0000F931F93CF93DF937C0168E872E00E9429
:100EE000170790939902809398022091AC02309159
:100EF000AD02821B930B97FF03C0CFEFDFEF02C061
:100F0000C1E0D0E042E061E080E00E94E80F6CE8E0
:100F100072E00E9417079C012C9FC0012D9F900D2D
:100F20003C9F900D112490939B0280939A02809194
:100F30009802909199029093AD028093AC0261E285
:100F400080E20E948E029093A3028093A20263E249
:100F500082E20E948E029093A1028093A00249E057
:100F600068E081E00E94E80F90939F0280939E02C8
:100F70004BE06AE081E00E94E80F90939D0280932D
:100F80009C028091AF038823A9F10FEF13E0A80121
:100F90004E195F0969E088E00E94A20240919A021E
:100FA00050919B02509541955F4F6BE08AE00E9403
:100FB000A2028091A2029091A3029801281B390BF2
:100FC0003093A3022093A20280919E0290919F02EF
:100FD0009801281B390B30939F0220939E02809129
:100FE0009C0290919D02081B190B10939D02009387
:100FF0009C020DC0A70169E088E00E94A202409116
:101000009A0250919B026BE08AE00E94A2028091BA
:10101000A40399279093A9028093A8022091A20289
:101020003091A3028091AA029091AB022817390750
:1010300021F4E0909802F09099023093AB02209353
:10104000AA0280919E0290919F022817390724F4EA
:101050009093A3028093A20220919C0230919D0262
:101060008091A2029091A3022817390724F43093AB
:10107000A3022093A2028091A2029091A3028E1952
:101080009F099093A7028093A6028091A00290915D
:10109000A10220919A0230919B02821B930B9093A4
:1010A000A5028093A40243E062E081E00E94E80F81
:1010B000909391028093900245E064E081E00E9469
:1010C000E80FEC01909393028093920210929402A5
:1010D0001092950210929602109297022091A60209
:1010E0003091A7028091A8029091A90282179307DC
:1010F00034F0909581959F4F28173907A4F460919B
:1011000090027091910288279927442737FD4095D6
:10111000542F0E943E18609394027093950280931E
:10112000960290939702BE01882799272091A402E6
:101130003091A502442737FD4095542F0E943E1858
:10114000209194023091950240919602509197021D
:10115000260F371F481F591F232F342F452F552780
:1011600047FD5A952093940230939502409396023E
:10117000509397022F3F31054105510531F02CF076
:101180008FEF90E0A0E0B0E009C021503F4F4F4FFB
:101190005F4F64F481E09FEFAFEFBFEF8093940265
:1011A00090939502A0939602B09397028091940237
:1011B00090919502DF91CF911F910F91FF90EF9049
:1011C00008952091AE02E22FFF27EE0FFF1FE15599
:1011D000FD4F918380832F5F27702093AE02EFEA4B
:1011E000F2E040E050E081919191480F591F82E078
:1011F000EF3BF807C1F783E0569547958A95E1F7ED
:101200006DE08CE00E94A20208951092AE02EFEA17
:10121000F2E01192119282E0EF3BF807D1F740E043
:1012200050E06DE08CE00E94A202089590910803C6
:1012300096959095917020913203A22FBB278F77BE
:101240008032D0F1883330F48F3259F4633048F073
:1012500062E007C0992319F0803440F40895803487
:1012600028F4E82FFF27ED5FFC4F0FC0213019F065
:101270002230B9F403C09923A1F00895803538F4E1
:101280008054E82FFF27ED51FC4F6083089580368E
:1012900040F48055E82FFF27ED51FC4F80818035C9
:1012A00070F2805496E0AA0FBB1F9A95E1F7A80F41
:1012B000B11DAD59BC4F6C930895EAEBF0E080810D
:1012C0008E7F808380910803877F80930803089531
:1012D000809108038F7D8093080310923003089556
:1012E000809108038F7E8093080308959091C10236
:1012F0008091C2029817D1F38091C2028F5F8370F0
:101300008093C202E091C202FF27ED53FD4F80811E
:10131000992708959091C1028091C20220E030E0A7
:10132000981711F021E030E0C90108958F778034DB
:1013300050F4813019F40E94B1021EC0E82FFF273B
:10134000ED5FFC4F0BC0909132039230B9F48035C1
:1013500038F48054E82FFF27ED51FC4F80810CC0FA
:10136000803660F48055E82FFF27ED51FC4F8081D7
:10137000803520F40E949609992708958054E92F1A
:10138000FF2726E0EE0FFF1F2A95E1F7E80FF11D7A
:10139000ED59FC4F8081992708951F920F920FB647
:1013A0000F9211240F931F932F933F934F935F93AB
:1013B0006F937F938F939F93AF93BF93EF93FF931D
:1013C0008091B900883909F4CCC08939A8F48037F4
:1013D00009F446C0813738F4882309F4C0C0803648
:1013E00009F0BFC03DC0883809F4BBC08039D9F1CD
:1013F000803809F0B6C037C0883B81F0893B38F4AB
:10140000803A09F4AEC0883A09F0ABC007C0883C06
:1014100009F4A7C0883F09F4A7C0A3C08091BF0208
:101420000E949609382F8091C002843089F420915F
:10143000C7028091C8029091C902281738F4930F0F
:101440009093C9022F5F2093C70202C0392F05C0B5
:101450008091BF028F5F8093BF023093BB0081C039
:101460001092C0027EC06091BB008091C0028230A9
:1014700089F1833030F4882351F0813009F071C054
:101480001FC0833089F1843009F06BC038C067FD1C
:1014900004C06093BF0281E003C0613821F482E0A0
:1014A0008093C0025EC08091C1028F5F8370809381
:1014B000C102E091C102FF27ED53FD4F608351C08F
:1014C0008091BF020E9416098091BF028F5F8093B6
:1014D000BF0247C0862F8F708093C8028093C902D5
:1014E0001092C70283E0DCCF8091C9026093BF02F3
:1014F0009091BF02980F9093C90284E0D1CF809160
:10150000C7020091C8029091C902801770F4E82FB9
:10151000FF27EF70F070E653FD4F6083960F9093B6
:10152000C9028F5F8093C7021CC06917D1F410E015
:1015300011C0E12FFF27EF70F070E653FD4F60817F
:101540008091BF020E9416098091BF028F5F809335
:10155000BF021F5F101768F31093C70202C085ED2A
:1015600001C085EC8093BC00FF91EF91BF91AF91DA
:101570009F918F917F916F915F914F913F912F91AB
:101580001F910F910F900FBE0F901F901895809193
:1015900008038061809308030895809108038062A6
:1015A000809308030895EAEBF0E0808181608083F6
:1015B0008091080388608093080308951092C20206
:1015C0001092C102880FEAEBF0E0808380818E7F69
:1015D00080838091080310923003877C80930803F6
:1015E0008FEF8093BB0085EC8093BC000895F89446
:1015F0008091DA02882321F48091DB028823F1F0C4
:101600008BB180698BB91092800085B1897F85B9D3
:1016100080E090E001C00000019685319105D9F786
:101620008091080386FF03C08BB18C6002C08BB130
:10163000837F8BB91092DA021092DB02109289003C
:101640001092880010928B0010928A0078948091FA
:10165000DA02809311038091DB02809312030895D4
:1016600020E430E04EE06DE081E00E94061086E468
:101670008093B203809108038860809308030895E3
:10168000CF92DF92FF920F931F93CF93DF936C0162
:10169000EB014EE06DE081E00E94E80F2091DC025A
:1016A0003091DD028217930739F49091B203809153
:1016B000DE02981709F463C08BB1837F8BB980E099
:1016C00090E001C00000019685319105D9F785B100
:1016D000897F85B9809180008F738093800080918D
:1016E00080008F7C809380001092DA021092DB02DF
:1016F0004EE06DE081E00E94E80F9093DD02809360
:10170000DC02F090B203F092DE028C0134E0000FB4
:10171000111F3A95E1F701501040AA27BB2724E09A
:10172000880F991FAA1FBB1F2A95D1F70197A109FE
:10173000B109BC01CD0124E630E040E050E00E9458
:101740005D18CA01B90124E630E02F193109442798
:1017500037FD4095542F0E943E18060F171F109317
:1017600087000093860010928500109284001092EA
:1017700089001092880010928B0010928A0080914C
:10178000AF03882301F14BE06AE081E00E94E80F9B
:101790008C0149E068E081E00E94E80FA801005058
:1017A000144010F04FEF53E09C018050944010F033
:1017B0002FEF33E08FEF93E0BC01641B750BAB019F
:1017C000821B930B17C049E068E081E00E94E80F9C
:1017D0008C014BE06AE081E00E94E80FA801005014
:1017E000144010F04FEF53E024E08030920710F0E7
:1017F0008FEF93E0C416D50620F4D7FF02C0C0E0F7
:10180000D0E08C159D0528F41C161D0614F4C0E0CC
:10181000D0E08091080380FFA1C0D7FF50C0BE0177
:101820006195062F2091DC023091DD02F8948091C1
:10183000DA028823C9F48BB180698BB95B98109266
:10184000800085B1897F85B980E090E001C000000B
:10185000019685319105D9F7809180008068809349
:1018600080005A9A1092DB020093DA02602F7727E9
:101870008827992744275527F4E0220F331F441F58
:10188000551FFA95D1F721503040404050400E94FA
:101890003E182FEF30E040E050E00E945D1830939A
:1018A00089002093880010928B0010928A0078940F
:1018B000009311038091DB028093120351C02097A3
:1018C00009F44CC00C2F2091DC023091DD02F89419
:1018D0008091DB028823B9F48BB180698BB95A9867
:1018E0001092800085B1897F85B980E090E001C0C9
:1018F0000000019685319105D9F780E28093800040
:101900005B9A1092DA020093DB0210928900109227
:101910008800602F77278827992744275527E4E0F8
:10192000220F331F441F551FEA95D1F72150304035
:10193000404050400E943E182FEF30E040E050E021
:101940000E945D1830938B0020938A0078948091D8
:10195000DA02809311030093120302C00E94F70A77
:10196000DF91CF911F910F91FF90DF90CF9008955D
:10197000BF92CF92DF92EF92FF920F931F934EE0B0
:101980006DE081E00E94E80F9093DD028093DC021D
:10199000B090B203B092DE022BB1237F2BB92BB1F2
:1019A00020692BB92AB12C692AB925B1297F25B91B
:1019B00024B1266024B9109285001092840070E84A
:1019C000E72EF12CF701108261E8C62ED12CF6012A
:1019D00010821092820010926F008C0154E0000F70
:1019E000111F5A95E1F701501040AA27BB2744E088
:1019F000880F991FAA1FBB1F4A95D1F70197A1090C
:101A0000B109BC01CD0124E630E040E050E00E9485
:101A10005D18CA01B90124E630E02B1931094427C9
:101A200037FD4095542F0E943E18060F171F109344
:101A3000870000938600109289001092880010920F
:101A40008B0010928A00F701108281E1F6018083F9
:101A50001092110310921203809108038860809302
:101A600008031F910F91FF90EF90DF90CF90BF90F0
:101A700008952F923F924F925F926F927F928F9232
:101A80009F92AF92BF92CF92DF92EF92FF920F930D
:101A90001F93CF93DF93CDB7DEB72093EF02309340
:101AA000F0024093F1025093F2029093600380930E
:101AB0005F037093520360935103681B790B70931B
:101AC000620360936103882799270E94D1153B0127
:101AD0004C016093DF027093E0028093E1029093E7
:101AE000E2029B01AC01C601B5010E94CA121B01B2
:101AF0002C01A40193016D897E898F89988D0E94A4
:101B0000CA123B014C018091EF029091F002A0912A
:101B1000F102B091F20280934D0390934E03A09393
:101B20004F03B0935003E0925703F0925803009391
:101B3000590310935A0320925B0330925C03409246
:101B40005D0350925E03609253037092540380923F
:101B50005503909256039C01AD01BC01CD010E943A
:101B60009D125B016C0120E030E040E050ECC801C8
:101B7000B7010E94CA129B01AC01C601B5010E94C7
:101B80009D12A20191010E949D12A40193010E9445
:101B90009D126093E3027093E4028093E5029093B8
:101BA000E60220E030E040E450EC6091EF027091FA
:101BB000F0028091F1029091F2020E94CA125B0140
:101BC0006C0120E030E040E450E4C801B7010E941D
:101BD000CA129B01AC01C601B5010E949D127B0196
:101BE0008C0120E030E040E050ECC201B1010E94E5
:101BF000CA129B01AC01C801B7010E949D12A40149
:101C000093010E946C126093E7027093E802809344
:101C1000E9029093EA022092EB023092EC024092A9
:101C2000ED025092EE02DF91CF911F910F91FF9044
:101C3000EF90DF90CF90BF90AF909F908F907F906C
:101C40006F905F904F903F902F9008952F923F920A
:101C50004F925F926F927F928F929F92AF92BF92BC
:101C6000CF92DF92EF92FF920F931F93CF93DF9368
:101C7000CDB7DEB760970FB6F894DEBF0FBECDBF0D
:101C80009C01788B6F875E874D8740915F035091F1
:101C9000600348175907C8F080914D0390914E0397
:101CA000A0914F03B0915003FB0180839183A283E5
:101CB000B3832417350708F180915B0390915C038F
:101CC000A0915D03B0915E0325C0609151037091B6
:101CD00052038617970728F1809157039091580374
:101CE000A0915903B0915A03EF85F88980839183BD
:101CF000A283B3836217730728F480E090E0A0E02A
:101D0000B0E008C08091530390915403A091550313
:101D1000B0915603ED85FE8580839183A283B383C2
:101D2000B0C08091DF029091E002A091E102B091F9
:101D3000E20289879A87AB87BC87241B350BB901E0
:101D4000882799270E94D11529853A854B855C857E
:101D50000E94C9135B016C019B01AC010E94CA1275
:101D60003B014C018091E3029091E402A091E502D5
:101D7000B091E6028D839E83AF83B8872090E702FF
:101D80003090E8024090E9025090EA028091EB0224
:101D90009091EC02A091ED02B091EE0289839A83BA
:101DA000AB83BC83A6019501C401B3010E94CA1292
:101DB0009B01AC016D817E818F8198850E94CA1242
:101DC0007B018C01A4019301C201B1010E94CA12DE
:101DD0009B01AC01C801B7010E949D127B018C01DF
:101DE000A601950169817A818B819C810E94CA122A
:101DF0009B01AC01C801B7010E949D122091EF0226
:101E00003091F0024091F1025091F2020E949D1235
:101E1000AF85B8896D937D938D939C93139720E044
:101E200030E040E450E46D817E818F8198850E948E
:101E3000CA12A40193010E94CA127B018C01A20163
:101E40009101C201B1010E949D12A60195010E945B
:101E5000CA129B01AC01C801B7010E949D122981E1
:101E60003A814B815C810E949D1229853A854B8580
:101E70005C850E94C913ED85FE8560837183828332
:101E8000938360960FB6F894DEBF0FBECDBFDF918F
:101E9000CF911F910F91FF90EF90DF90CF90BF9067
:101EA000AF909F908F907F906F905F904F903F90FA
:101EB0002F9008950895F894E0E8F0E080818093F1
:101EC000F30280818F73808380818F7C80837894FC
:101ED0000895F8948091F302809380007894089597
:101EE000F894882329F4662339F05C985F9A04C03B
:101EF000662311F45F985C9A2091CE0390E004C0B1
:101F00008DEF8A95F1F79F5F9217D1F78BB18069BA
:101F10008BB9789487E00E94EC018091FB028823C2
:101F2000E1F31092FB028091FC029091FD02089572
:101F300082E08093CD0383E08093CE030895CF9217
:101F4000DF92EF92FF920F931F93C0901103D090F6
:101F500012036091CD037727882799270E94D11516
:101F600020E030E44CE955E40E94CA127B018C0168
:101F700020E030E040E85FE30E94EA1488231CF48C
:101F800081E090E012C020E03FEF4FE757E4C80146
:101F9000B7010E947E1418161CF480E090E005C082
:101FA000C801B7010E940011CB010197F1F76D2D17
:101FB0008C2D0E94700F9C0142E061E080E00E9445
:101FC00006101F910F91FF90EF90DF90CF90089532
:101FD000A82F8FB7F894BB278FBF23E633E056E0D6
:101FE000AA0FBB1F5A95E1F7FD01E40FF11DE20FA7
:101FF000F31F80819927A60FB11DA20FB31F2C914B
:102000003327322F2227822B932B08950F931F9370
:10201000A82F5FB7F894BB2703E613E076E0AA0F7A
:10202000BB1F7A95E1F7FD01E60FF11DE00FF11FEF
:10203000832F99278083A40FB11DA00FB11F2C936C
:102040005FBF1F910F910895089580E18093A303CE
:102050000E946A100E94980F0895E3E6F3E080E47E
:10206000DF011D928A95E9F7E05CFF4FB4E0E332AF
:10207000FB07A9F7109232030E9445100E948A03C1
:10208000882311F40E94C3020895109263031092F2
:10209000F5021092F40208959C018091F40290914F
:1020A000F5022115310531F0880F991F281B390BD6
:1020B000C9010895880F991F089521E030E002C0FA
:1020C000220F331F8A95E2F780916303822B80935E
:1020D0006303089520E030E043E162E181E00E9483
:1020E000061020E030E045E164E181E00E94061046
:1020F00022E231E047E166E181E00E94061020E043
:1021000030E041E160E181E00E94061008958F9285
:102110009F92AF92BF92CF92DF92EF92FF920F9376
:102120001F93CF93DF9361E180E10E948E025C01F7
:102130006DE08CE00E948E02EC0164E183E10E947C
:102140008E024C0143E162E181E00E94E80F7C01D4
:1021500045E164E181E00E94E80F8C0147E166E11E
:1021600081E00E94E80F6C0141E160E181E00E94A2
:10217000E80F9C01EA14FB0430F4EF2821F0809171
:102180006303826008C0A016B10638F4012B29F061
:10219000809163038460809363032C173D0770F480
:1021A0002115310559F080916303816080936303A9
:1021B000C21BD30BD093F502C093F402C814D90408
:1021C00038F4CD2829F080916303886080936303FD
:1021D0008091F4029091F502009729F00197909375
:1021E000F5028093F402DF91CF911F910F91FF9040
:1021F000EF90DF90CF90BF90AF909F908F90089519
:10220000EF92FF920F931F937B018C0120E030E04F
:1022100040E05FE40E94B41488237CF020E030E0CA
:1022200040E05FE4C801B7010E946C120E947E1575
:10223000605070408040904804C0C801B7010E94BF
:102240007E151F910F91FF90EF900895A0E0B0E0F0
:10225000ECE2F1E10C9481182C015B01FA01DC0144
:102260009C91923008F432C1EB018881823008F4ED
:102270002CC1943071F4843009F028C1F2019181AD
:102280008981981709F422C119E0412E11E0512EDD
:102290001DC1843009F419C18230A9F4923009F0CB
:1022A00015C1CA01A20128E0DA010D90AD01EC01CF
:1022B0000992CE012150C1F7E5018981E20199819E
:1022C0008923818300C1923009F4FFC0E201CA80F2
:1022D000DB80EB018A819B81E201EC80FD800E8135
:1022E0001F81EB012C813D814E815F81B601681B0E
:1022F000790BDB0177FF03C0709561957F4F6032EA
:1023000071050CF05DC01A161B065CF56624772477
:10231000430181E090E0A0E0B0E0062E04C0880F09
:10232000991FAA1FBB1F0A94D2F70197A109B109EF
:1023300082239323A423B5230097A105B10529F097
:10234000B1E06B2E712C812C912C04C056954795D1
:10235000379527956A95D2F726293729482959298B
:102360003BC0AB2BC9F1C60ED71E662477244301B0
:1023700081E090E0A0E0B0E0062E04C0880F991F35
:10238000AA1FBB1F0A94D2F70197A109B1098E2198
:102390009F21A023B1230097A105B10529F0A1E059
:1023A0006A2E712C812C912C04C016950795F794F8
:1023B000E7946A95D2F7E628F728082919290CC06E
:1023C0008C159D052CF06C01EE24FF24870104C0C0
:1023D00020E030E040E050E0E2019981E5018981B0
:1023E000981709F443C0992329F02E193F09400B8F
:1023F000510B06C0E21AF30A040B150BA801970152
:1024000057FD08C01182D382C2822483358346835C
:1024100057831DC081E08183D382C2828827992798
:10242000DC01821B930BA40BB50B84839583A683DD
:10243000B7830DC0220F331F441F551F24833583DC
:10244000468357838281938101979383828324817A
:10245000358146815781DA01C9010197A109B10986
:102460008F5F9F4FAF4FBF4328F30BC09183D38241
:10247000C2822E0D3F1D401F511F2483358346838A
:10248000578383E08083248135814681578155239A
:10249000D4F4C901AA2797FDA095BA2F8170907036
:1024A000A070B0705695479537952795822B932B42
:1024B000A42BB52B84839583A683B78382819381D4
:1024C0000196938382832F0101C02501C201E0E1BF
:1024D000CDB7DEB70C949D18A0E2B0E0E2E7F2E1E0
:1024E0000C948B1869837A838B839C832D833E8322
:1024F0004F83588709E0E02EF12CEC0EFD1EB7014A
:10250000CE0101960E9471178E010F5E1F4FB80118
:10251000CE0105960E9471178A8991E089278A8BDE
:10252000AE01475E5F4FB801C7010E9426110E94AD
:102530009116E6E0A0960C94A718A0E2B0E0E3EABA
:10254000F2E10C948B1869837A838B839C832D83AF
:102550003E834F83588789E0E82EF12CEC0EFD1E58
:10256000B701CE0101960E9471178E010F5E1F4FB9
:10257000B801CE0105960E947117AE01475E5F4F0C
:10258000B801C7010E9426110E949116E6E0A096AC
:102590000C94A718A0E2B0E0E0EDF2E10C948118F1
:1025A00069837A838B839C832D833E834F835887F3
:1025B00099E0E92EF12CEC0EFD1EB701CE0101963B
:1025C0000E9471178E010F5E1F4FB801CE01059654
:1025D0000E9471179985923088F089898230C0F005
:1025E000943019F4823029F009C0843029F49230F3
:1025F00079F469E071E0C6C0923041F420E09A8538
:102600008A89981321E02A87B701BCC0823041F43F
:1026100020E09A858A89981321E02A8BB801B2C0FC
:10262000CD84DE84EF84F8880D891E892F89388D4A
:1026300088249924540140E050E060E070E0442494
:1026400055243201E0E0F0E0C60181709070892BE2
:10265000D9F0800E911EA21EB31EDB01CA01840DAB
:10266000951DA61DB71D40E050E060E070E08016AB
:102670009106A206B30620F441E050E060E070E06D
:10268000480F591F6A1F7B1F440C551C661C771C82
:1026900037FF08C081E090E0A0E0B0E0482A592A66
:1026A0006A2A7B2A3196E032F10549F0000F111FAA
:1026B000221F331FF694E794D794C794C5CF8B8914
:1026C0009C892B853C85820F931F02969C8F8B8F54
:1026D0001A8E9A858A89981711F081E08A8F2B8D3E
:1026E0003C8D17C0CA0181709070892B61F0B6943F
:1026F000A7949794879480E090E0A0E0B0E8882ABF
:10270000992AAA2ABB2A76956795579547952F5FF0
:102710003F4F77FDE7CFC9010BC0440F551F661F20
:10272000771FB7FC4160880C991CAA1CBB1C019741
:102730004030A0E05A07A0E06A07A0E47A0768F3F7
:102740009C8F8B8FDB01CA018F779070A070B07067
:1027500080349105A105B10561F447FD0AC08114DB
:102760009104A104B10429F0405C5F4F6F4F7F4F8B
:1027700040784D8F5E8F6F8F78A383E0898FBE0185
:10278000675E7F4FCB010E949116E0E1A0960C940A
:102790009D18A8E1B0E0EFECF3E10C948718698391
:1027A0007A838B839C832D833E834F8358878E014E
:1027B000075F1F4FB801CE0101960E94711781E19A
:1027C000E82EF12CEC0EFD1EB701CE0105960E94FD
:1027D000711739853230F8F02989223010F4B701A9
:1027E00086C08A859A8989278A87343011F03230E9
:1027F00029F4321781F469E071E079C0243039F4AA
:102800001D861E861F86188A1C861B8604C02230E1
:1028100021F484E08987B8016AC06B857C858B8947
:102820009C89681B790B7C876B872D853E854F853E
:1028300058898D899E89AF89B88D281739074A072D
:102840005B0740F4220F331F441F551F6150704037
:102850007C876B87A12CB12CC12C10E4D12EEE24E7
:10286000FF24870160E070E0281739074A075B07FB
:1028700040F0EA28FB280C291D29281B390B4A0B9C
:102880005B0BD694C794B794A794220F331F441FB1
:10289000551F6F5F7F4F6F31710531F7D801C70149
:1028A0008F779070A070B07080349105A105B1054C
:1028B000B9F4E7FC15C0211531054105510581F03A
:1028C00080E490E0A0E0B0E0E80EF91E0A1F1B1FB4
:1028D00080E89FEFAFEFBFEFE822F9220A231B2326
:1028E000ED86FE860F87188BBE01675F7F4FCB0199
:1028F0000E949116EAE068960C94A318A8E1B0E053
:10290000E4E8F4E10C948B1869837A838B839C83CD
:102910002D833E834F83588789E0E82EF12CEC0EFF
:10292000FD1EB701CE0101960E9471178E010F5E48
:102930001F4FB801CE0105960E947117898582301C
:1029400060F08989823048F0B801C7010E94E11720
:10295000282F332727FD309502C02FEF3FEFC90105
:10296000E6E068960C94A718A8E1B0E0EAEBF4E181
:102970000C948B1869837A838B839C832D833E838D
:102980004F83588789E0E82EF12CEC0EFD1EB7012D
:10299000CE0101960E9471178E010F5E1F4FB80184
:1029A000CE0105960E9471178985823060F0898971
:1029B000823048F0B801C7010E94E117282F332761
:1029C00027FD309502C02FEF3FEFC901E6E0689682
:1029D0000C94A718A8E1B0E0E0EFF4E10C948B1898
:1029E00069837A838B839C832D833E834F835887AF
:1029F00089E0E82EF12CEC0EFD1EB701CE01019608
:102A00000E9471178E010F5E1F4FB801CE0105960F
:102A10000E9471178985823060F08989823048F080
:102A2000B801C7010E94E117282F332727FD3095F1
:102A300002C021E030E0C901E6E068960C94A718D6
:102A4000A8E0B0E0E6E2F5E10C9488189B01AC0147
:102A500083E08983DA01C9018827B7FD8395992727
:102A6000AA27BB27B82E211531054105510519F4B8
:102A700082E089833AC08823A9F0203080E03807BB
:102A800080E0480780E8580729F460E070E080E0C3
:102A90009FEC30C0EE24FF248701E21AF30A040BF6
:102AA000150B02C079018A018EE1C82ED12CDC827F
:102AB000CB82ED82FE820F831887C801B7010E9486
:102AC000441601971816190684F4082E04C0EE0C5B
:102AD000FF1C001F111F0A94D2F7ED82FE820F83A4
:102AE0001887C81AD90ADC82CB82BA82CE01019635
:102AF0000E949116E9E028960C94A418ACE0B0E08E
:102B0000E4E8F5E10C948F1869837A838B839C83C6
:102B1000BE016B5F7F4FCE0101960E9471178D81C0
:102B20008230A9F1823098F1843021F48E8188239B
:102B300059F40FC02F81388537FD29C06E812F31A0
:102B4000310564F0662329F020E030E040E050E8F1
:102B500022C02FEF3FEF4FEF5FE71DC08EE190E007
:102B6000821B930B29853A854B855C8504C056955D
:102B70004795379527958A95D2F7662361F050954A
:102B80004095309521953F4F4F4F5F4F04C020E057
:102B900030E040E050E0CA01B901E2E02C960C942C
:102BA000AB18A8E0B0E0E7EDF5E10C9489187B01E3
:102BB0008C01611571058105910519F482E0898305
:102BC0005AC083E089838EE1C82ED12CDC82CB826F
:102BD000ED82FE820F831887C801B7010E94441658
:102BE000BC016150704077FF33C0EE27FF27E61B22
:102BF000F70B20E030E040E050E081E090E0A0E022
:102C0000B0E00E2E04C0880F991FAA1FBB1F0A94A4
:102C1000D2F70197A109B1098E219F21A023B123E9
:102C20000097A105B10521F021E030E040E050E03F
:102C300004C016950795F794E794EA95D2F72E29E4
:102C40003F29402B512B2D833E834F8358870FC044
:102C50006115710581F0062E04C0EE0CFF1C001FEB
:102C6000111F0A94D2F7ED82FE820F831887C61ACD
:102C7000D70ADC82CB821A82CE0101960E9491167D
:102C8000E8E028960C94A518EF92FF920F931F93FB
:102C90009B01AC01203080E0380781E0480780E0EC
:102CA000580780F42F3F31054105510509F020F404
:102CB000EE24FF24870119C068E0E62EF12C012DD7
:102CC000112D13C0203080E0380780E0480781E0F4
:102CD000580730F490E1E92EF12C012D112D05C09B
:102CE00088E1E82EF12C012D112D80E290E0A0E08A
:102CF000B0E08E199F09A00BB10B04C05695479503
:102D000037952795EA94D2F7F901EF5EFE4F2081BF
:102D1000821B9109A109B1091F910F91FF90EF90BA
:102D200008959F92AF92BF92CF92DF92EF92FF925F
:102D30000F931F93EE24FF248701FC01248135812A
:102D40004681578191808081823010F44061A2C019
:102D5000843009F49BC0823029F420E030E040E068
:102D600050E005C0211531054105510519F4E0E099
:102D7000F0E092C0828193816FEF823896070CF069
:102D80005AC062E87FEF681B790B6A3171052CF03D
:102D900020E030E040E050E02AC0AA24BB246501D6
:102DA00081E090E0A0E0B0E0062E04C0880F991FFB
:102DB000AA1FBB1F0A94D2F70197A109B109822368
:102DC0009323A423B5230097A105B10529F071E051
:102DD000A72EB12CC12CD12C04C056954795379500
:102DE00027956A95D2F72A293B294C295D29DA01D2
:102DF000C9018F779070A070B07080349105A105E3
:102E0000B10539F427FF09C0205C3F4F4F4F5F4F9A
:102E100004C0215C3F4F4F4F5F4F80E090E0203077
:102E200060E0360760E0460760E4560710F081E096
:102E300090E0FC0123C08038910544F5FC01E15885
:102E4000FF4FDA01C9018F779070A070B0708034A5
:102E50009105A105B10539F427FF09C0205C3F4F5A
:102E60004F4F5F4F04C0215C3F4F4F4F5F4F57FFA5
:102E700005C05695479537952795319687E0569525
:102E80004795379527958A95D1F706C020E030E021
:102E900040E050E0EFEFF0E0E22EF32E942F9F772A
:102EA000802F8078892B9E2F9795992797958F77DC
:102EB000082F092B9E2F9695812F8078892B979428
:102EC000992497948F77182F1929C801B7011F915A
:102ED0000F91FF90EF90DF90CF90BF90AF909F90B9
:102EE0000895CF93DF93FC01DB0120813181928132
:102EF000492F4F7750E0991F9927991F8381E82F19
:102F0000EE0FE92B6E2F7727881F8827881FED018A
:102F10008983EE2371F5211531054105510511F421
:102F200082E02FC06E577040FD017383628367E0BB
:102F3000220F331F441F551F6A95D1F783E08C93EE
:102F40000AC0220F331F441F551FED018A819B8148
:102F500001979B838A832030E0E03E07E0E04E0744
:102F6000E0E45E0770F3ED012C833D834E835F83C5
:102F700025C0EF3F79F4211531054105510519F4BC
:102F800084E08C931BC044FF03C081E08C9311C08C
:102F90001C920FC06F577040ED017B836A8383E002
:102FA0008C9387E0220F331F441F551F8A95D1F75A
:102FB0005064FD012483358346835783DF91CF918D
:102FC0000895CF93DF93DC01FB019C91923008F4CC
:102FD00046C08081823008F442C0943049F4ED014B
:102FE0006981843079F581819927861B91093CC0DC
:102FF000843021F0923031F48230A1F18181882334
:1030000071F52AC0ED0169818230E1F08181681794
:10301000C9F4ED012A813B81828193818217930754
:103020008CF028173907B4F0ED018C819D81AE81B9
:10303000BF812481358146815781281739074A0786
:103040005B0718F4662341F40AC082179307A407AC
:10305000B50740F4662319F48FEF9FEF05C081E0B8
:1030600090E002C080E090E0DF91CF910895DC0114
:1030700001C06D9341505040E0F70895629FD00128
:10308000739FF001829FE00DF11D649FE00DF11D23
:10309000929FF00D839FF00D749FF00D659FF00DD2
:1030A0009927729FB00DE11DF91F639FB00DE11DBF
:1030B000F91FBD01CF0111240895A1E21A2EAA1B08
:1030C000BB1BFD010DC0AA1FBB1FEE1FFF1FA217D8
:1030D000B307E407F50720F0A21BB30BE40BF50BD5
:1030E000661F771F881F991F1A9469F7609570955E
:1030F000809590959B01AC01BD01CF0108952F9261
:103100003F924F925F926F927F928F929F92AF9277
:10311000BF92CF92DF92EF92FF920F931F93CF93C4
:10312000DF93CDB7DEB7CA1BDB0B0FB6F894DEBF5B
:103130000FBECDBF09942A88398848885F846E8481
:103140007D848C849B84AA84B984C884DF80EE80CB
:10315000FD800C811B81AA81B981CE0FD11D0FB6D4
:10316000F894DEBF0FBECDBFED01089509D00192E6
:103170001A94E1F7089501900BD01A94E1F708959D
:10318000F999FECFB2BDA1BDF89A119600B4089589
:10319000F999FECFB2BDA1BD00BC11960FB6F8944F
:0831A000FA9AF99A0FBE089596
:1031A8004F70656E536572766F0000000000000076
:1031B80000000102020303030304040404040404DA
:1031C80004050505050505050505050505050505A8
:1031D8000506060606060606060606060606060688
:1031E8000606060606060606060606060606060677
:1031F8000607070707070707070707070707070758
:103208000707070707070707070707070707070746
:103218000707070707070707070707070707070736
:103228000707070707070707070707070707070726
:103238000708080808080808080808080808080807
:1032480008080808080808080808080808080808F6
:1032580008080808080808080808080808080808E6
:1032680008080808080808080808080808080808D6
:1032780008080808080808080808080808080808C6
:1032880008080808080808080808080808080808B6
:1032980008080808080808080808080808080808A6
:1032A8000808080808080808080808080808080896
:0232B80008000C
:00000001FF
