:100000000C944F000C946A000C946A000C946A00E3
:100010000C946A000C946A000C946A000C946A00B8
:100020000C946A000C946A000C946A000C946A00A8
:100030000C946A000C946A000C9454020C946A00AC
:100040000C946A000C946A000C946A000C946A0088
:100050000C946A000C94DC010C946A000C946A0005
:100060000C94B2090C946A000C944F004E01960156
:10007000510155015D01630167016A016D01700164
:1000800096019601960196019601960173017701FA
:100090007B017F0188018B018E0194019101112464
:1000A0001FBECFEFD4E0DEBFCDBF11E0A0E0B1E0D6
:1000B000EAECF1E302C005900D92A231B107D9F745
:1000C00013E0A2E1B1E001C01D92A133B107E1F755
:1000D0000C946C000C940000EF92FF920F931F930E
:1000E00086E084B989EF85B917B88FE788B98CE9BC
:1000F0008AB983EF8BB90E94F3030E94BE020E946B
:100100008A0C0E9499010E9414070E949C040E947C
:10011000E8080E94970F8091B1020E94C70A40E050
:1001200050E067E086E00E949602789482E00E94A8
:10013000D301809103028823E1F31092030280919E
:100140000B0290910C020E9439041092030240911C
:100150000B0250910C0261E280E20E94960240E0A4
:1001600050E063E282E20E94960280911602836070
:100170008093160280911002882309F476C01092B1
:1001800010028AE090E00E940305809116029927F0
:1001900083FF31C084FF17C061E280E20E948302C6
:1001A000909315018093140140911601509117010D
:1001B0008417950741F0909313018093120161E237
:1001C00080E20E94960261E280E20E9483029093A4
:1001D0001701809316018091160285FF0CC0409193
:1001E00012015091130161E280E20E9496020E9486
:1001F0004B090E9445090E944E0F82E00E94D301E4
:1002000080910302882341F480910602882321F41F
:10021000809107028823A1F3109207024091040203
:100220005091050264E183E10E9496021092060259
:1002300080910D0290910E020E94C4080E94AF0F9F
:100240000E945C0F10920302E0900B02F0900C02EF
:10025000C7010E9445078C010E94BA10C8010E9484
:100260007F10BC01C7010E94180B0E9465098823FA
:1002700009F45CC00E9451099927AA27BB27FC01F9
:10028000E058F040E931F10508F050C0EA5CFF4F5A
:10029000EE0FFF1F0590F491E02D09940E94FF03DB
:1002A00045C08091160281600BC0809116028E7F3E
:1002B000809316020E94DE0A39C080911602826085
:1002C0008093160233C0809116028D7FF9CF0E9471
:1002D00010032CC00E947F0329C00E94B70226C0D1
:1002E0000E94DF0223C081E080930F021FC0809133
:1002F00016028460E5CF809116028B7FE1CF1092C9
:10030000030280910B0290910C020E9439040EC0EE
:100310000E944E060BC00E94BC0A08C00E943A0907
:1003200005C00E94B60A02C00E94B00A0E94561080
:1003300021CF1092060210920E0210920D0210921E
:10034000030210920C0210920B0281E080930F02C4
:10035000109210021092080210920A0210920902E2
:1003600010920702109205021092040288B1887F51
:1003700088B9EEE7F0E080818760808382E4809333
:100380007C0093E090937B008FE880937A0095BB8C
:1003900092E090936E0016BC83EC87BD18BC94BDB0
:1003A00085E085BD0895806480937C00EAE7F0E0F5
:1003B00080818064808308951F920F920FB60F9200
:1003C00011242F933F934F935F936F937F938F935A
:1003D0009F93AF93BF93EF93FF9340917800509119
:1003E000790080917C0099278F7090708230910500
:1003F00079F08330910534F4009799F0019709F072
:1004000042C02BC083309105B9F10797E1F52CC0AC
:1004100050930C0240930B0281E08093030280E42E
:1004200014C050930E0240930D0281E080930602A7
:1004300083E480937C0080917A00806480937A00CA
:1004400080910F028823F9F081E480937C008091F1
:100450007A00806480937A0016C010920F0261E1E6
:1004600080E10E9496020FC081E0809308025093C1
:100470000A024093090207C081E08093070250936B
:10048000050240930402FF91EF91BF91AF919F91BC
:100490008F917F916F915F914F913F912F910F902D
:1004A0000FBE0F901F9018951F920F920FB60F92CC
:1004B00011242F933F934F935F936F937F938F9369
:1004C0009F93AF93BF93EF93FF9367E086E00E9403
:1004D00083020196AC0167E086E00E94960281E00B
:1004E00080931002FF91EF91BF91AF919F918F91F7
:1004F0007F916F915F914F913F912F910F900FBE20
:100500000F901F9018959FB7F8949FBFA1E1B2E09C
:10051000FD01E80FF11D80819927982F8827A60FEC
:10052000B11D2C913327822B932B08952FB7F8946C
:10053000E1E1F2E0DF01A80FB11D852F99278C932F
:10054000E60FF11D40832FBF08958091500288303F
:1005500010F01092500290915002E92FFF27E050C6
:10056000FF4F80819F5F90935002992708950E94CA
:100570000D0B0E941D070E94571008958FE3E1E1C3
:10058000F2E011928A95E9F791E09093110290932D
:10059000120283E08093130290931402109250028F
:1005A0000E945F100895FC0104C08191480F6150C2
:1005B000704061157105C9F7842F992708950F932D
:1005C0001F93CF93DF93CDB7DEB760970FB6F89444
:1005D000DEBF0FBECDBF40E150E06FEF70E08E0197
:1005E0000F5F1F4FC8010E94481880E090E040E173
:1005F0009801DC01F901142E0E94CC184096F2E01B
:1006000080309F07B1F781E090E060960FB6F894D4
:10061000DEBF0FBECDBFDF91CF911F910F91089527
:10062000DF92EF92FF920F931F93CF93DF93CDB79B
:10063000DEB722970FB6F894DEBF0FBECDBF83E0C2
:10064000898339E4E32E32E0F32E43E068E070E082
:10065000C7010E94D3028A8382E0A0E0B0E08E014D
:100660000F5F1F4FF801182E0E94CC1888E0A2E0FF
:10067000B0E0F701182E0E94CC1821EBE22E22E008
:10068000F22E43E06CE270E0C7010E94D30289833E
:1006900091E0D92EAAE0B0E0F8011D2C0E94CC1800
:1006A0008CE2ABE0B0E0F701182E0E94CC1881EF8D
:1006B000E82E82E0F82E43E060E170E0C7010E947E
:1006C000D3028983A8E3B0E0F8011D2C0E94CC1866
:1006D00080E1A9E3B0E0F701182E0E94CC1881E078
:1006E00090E022960FB6F894DEBF0FBECDBFDF912B
:1006F000CF911F910F91FF90EF90DF900895EF92AF
:10070000FF920F931F93CF93DF93CDB7DEB722975E
:100710000FB6F894DEBF0FBECDBF82E0A0E0B0E020
:100720007E010894E11CF11CF701182E0E94C718E5
:100730008981833009F048C088E029E432E0A2E0F2
:10074000B0E0F901182E0E94C7181A8143E068E052
:1007500070E0C9010E94D3021817B1F501E0AAE0C8
:10076000B0E0F701102E0E94C71821EB32E08CE2B6
:10077000ABE0B0E0F901182E0E94C718198143E0E0
:100780006CE270E0C9010E94D3021817E9F4A8E3F3
:10079000B0E0F701102E0E94C71821EF32E080E18F
:1007A000A9E3B0E0F901182E0E94C718198143E0AF
:1007B00060E170E0C9010E94D30290E0181391E05B
:1007C0009027892F992702C080E090E022960FB6EB
:1007D000F894DEBF0FBECDBFDF91CF911F910F9177
:1007E000FF90EF900895F89484B7877F84BFE0E688
:1007F000F0E08081886180831082789408958091F0
:1008000016028E7F809316020E94DE0AF89488E812
:10081000809360007894FFCF90915A0280915102AA
:10082000981718F4891B815003C0981B87E0891B17
:100830009927089540E050E067E286E20E94960220
:1008400040E050E069E288E20E94960240E050E019
:100850006BE28AE20E94960240E050E065E284E2A8
:100860000E94960210923D020E940C048093230283
:100870000895AF92BF92CF92DF92EF92FF920F93C3
:100880001F9310925202109253021092540210922F
:10089000550210925602109257021092580210926E
:1008A000590210925A02109251021092190110929C
:1008B0001801AA2797FDA095BA2FBC01CD010E946F
:1008C00065159B01AC0160931A0170931B01809325
:1008D0001C0190931D0180E090E0A0E0B0E08093C7
:1008E0001E0190931F01A0932001B09321018093DA
:1008F000220190932301A0932401B0932501BF937B
:10090000AF939F938F935C016D0179018A0160E041
:1009100070E080E090E00E94090D0E941A040F90A0
:100920000F900F900F901F910F91FF90EF90DF901D
:10093000CF90BF90AF900895AF92BF92CF92DF92C9
:10094000EF92FF920F931F93109252021092530254
:1009500010925402109255021092560210925702B1
:10096000109258021092590210925A02109251029B
:10097000109219011092180180E090E0A0E0B4E418
:1009800080931A0190931B01A0931C01B0931D0149
:1009900080E090E0A0E0B0E080931E0190931F0102
:1009A000A0932001B0932101809322019093230111
:1009B000A0932401B0932501BF93AF939F938F938E
:1009C0005C016D010F2EF0E0EF2EF0E0FF2EF0E065
:1009D0000F2FF4E41F2FF02DA801970160E070E0C5
:1009E00080E090E00E94090D0E941A040F900F9081
:1009F0000F900F901F910F91FF90EF90DF90CF908D
:100A0000BF90AF900895AF92BF92CF92DF92EF92D6
:100A1000FF920F931F93CF93DF93CDB7DEB7289745
:100A20000FB6F894DEBF0FBECDBF9C0180911602B9
:100A300082FF23C19091510280915A02981789F444
:100A400010925202109253021092540210925502C8
:100A500010925602109257021092580210925902A8
:100A6000CEC0442755278091520290915302A09105
:100A70005402B0915502820F931FA41FB51F80939B
:100A8000520290935302A0935402B0935502A2C015
:100A90002E193F09400B510B209352023093530201
:100AA0004093540250935502809156029091570200
:100AB000A0915802B09159028E199F09A00BB10B59
:100AC0008093560290935702A0935802B093590214
:100AD000209151022F5F27702093510280915A027A
:100AE000422F55272817A1F5CA01880F991FFC012D
:100AF000A3E0EE0FFF1FAA95E1F7E81BF90BE85EF4
:100B0000FE4F228133814481558180E090E0A0E056
:100B1000B0E0BF93AF939F938F935C016D01790118
:100B20008A0160E070E080E090E00E94090D109280
:100B300052021092530210925402109255021092D7
:100B400056021092570210925802109259023AC05F
:100B50002F5F27703327CA01880F991FDC0163E0DC
:100B6000AA0FBB1F6A95E1F7A81BB90BA85EBE4F81
:100B7000FD01A284B384C484D584220F331FC9012C
:100B800043E0880F991F4A95E1F7821B930B885E1B
:100B90009E4FFC01E280F38004811581FD012281DA
:100BA000338144815581FC01608171818681978107
:100BB000A085B185BF93AF939F938F9380E090E022
:100BC0000E94090D0F900F900F900F900E940C043F
:100BD000809323022091520230915302409154029B
:100BE0005091550280916F02909170027C01002714
:100BF0001127E216F3060407150708F449CFAE01E2
:100C00004F5F5F4FBE016B5F7F4F809152029091AB
:100C100053020E94100E20E030E040E251E469816E
:100C20007A818B819C810E94EB1269837A838B830A
:100C30009C8320E030E040E05FE36D817E818F8126
:100C400098850E94BE120E94CE15AB01BC0161E2E4
:100C500080E20E94960220E030E040E05FE369819C
:100C60007A818B819C810E94BE120E94CE15AB01BD
:100C7000BC0163E282E20E94960228960FB6F894C5
:100C8000DEBF0FBECDBFDF91CF911F910F91FF90BF
:100C9000EF90DF90CF90BF90AF9008955F926F92EA
:100CA0007F928F929F92AF92BF92CF92DF92EF92FC
:100CB000FF920F931F93CF93DF9350905A02539458
:100CC00087E0582280915102581609F49BC067E2D0
:100CD00086E20E9483027C0169E288E20E9483022C
:100CE0006C016BE28AE20E9483025C0165E284E2AD
:100CF0000E948302EC01892B09F484C0852D992779
:100D0000880F991F8C0123E0000F111F2A95E1F72E
:100D1000081B190B085E1E4FF801D183C083B70171
:100D2000882777FD8095982F0E9465153B014C011F
:100D3000F8016283738384839583B601882777FDE6
:100D40008095982F0E94651520E030E040E85AE336
:100D50000E94EB12F8016683778380879187B50143
:100D6000882777FD8095982F0E94651520E030E058
:100D700040E85AE30E94EB12F80162877387848788
:100D800095879091510280915A029817E9F4209129
:100D9000650230916602409167025091680280E0DE
:100DA00090E0A0E0B0E0BF93AF939F938F935C017E
:100DB0006D0184017301BE0180E090E00E94090D85
:100DC0000F900F900F900F909E0144275527809110
:100DD000560290915702A0915802B0915902820F89
:100DE000931FA41FB51F8093560290935702A093A0
:100DF0005802B093590250925A020E941A0481E09C
:100E000090E002C080E090E0DF91CF911F910F91C0
:100E1000FF90EF90DF90CF90BF90AF909F908F901A
:100E20007F906F905F9008951092A7011092A60195
:100E30001092A9011092A801089581E08093B20256
:100E400020E038E043E062E00E94401020E03CE017
:100E500045E064E081E00E94401020E030E047E09F
:100E600066E081E00E94401020E630E049E068E062
:100E700081E00E94401020EA33E04BE06AE081E02C
:100E80000E9440101092BD0208950F931F93CF93BC
:100E9000DF93EC018091A2019091A301A091A401A4
:100EA000B091A5019C01AD015595479537952795C2
:100EB000821B930BA40BB50B9E01442737FD409575
:100EC000542F820F931FA41FB51F8093A2019093EC
:100ED000A301A093A401B093A501B595A7959795FB
:100EE00087959C0190939101809390014091A80176
:100EF0005091A901241B350B30939301209392014B
:100F00009093A9018093A80161E280E20E9483028C
:100F100090939B0180939A0163E282E20E94830294
:100F2000909399018093980149E068E081E00E94E4
:100F3000261090939701809396014BE06AE081E040
:100F40000E94261090939501809394018091BD0298
:100F50008823A9F10FEF13E0A8014C1B5D0B69E09A
:100F600088E00E9496024091920150919301509521
:100F700041955F4F6BE08AE00E94960280919A0152
:100F800090919B019801281B390B30939B01209372
:100F90009A0180919601909197019801281B390B35
:100FA000309397012093960180919401909195013F
:100FB000081B190B10939501009394010DC0AE010D
:100FC00069E088E00E94960240919201509193015D
:100FD0006BE08AE00E9496028091B202992790937A
:100FE000A1018093A00120919A0130919B018091F1
:100FF000A6019091A7012817390721F4C09190010B
:10100000D09191013093A7012093A6018091960180
:10101000909197012817390724F490939B018093AE
:101020009A01209194013091950180919A019091BB
:101030009B012817390724F430939B0120939A01D0
:1010400080919A0190919B018C1B9D0B90939F0125
:1010500080939E0180919801909199012091920135
:1010600030919301821B930B90939D0180939C017F
:1010700043E062E081E00E94261090938901809312
:10108000880145E064E081E00E942610EC01909325
:101090008B0180938A0110928C0110928D01109225
:1010A0008E0110928F0160919E0170919F0180913D
:1010B000A0019091A1018617970734F09095819532
:1010C0009F4F68177907A4F4882777FD8095982F9C
:1010D0002091880130918901442755270E944F189B
:1010E00060938C0170938D0180938E0190938F019A
:1010F00060919C0170919D01882777FD8095982FC4
:101100009E01442755270E944F1820918C01309151
:101110008D0140918E0150918F01260F371F481F7E
:10112000591F232F342F452F552747FD5A952093BC
:101130008C0130938D0140938E0150938F012F3F8E
:1011400031054105510531F02CF08FEF90E0A0E022
:10115000B0E009C021503F4F4F4F5F4F64F481E032
:101160009FEFAFEFBFEF80938C0190938D01A09321
:101170008E01B0938F0180918C0190918D01DF9150
:10118000CF911F910F9108952091AA01E22FFF277F
:10119000EE0FFF1FE555FE4F918380832F5F277071
:1011A0002093AA0140E050E0EBEAF1E081919191B7
:1011B000480F591F81E0EB3BF807C1F783E05695D4
:1011C00047958A95E1F76DE08CE00E9496020895BC
:1011D0001092AA01EBEAF1E01192119281E0EB3B4F
:1011E000F807D1F740E050E06DE08CE00E949602F5
:1011F0000895E82F809116029927827090702091AF
:101200004002A22FBB27EF77E03298F1E83330F4A9
:10121000EF3259F4633048F062E007C0009719F4E8
:10122000E03438F40895E03420F4FF27EF5EFD4FFA
:101230000AC0E7FD1EC0223089F4E03530F4E054E6
:10124000FF27EF50FD4F60830895E03638F4E055F6
:10125000FF27EF50FD4FE081E035A8F2E05486E033
:10126000AA0FBB1F8A95E1F7AF58BD4FAE0FB11D56
:101270006C930895EAEBF0E080818E7F808380910B
:101280001602877F809316020895809116028F7D43
:10129000809316020895809116028F7E8093160225
:1012A00008959091BD018091BE019817D1F380916E
:1012B000BE018F5F83708093BE01E091BE01FF2766
:1012C000E154FE4F8081992708959091BD0180914E
:1012D000BE0120E030E0981711F021E030E0C901B4
:1012E0000895982F9F77903450F4913019F40E940C
:1012F000A50227C0E92FFF27EF5EFD4F10C097FF23
:1013000003C080E090E00895209140022230D9F49B
:10131000903538F49054E92FFF27EF50FD4F80812E
:1013200010C0903680F49055E92FFF27EF50FD4F05
:101330008081E82FFF279E2FE03528F48E2F0E9412
:101340007109992708959054E22FFF2726E0EE0FA8
:10135000FF1F2A95E1F7EF58FD4FE90FF11D80813E
:10136000992708951F920F920FB60F9211240F9391
:101370001F932F933F934F935F936F937F938F931D
:101380009F93AF93BF93EF93FF938091B9008839F8
:1013900009F4D0C08939A8F4803709F448C08137EE
:1013A00038F4882309F4C4C0803609F0C3C03FC0B4
:1013B000883809F4BFC08039E9F1803809F0BAC033
:1013C00039C0883B81F0893B38F4803A09F4B2C0D7
:1013D000883A09F0AFC007C0883C09F4ABC0883F29
:1013E00009F4ABC0A7C08091BB010E947109982F7E
:1013F0008091BC01843089F43091C3018091C40193
:101400002091C501381738F4290F2093C5013F5F9B
:101410003093C30102C0922F05C08091BB018F5F42
:101420008093BB01892F99278093BB0083C01092C2
:10143000BC0180C06091BB008091BC01823089F109
:10144000833030F4882351F0813009F073C01FC01D
:10145000833089F1843009F06DC038C067FD04C065
:101460006093BB0181E003C0613821F482E0809386
:10147000BC0160C08091BD018F5F83708093BD010E
:10148000E091BD01FF27E154FE4F608353C080917E
:10149000BB010E94F9088091BB018F5F8093BB0163
:1014A00049C0862F8F708093C4018093C50110922C
:1014B000C30183E0DCCF8091C5016093BB019091B3
:1014C000BB01890F8093C50184E0D1CF8091C30116
:1014D0000091C4012091C501801770F4E82FFF2707
:1014E000EF70F070EA53FE4F6083260F2093C50122
:1014F0008F5F8093C3011EC06217E1F41092C30195
:1015000010E011C08091BB01E12FFF27EF70F07058
:10151000EA53FE4F60810E94F9088091BB018F5F02
:101520008093BB011F5F101768F31093C30102C0C3
:1015300085ED01C085EC8093BC00FF91EF91BF91D8
:10154000AF919F918F917F916F915F914F913F915B
:101550002F911F910F910F900FBE0F901F90189514
:101560008091160280618093160208958091160280
:101570008062809316020895EAEBF0E0808181603A
:1015800080838091160288608093160208951092DD
:10159000BE011092BD01880FEAEBF0E080838081EC
:1015A0008E7F808380911602877C809316028FEF56
:1015B0008093BB0085EC8093BC000895F8948091E3
:1015C000D601882321F48091D7018823A1F08BB123
:1015D00080698BB91092800085B1897F85B980E0E0
:1015E00000008F5F8431E1F78BB18C608BB9109272
:1015F000D6011092D70110928900109288001092A3
:101600008B0010928A0078948091D60180931F02FB
:101610008091D70180932002089520E430E04EE0CD
:101620006DE081E00E94401086E48093C00208953E
:10163000CF92DF92EF92FF920F931F93CF93DF939E
:101640006C01EB014EE06DE081E00E9426102091DC
:10165000D8013091D9018217930739F49091C002D3
:101660008091DA01891709F461C08BB1837F8BB94E
:1016700080E000008F5F8431E1F785B1897F85B913
:10168000809180008F7380938000809180008F7C98
:10169000809380001092D6011092D7014EE06DE049
:1016A00081E00E9426108C019093D9018093D8018B
:1016B000E090C002FF24E092DA01B8018827992760
:1016C000B4E0660F771F881F991FBA95D1F7615054
:1016D00070408040904024E630E040E050E00E94BE
:1016E0006E18CA01B90124E630E02E193F094427DB
:1016F00037FD4095542F0E944F18A4E0000F111F92
:10170000AA95E1F7060F171F0150104010938700AC
:101710000093860010928500109284001092890038
:101720001092880010928B0010928A008091BD0266
:10173000882301F14BE06AE081E00E9426108C01D1
:1017400049E068E081E00E942610A80100501440A2
:1017500010F04FEF53E09C018050944010F02FEFB9
:1017600033E08FEF93E0BC01641B750BAB01821B70
:10177000930B17C049E068E081E00E9426108C01BD
:101780004BE06AE081E00E942610A801005014405E
:1017900010F04FEF53E024E08030920710F08FEF0D
:1017A00093E0C416D50620F4D7FF02C0C0E0D0E015
:1017B0008C159D0528F41C161D0614F4C0E0D0E01D
:1017C0008091160280FF9BC0D7FF4DC0BE0161957E
:1017D000062F2091D8013091D901F8948091D6013B
:1017E0008823B1F48BB180698BB95B98109280002B
:1017F00085B1897F85B980E000008F5F8431E1F792
:10180000809180008068809380005A9A1092D7015E
:101810000093D601602F77278827992744275527DB
:10182000F4E0220F331F441F551FFA95D1F72150C2
:101830003040404050400E944F182FEF30E040E0D1
:1018400050E00E946E183093890020938800109217
:101850008B0010928A00789400931F028091D70128
:10186000809320024EC0209709F449C00C2F20918C
:10187000D8013091D901F8948091D7018823A1F43F
:101880008BB180698BB95A981092800085B1897F9D
:1018900085B980E000008F5F8431E1F780E28093BA
:1018A00080005B9A1092D6010093D70110928900B4
:1018B00010928800602F772788279927442755277B
:1018C000E4E0220F331F441F551FEA95D1F7215042
:1018D0003040404050400E944F182FEF30E040E031
:1018E00050E00E946E1830938B0020938A00789409
:1018F0008091D60180931F020093200202C00E94B3
:10190000DE0ADF91CF911F910F91FF90EF90DF9052
:10191000CF900895AF92BF92CF92DF92EF92FF9255
:101920000F931F934EE06DE081E00E9426108C0122
:101930009093D9018093D801E090C002FF24E092F7
:10194000DA018BB1837F8BB98BB180698BB98AB196
:101950008C698AB985B1897F85B984B1866084B97B
:10196000109285001092840040E8C42ED12CF6011C
:10197000108231E8A32EB12CF50110821092820062
:1019800010926F00B8018827992724E0660F771F0F
:10199000881F991F2A95D1F7615070408040904070
:1019A00024E630E040E050E00E946E18CA01B90120
:1019B00024E630E02E193F09442737FD4095542F87
:1019C0000E944F1884E0000F111F8A95E1F7060F5F
:1019D000171F01501040109387000093860010924B
:1019E00089001092880010928B0010928A00F601F4
:1019F000108281E1F501808310921F021092200273
:101A00001F910F91FF90EF90DF90CF90BF90AF901C
:101A100008952F923F924F925F926F927F928F9292
:101A20009F92AF92BF92CF92DF92EF92FF920F936D
:101A30001F93CF93DF93CDB7DEB724970FB6F894FB
:101A4000DEBF0FBECDBF4B0119012A01E982FA8228
:101A50000B831C8390936E0280936D0270936002DF
:101A600060935F02881A990A9092700280926F02C6
:101A7000B401882777FD8095982F0E9465157B011A
:101A80008C0197FE08C020E030E040E857E40E9457
:101A9000BE127B018C01E092DB01F092DC0100932D
:101AA000DD011093DE01A8019701C601B5010E9476
:101AB000EB125B016C01A8019701698D7A8D8B8D0A
:101AC0009C8D0E94EB123B014C0120925B023092F4
:101AD0005C0240925D0250925E0289819A81AB81E4
:101AE000BC818093650290936602A0936702B093D5
:101AF0006802A0926902B0926A02C0926B02D09210
:101B00006C02609261027092620280926302909213
:101B10006402A2019101C201B1010E94BE127B01C7
:101B20008C0120E030E040E050EC69817A818B81CB
:101B30009C810E94EB129B01AC01C801B7010E947D
:101B4000BE12A60195010E94BE12A40193010E943B
:101B5000BE126093DF017093E0018093E1019093E6
:101B6000E20120E030E040E450ECC201B1010E940B
:101B7000EB127B018C0120E030E040E450E469810D
:101B80007A818B819C810E94EB129B01AC01C80180
:101B9000B7010E94BE127B018C0120E030E040E0E2
:101BA00050ECC601B5010E94EB129B01AC01C801CB
:101BB000B7010E94BE12A40193010E948D1260938E
:101BC000E3017093E4018093E5019093E601A09214
:101BD000E701B092E801C092E901D092EA012092B7
:101BE000EB013092EC014092ED015092EE0124960F
:101BF0000FB6F894DEBF0FBECDBFDF91CF911F911E
:101C00000F91FF90EF90DF90CF90BF90AF909F909B
:101C10008F907F906F905F904F903F902F9008959E
:101C20002F923F924F925F926F927F928F929F92EC
:101C3000AF92BF92CF92DF92EF92FF920F931F93DA
:101C4000CF93DF93CDB7DEB760970FB6F894DEBFC2
:101C50000FBECDBF8C01788B6F875E874D8720913B
:101C60006D0230916E0228173907C8F080915B022F
:101C700090915C02A0915D02B0915E02FB018083B5
:101C80009183A283B3830217130708F1809169023D
:101C900090916A02A0916B02B0916C0225C04091B4
:101CA0005F02509160028417950728F180916502C8
:101CB00090916602A0916702B0916802EF85F88961
:101CC00080839183A283B3834017510728F480E077
:101CD00090E0A0E0B0E008C08091610290916202C3
:101CE000A0916302B0916402ED85FE8580839183AB
:101CF000A283B383BAC08091DB019091DC01A091F3
:101D0000DD01B091DE0189879A87AB87BC87021B12
:101D1000130BB801882777FD8095982F0E946515D1
:101D200017FF06C020E030E040E857E40E94BE12F2
:101D300029853A854B855C850E9409145B016C01FD
:101D40009B01AC010E94EB123B014C018091DF0131
:101D50009091E001A091E101B091E2018D839E8319
:101D6000AF83B8872090E3013090E4014090E50113
:101D70005090E6018091E7019091E801A091E9017E
:101D8000B091EA0189839A83AB83BC83A601950154
:101D9000C401B3010E94EB129B01AC016D817E81F5
:101DA0008F8198850E94EB127B018C01A401930125
:101DB000C201B1010E94EB129B01AC01C801B70145
:101DC0000E94BE127B018C01A601950169817A8176
:101DD0008B819C810E94EB129B01AC01C801B70171
:101DE0000E94BE122091EB013091EC014091ED0177
:101DF0005091EE010E94BE12AF85B8896D937D931C
:101E00008D939C93139720E030E040E450E46D8183
:101E10007E818F8198850E94EB12A40193010E941C
:101E2000EB127B018C01A2019101C201B1010E9460
:101E3000BE12A60195010E94EB129B01AC01C801E4
:101E4000B7010E94BE1229813A814B815C810E94B8
:101E5000BE1229853A854B855C850E940914ED8563
:101E6000FE85608371838283938360960FB6F894B6
:101E7000DEBF0FBECDBFDF91CF911F910F91FF90BD
:101E8000EF90DF90CF90BF90AF909F908F907F901A
:101E90006F905F904F903F902F900895F894E0E8F6
:101EA000F0E080818093EF0180818F738083808157
:101EB0008F7C808378940895F8948091EF018093CB
:101EC000800078940895F894882329F4662341F0DB
:101ED0005C985F9A0FC0662319F45F985C9A0AC0F9
:101EE00020E030E042E061E080E00E94401080E0CD
:101EF00090E008952091DC0290E03DEF04C0832F34
:101F00008A95F1F79F5F9217D1F78BB180698BB9F2
:101F1000789487E00E94D301809108028823E1F33E
:101F2000109208028091090290910A02089510927D
:101F3000F001E1EFF1E01192119282E0E130F80757
:101F4000D1F782E08093DB0283E08093DC02089586
:101F500082E08093DB0283E08093DC020895CF92DD
:101F6000DF92EF92FF920F931F93C0901F02D090C9
:101F700020020091DB021127602F772767FD709503
:101F8000872F972F0E94651507FF06C020E030E0DD
:101F900040E853E40E94BE1220E030E44CE955E4EE
:101FA0000E94EB127B018C0120E030E040E85FE30F
:101FB0000E942F1588231CF481E090E012C020E0DD
:101FC0003FEF4FE757E4C801B7010E94C31418164A
:101FD0001CF480E090E005C0C801B7010E943A11EE
:101FE000CB010197F1F710E06D2D8C2D0E94630F4E
:101FF0002091F001E22FFF27EE0FFF1FEF50FE4F61
:10200000918380832F5F27702093F00120E030E0E0
:10201000E1EFF1E081919191280F391F81E0EF3FCD
:10202000F807C1F783E0369527958A95E1F71F5F9A
:102030001730D1F642E061E080E00E9440101F912D
:102040000F91FF90EF90DF90CF900895E82F8FB71A
:10205000F894FF278FBF36E0EE0FFF1F3A95E1F7A8
:10206000EF58FD4FDF01A60FB11D8C919927982FD6
:102070008827E40FF11D20813327822B932B0895AD
:10208000E82F5FB7F894FF2776E0EE0FFF1F7A95F1
:10209000E1F7EF58FD4FDF01A60FB11D832F992700
:1020A0008C93E40FF11D20835FBF0895089580E1B4
:1020B0008093B1020E949D100E94A80F0895E1E74D
:1020C000F2E080E4DF01982F1D929A95E9F7E05C39
:1020D000FF4FA3E0E133FA07A9F7109240020E94F4
:1020E00078100E947F03882311F40E94B70208959C
:1020F00010927102109202021092010208959C0146
:1021000080910102909102022115310531F0880F72
:10211000991F281B390BC9010895880F991F08952D
:102120009091710221E030E002C0220F331F8A95A6
:10213000E2F7922B90937102089520E030E043E1A2
:1021400062E181E00E94401020E030E045E164E17E
:1021500081E00E9440102AEF30E047E166E181E033
:102160000E94401020E030E041E160E181E00E9407
:10217000401008958F929F92AF92BF92CF92DF92BC
:10218000EF92FF920F931F93CF93DF9361E180E172
:102190000E9483025C016DE08CE00E948302EC01EE
:1021A00064E183E10E9483024C0143E162E181E04A
:1021B0000E9426107C0145E164E181E00E94261026
:1021C0008C0147E166E181E00E9426106C0141E14B
:1021D00060E181E00E9426109C01EA14FB0430F4C7
:1021E000EF2821F080917102826008C0A016B1062C
:1021F00038F4012B29F08091710284608093710280
:102200002C173D0770F42115310559F080917102AA
:10221000816080937102C21BD30BD0930202C093E2
:102220000102C814D90470F4CD2861F080917102C4
:10223000886080937102809116028E7F80931602CF
:102240000E94DE0A8091010290910202009729F01B
:1022500001979093020280930102DF91CF911F9129
:102260000F91FF90EF90DF90CF90BF90AF909F9035
:102270008F900895EF92FF920F931F937B018C0133
:1022800020E030E040E05FE40E94F91488237CF015
:1022900020E030E040E05FE4C801B7010E948D1209
:1022A0000E94CE15605070408040904804C0C80124
:1022B000B7010E94CE151F910F91FF90EF900895E6
:1022C000A0E0B0E0E6E6F1E10C949418FC016A01AC
:1022D0009081923008F41BC1DB018C91823080F038
:1022E000943061F4843009F012C19181EB0189814D
:1022F000981709F40CC1E9E0F1E009C1843011F448
:10230000FB0105C1823091F4923009F000C1EA016D
:10231000DF0188E00D9009928150E1F78181FB0196
:1023200091818923E6018983F601F1C0923041F35E
:1023300062807380EB018A809B80E480F580068157
:1023400017812C813D814E815F815301A818B90806
:10235000C501B7FCABC080970CF457C08614970436
:102360000CF4BEC03401EE24FF2487019181FB01EF
:102370008181981709F4A6C0992309F49CC02E19ED
:102380003F09400B510B57FDB0C0E60119827B821B
:102390006A82F6012483358346835783E6012C81C4
:1023A0003D814E815F8179018A01DA01C90101977E
:1023B000A109B1098F5F9F4FAF4FBF43F8F4E6010A
:1023C0006A817B81A8019701220F331F441F551F8B
:1023D0006150704079018A01DA01C9010197A109B0
:1023E000B1098F5F9F4FAF4FBF4360F3E6017B831F
:1023F0006A83F601248335834683578383E0D601BD
:102400008C9357FD39C0F60182C086149704B4F44A
:10241000C0E0D0E0DA01C90181709070A070B070A6
:102420005695479537952795282B392B4A2B5B2BAB
:102430002196AC16BD0671F78A0C9B1C68147904B2
:102440000CF094CFC0E0D0E05401A618B708D80132
:10245000C70181709070A070B07016950795F794C1
:10246000E794E82AF92A0A2B1B2B2196AC16BD0605
:1024700071F76A0C7B1C7ACFDA01C901B695A79572
:10248000979587952170307040705070282B392BAC
:102490004A2B5B2BE6012C833D834E835F838A812D
:1024A0009B8101969B838A83F60131C088279927F7
:1024B0008A199B0950CFE21AF30A040B150BA801E5
:1024C000970161CFE60199837B826A822E0D3F1DC1
:1024D000401F511FF60124833583468357838ECFD7
:1024E00020E030E040E050E041CF81E0E601898328
:1024F0007B826A8250954095309521953F4F4F4F92
:102500005F4FF601248335834683578347CFCF013E
:10251000EEE0CDB7DEB70C94B018A0E2B0E0E3E98E
:10252000F2E10C949C1869837A838B839C832D83BE
:102530003E834F83588789E1E82EF12CEC0EFD1E77
:10254000B701CE0101960E9440178E010F5E1F4F0A
:10255000B801CE0105960E9440178A8991E089272B
:102560008A8BAE01475F5F4FB801C7010E946011BF
:102570000E941E16E6E0A0960C94B818A0E2B0E007
:10258000E4ECF2E10C949C1869837A838B839C833E
:102590002D833E834F83588799E1E92EF12CEC0E71
:1025A000FD1EB701CE0101960E9440178E010F5EFD
:1025B0001F4FB801CE0105960E944017AE01475F3C
:1025C0005F4FB801C7010E9460110E941E16E6E02D
:1025D000A0960C94B818A0E2B0E0E1EFF2E10C9400
:1025E000901869837A838B839C832D833E834F83EA
:1025F00058878E01075E1F4FB801CE0101960E94D9
:102600004017F1E1EF2EF12CEC0EFD1EB701CE01CB
:1026100005960E944017898D823078F09989923012
:1026200040F420E09A8D8A89981321E02A8BB70123
:10263000E9C0843051F4923061F020E09A8D8A89AB
:10264000981321E02A8FB801DDC0943029F482303C
:1026500041F769E071E0D6C0823079F3923009F336
:102660002D8D3E8D4F8D58A18D899E89AF89B88D56
:10267000222433242101AA24BB246501EE24FF2453
:10268000870160E070E00DC06F5F7F4F60327105C1
:1026900099F1880F991FAA1FBB1F5695479537952B
:1026A000279520FF19C0280E391E4A1E5B1E66247E
:1026B00077244301281639064A065B0628F4E1E030
:1026C0006E2E712C812C912CAE0CBF1CC01ED11E05
:1026D000A60CB71CC81CD91CEE0CFF1C001F111F38
:1026E000B7FFD2CFE1E06E2E712C812C912CE62821
:1026F000F72808291929C8CF8B8D9C8D2B893C89F7
:10270000820F931F02969C878B871A869A8D8A89DF
:10271000981711F081E08A87D7FE17C08B859C85BA
:10272000A0FE0CC0569447943794279420E030E0E4
:1027300040E050E8222A332A442A552AD694C794E6
:10274000B794A79401969C878B8730E0A31630E05E
:10275000B30630E0C30630E4D30618F58B859C85BC
:102760000EC0220C331C441C551C019720E0A216FD
:1027700020E0B20620E0C20620E4D20680F4AA0CD3
:10278000BB1CCC1CDD1C57FEECCF31E0632E712C42
:10279000812C912CA628B728C828D928E2CF9C875D
:1027A0008B87D601C5018F779070A070B070803490
:1027B0009105A105B10551F0AD86BE86CF86D88AB8
:1027C00083E08987BE01675F7F4F1CC0A7FCF4CF01
:1027D000211431044104510479F380E490E0A0E035
:1027E000B0E0A80EB91ECA1EDB1E80E8682E8FEF6F
:1027F000782E8FEF882E8FEF982EA620B720C82036
:10280000D920DACFCB010E941E16E2E1A0960C94EB
:10281000AC18A8E1B0E0EFE0F4E10C9496186983FD
:102820007A838B839C832D833E834F835887B1E1CA
:102830008B2E912C8C0E9D1EB401CE0101960E9410
:1028400040178E01075F1F4FB801CE0105960E9409
:1028500040172989223008F46AC03985323008F4DB
:1028600068C08A899A8589278A8B243009F463C0D5
:10287000223009F460C0343041F41D8A1E8A1F8A58
:10288000188E1C8A1B8AB40177C0323009F458C0F4
:102890006B897C898B859C85681B790B7C8B6B8B0A
:1028A0002D893E894F89588DED84FE840F851889C6
:1028B0002E153F054007510740F4220F331F441FD8
:1028C000551F615070407C8B6B8B80E090E0A0E0E6
:1028D000B0E4AA24BB24650160E070E02E153F053A
:1028E0004007510740F0A82AB92ACA2ADB2A2E1924
:1028F0003F09400B510BB695A79597958795220FE9
:10290000331F441F551F6F5F7F4F6F31710531F7C4
:10291000D601C5018F779070A070B070803491059A
:10292000A105B10589F0AD8ABE8ACF8AD88EB401DF
:1029300023C0B80121C03217D1F769E071E01CC093
:1029400084E0898BB40118C0A7FCEDCF21153105B7
:102950004105510541F380E490E0A0E0B0E0A80E0D
:10296000B91ECA1EDB1E80E89FEFAFEFBFEFA822A3
:10297000B922CA22DB22D7CFCB010E941E16ECE07F
:1029800068960C94B218A8E1B0E0E9ECF4E10C947C
:102990009C1869837A838B839C832D833E834F832A
:1029A000588781E1E82EF12CEC0EFD1EB701CE0117
:1029B00001960E9440178E01075F1F4FB801CE019C
:1029C00005960E9440178989823018F42FEF3FEF57
:1029D0000BC089858230D0F3B801C7010E94DF1790
:1029E000282F332727FD3095C901E6E068960C941F
:1029F000B818A8E1B0E0EFEFF4E10C949C186983FB
:102A00007A838B839C832D833E834F83588781E118
:102A1000E82EF12CEC0EFD1EB701CE0101960E94AE
:102A200040178E01075F1F4FB801CE0105960E9427
:102A300040178989823018F42FEF3FEF0BC089854A
:102A40008230D0F3B801C7010E94DF17282F332747
:102A500027FD3095C901E6E068960C94B818A8E106
:102A6000B0E0E5E3F5E10C949C1869837A838B83ED
:102A70009C832D833E834F83588781E1E82EF12C80
:102A8000EC0EFD1EB701CE0101960E9440178E018B
:102A9000075F1F4FB801CE0105960E944017898934
:102AA000823018F08985823018F421E030E008C0C7
:102AB000B801C7010E94DF17282F332727FD309563
:102AC000C901E6E068960C94B818A8E0B0E0EBE61F
:102AD000F5E10C949F189B01AC0183E089831A8275
:102AE00057FD51C0211531054105510539F482E0EA
:102AF0008983CE0101960E941E164CC0EEE1F0E0E3
:102B0000FC83EB838A818823C9F1203010E03107F0
:102B100010E0410710E85107C9F188279927DC0127
:102B2000821B930BA40BB50B8D839E83AF83B88759
:102B30002D813E814F815885203080E0380780E02C
:102B4000480780E45807A8F6EB81FC81DA01C90147
:102B5000880F991FAA1FBB1F31979C01AD018030C0
:102B600010E0910710E0A10710E4B10778F3FC83AF
:102B7000EB838D839E83AF83B887BBCF2D833E834A
:102B80004F835887D5CF81E08A83ACCF60E070E077
:102B900080E09FECE3E028960C94BB18ACE0B0E03A
:102BA000E4EDF5E10C94A01869837A838B839C8310
:102BB000BE016B5F7F4FCE0101960E9440178D8151
:102BC000823061F0823050F0843069F48E81882345
:102BD00059F52FEF3FEF4FEF5FE72AC020E030E0DD
:102BE00040E050E025C02F81388537FDF7CF2F31E9
:102BF000310564F78EE190E0821B930B29853A85BD
:102C00004B855C8504C056954795379527958A95E1
:102C1000D2F78E81882361F05095409530952195AB
:102C20003F4F4F4F5F4F04C020E030E040E050E89E
:102C3000CA01B901E2E02C960C94BC184F925F9245
:102C40006F927F928F929F92AF92BF92DF92EF929C
:102C5000FF920F931F9320E030E040E050E0FC0132
:102C6000E480F58006811781D1808081823038F43C
:102C7000D801C701A061AF77B0706FEFD9C08430C1
:102C800009F46EC0823009F471C0E114F104010549
:102C9000110509F46BC0828193816FEF823896072A
:102CA0000CF06AC062E87FEF681B790B6A3171052E
:102CB0000CF080C047015801062E04C0B694A794BA
:102CC000979487940A94D2F744245524320181E0E2
:102CD00090E0A0E0B0E004C0880F991FAA1FBB1FBE
:102CE0006A95D2F70197A109B109E822F9220A23CE
:102CF0001B23E114F1040105110529F061E0462EC2
:102D0000512C612C712C85017401E428F5280629C9
:102D10001729D801C7018F779070A070B0708034E8
:102D20009105A105B10509F457C0D801C701CF9697
:102D3000A11DB11D60E070E08030E0E09E07E0E0A2
:102D4000AE07E0E4BE0710F061E070E027E0B69562
:102D5000A795979587952A95D1F7AF77B07068C0FA
:102D600080E090E0A0E0B0E06FEF62C080E090E033
:102D7000A0E0B0E060E05CC0803891058CF7BC0159
:102D800061587F4FD801C7018F779070A070B070E5
:102D900080349105A105B105A1F08FE390E0A0E09A
:102DA000B0E0E80EF91E0A1F1B1F17FD28C0D8014E
:102DB000C701CCCF60E070E080E090E0A0E0B0E040
:102DC000CCCFE7FEF2CF80E490E0A0E0B0E0E80EE8
:102DD000F91E0A1F1B1FE9CFE7FC18C080E090E036
:102DE00060E0E61660E0F60660E0060760E41607BD
:102DF00010F081E090E0BC01D801C701A7CF169583
:102E00000795F794E7946F5F7F4FD1CFD801C70143
:102E1000805C9F4FAF4FBF4F60E070E08030E0E0DC
:102E20009E07E0E0AE07E0E4BE0708F48FCF8CCF4A
:102E3000282F392F9A2F9F77842F8078892B962FD0
:102E40009795992797958F77482F492B6695852FCA
:102E50008078862BD794DD24D7948F77582F5D29DF
:102E6000CA01B9011F910F91FF90EF90DF90BF90C1
:102E7000AF909F908F907F906F905F904F9008954C
:102E8000FC01DB01208131819281492F4F7750E095
:102E9000991F9927991F8381682F660F692B881FB7
:102EA0008827881FFD018183662309F049C0211509
:102EB00031054105510509F470C082E89FEFFD011D
:102EC00093838283220F331F441F551F220F331F0A
:102ED000441F551F220F331F441F551F220F331F3E
:102EE000441F551F220F331F441F551F220F331F2E
:102EF000441F551F220F331F441F551F83E08C931F
:102F00002030F0E03F07F0E04F07F0E45F0790F477
:102F100082E89FEF220F331F441F551F0197203077
:102F200060E0360760E0460760E4560798F3FD016D
:102F300093838283FD0124833583468357830895D9
:102F40006F3F71F1862F99278F579040FD01938332
:102F5000828383E08C93220F331F441F551F220F5F
:102F6000331F441F551F220F331F441F551F220FAD
:102F7000331F441F551F220F331F441F551F220F9D
:102F8000331F441F551F220F331F441F551F50640A
:102F90002483358346835783089582E08C93089574
:102FA000211531054105510519F484E08C930895EC
:102FB00044FD02C01C92BECF81E08C93BBCFEF9248
:102FC000FF920F931F93CF93DF93FC01DB0180816E
:102FD000823050F09C91923038F0843041F494303B
:102FE000B1F08181882381F461E070E04BC09430BE
:102FF000E9F18230A1F09230A1F36181ED01898184
:10300000681791F0662381F36FEF7FEF3BC0EB0110
:103010008981682F77278181681B710933C09230BD
:1030200059F560E070E02EC022813381ED018A8184
:103030009B818217930734F3281739079CF0E480AB
:10304000F58006811781FD012481358146815781F4
:103050002E153F0540075107A8F2E216F3060407B4
:103060001507F8F6662309F0BFCFCECFFB018181AB
:10307000882309F0B9CFC8CFEB018981882309F0F3
:10308000B3CFC2CFCB01E6E0CDB7DEB70C94B81812
:10309000DC0101C06D9341505040E0F70895629FFC
:1030A000D001739FF001829FE00DF11D649FE00D40
:1030B000F11D929FF00D839FF00D749FF00D659FA1
:1030C000F00D9927729FB00DE11DF91F639FB00DA0
:1030D000E11DF91FBD01CF0111240895A1E21A2EAF
:1030E000AA1BBB1BFD010DC0AA1FBB1FEE1FFF1FAC
:1030F000A217B307E407F50720F0A21BB30BE40BFC
:10310000F50B661F771F881F991F1A9469F7609542
:103110007095809590959B01AC01BD01CF010895FC
:103120002F923F924F925F926F927F928F929F92D7
:10313000AF92BF92CF92DF92EF92FF920F931F93C5
:10314000CF93DF93CDB7DEB7CA1BDB0B0FB6F89476
:10315000DEBF0FBECDBF09942A88398848885F84B6
:103160006E847D848C849B84AA84B984C884DF8027
:10317000EE80FD800C811B81AA81B981CE0FD11D0B
:103180000FB6F894DEBF0FBECDBFED01089509D094
:1031900001921A94E1F7089501900BD01A94E1F787
:1031A0000895F999FECFB2BDA1BDF89A119600B469
:1031B0000895F999FECFB2BDA1BD00BC11960FB61E
:0A31C000F894FA9AF99A0FBE0895E8
:1031CA004F70656E536572766F0000000000000054
:0231DA000000F3
:00000001FF
