:100000000C944F000C946A000C946A000C946A00E3
:100010000C946A000C946A000C946A000C946A00B8
:100020000C946A000C946A000C946A000C946A00A8
:100030000C946A000C946A000C94FC010C946A0005
:100040000C946A000C946A000C946A000C946A0088
:100050000C946A000C949D010C946A000C946A0044
:100060000C94F8080C946A000C944F0027016F015F
:100070002A012E0136013C0140014301460149019C
:100080006F016F016F016F016F016F014C01500132
:10009000540158016101640167016D016A01112475
:1000A0001FBECFEFD4E0DEBFCDBF11E0A0E0B1E0D6
:1000B000ECE8FAE202C005900D92A830B107D9F73A
:1000C00013E0A8E0B1E001C01D92A730B107E1F74D
:1000D0000C946C000C940000CFEFD4E0DEBFCDBFD9
:1000E00086E084B989EF85B917B88FE788B91AB85F
:1000F0008FEF8BB90E9430030E9458020E94400A81
:100100000E9472010E9447060E9472030E94120818
:1001100080910E020E94F60940E050E067E086E020
:100120000E943F0278948091E6018823E1F31092C7
:10013000E6018091E9019091EA010E94D9031092B1
:10014000E6014091E9015091EA0161E180E10E94FC
:100150003F0240E050E063E182E10E943F02809173
:10016000F30183608093F3018091E601882309F411
:1001700049C08AE090E00E943C041092E601C091E0
:10018000E901D091EA018091F301992783FF31C001
:1001900084FF17C061E180E10E942C0290930B0163
:1001A00080930A0140910C0150910D01841795072D
:1001B00041F0909309018093080161E180E10E9480
:1001C0003F0261E180E10E942C0290930D01809337
:1001D0000C018091F30185FF0CC040910801509102
:1001E000090161E180E10E943F020E9443080E94F0
:1001F0005508CE010E9473060E943F0EBC01CE013D
:100200000E94760A8091E801882341F01092E8016B
:100210008091EB019091EC010E94EE070E9437085B
:10022000882309F45CC00E9423089927AA27BB27CA
:10023000FC01E058F040E931F10508F050C0EA5CFB
:10024000FF4FEE0FFF1F0590F491E02D09940E94DF
:100250003A0345C08091F30181600BC08091F301A6
:100260008E7F8093F3010E94140A39C08091F301BC
:1002700082608093F30133C08091F3018D7FF9CFC9
:100280000E94BB022CC00E94F00229C00E944E02B4
:1002900026C00E948A0223C081E08093ED011FC026
:1002A0008091F3018460E5CF8091F3018B7FE1CFF2
:1002B0001092E6018091E9019091EA010E94D90330
:1002C0000EC00E9482050BC00E94660808C00E94F2
:1002D0005B0805C00E944F0802C00E9449080E94A6
:1002E000020E42CF81E08093E7011092E801109264
:1002F000EC011092EB011092E6011092EA011092CB
:10030000E9018093ED0188B1887F88B9EEE7F0E0DC
:1003100080818760808382E480937C0083E0809387
:100320007B008EEA80937A0092E094BD85E085BDE3
:1003300090936E008EE487BD08951F920F920FB6C2
:100340000F9211242F933F934F935F936F937F935B
:100350008F939F93AF93BF93EF93FF934091780058
:10036000509179008091E701813029F0813068F067
:10037000823089F524C05093EA014093E9018093CB
:10038000E6011092E70180E40FC05093EC01409326
:10039000EB0191E09093E8018091ED01882361F0F9
:1003A00082E08093E70181E480937C0080917A0071
:1003B000806480937A000FC09093E70109C0109287
:1003C000ED0165E184E10E943F0281E08093E70155
:1003D00082E480937C00FF91EF91BF91AF919F9158
:1003E0008F917F916F915F914F913F912F910F90DE
:1003F0000FBE0F901F9018951F920F920FB60F927D
:1004000011242F933F934F935F936F937F938F9319
:100410009F93AF93BF93EF93FF938091E701813058
:1004200051F467E086E00E942C020196AC0167E07F
:1004300086E00E943F02FF91EF91BF91AF919F91A3
:100440008F917F916F915F914F913F912F910F907D
:100450000FBE0F901F9018959FB7F8949FBFAEEEF8
:10046000B1E0FD01E80FF11D80819927982F8827C1
:10047000A60FB11D2C913327822B932B08952FB7F4
:10048000F894EEEEF1E0DF01A80FB11D852F99275A
:100490008C93E60FF11D40832FBF089580E1809378
:1004A0000E020E940D0A0E9450060E94D10D08956E
:1004B000CF93DF93CEEED1E089E3FE0111928A95CE
:1004C000E9F781E08093EE018093EF011092F00153
:1004D00082E08093F1010E94050E0E94F0028823C1
:1004E00051F448E150E068E170E0CE0180960E944E
:1004F000A9140E944E02DF91CF910895FC0104C01F
:100500008191480F6150704061157105C9F7842FC2
:10051000992708950F931F93CF93DF93CDB7DEB73D
:1005200060970FB6F894DEBF0FBECDBF40E150E03C
:100530006FEF70E08E010F5F1F4FC8010E94A9147A
:1005400080E090E040E19801DC01F901142E0E9466
:100550002D154096F2E080309F07B1F781E090E0E2
:1005600060960FB6F894DEBF0FBECDBFDF91CF917E
:100570001F910F9108950F931F93CF93DF93CDB7E2
:10058000DEB722970FB6F894DEBF0FBECDBF83E073
:1005900089830EE012E043E068E170E0C8010E9448
:1005A0007E028A8382E0A0E0B0E0FE013196182E40
:1005B0000E942D1588E1A2E0B0E0F801182E0E94FB
:1005C0002D150E94180E81E090E022960FB6F89447
:1005D000DEBF0FBECDBFDF91CF911F910F91089568
:1005E000FF920F931F93CF93DF93CDB7DEB7229780
:1005F0000FB6F894DEBF0FBECDBF82E0A0E0B0E042
:10060000FE013196182E0E9428158981833019F039
:1006100080E090E019C088E10EE012E0A2E0B0E0D6
:10062000F801182E0E9428150E942B0EFA8043E034
:1006300068E170E0C8010E947E0290E0F81291E04B
:1006400081E09827892F992722960FB6F894DEBF6C
:100650000FBECDBFDF91CF911F910F91FF900895F5
:1006600084B7877F84BFE0E6F0E080818861808383
:10067000108208958091F3018E7F8093F3010E9490
:10068000140A88E880936000FFCF90913002809137
:100690002702981718F4891B815003C0981B87E024
:1006A000891B9927089540E050E06BE18AE10E94A0
:1006B0003F0240E050E06DE18CE10E943F0240E0EB
:1006C00050E06FE18EE10E943F0240E050E069E1BE
:1006D00088E10E943F02109204020E944503809329
:1006E00005020895AF92BF92CF92DF92EF92FF92F0
:1006F0000F931F93109228021092290210922A023F
:1007000010922B0210922C0210922D0210922E02A7
:1007100010922F02109230021092270210920F01B5
:1007200010920E0180E090E0A0E0B4E4809310010C
:1007300090931101A0931201B093130180E090E017
:10074000A0E0B0E08093140190931501A0931601EE
:10075000B09317018093180190931901A0931A0187
:10076000B0931B01BF93AF939F938F935C016D0177
:100770000F2EF0E0EF2EF0E0FF2EF0E00F2FF4E46C
:100780001F2FF02DA801970160E070E080E090E05D
:100790000E948C0B0E9453030F900F900F900F90AC
:1007A0001F910F91FF90EF90DF90CF90BF90AF908F
:1007B0000895AF92BF92CF92DF92EF92FF920F9384
:1007C0001F93109228021092290210922A0210926E
:1007D0002B0210922C0210922D0210922E021092D7
:1007E0002F02109230021092270210920F011092E5
:1007F0000E01AA2797FDA095BA2FBC01CD010E943A
:100800001D129B01AC016093100170931101809344
:1008100012019093130180E090E0A0E0B0E080939B
:10082000140190931501A0931601B09317018093C2
:10083000180190931901A0931A01B0931B01BF9363
:10084000AF939F938F935C016D0179018A0160E002
:1008500070E080E090E00E948C0B0E9453030F90A8
:100860000F900F900F901F910F91FF90EF90DF90DE
:10087000CF90BF90AF900895AF92BF92CF92DF928A
:10088000EF92FF920F931F93CF93DF93CDB7DEB715
:1008900028970FB6F894DEBF0FBECDBF9C018091A4
:1008A000F30182FF1EC190912702809130029817B8
:1008B00089F4109228021092290210922A021092B2
:1008C0002B0210922C0210922D0210922E021092E6
:1008D0002F02C9C0442755278091280290912902F0
:1008E000A0912A02B0912B02820F931FA41FB51F63
:1008F0008093280290932902A0932A02B0932B029E
:100900009DC02E193F09400B510B209328023093B4
:10091000290240932A0250932B0280912C0290913D
:100920002D02A0912E02B0912F028E199F09A00BCB
:10093000B10B80932C0290932D02A0932E02B093C2
:100940002F02209127022F5F27702093270280918A
:100950003002A22FBB27281791F58EE090E0A89FC8
:10096000F001A99FF00DB89FF00D1124E25FFE4F3A
:10097000228133814481558180E090E0A0E0B0E0A5
:10098000BF93AF939F938F935C016D0179018A01AF
:1009900060E070E080E090E00E948C0B10922802F2
:1009A0001092290210922A0210922B0210922C020D
:1009B00010922D0210922E0210922F0237C02F5F3C
:1009C000277033278EE090E0AD01489FD001499F0A
:1009D000B00D589FB00D1124A25FBE4FFD01A2843F
:1009E000B384C484D584AC01249FC001259F900D9D
:1009F000349F900D1124825F9E4FFC01E280F380B2
:100A000004811581FD012281338144815581FC01DE
:100A10006081718186819781A085B185BF93AF93F5
:100A20009F938F9380E090E00E948C0B0F900F902B
:100A30000F900F900E944503809305022091280299
:100A40003091290240912A0250912B028091450257
:100A5000909146027C0100271127E216F306040755
:100A6000150708F44ECFAE014B5F5F4FBE016F5FBD
:100A70007F4F80912802909129020E94930C20E0E0
:100A800030E040E251E46D817E818F8198850E9443
:100A900045106D837E838F83988720E030E040E0AF
:100AA0005FE369817A818B819C810E9418100E948A
:100AB0008612AB01BC0161E180E10E943F0220E0AF
:100AC00030E040E05FE36D817E818F8198850E94F8
:100AD00018100E948612AB01BC0163E182E10E9402
:100AE0003F0228960FB6F894DEBF0FBECDBFDF9150
:100AF000CF911F910F91FF90EF90DF90CF90BF901B
:100B0000AF9008955F926F927F928F929F92AF9273
:100B1000BF92CF92DF92EF92FF920F931F93CF93EA
:100B2000DF9350903002539487E05822809127023F
:100B3000581609F49AC06BE18AE10E942C027C01EC
:100B40006DE18CE10E942C026C016FE18EE10E944C
:100B50002C025C0169E188E10E942C02EC01892BE6
:100B600009F483C0252D33278EE090E0289F800173
:100B7000299F100D389F100D1124025F1E4FF801A0
:100B8000D183C083B701882777FD8095982F0E9475
:100B90001D123B014C01F8016283738384839583AA
:100BA000B601882777FD8095982F0E941D1220E0BE
:100BB00030E040E85AE30E944510F80166837783ED
:100BC00080879187B501882777FD8095982F0E94AF
:100BD0001D1220E030E040E85AE30E944510F80181
:100BE000628773878487958790912702809130026E
:100BF0009817E9F420913B0230913C0240913D026C
:100C000050913E0280E090E0A0E0B0E0BF93AF934F
:100C10009F938F935C016D0184017301BE0180E09D
:100C200090E00E948C0B0F900F900F900F909E0100
:100C30004427552780912C0290912D02A0912E02DD
:100C4000B0912F02820F931FA41FB51F80932C0217
:100C500090932D02A0932E02B0932F025092300257
:100C60000E94530381E090E002C080E090E0DF91B9
:100C7000CF911F910F91FF90EF90DF90CF90BF9099
:100C8000AF909F908F907F906F905F90089510929B
:100C90009D0110929C0110929F0110929E01089557
:100CA00010920F0240E050E063E282E20E943F02B5
:100CB00040E050E065E284E20E943F0240E050E004
:100CC00067E286E20E943F0240E650E06BE28AE281
:100CD0000E943F0240EA53E06DE28CE20E943F0234
:100CE00010921C0208950F931F93CF93DF93EC0192
:100CF0008091980190919901A0919A01B0919B01E6
:100D00009C01AD015595479537952795821B930B0F
:100D1000A40BB50B9E01442737FD4095542F820F3D
:100D2000931FA41FB51F8093980190939901A093DE
:100D30009A01B0939B01B595A795979587959C01CE
:100D4000909387018093860140919E0150919F016D
:100D5000241B350B309389012093880190939F01C8
:100D600080939E0161E180E10E942C0290939101A9
:100D70008093900163E182E10E942C0290938F01A5
:100D800080938E016BE28AE20E942C0290938D0187
:100D900080938C016DE28CE20E942C0290938B0177
:100DA00080938A0180911C028823A9F10FEF13E040
:100DB000A8014C1B5D0B69E088E00E943F02409156
:100DC000880150918901509541955F4F6BE08AE011
:100DD0000E943F0280919001909191019801281BFF
:100DE000390B309391012093900180918C01909167
:100DF0008D019801281B390B30938D0120938C01B4
:100E000080918A0190918B01081B190B10938B0123
:100E100000938A010DC0AE0169E088E00E943F02A4
:100E200040918801509189016BE08AE00E943F0265
:100E300080910F02992790939701809396012091BA
:100E400090013091910180919C0190919D01281712
:100E5000390721F4C0918601D091870130939D011B
:100E600020939C0180918C0190918D012817390766
:100E700024F4909391018093900120918A01309104
:100E80008B0180919001909191012817390724F4EA
:100E90003093910120939001809190019091910164
:100EA0008C1B9D0B909395018093940180918E01F2
:100EB00090918F012091880130918901821B930BC1
:100EC000909393018093920163E282E20E942C024C
:100ED00090937F0180937E0165E284E20E942C0260
:100EE000EC01909381018093800110928201109215
:100EF0008301109284011092850160919401709198
:100F0000950180919601909197018617970734F08B
:100F1000909581959F4F68177907A4F4882777FDEE
:100F20008095982F20917E0130917F01442755278D
:100F30000E94B014609382017093830180938401B6
:100F4000909385016091920170919301882777FDBC
:100F50008095982F9E01442755270E94B014209118
:100F60008201309183014091840150918501260FC7
:100F7000371F481F591F232F342F452F552747FD53
:100F80005A952093820130938301409384015093BA
:100F900085012F3F31054105510531F02CF08FEFD0
:100FA00090E0A0E0B0E009C021503F4F4F4F5F4FAD
:100FB00064F481E09FEFAFEFBFEF809382019093E5
:100FC0008301A0938401B093850180918201909167
:100FD0008301DF91CF911F910F9108952091A0017E
:100FE000E22FFF27EE0FFF1FEF55FE4F9183808307
:100FF0002F5F27702093A00140E050E0E1EAF1E08C
:1010000081919191480F591F81E0E13BF807C1F7A9
:1010100083E0569547958A95E1F76DE08CE00E9454
:101020003F0208951092A001E1EAF1E011921192BD
:1010300081E0E13BF807D1F740E050E06DE08CE063
:101040000E943F0208959091B3018091B4019817D6
:10105000D1F38091B4018F5F83708093B401E091EC
:10106000B401FF27EB54FE4F80819927089590919A
:10107000B3018091B40120E030E0981711F021E035
:1010800030E0C90108958091F3018F7E8093F301D0
:1010900008958091F30180618093F3010895809118
:1010A000F30180628093F30108958091F3018F7DB5
:1010B0008093F3010895EAEBF0E080818E7F8083D6
:1010C0008091F301877F8093F3010895EAEBF0E0CC
:1010D0008081816080838091F30188608093F30137
:1010E0000895982F9F77983328F4E92FFF27E2512E
:1010F000FE4F32C09F3398F19F3319F480912D0237
:101100002CC097FD2CC020912D022230C9F49035BF
:1011100030F49054E92FFF27E953FD4F1DC090365E
:1011200078F49055E92FFF27E953FD4F8081E82F90
:10113000FF279E2FE03520F48E2F0E9471080DC0EE
:101140009054E22FFF2786E0EE0FFF1F8A95E1F70C
:10115000E95BFD4FE90FF11D80819927089580E03B
:1011600090E00895E82F8091F301282F3327227013
:101170003070EF77E031D8F1E03228F021153105F9
:10118000B1F1E83320F4FF27E251FE4F1AC0EF33EC
:1011900070F1EF3331F4633008F062E060932D02B8
:1011A0000895E7FD24C090912D02A92FBB2792300E
:1011B00098F09230E1F4E03530F4E054FF27E95341
:1011C000FD4F60830895E03638F4E055FF27E9537A
:1011D000FD4FE081E03568F2E05496E0AA0FBB1FB6
:1011E0009A95E1F7A95BBD4FAE0FB11D6C930895C1
:1011F0001F920F920FB60F9211240F931F932F93EC
:101200003F934F935F936F937F938F939F93AF938E
:10121000BF93EF93FF938091B900883909F4D0C050
:101220008939A8F4803709F448C0813738F4882315
:1012300009F4C4C0803609F0C3C03FC0883809F43F
:10124000BFC08039E9F1803809F0BAC039C0883BA5
:1012500081F0893B38F4803A09F4B2C0883A09F049
:10126000AFC007C0883C09F4ABC0883F09F4ABC0ED
:10127000A7C08091B1010E947108982F8091B2019E
:10128000843089F43091B9018091BA012091BB0179
:10129000381738F4290F2093BB013F5F3093B90111
:1012A00002C0922F05C08091B1018F5F8093B10180
:1012B000892F99278093BB0083C01092B20180C010
:1012C0006091BB008091B201823089F1833030F4AB
:1012D000882351F0813009F073C01FC0833089F139
:1012E000843009F06DC038C067FD04C06093B1015F
:1012F00081E003C0613821F482E08093B20160C0D4
:101300008091B3018F5F83708093B301E091B3014B
:10131000FF27EB54FE4F608353C08091B1010E94C0
:10132000B2088091B1018F5F8093B10149C0862FCF
:101330008F708093BA018093BB011092B90183E052
:10134000DCCF8091BB016093B1019091B101890F15
:101350008093BB0184E0D1CF8091B9010091BA01A3
:101360002091BB01801770F4E82FFF27EF70F07019
:10137000E454FE4F6083260F2093BB018F5F809360
:10138000B9011EC06217E1F41092B90110E011C05A
:101390008091B101E12FFF27EF70F070E454FE4F10
:1013A00060810E94B2088091B1018F5F8093B1018A
:1013B0001F5F101768F31093B90102C085ED01C0DB
:1013C00085EC8093BC00FF91EF91BF91AF919F910D
:1013D0008F917F916F915F914F913F912F911F91CD
:1013E0000F910F900FBE0F901F9018951092B4019F
:1013F0001092B301880FEAEBF0E0808380818E7F4A
:1014000080838091F301877C8093F3018FEF809339
:10141000BB0085EC8093BC00089540E150E069E298
:1014200088E20E943F020895F8948091CC018823BD
:1014300021F48091CD01882389F085B1897F85B918
:10144000809180008F7380938000809180008F7CDA
:10145000809380001092CC011092CD0110928900EF
:101460001092880010928B0010928A0078948091DC
:10147000CC018093FC018091CD018093FD01089502
:1014800069E288E20E942C029093CF018093CE0102
:1014900025B1297F25B924B1266024B91092850091
:1014A00010928400E0E8F0E01082A1E8B0E01C9225
:1014B0001092820010926F0024E0880F991F2A95E5
:1014C000E1F701979093870080938600109289003E
:1014D0001092880010928B0010928A00108281E195
:1014E0008C931092FC011092FD010895EF92FF92EF
:1014F0000F931F93CF93DF937C01EB0169E288E2A6
:101500000E942C022091CE013091CF0182179307C7
:1015100079F185B1897F85B9809180008F7380933F
:101520008000809180008F7C809380001092CC019D
:101530001092CD0169E288E20E942C029093CF01C3
:101540008093CE01A4E0880F991FAA95E1F7019737
:1015500090938700809386001092850010928400FB
:10156000109289001092880010928B0010928A00CD
:1015700080911C028823F1F06DE28CE20E942C0223
:101580008C016BE28AE20E942C02A80100501440F8
:1015900010F04FEF53E09C018050944010F02FEF7B
:1015A00033E08FEF93E0BC01641B750BAB01821B32
:1015B000930B15C06BE28AE20E942C028C016DE253
:1015C0008CE20E942C02A8010050144010F04FEF52
:1015D00053E024E08030920710F08FEF93E0E416A0
:1015E000F50620F4D7FF02C0C0E0D0E08E159F05BD
:1015F00028F41C161D0614F4C0E0D0E08091F3011D
:1016000080FF81C0D7FF3FC0BE016195062F2091AA
:10161000CE013091CF01F8948091CD01882341F41F
:1016200085B1897F85B980E2809380001092CC01DA
:101630000093CD011092890010928800602F7727C7
:101640008827992744275527F4E0220F331F441F8A
:10165000551FFA95D1F721503040404050400E942C
:10166000B0142FEF30E040E050E00E94CF143093F0
:101670008B0020938A0078948091CC018093FC01A8
:101680000093FD0142C0209709F43DC00C2F20912A
:10169000CE013091CF01F8948091CC01882341F4A0
:1016A00085B1897F85B980E8809380001092CD0153
:1016B0000093CC01602F7727882799274427552747
:1016C000E4E0220F331F441F551FEA95D1F7215044
:1016D0003040404050400E94B0142FEF30E040E0D6
:1016E00050E00E94CF14309389002093880010921C
:1016F0008B0010928A0078940093FC018091CD01B8
:101700008093FD0102C00E94140ADF91CF911F91C6
:101710000F91FF90EF9008952F923F924F925F921A
:101720006F927F928F929F92AF92BF92CF92DF92F1
:10173000EF92FF920F931F93CF93DF93CDB7DEB756
:1017400024970FB6F894DEBF0FBECDBF4B01190131
:101750002A01E982FA820B831C83909344028093CE
:1017600043027093360260933502881A990A909268
:10177000460280924502B401882777FD8095982F14
:101780000E941D127B018C0197FE08C020E030E012
:1017900040E857E40E9418107B018C01E092D001D0
:1017A000F092D1010093D2011093D301A8019701C7
:1017B000C601B5010E9445105B016C01A8019701AB
:1017C000698D7A8D8B8D9C8D0E9445103B014C015B
:1017D000209231023092320240923302509234020F
:1017E00089819A81AB81BC8180933B0290933C02BA
:1017F000A0933D02B0933E02A0923F02B0924002FD
:10180000C0924102D0924202609237027092380236
:101810008092390290923A02A2019101C201B10173
:101820000E9418107B018C0120E030E040E050EC79
:1018300069817A818B819C810E9445109B01AC015A
:10184000C801B7010E941810A60195010E94181046
:10185000A40193010E9418106093D4017093D501E4
:101860008093D6019093D70120E030E040E450EC23
:10187000C201B1010E9445107B018C0120E030E0E3
:1018800040E450E469817A818B819C810E944510FB
:101890009B01AC01C801B7010E9418107B018C01AB
:1018A00020E030E040E050ECC601B5010E94451058
:1018B0009B01AC01C801B7010E941810A40193015B
:1018C0000E94E70F6093D8017093D9018093DA01E9
:1018D0009093DB01A092DC01B092DD01C092DE01A9
:1018E000D092DF012092E0013092E1014092E201CA
:1018F0005092E30124960FB6F894DEBF0FBECDBF21
:10190000DF91CF911F910F91FF90EF90DF90CF90DB
:10191000BF90AF909F908F907F906F905F904F900F
:101920003F902F9008952F923F924F925F926F9227
:101930007F928F929F92AF92BF92CF92DF92EF925F
:10194000FF920F931F93CF93DF93CDB7DEB76097CE
:101950000FB6F894DEBF0FBECDBF8C01788B6F87BA
:101960005E874D8720914302309144022817390742
:10197000C8F08091310290913202A0913302B0916F
:101980003402FB0180839183A283B3830217130780
:1019900008F180913F0290914002A0914102B091E4
:1019A000420225C0409135025091360284179507B6
:1019B00028F180913B0290913C02A0913D02B091B0
:1019C0003E02EF85F88980839183A283B383401719
:1019D000510728F480E090E0A0E0B0E008C08091DA
:1019E000370290913802A0913902B0913A02ED8508
:1019F000FE8580839183A283B383BAC08091D00196
:101A00009091D101A091D201B091D30189879A8799
:101A1000AB87BC87021B130BB801882777FD809525
:101A2000982F0E941D1217FF06C020E030E040E80A
:101A300057E40E94181029853A854B855C850E94E1
:101A400063115B016C019B01AC010E9445103B01DD
:101A50004C018091D4019091D501A091D601B09113
:101A6000D7018D839E83AF83B8872090D8013090B3
:101A7000D9014090DA015090DB018091DC01909116
:101A8000DD01A091DE01B091DF0189839A83AB83F0
:101A9000BC83A6019501C401B3010E9445109B01BE
:101AA000AC016D817E818F8198850E9445107B01FC
:101AB0008C01A4019301C201B1010E9445109B0158
:101AC000AC01C801B7010E9418107B018C01A6016E
:101AD000950169817A818B819C810E9445109B01CF
:101AE000AC01C801B7010E9418102091E0013091AB
:101AF000E1014091E2015091E3010E941810AF858D
:101B0000B8896D937D938D939C93139720E030E07B
:101B100040E450E46D817E818F8198850E9445105C
:101B2000A40193010E9445107B018C01A201910147
:101B3000C201B1010E941810A60195010E94451032
:101B40009B01AC01C801B7010E94181029813A819C
:101B50004B815C810E94181029853A854B855C85F4
:101B60000E946311ED85FE85608371838283938378
:101B700060960FB6F894DEBF0FBECDBFDF91CF9158
:101B80001F910F91FF90EF90DF90CF90BF90AF909B
:101B90009F908F907F906F905F904F903F902F908D
:101BA00008950895E82F8FB7F894FF278FBF36E088
:101BB000EE0FFF1F3A95E1F7E95BFD4FDF01A60F3E
:101BC000B11D8C919927982F8827E40FF11D208152
:101BD0003327822B932B0895E82F5FB7F894FF27C4
:101BE00076E0EE0FFF1F7A95E1F7E95BFD4FDF012D
:101BF000A60FB11D832F99278C93E40FF11D20832D
:101C00005FBF08950E94610E0895E7E4F2E080E46A
:101C1000DF01982F1D929A95E9F7E05CFF4FA3E052
:101C2000E730FA07A9F710922D020E945A0E089584
:101C3000E7ECF2E080E1AAE1B0E0182E0E942D1559
:101C4000E7E8F2E086E0AAE2B0E0182E0E942D1547
:101C500081E090E00895E7ECF2E080E1AAE1B0E0F5
:101C6000182E0E942815E7E8F2E086E0AAE2B0E02C
:101C7000182E0E94281581E090E0089508959C0197
:101C80008091E4019091E5012115310531F0880F33
:101C9000991F281B390BC9010895880F991F0895B2
:101CA00021E030E002C0220F331F6A95E2F7822B59
:101CB00099270895109247021092E5011092E401CD
:101CC0000895DF92EF92FF920F931F93CF93DF93CC
:101CD00065E184E10E942C02082F6DE08CE00E94F7
:101CE0002C02D82E43E062E081E00E94D20D7C01FC
:101CF00045E064E081E00E94D20DEC0141E060E04B
:101D000081E00E94D20D282FE01620F4EE2011F081
:101D100082E005C00C1728F4CC2319F084E08093EE
:101D200047022D1568F4222359F081E08093470281
:101D30008D2D9927821B91099093E5018093E401F1
:101D40008091E4019091E501009761F001979093F3
:101D5000E5018093E401009729F001979093E50154
:101D60008093E401DF91CF911F910F91FF90EF904D
:101D7000DF900895A0E0B0E0E0ECFEE00C94F514F4
:101D8000FC016A019081923008F41BC1DB018C9147
:101D9000823080F0943061F4843009F012C1918176
:101DA000EB018981981709F40CC1E0E0F1E009C169
:101DB000843011F4FB0105C1823091F4923009F0B6
:101DC00000C1EA01DF0188E00D9009928150E1F73E
:101DD0008181FB0191818923E6018983F601F1C0AC
:101DE000923041F362807380EB018A809B80E480B3
:101DF000F580068117812C813D814E815F815301E1
:101E0000A818B908C501B7FCABC080970CF457C03F
:101E1000861497040CF4BEC03401EE24FF2487011D
:101E20009181FB018181981709F4A6C0992309F4D7
:101E30009CC02E193F09400B510B57FDB0C0E60165
:101E400019827B826A82F601248335834683578315
:101E5000E6012C813D814E815F8179018A01DA01A1
:101E6000C9010197A109B1098F5F9F4FAF4FBF43D0
:101E7000F8F4E6016A817B81A8019701220F331FE4
:101E8000441F551F6150704079018A01DA01C90170
:101E90000197A109B1098F5F9F4FAF4FBF4360F317
:101EA000E6017B836A83F601248335834683578367
:101EB00083E0D6018C9357FD39C0F60182C08614A9
:101EC0009704B4F4C0E0D0E0DA01C90181709070E9
:101ED000A070B0705695479537952795282B392BCC
:101EE0004A2B5B2B2196CA15DB0571F78C0E9D1EC4
:101EF000681479040CF094CFC0E0D0E05401A61827
:101F0000B708D801C70181709070A070B0701695A5
:101F10000795F794E794E82AF92A0A2B1B2B2196B8
:101F2000AC16BD0671F76C0E7D1E7ACFDA01C901C1
:101F3000B695A79597958795217030704070507031
:101F4000282B392B4A2B5B2BE6012C833D834E83B8
:101F50005F838A819B8101969B838A83F60131C0CE
:101F6000882799278A199B0950CFE21AF30A040B94
:101F7000150BA801970161CFE60199837B826A82E4
:101F80002E0D3F1D401F511FF601248335834683CC
:101F900057838ECF20E030E040E050E041CF81E039
:101FA000E60189837B826A82509540953095219520
:101FB0003F4F4F4F5F4FF60124833583468357834E
:101FC00047CFCF01EEE0CDB7DEB70C941115A0E2FC
:101FD000B0E0EDEEFFE00C94FD1469837A838B830F
:101FE0009C832D833E834F83588789E0E82EF12C14
:101FF000EC0EFD1EB701CE0101960E940A148E015F
:102000000F5E1F4FB801CE0105960E940A148A89FF
:1020100091E089278A8BAE01475E5F4FB801C70107
:102020000E94BA0E0E94D612E6E0A0960C941915F2
:10203000A0E2B0E0EEE1F0E10C94FD1469837A8354
:102040008B839C832D833E834F83588799E0E92EB1
:10205000F12CEC0EFD1EB701CE0101960E940A1470
:102060008E010F5E1F4FB801CE0105960E940A1423
:10207000AE01475E5F4FB801C7010E94BA0E0E94D1
:10208000D612E6E0A0960C941915A0E2B0E0EBE4BD
:10209000F0E10C94F11469837A838B839C832D8304
:1020A0003E834F8358878E01075F1F4FB801CE01D3
:1020B00001960E940A14F1E1EF2EF12CEC0EFD1EA8
:1020C000B701CE0105960E940A148985823078F006
:1020D0009989923040F420E09A858A89981321E00A
:1020E0002A8BB701E9C0843051F4923061F020E0CE
:1020F0009A858A89981321E02A87B801DDC0943037
:1021000029F4823041F760E071E0D6C0823079F383
:10211000923009F32D853E854F8558898D899E899A
:10212000AF89B88D222433242101AA24BB24650160
:10213000EE24FF24870160E070E00DC06F5F7F4FE9
:102140006032710599F1880F991FAA1FBB1F569520
:1021500047953795279520FF19C0280E391E4A1E2E
:102160005B1E662477244301281639064A065B065F
:1021700028F4E1E06E2E712C812C912CAE0CBF1C4A
:10218000C01ED11EA60CB71CC81CD91CEE0CFF1C0F
:10219000001F111FB7FFD2CFE1E06E2E712C812CF2
:1021A000912CE628F72808291929C8CF8B859C850A
:1021B0002B893C89820F931F02969C8F8B8F1A8EDE
:1021C0009A858A89981711F081E08A8FD7FE17C007
:1021D0008B8D9C8DA0FE0CC0569447943794279409
:1021E00020E030E040E050E8222A332A442A552AF1
:1021F000D694C794B794A79401969C8F8B8F30E0A8
:10220000A31630E0B30630E0C30630E4D30618F579
:102210008B8D9C8D0EC0220C331C441C551C0197C9
:1022200020E0A21620E0B20620E0C20620E4D2069A
:1022300080F4AA0CBB1CCC1CDD1C57FEECCF31E09B
:10224000632E712C812C912CA628B728C828D92858
:10225000E2CF9C8F8B8FD601C5018F779070A070D5
:10226000B07080349105A105B10551F0AD8EBE8EE0
:10227000CF8ED8A283E0898FBE01675E7F4F1CC0DE
:10228000A7FCF4CF211431044104510479F380E414
:1022900090E0A0E0B0E0A80EB91ECA1EDB1E80E8E8
:1022A000682E8FEF782E8FEF882E8FEF982EA62036
:1022B000B720C820D920DACFCB010E94D612E2E1A4
:1022C000A0960C940D15A8E1B0E0E9E6F1E10C94BC
:1022D000F71469837A838B839C832D833E834F839A
:1022E0005887B9E08B2E912C8C0E9D1EB401CE0127
:1022F00001960E940A148E010F5E1F4FB801CE0195
:1023000005960E940A142985223008F46AC039898A
:10231000323008F468C08A859A8989278A872430F0
:1023200009F463C0223009F460C0343041F41D86E2
:102330001E861F86188A1C861B86B40177C0323021
:1023400009F458C06B857C858B899C89681B790B47
:102350007C876B872D853E854F855889ED88FE8863
:102360000F89188D2E153F054007510740F4220FA5
:10237000331F441F551F615070407C876B8780E07E
:1023800090E0A0E0B0E4AA24BB24650160E070E026
:102390002E153F054007510740F0A82AB92ACA2A3E
:1023A000DB2A2E193F09400B510BB695A79597953F
:1023B0008795220F331F441F551F6F5F7F4F6F316B
:1023C000710531F7D601C5018F779070A070B0709C
:1023D00080349105A105B10589F0AD86BE86CF8612
:1023E000D88AB40123C0B80121C03217D1F760E008
:1023F00071E01CC084E08987B40118C0A7FCEDCF50
:10240000211531054105510541F380E490E0A0E03C
:10241000B0E0A80EB91ECA1EDB1E80E89FEFAFEF2A
:10242000BFEFA822B922CA22DB22D7CFCB010E945C
:10243000D612ECE068960C941315A8E0B0E0E3E245
:10244000F2E10C9400159B01AC0183E089831A82B0
:1024500057FD51C0211531054105510539F482E080
:102460008983CE0101960E94D6124CC0EEE1F0E0C5
:10247000FC83EB838A818823C9F1203010E0310787
:1024800010E0410710E85107C9F188279927DC01BE
:10249000821B930BA40BB50B8D839E83AF83B887F0
:1024A0002D813E814F815885203080E0380780E0C3
:1024B000480780E45807A8F6EB81FC81DA01C901DE
:1024C000880F991FAA1FBB1F31979C01AD01803057
:1024D00010E0910710E0A10710E4B10778F3FC8346
:1024E000EB838D839E83AF83B887BBCF2D833E83E1
:1024F0004F835887D5CF81E08A83ACCF60E070E00E
:1025000080E09FECE3E028960C941C15ACE0B0E072
:10251000ECE8F2E10C94011569837A838B839C8348
:10252000BE016B5F7F4FCE0101960E940A148D8120
:10253000823061F0823050F0843069F48E818823DB
:1025400059F52FEF3FEF4FEF5FE72AC020E030E073
:1025500040E050E025C02F81388537FDF7CF2F317F
:10256000310564F78EE190E0821B930B29853A8553
:102570004B855C8504C056954795379527958A9578
:10258000D2F78E81882361F0509540953095219542
:102590003F4F4F4F5F4F04C020E030E040E050E835
:1025A000CA01B901E2E02C960C941D154F925F927E
:1025B0006F927F928F929F92AF92BF92DF92EF9233
:1025C000FF920F931F9320E030E040E050E0FC01C9
:1025D000E480F58006811781D1808081823038F4D3
:1025E000D801C701A061AF77B0706FEFEFC0843042
:1025F00009F474C0823009F477C0E114F1040105D4
:10260000110509F471C0828193816FEF82389607BA
:102610000CF070C062E87FEF681B790B6A317105BE
:102620000CF08FC047015801062E04C0B694A79441
:10263000979487940A94D2F744245524320181E078
:1026400090E0A0E0B0E004C0880F991FAA1FBB1F54
:102650006A95D2F70197A109B109E822F9220A2364
:102660001B23E114F1040105110529F0B1E04B2E03
:10267000512C612C712C85017401E428F528062960
:102680001729D801C7018F779070A070B07080347F
:102690009105A105B10509F466C0D801C701CF961F
:1026A000A11DB11D60E070E08030E0E09E07E0E039
:1026B000AE07E0E4BE0710F061E070E0FB01BC0192
:1026C000CD01F7E09695879577956795FA95D1F7BF
:1026D000DC01CB01AF77B0706E2F78C080E090E066
:1026E000A0E0B0E06FEF72C080E090E0A0E0B0E06A
:1026F00060E06CC0803891058CF7BC0161587F4F59
:10270000D801C7018F779070A070B07080349105A8
:10271000A105B105E9F08FE390E0A0E0B0E0E80E9C
:10272000F91E0A1F1B1F17FD38C0D801C70127E07B
:10273000B695A795979587952A95D1F7AF77B070FD
:1027400045C0E0E0F0E060E070E080E090E0C0CF05
:10275000E7FEE9CF80E490E0A0E0B0E0E80EF91EEB
:102760000A1F1B1FE0CFE7FC1FC080E090E060E085
:10277000E61660E0F60660E0060760E4160710F073
:1027800081E090E0FC01C801B701A7E0969587952C
:1027900077956795AA95D1F79BCF16950795F794EE
:1027A000E7946F5F7F4FC1CFD801C701805C9F4F17
:1027B000AF4FBF4F60E070E08030E0E09E07E0E0A8
:1027C000AE07E0E4BE0708F479CF76CF282F392F83
:1027D0008A2F8F774078482B862F87958827879573
:1027E0004F77482B66955078562BD794DD24D79495
:1027F0005F775D29CA01B9011F910F91FF90EF909A
:10280000DF90BF90AF909F908F907F906F905F9080
:102810004F900895FC01DB01208131819281492F85
:102820004F7750E0991F9927991F8381682F660F72
:10283000692B881F8827881FFD018183662309F083
:1028400049C0211531054105510509F470C082E8E0
:102850009FEFFD0193838283220F331F441F551F77
:10286000220F331F441F551F220F331F441F551FB4
:10287000220F331F441F551F220F331F441F551FA4
:10288000220F331F441F551F220F331F441F551F94
:1028900083E08C932030F0E03F07F0E04F07F0E456
:1028A0005F0790F482E89FEF220F331F441F551FEC
:1028B0000197203060E0360760E0460760E4560785
:1028C00098F3FD0193838283FD012483358346833E
:1028D000578308956F3F71F1862F99278F57904046
:1028E000FD019383828383E08C93220F331F441F67
:1028F000551F220F331F441F551F220F331F441F24
:10290000551F220F331F441F551F220F331F441F13
:10291000551F220F331F441F551F220F331F441F03
:10292000551F50642483358346835783089582E07E
:102930008C930895211531054105510519F484E062
:102940008C93089544FD02C01C92BECF81E08C930D
:10295000BBCFDC0101C06D9341505040E0F70895BA
:10296000629FD001739FF001829FE00DF11D649F73
:10297000E00DF11D929FF00D839FF00D749FF00DFF
:10298000659FF00D9927729FB00DE11DF91F639FA0
:10299000B00DE11DF91FBD01CF0111240895A1E281
:1029A0001A2EAA1BBB1BFD010DC0AA1FBB1FEE1FC9
:1029B000FF1FA217B307E407F50720F0A21BB30B14
:1029C000E40BF50B661F771F881F991F1A9469F790
:1029D00060957095809590959B01AC01BD01CF01EC
:1029E00008952F923F924F925F926F927F928F92B3
:1029F0009F92AF92BF92CF92DF92EF92FF920F938E
:102A00001F93CF93DF93CDB7DEB7CA1BDB0B0FB697
:102A1000F894DEBF0FBECDBF09942A883988488854
:102A20005F846E847D848C849B84AA84B984C884EA
:102A3000DF80EE80FD800C811B81AA81B981CE0FE1
:102A4000D11D0FB6F894DEBF0FBECDBFED010895C6
:102A500009D001921A94E1F7089501900BD01A94CD
:102A6000E1F70895F999FECFB2BDA1BDF89A11968C
:102A700000B40895F999FECFB2BDA1BD00BC119676
:0C2A80000FB6F894FA9AF99A0FBE089568
:082A8C00000000000000000042
:00000001FF
