:100000000C9436000C9451000C9451000C94510047
:100010000C9451000C9451000C9451000C9451001C
:100020000C9451000C9451000C9451000C9451000C
:100030000C9451000C9451000C94B5010C94510097
:100040000C9451000C9451000C9451000C945100EC
:100050000C9451000C9456010C9451000C945100D6
:100060000C9493080C9451000C94360011241FBE7C
:10007000CFEFD4E0DEBFCDBF11E0A0E0B1E0E6E617
:10008000F9E202C005900D92A830B107D9F713E04C
:10009000A8E0B1E001C01D92A130B107E1F70C94D6
:1000A00053000C940000CFEFD4E0DEBFCDBF86E05C
:1000B00084B989EF85B917B88FE788B91AB88FEF77
:1000C0008BB90E94E9020E9411020E94BB090E94A2
:1000D0002B010E9400060E942B030E94CB078091F7
:1000E00008020E94DC0740E050E067E086E00E94E2
:1000F000F80178948091E0018823E1F31092E00107
:100100008091E3019091E4010E9492031092E0013A
:100110004091E3015091E40161E180E10E94F80126
:1001200040E050E063E182E10E94F8018091ED013E
:1001300083608093ED018091E001882399F08AE04B
:1001400090E00E94F5031092E0010091E30110910C
:10015000E401C8010E942C060E94BA0DBC01C8012E
:100160000E94F1098091E201882341F01092E2019E
:100170008091E5019091E6010E94A7070E94FE0789
:10018000882309F465C00E94EA07873809F440C053
:10019000883878F4833839F1843830F48038E1F0E5
:1001A000823809F055C01BC0853859F1863868F58A
:1001B00022C08139D1F1823940F4893879F1893806
:1001C00050F1803909F044C02CC08339B1F1833932
:1001D00080F18439E9F53AC00E94F30239C0809178
:1001E000ED0181600BC08091ED018E7F8093ED0168
:1001F0000E948F092DC08091ED0182608093ED01F6
:1002000027C08091ED018D7FF9CF0E94740220C03C
:100210000E94A9021DC00E9407021AC00E94430248
:1002200017C081E08093E70113C08091ED018460E5
:10023000E5CF8091ED018B7FE1CF1092E0018091BD
:10024000E3019091E4010E94920302C00E943B05E9
:100250000E947D0D70CF81E08093E1011092E20158
:100260001092E6011092E5011092E0011092E40173
:100270001092E3018093E70188B1887F88B9EEE7A7
:10028000F0E080818760808382E480937C0083E05B
:1002900080937B008EEA80937A0092E094BD85E0A3
:1002A00085BD90936E008EE487BD08951F920F92D6
:1002B0000FB60F9211242F933F934F935F936F9339
:1002C0007F938F939F93AF93BF93EF93FF9340914F
:1002D0007800509179008091E101813029F08130DE
:1002E00068F0823089F524C05093E4014093E30123
:1002F0008093E0011092E10180E40FC05093E60189
:100300004093E50191E09093E2018091E701882319
:1003100061F082E08093E10181E480937C00809130
:100320007A00806480937A000FC09093E10109C045
:100330001092E70165E184E10E94F80181E0809379
:10034000E10182E480937C00FF91EF91BF91AF9136
:100350009F918F917F916F915F914F913F912F91DD
:100360000F900FBE0F901F9018951F920F920FB60F
:100370000F9211242F933F934F935F936F937F932B
:100380008F939F93AF93BF93EF93FF938091E1017E
:10039000813051F467E086E00E94E5010196AC01EE
:1003A00067E086E00E94F801FF91EF91BF91AF9165
:1003B0009F918F917F916F915F914F913F912F917D
:1003C0000F900FBE0F901F9018959FB7F8949FBF86
:1003D000A8EEB1E0FD01E80FF11D80819927982F6B
:1003E0008827A60FB11D2C913327822B932B0895BC
:1003F0002FB7F894E8EEF1E0DF01A80FB11D852FCB
:1004000099278C93E60FF11D40832FBF089580E15B
:10041000809308020E9488090E9409060E944C0DE0
:100420000895CF93DF93C8EED1E089E3FE011192E6
:100430008A95E9F781E08093E8018093E9011092C1
:10044000EA0182E08093EB010E94800D0E94A902E4
:10045000882351F448E150E068E170E0CE018096D5
:100460000E9416140E940702DF91CF910895FC01AB
:1004700004C08191480F6150704061157105C9F742
:10048000842F992708950F931F93CF93DF93CDB7B0
:10049000DEB760970FB6F894DEBF0FBECDBF40E168
:1004A00050E06FEF70E08E010F5F1F4FC8010E9498
:1004B000161480E090E040E19801DC01F901142E6F
:1004C0000E949A144096F2E080309F07B1F781E0D5
:1004D00090E060960FB6F894DEBF0FBECDBFDF91FF
:1004E000CF911F910F9108950F931F93CF93DF9397
:1004F000CDB7DEB722970FB6F894DEBF0FBECDBFE3
:1005000083E0898308E012E043E068E170E0C8011D
:100510000E9437028A8382E0A0E0B0E0FE013196BB
:10052000182E0E949A1488E1A2E0B0E0F801182E7B
:100530000E949A140E94930D81E090E022960FB6DB
:10054000F894DEBF0FBECDBFDF91CF911F910F9109
:100550000895FF920F931F93CF93DF93CDB7DEB72C
:1005600022970FB6F894DEBF0FBECDBF82E0A0E0A9
:10057000B0E0FE013196182E0E94951489818330D7
:1005800019F080E090E019C088E108E012E0A2E0F4
:10059000B0E0F801182E0E9495140E94A60DFA8072
:1005A00043E068E170E0C8010E94370290E0F81271
:1005B00091E081E09827892F992722960FB6F89429
:1005C000DEBF0FBECDBFDF91CF911F910F91FF9086
:1005D000089584B7877F84BFE0E6F0E0808188617A
:1005E0008083108208958091ED018E7F8093ED01CC
:1005F0000E948F0988E880936000FFCF90912A02C3
:1006000080912102981718F4891B815003C0981B10
:1006100087E0891B9927089540E050E06BE18AE16B
:100620000E94F80140E050E06DE18CE10E94F80189
:1006300040E050E06FE18EE10E94F80140E050E0C0
:1006400069E188E10E94F8011092FE010E94FE0219
:100650008093FF010895AF92BF92CF92DF92EF9205
:10066000FF920F931F931092220210922302109276
:100670002402109225021092260210922702109254
:1006800028021092290210922A021092210210923E
:1006900009011092080180E090E0A0E0B4E48093AA
:1006A0000A0190930B01A0930C01B0930D0180E01F
:1006B00090E0A0E0B0E080930E0190930F01A09332
:1006C0001001B09311018093120190931301A09334
:1006D0001401B0931501BF93AF939F938F935C0167
:1006E0006D010F2EF0E0EF2EF0E0FF2EF0E00F2F67
:1006F000F4E41F2FF02DA801970160E070E080E086
:1007000090E00E94070B0E940C030F900F900F9037
:100710000F901F910F91FF90EF90DF90CF90BF90BF
:10072000AF900895AF92BF92CF92DF92EF92FF9277
:100730000F931F9310922202109223021092240210
:10074000109225021092260210922702109228027F
:100750001092290210922A0210922102109209018D
:1007600010920801AA2797FDA095BA2FBC01CD01D0
:100770000E948A119B01AC0160930A0170930B01E6
:1007800080930C0190930D0180E090E0A0E0B0E038
:1007900080930E0190930F01A0931001B09311016B
:1007A0008093120190931301A0931401B09315014B
:1007B000BF93AF939F938F935C016D0179018A0181
:1007C00060E070E080E090E00E94070B0E940C0364
:1007D0000F900F900F900F901F910F91FF90EF903F
:1007E000DF90CF90BF90AF900895AF92BF92CF921D
:1007F000DF92EF92FF920F931F93CF93DF93CDB7CA
:10080000DEB728970FB6F894DEBF0FBECDBF9C01B0
:100810008091ED0182FF1EC19091210280912A02F8
:10082000981789F410922202109223021092240247
:10083000109225021092260210922702109228028E
:1008400010922902C9C04427552780912202909115
:100850002302A0912402B0912502820F931FA41FAE
:10086000B51F8093220290932302A0932402B09399
:1008700025029DC02E193F09400B510B20932202E7
:100880003093230240932402509325028091260244
:1008900090912702A0912802B09129028E199F09F8
:1008A000A00BB10B8093260290932702A0932802FD
:1008B000B0932902209121022F5F277020932102FB
:1008C00080912A02A22FBB27281791F58EE090E095
:1008D000A89FF001A99FF00DB89FF00D1124E85FCB
:1008E000FE4F228133814481558180E090E0A0E079
:1008F000B0E0BF93AF939F938F935C016D0179013B
:100900008A0160E070E080E090E00E94070B1092A6
:1009100022021092230210922402109225021092B9
:10092000260210922702109228021092290237C044
:100930002F5F277033278EE090E0AD01489FD001F4
:10094000499FB00D589FB00D1124A85FBE4FFD0107
:10095000A284B384C484D584AC01249FC001259FA4
:10096000900D349F900D1124885F9E4FFC01E28012
:10097000F38004811581FD012281338144815581F9
:10098000FC016081718186819781A085B185BF93CB
:10099000AF939F938F9380E090E00E94070B0F909E
:1009A0000F900F900F900E94FE028093FF01209104
:1009B000220230912302409124025091250280911D
:1009C0003F02909140027C0100271127E216F306B6
:1009D0000407150708F44ECFAE014B5F5F4FBE0111
:1009E0006F5F7F4F80912202909123020E940E0C34
:1009F00020E030E040E251E46D817E818F81988576
:100A00000E94B20F6D837E838F83988720E030E051
:100A100040E05FE369817A818B819C810E94850F30
:100A20000E94F311AB01BC0161E180E10E94F80179
:100A300020E030E040E05FE36D817E818F8198852A
:100A40000E94850F0E94F311AB01BC0163E182E1BA
:100A50000E94F80128960FB6F894DEBF0FBECDBFF6
:100A6000DF91CF911F910F91FF90EF90DF90CF908A
:100A7000BF90AF9008955F926F927F928F929F92F6
:100A8000AF92BF92CF92DF92EF92FF920F931F939C
:100A9000CF93DF9350902A02539487E0582280919D
:100AA0002102581609F49AC06BE18AE10E94E5011F
:100AB0007C016DE18CE10E94E5016C016FE18EE14A
:100AC0000E94E5015C0169E188E10E94E501EC0119
:100AD000892B09F483C0252D33278EE090E0289FD1
:100AE0008001299F100D389F100D1124085F1E4FA3
:100AF000F801D183C083B701882777FD8095982FAF
:100B00000E948A113B014C01F80162837383848344
:100B10009583B601882777FD8095982F0E948A11CA
:100B200020E030E040E85AE30E94B20FF80166830B
:100B3000778380879187B501882777FD8095982FE7
:100B40000E948A1120E030E040E85AE30E94B20F90
:100B5000F80162877387848795879091210280913D
:100B60002A029817E9F4209135023091360240911B
:100B700037025091380280E090E0A0E0B0E0BF93EF
:100B8000AF939F938F935C016D0184017301BE014C
:100B900080E090E00E94070B0F900F900F900F9055
:100BA0009E01442755278091260290912702A0910B
:100BB0002802B0912902820F931FA41FB51F8093B2
:100BC000260290932702A0932802B0932902509204
:100BD0002A020E940C0381E090E002C080E090E0D5
:100BE000DF91CF911F910F91FF90EF90DF90CF9009
:100BF000BF90AF909F908F907F906F905F9008957F
:100C000010929701109296011092990110929801FA
:100C100008951092090240E050E063E282E20E94EF
:100C2000F80140E050E065E284E20E94F80140E013
:100C300050E067E286E20E94F80140E650E06BE295
:100C40008AE20E94F80140EA53E06DE28CE20E94E1
:100C5000F8011092160208950F931F93CF93DF931C
:100C6000EC018091920190919301A0919401B09137
:100C700095019C01AD015595479537952795821BA8
:100C8000930BA40BB50B9E01442737FD4095542FC1
:100C9000820F931FA41FB51F80939201909393011D
:100CA000A0939401B0939501B595A79597958795D5
:100CB0009C01909381018093800140919801509113
:100CC0009901241B350B309383012093820190936B
:100CD00099018093980161E180E10E94E501909380
:100CE0008B0180938A0163E182E10E94E501909388
:100CF0008901809388016BE28AE20E94E50190936A
:100D00008701809386016DE28CE20E94E501909359
:100D1000850180938401809116028823A9F10FEF49
:100D200013E0A8014C1B5D0B69E088E00E94F8010C
:100D30004091820150918301509541955F4F6BE046
:100D40008AE00E94F80180918A0190918B019801BC
:100D5000281B390B30938B0120938A0180918601E7
:100D6000909187019801281B390B309387012093BC
:100D700086018091840190918501081B190B1093C5
:100D80008501009384010DC0AE0169E088E00E94F6
:100D9000F80140918201509183016BE08AE00E944A
:100DA000F801809109029927909391018093900115
:100DB00020918A0130918B01809196019091970149
:100DC0002817390721F4C0918001D0918101309317
:100DD00097012093960180918601909187012817B1
:100DE000390724F490938B0180938A012091840128
:100DF0003091850180918A0190918B0128173907E4
:100E000024F430938B0120938A0180918A01909180
:100E10008B018C1B9D0B90938F0180938E01809191
:100E20008801909189012091820130918301821B78
:100E3000930B90938D0180938C0163E282E20E9478
:100E4000E501909379018093780165E284E20E9444
:100E5000E501EC0190937B0180937A0110927C0173
:100E600010927D0110927E0110927F0160918E019F
:100E700070918F0180919001909191018617970751
:100E800034F0909581959F4F68177907A4F48827CF
:100E900077FD8095982F2091780130917901442732
:100EA00055270E941D1460937C0170937D018093EF
:100EB0007E0190937F0160918C0170918D01882754
:100EC00077FD8095982F9E01442755270E941D1479
:100ED00020917C0130917D0140917E0150917F01F4
:100EE000260F371F481F591F232F342F452F5527F3
:100EF00047FD5A9520937C0130937D0140937E01FC
:100F000050937F012F3F31054105510531F02CF001
:100F10008FEF90E0A0E0B0E009C021503F4F4F4F6D
:100F20005F4F64F481E09FEFAFEFBFEF80937C01F0
:100F300090937D01A0937E01B0937F0180917C010D
:100F400090917D01DF91CF911F910F910895209194
:100F50009A01E22FFF27EE0FFF1FE556FE4F918308
:100F600080832F5F277020939A0140E050E0EBE9E7
:100F7000F1E081919191480F591F81E0EB3AF80718
:100F8000C1F783E0569547958A95E1F76DE08CE0CF
:100F90000E94F801089510929A01EBE9F1E0119294
:100FA000119281E0EB3AF807D1F740E050E06DE0B4
:100FB0008CE00E94F80108951092AE011092AD01EC
:100FC000880F8093BA008FEF8093BB0085EC8093ED
:100FD000BC0008959091AD018091AE019817D1F3B6
:100FE0008091AE018F5F83708093AE01E091AE017E
:100FF000FF27E155FE4F8081992708959091AD011B
:101000008091AE0120E030E0981711F021E030E04F
:10101000C9010895982F9F77983328F4E92FFF2767
:10102000E851FE4F34C09F33A8F19F3319F48091EB
:1010300027022EC097FD2EC0209127022230D8F023
:10104000223041F5903530F49054E92FFF27EF53CB
:10105000FD4F1DC0903678F49055E92FFF27EF53D0
:10106000FD4F8081E82FFF279E2FE03520F48E2F43
:101070000E940A080DC09054E22FFF2786E0EE0F71
:10108000FF1F8A95E1F7EF5BFD4FE90FF11D8081AE
:101090009927089580E090E00895E82F8091ED0170
:1010A000282F332722703070EF77E031D8F1E0320B
:1010B00028F021153105B1F1E83320F4FF27E8517C
:1010C000FE4F1AC0EF3370F1EF3331F4633008F0A4
:1010D00062E0609327020895E7FD24C09091270203
:1010E000A92FBB27923098F09230E1F4E03530F42C
:1010F000E054FF27EF53FD4F60830895E03638F446
:10110000E055FF27EF53FD4FE081E03568F2E054F2
:1011100096E0AA0FBB1F9A95E1F7AF5BBD4FAE0FEC
:10112000B11D6C9308951F920F920FB60F92112468
:101130000F931F932F933F934F935F936F937F93DF
:101140008F939F93AF93BF93EF93FF938091B900D9
:10115000803A09F4C7C0813A60F4803609F43FC090
:10116000813620F4882309F4BBC0BCC08038D1F19B
:10117000B9C0803C09F4B6C0813C30F4883A59F0DB
:10118000883B09F0AFC007C0883C09F4ABC0883F7A
:1011900009F0A8C0AAC08091AB010E940A08982F4C
:1011A0008091AC01843089F43091B3018091B40115
:1011B0002091B501381738F4290F2093B5013F5F0E
:1011C0003093B30102C0922F05C08091AB018F5FB5
:1011D0008093AB01892F99278093BB0083C0109225
:1011E000AC0180C06091BB008091AC01823089F17C
:1011F000833030F4882351F0813009F073C01FC070
:10120000833089F1843009F06DC038C067FD04C0B7
:101210006093AB0181E003C0613821F482E08093E8
:10122000AC0160C08091AD018F5F83708093AD0190
:10123000E091AD01FF27E155FE4F608353C08091DF
:10124000AB010E944D088091AB018F5F8093AB0191
:1012500049C0862F8F708093B4018093B50110929E
:10126000B30183E0DCCF8091B5016093AB01909135
:10127000AB01890F8093B50184E0D1CF8091B30198
:101280000091B4012091B501801770F4E82FFF2779
:10129000EF70F070EA54FE4F6083260F2093B50183
:1012A0008F5F8093B3011EC06217E1F41092B30107
:1012B00010E011C08091AB01E12FFF27EF70F070BB
:1012C000EA54FE4F60810E944D088091AB018F5F10
:1012D0008093AB011F5F101768F31093B30102C036
:1012E00085ED01C085EC8093BC00FF91EF91BF912B
:1012F000AF919F918F917F916F915F914F913F91AE
:101300002F911F910F910F900FBE0F901F90189566
:1013100040E150E069E288E20E94F8010895F89403
:101320008091C601882321F48091C701882389F028
:1013300085B1897F85B9809180008F73809380000B
:10134000809180008F7C809380001092C601109263
:10135000C701109289001092880010928B001092A1
:101360008A0078948091C6018093F6018091C7012C
:101370008093F701089569E288E20E94E501909365
:10138000C9018093C80125B1297F25B924B1266000
:1013900024B91092850010928400E0E8F0E01082F9
:1013A000A1E8B0E01C921092820010926F0024E03D
:1013B000880F991F2A95E1F70197909387008093F2
:1013C0008600109289001092880010928B00109273
:1013D0008A00108281E18C931092F6011092F7013D
:1013E0000895EF92FF920F931F93CF93DF937C01A9
:1013F000EB0169E288E20E94E5012091C801309189
:10140000C9018217930779F185B1897F85B98091E8
:1014100080008F7380938000809180008F7C809308
:1014200080001092C6011092C70169E288E20E9412
:10143000E5019093C9018093C801A4E0880F991F2A
:10144000AA95E1F701979093870080938600109208
:1014500085001092840010928900109288001092EA
:101460008B0010928A00809116028823F1F06DE2C1
:101470008CE20E94E5018C016BE28AE20E94E501A8
:10148000A8010050144010F04FEF53E09C01805031
:10149000944010F02FEF33E08FEF93E0BC01641B1A
:1014A000750BAB01821B930B15C06BE28AE20E94A5
:1014B000E5018C016DE28CE20E94E501A80100507B
:1014C000144010F04FEF53E024E08030920710F00A
:1014D0008FEF93E0E416F50620F4D7FF02C0C0E0DA
:1014E000D0E08E159F0528F41C161D0614F4C0E0EC
:1014F000D0E08091ED0180FF81C0D7FF3FC0BE01E9
:101500006195062F2091C8013091C901F89480910E
:10151000C701882341F485B1897F85B980E2809332
:1015200080001092C6010093C701109289001092AA
:101530008800602F77278827992744275527F4E0CC
:10154000220F331F441F551FFA95D1F72150304009
:10155000404050400E941D142FEF30E040E050E02A
:101560000E943C1430938B0020938A0078948091E1
:10157000C6018093F6010093F70142C0209709F459
:101580003DC00C2F2091C8013091C901F894809181
:10159000C601882341F485B1897F85B980E88093AD
:1015A00080001092C7010093C601602F772788271B
:1015B000992744275527E4E0220F331F441F551F66
:1015C000EA95D1F721503040404050400E941D1410
:1015D0002FEF30E040E050E00E943C14309389004F
:1015E0002093880010928B0010928A0078940093C8
:1015F000F6018091C7018093F70102C00E948F0914
:10160000DF91CF911F910F91FF90EF9008952F924E
:101610003F924F925F926F927F928F929F92AF9282
:10162000BF92CF92DF92EF92FF920F931F93CF93CF
:10163000DF93CDB7DEB724970FB6F894DEBF0FBEA9
:10164000CDBF4B0119012A01E982FA820B831C8369
:1016500090933E0280933D027093300260932F027C
:10166000881A990A9092400280923F02B40188271A
:1016700077FD8095982F0E948A117B018C0197FE3F
:1016800008C020E030E040E857E40E94850F7B016D
:101690008C01E092CA01F092CB010093CC0110932F
:1016A000CD01A8019701C601B5010E94B20F5B01EF
:1016B0006C01A8019701698D7A8D8B8D9C8D0E949C
:1016C000B20F3B014C0120922B0230922C0240922F
:1016D0002D0250922E0289819A81AB81BC81809328
:1016E000350290933602A0933702B0933802A0924D
:1016F0003902B0923A02C0923B02D0923C02609210
:101700003102709232028092330290923402A2012E
:101710009101C201B1010E94850F7B018C0120E083
:1017200030E040E050EC69817A818B819C810E949D
:10173000B20F9B01AC01C801B7010E94850FA60141
:1017400095010E94850FA40193010E94850F60936B
:10175000CE017093CF018093D0019093D10120E00E
:1017600030E040E450ECC201B1010E94B20F7B01B5
:101770008C0120E030E040E450E469817A818B8183
:101780009C810E94B20F9B01AC01C801B7010E946D
:10179000850F7B018C0120E030E040E050ECC60179
:1017A000B5010E94B20F9B01AC01C801B7010E94B4
:1017B000850FA40193010E94540F6093D20170938E
:1017C000D3018093D4019093D501A092D601B09219
:1017D000D701C092D801D092D9012092DA0130927B
:1017E000DB014092DC015092DD0124960FB6F894A3
:1017F000DEBF0FBECDBFDF91CF911F910F91FF9044
:10180000EF90DF90CF90BF90AF909F908F907F90A0
:101810006F905F904F903F902F9008952F923F923E
:101820004F925F926F927F928F929F92AF92BF92F0
:10183000CF92DF92EF92FF920F931F93CF93DF939C
:10184000CDB7DEB760970FB6F894DEBF0FBECDBF41
:101850008C01788B6F875E874D8720913D02309198
:101860003E0228173907C8F080912B0290912C0274
:10187000A0912D02B0912E02FB0180839183A2835F
:10188000B3830217130708F18091390290913A024D
:10189000A0913B02B0913C0225C040912F02509193
:1018A00030028417950728F1809135029091360215
:1018B000A0913702B0913802EF85F8898083918337
:1018C000A283B3834017510728F480E090E0A0E0A2
:1018D000B0E008C08091310290913202A0913302B1
:1018E000B0913402ED85FE8580839183A283B3831A
:1018F000BAC08091CA019091CB01A091CC01B09166
:10190000CD0189879A87AB87BC87021B130BB8016F
:10191000882777FD8095982F0E948A1117FF06C0AF
:1019200020E030E040E857E40E94850F29853A85A1
:101930004B855C850E94D0105B016C019B01AC0162
:101940000E94B20F3B014C018091CE019091CF01DA
:10195000A091D001B091D1018D839E83AF83B887D0
:101960002090D2013090D3014090D4015090D50105
:101970008091D6019091D701A091D801B091D90161
:1019800089839A83AB83BC83A6019501C401B3010B
:101990000E94B20F9B01AC016D817E818F81988581
:1019A0000E94B20F7B018C01A4019301C201B1011D
:1019B0000E94B20F9B01AC01C801B7010E94850FC4
:1019C0007B018C01A601950169817A818B819C81C3
:1019D0000E94B20F9B01AC01C801B7010E94850FA4
:1019E0002091DA013091DB014091DC015091DD0161
:1019F0000E94850FAF85B8896D937D938D939C93DD
:101A0000139720E030E040E450E46D817E818F81C7
:101A100098850E94B20FA40193010E94B20F7B012E
:101A20008C01A2019101C201B1010E94850FA601A2
:101A300095010E94B20F9B01AC01C801B7010E9441
:101A4000850F29813A814B815C810E94850F298510
:101A50003A854B855C850E94D010ED85FE856083BC
:101A600071838283938360960FB6F894DEBF0FBEB6
:101A7000CDBFDF91CF911F910F91FF90EF90DF903D
:101A8000CF90BF90AF909F908F907F906F905F901E
:101A90004F903F902F9008950895E82F8FB7F894B6
:101AA000FF278FBF36E0EE0FFF1F3A95E1F7EF5BA0
:101AB000FD4FDF01A60FB11D8C919927982F882724
:101AC000E40FF11D20813327822B932B0895E82FFB
:101AD0005FB7F894FF2776E0EE0FFF1F7A95E1F7E6
:101AE000EF5BFD4FDF01A60FB11D832F99278C936C
:101AF000E40FF11D20835FBF08950E94DC0D08955F
:101B0000E1E4F2E080E4DF01982F1D929A95E9F775
:101B1000E05CFF4FA3E0E130FA07A9F7109227023B
:101B20000E94D50D0895E1ECF2E080E1AAE1B0E079
:101B3000182E0E949A14E1E8F2E086E0AAE2B0E0F2
:101B4000182E0E949A1481E090E00895E1ECF2E0F2
:101B500080E1AAE1B0E0182E0E949514E1E8F2E0DD
:101B600086E0AAE2B0E0182E0E94951481E090E091
:101B7000089508959C018091DE019091DF01211567
:101B8000310531F0880F991F281B390BC9010895C1
:101B9000880F991F089521E030E002C0220F331F03
:101BA0006A95E2F7822B99270895109241021092CC
:101BB000DF011092DE010895DF92EF92FF920F9302
:101BC0001F93CF93DF931092DF011092DE0165E146
:101BD00084E10E94E501082F6DE08CE00E94E501A0
:101BE000D82E43E062E081E00E944D0D7C0145E08B
:101BF00064E081E00E944D0DEC0141E060E081E095
:101C00000E944D0D282FE01620F4EE2011F081E007
:101C100005C00C1728F4CC2319F082E08093410210
:101C20002D1568F4222359F084E080934102822F1D
:101C300099278D1991099093DF018093DE01DF913F
:101C4000CF911F910F91FF90EF90DF900895A0E04A
:101C5000B0E0EDE2FEE00C946214FC016A019081B8
:101C6000923008F41BC1DB018C91823080F09430FB
:101C700061F4843009F012C19181EB0189819817D8
:101C800009F40CC1E0E0F1E009C1843011F4FB017A
:101C900005C1823091F4923009F000C1EA01DF0100
:101CA00088E00D9009928150E1F78181FB019181DB
:101CB0008923E6018983F601F1C0923041F3628005
:101CC0007380EB018A809B80E480F5800681178118
:101CD0002C813D814E815F815301A818B908C5014F
:101CE000B7FCABC080970CF457C0861497040CF473
:101CF000BEC03401EE24FF2487019181FB01818164
:101D0000981709F4A6C0992309F49CC02E193F091D
:101D1000400B510B57FDB0C0E60119827B826A82ED
:101D2000F6012483358346835783E6012C813D8168
:101D30004E815F8179018A01DA01C9010197A10908
:101D4000B1098F5F9F4FAF4FBF43F8F4E6016A813F
:101D50007B81A8019701220F331F441F551F61503B
:101D6000704079018A01DA01C9010197A109B1091D
:101D70008F5F9F4FAF4FBF4360F3E6017B836A8362
:101D8000F601248335834683578383E0D6018C9301
:101D900057FD39C0F60182C086149704B4F4C0E040
:101DA000D0E0DA01C90181709070A070B0705695D2
:101DB000479537952795282B392B4A2B5B2B219656
:101DC000CA15DB0571F78C0E9D1E681479040CF0A2
:101DD00094CFC0E0D0E05401A618B708D801C701DD
:101DE00081709070A070B07016950795F794E79485
:101DF000E82AF92A0A2B1B2B2196AC16BD0671F78F
:101E00006C0E7D1E7ACFDA01C901B695A79597951C
:101E100087952170307040705070282B392B4A2BD9
:101E20005B2BE6012C833D834E835F838A819B81FC
:101E300001969B838A83F60131C0882799278A19E6
:101E40009B0950CFE21AF30A040B150BA801970166
:101E500061CFE60199837B826A822E0D3F1D401F70
:101E6000511FF60124833583468357838ECF20E0AC
:101E700030E040E050E041CF81E0E60189837B82A1
:101E80006A8250954095309521953F4F4F4F5F4F57
:101E9000F601248335834683578347CFCF01EEE095
:101EA000CDB7DEB70C947E14A0E2B0E0EAE5FFE027
:101EB0000C946A1469837A838B839C832D833E837D
:101EC0004F83588789E0E82EF12CEC0EFD1EB701F8
:101ED000CE0101960E9477138E010F5E1F4FB8014D
:101EE000CE0105960E9477138A8991E089278A8B13
:101EF000AE01475E5F4FB801C7010E94270E0E94E6
:101F00004312E6E0A0960C948614A0E2B0E0EBE861
:101F1000FFE00C946A1469837A838B839C832D83FE
:101F20003E834F83588799E0E92EF12CEC0EFD1E7D
:101F3000B701CE0101960E9477138E010F5E1F4FED
:101F4000B801CE0105960E947713AE01475E5F4F40
:101F5000B801C7010E94270E0E944312E6E0A09636
:101F60000C948614A0E2B0E0E8EBFFE00C945E1461
:101F700069837A838B839C832D833E834F83588729
:101F80008E01075F1F4FB801CE0101960E947713A3
:101F9000F1E1EF2EF12CEC0EFD1EB701CE010596FE
:101FA0000E9477138985823078F09989923040F4C5
:101FB00020E09A858A89981321E02A8BB701E9C02D
:101FC000843051F4923061F020E09A858A89981328
:101FD00021E02A87B801DDC0943029F4823041F72E
:101FE00060E071E0D6C0823079F3923009F32D853C
:101FF0003E854F8558898D899E89AF89B88D222469
:1020000033242101AA24BB246501EE24FF24870187
:1020100060E070E00DC06F5F7F4F6032710599F135
:10202000880F991FAA1FBB1F56954795379527956F
:1020300020FF19C0280E391E4A1E5B1E6624772415
:102040004301281639064A065B0628F4E1E06E2EA5
:10205000712C812C912CAE0CBF1CC01ED11EA60C65
:10206000B71CC81CD91CEE0CFF1C001F111FB7FFAA
:10207000D2CFE1E06E2E712C812C912CE628F7282E
:1020800008291929C8CF8B859C852B893C89820F0B
:10209000931F02969C8F8B8F1A8E9A858A89981728
:1020A00011F081E08A8FD7FE17C08B8D9C8DA0FE2A
:1020B0000CC0569447943794279420E030E040E0D9
:1020C00050E8222A332A442A552AD694C794B79432
:1020D000A79401969C8F8B8F30E0A31630E0B30657
:1020E00030E0C30630E4D30618F58B8D9C8D0EC00E
:1020F000220C331C441C551C019720E0A21620E042
:10210000B20620E0C20620E4D20680F4AA0CBB1C72
:10211000CC1CDD1C57FEECCF31E0632E712C812CE2
:10212000912CA628B728C828D928E2CF9C8F8B8F5E
:10213000D601C5018F779070A070B0708034910582
:10214000A105B10551F0AD8EBE8ECF8ED8A283E031
:10215000898FBE01675E7F4F1CC0A7FCF4CF21149E
:1021600031044104510479F380E490E0A0E0B0E050
:10217000A80EB91ECA1EDB1E80E8682E8FEF782ECF
:102180008FEF882E8FEF982EA620B720C820D92059
:10219000DACFCB010E944312E2E1A0960C947A14AC
:1021A000A8E1B0E0E6EDF0E10C94641469837A8371
:1021B0008B839C832D833E834F835887B9E08B2E7E
:1021C000912C8C0E9D1EB401CE0101960E947713B6
:1021D0008E010F5E1F4FB801CE0105960E94771346
:1021E0002985223008F46AC03989323008F468C081
:1021F0008A859A8989278A87243009F463C0223026
:1022000009F460C0343041F41D861E861F86188A8A
:102210001C861B86B40177C0323009F458C06B8528
:102220007C858B899C89681B790B7C876B872D85C6
:102230003E854F855889ED88FE880F89188D2E15AB
:102240003F054007510740F4220F331F441F551F1D
:10225000615070407C876B8780E090E0A0E0B0E444
:10226000AA24BB24650160E070E02E153F054007FD
:10227000510740F0A82AB92ACA2ADB2A2E193F0999
:10228000400B510BB695A79597958795220F331F55
:10229000441F551F6F5F7F4F6F31710531F7D601B6
:1022A000C5018F779070A070B07080349105A10542
:1022B000B10589F0AD86BE86CF86D88AB40123C029
:1022C000B80121C03217D1F760E071E01CC084E092
:1022D0008987B40118C0A7FCEDCF21153105410550
:1022E000510541F380E490E0A0E0B0E0A80EB91EF3
:1022F000CA1EDB1E80E89FEFAFEFBFEFA822B92216
:10230000CA22DB22D7CFCB010E944312ECE06896B1
:102310000C948014A8E0B0E0E0E9F1E10C946D14B5
:102320009B01AC0183E089831A8257FD51C02115BE
:1023300031054105510539F482E08983CE010196CA
:102340000E9443124CC0EEE1F0E0FC83EB838A81F3
:102350008823C9F1203010E0310710E0410710E870
:102360005107C9F188279927DC01821B930BA40B25
:10237000B50B8D839E83AF83B8872D813E814F81BE
:102380005885203080E0380780E0480780E458070F
:10239000A8F6EB81FC81DA01C901880F991FAA1FF9
:1023A000BB1F31979C01AD01803010E0910710E018
:1023B000A10710E4B10778F3FC83EB838D839E8340
:1023C000AF83B887BBCF2D833E834F835887D5CF4C
:1023D00081E08A83ACCF60E070E080E09FECE3E0D6
:1023E00028960C948914ACE0B0E0E9EFF1E10C948C
:1023F0006E1469837A838B839C83BE016B5F7F4FEE
:10240000CE0101960E9477138D81823061F0823077
:1024100050F0843069F48E81882359F52FEF3FEF17
:102420004FEF5FE72AC020E030E040E050E025C0F9
:102430002F81388537FDF7CF2F31310564F78EE1D5
:1024400090E0821B930B29853A854B855C8504C0FF
:1024500056954795379527958A95D2F78E8188238B
:1024600061F050954095309521953F4F4F4F5F4F0C
:1024700004C020E030E040E050E8CA01B901E2E0E9
:102480002C960C948A144F925F926F927F928F9247
:102490009F92AF92BF92DF92EF92FF920F931F93A2
:1024A00020E030E040E050E0FC01E480F58006816F
:1024B0001781D1808081823038F4D801C701A061B2
:1024C000AF77B0706FEFEFC0843009F474C0823022
:1024D00009F477C0E114F1040105110509F471C094
:1024E000828193816FEF823896070CF070C062E8AA
:1024F0007FEF681B790B6A3171050CF08FC04701C3
:102500005801062E04C0B694A794979487940A9411
:10251000D2F744245524320181E090E0A0E0B0E0FD
:1025200004C0880F991FAA1FBB1F6A95D2F7019795
:10253000A109B109E822F9220A231B23E114F104BD
:102540000105110529F0B1E04B2E512C612C712CA5
:1025500085017401E428F52806291729D801C70147
:102560008F779070A070B07080349105A105B1058F
:1025700009F466C0D801C701CF96A11DB11D60E066
:1025800070E08030E0E09E07E0E0AE07E0E4BE07E8
:1025900010F061E070E0FB01BC01CD01F7E0969521
:1025A000879577956795FA95D1F7DC01CB01AF77E1
:1025B000B0706E2F78C080E090E0A0E0B0E06FEFE8
:1025C00072C080E090E0A0E0B0E060E06CC08038D5
:1025D00091058CF7BC0161587F4FD801C7018F77F7
:1025E0009070A070B07080349105A105B105E9F03C
:1025F0008FE390E0A0E0B0E0E80EF91E0A1F1B1F79
:1026000017FD38C0D801C70127E0B695A795979563
:1026100087952A95D1F7AF77B07045C0E0E0F0E03C
:1026200060E070E080E090E0C0CFE7FEE9CF80E4BA
:1026300090E0A0E0B0E0E80EF91E0A1F1B1FE0CFFB
:10264000E7FC1FC080E090E060E0E61660E0F60680
:1026500060E0060760E4160710F081E090E0FC01FE
:10266000C801B701A7E09695879577956795AA95D4
:10267000D1F79BCF16950795F794E7946F5F7F4F3F
:10268000C1CFD801C701805C9F4FAF4FBF4F60E003
:1026900070E08030E0E09E07E0E0AE07E0E4BE07D7
:1026A00008F479CF76CF282F392F8A2F8F7740786B
:1026B000482B862F8795882787954F77482B6695D7
:1026C0005078562BD794DD24D7945F775D29CA01C3
:1026D000B9011F910F91FF90EF90DF90BF90AF90E5
:1026E0009F908F907F906F905F904F900895FC0126
:1026F000DB01208131819281492F4F7750E0991F72
:102700009927991F8381682F660F692B881F882757
:10271000881FFD018183662309F049C02115310519
:102720004105510509F470C082E89FEFFD019383D4
:102730008283220F331F441F551F220F331F441F54
:10274000551F220F331F441F551F220F331F441FD5
:10275000551F220F331F441F551F220F331F441FC5
:10276000551F220F331F441F551F83E08C932030C9
:10277000F0E03F07F0E04F07F0E45F0790F482E8F5
:102780009FEF220F331F441F551F0197203060E039
:10279000360760E0460760E4560798F3FD0193832F
:1027A0008283FD01248335834683578308956F3FD9
:1027B00071F1862F99278F579040FD019383828373
:1027C00083E08C93220F331F441F551F220F331FAA
:1027D000441F551F220F331F441F551F220F331F45
:1027E000441F551F220F331F441F551F220F331F35
:1027F000441F551F220F331F441F551F506424834D
:10280000358346835783089582E08C93089521157C
:1028100031054105510519F484E08C93089544FD78
:1028200002C01C92BECF81E08C93BBCFDC0101C003
:102830006D9341505040E0F70895629FD001739F1F
:10284000F001829FE00DF11D649FE00DF11D929F4C
:10285000F00D839FF00D749FF00D659FF00D99278B
:10286000729FB00DE11DF91F639FB00DE11DF91FAF
:10287000BD01CF0111240895A1E21A2EAA1BBB1B92
:10288000FD010DC0AA1FBB1FEE1FFF1FA217B3073C
:10289000E407F50720F0A21BB30BE40BF50B661F52
:1028A000771F881F991F1A9469F760957095809516
:1028B00090959B01AC01BD01CF0108952F923F92ED
:1028C0004F925F926F927F928F929F92AF92BF9240
:1028D000CF92DF92EF92FF920F931F93CF93DF93EC
:1028E000CDB7DEB7CA1BDB0B0FB6F894DEBF0FBE49
:1028F000CDBF09942A88398848885F846E847D8496
:102900008C849B84AA84B984C884DF80EE80FD8097
:102910000C811B81AA81B981CE0FD11D0FB6F8940D
:10292000DEBF0FBECDBFED01089509D001921A940C
:10293000E1F7089501900BD01A94E1F70895F99901
:10294000FECFB2BDA1BDF89A119600B40895F999D1
:10295000FECFB2BDA1BD00BC11960FB6F894FA9A95
:06296000F99A0FBE089574
:08296600000000000000000069
:00000001FF
