:100000000C9436000C9451000C9451000C94510047
:100010000C9451000C9451000C9451000C9451001C
:100020000C9451000C9451000C9451000C9451000C
:100030000C9451000C9451000C94A5010C945100A7
:100040000C9451000C9451000C9451000C945100EC
:100050000C9451000C944E010C9451000C945100DE
:100060000C9439080C9451000C94360011241FBED6
:10007000CFEFD4E0DEBFCDBF11E0A0E0B1E0E0E221
:10008000F7E202C005900D92A830B107D9F712E04F
:10009000A8E0B1E001C01D92A534B107E1F70C94CE
:1000A00053000C9400000F931F9386E084B989EFEE
:1000B00085B917B88FE788B98CE98AB983EF8BB90E
:1000C0000E94D3020E9403020E9464090E9422013E
:1000D0000E94F0050E9478030E94BB0780910502F0
:1000E0000E940B0840E050E067E086E00E94EC01CF
:1000F00078948091DE018823E1F31092DE018091F3
:10010000E0019091E1010E9415031092DE014091FF
:10011000E0015091E10161E180E10E94EC0140E0E9
:1001200050E063E182E10E94EC018091EA0183608A
:100130008093EA018091DE01882389F08AE090E0D3
:100140000E94DF031092DE010091E0011091E101B5
:10015000C8010E941C06BC01C8010E94A30980912D
:10016000DF01882341F01092DF018091E20190913C
:10017000E3010E9497070E942D088823D9F20E946C
:1001800019088738F1F1883870F4833839F18438E8
:1001900028F48038E1F0823869F61CC0853851F1C6
:1001A000863860F523C08139C9F1823940F4893835
:1001B00071F1893848F1803909F0BCCF2BC08339FF
:1001C000A9F1833978F1843909F0B4CF38C00E949D
:1001D000DD02B0CF8091EA018160AACF8091EA016F
:1001E0008E7F8093EA010E942E09A4CF8091EA01BC
:1001F00082609ECF8091EA018D7F9ACF0E94640237
:1002000099CF0E94990296CF0E94FB0193CF0E9442
:10021000330290CF81E08093E4018CCF8091EA019A
:10022000846086CF8091EA018B7F82CF1092DE01BD
:100230008091E0019091E1010E9415037BCF0E9423
:100240002A0578CF1092DF011092E3011092E201AB
:100250001092DE011092E1011092E00181E08093A2
:10026000E40188B1887F88B9EEE7F0E0808187609B
:10027000808382E480937C0093E090937B008FE8FE
:1002800080937A0095BB92E090936E0016BC83EC4D
:1002900087BD18BC94BD85E085BD08951F920F925F
:1002A0000FB60F9211242F933F934F935F936F9349
:1002B0007F938F939F93AF93BF93EF93FF9340915F
:1002C00078005091790080917C0099278F70907010
:1002D0008130910519F18230910519F0892B51F087
:1002E00023C05093E1014093E00181E08093DE015F
:1002F00080E40CC05093E3014093E20181E08093DD
:10030000DF018091E401882379F081E480937C000F
:1003100080917A00806480937A0006C01092E40194
:1003200065E184E10E94EC01FF91EF91BF91AF91F3
:100330009F918F917F916F915F914F913F912F91FD
:100340000F900FBE0F901F9018951F920F920FB62F
:100350000F9211242F933F934F935F936F937F934B
:100360008F939F93AF93BF93EF93FF9367E086E0E4
:100370000E94D9010196AC0167E086E00E94EC0181
:1003800082E480937C00EAE7F0E0808180648083EF
:10039000FF91EF91BF91AF919F918F917F916F915D
:1003A0005F914F913F912F910F900FBE0F901F9033
:1003B00018959FB7F8949FBFA5EEB1E0FD01E80F37
:1003C000F11D80819927982F8827A60FB11D2C91A8
:1003D0003327822B932B08952FB7F894E5EEF1E0A5
:1003E000DF01A80FB11D852F99278C93E60FF11D12
:1003F00040832FBF089580E1809305020E945D092C
:100400000E94F9050895CF93DF93C5EED1E080E413
:10041000FE0111928A95E9F781E08093E5018093CE
:10042000E6011092E70182E08093E8010E949902C0
:10043000882351F440E450E060E270E0CE01809601
:100440000E94F3120E94FB01DF91CF910895FC01FD
:1004500004C08191480F6150704061157105C9F762
:10046000842F992708950F931F93CF93DF93CDB7D0
:10047000DEB760970FB6F894DEBF0FBECDBF40E188
:1004800050E06FEF70E08E010F5F1F4FC8010E94B8
:10049000F31280E090E040E19801DC01F901142EB4
:1004A0000E9477134096F2E080309F07B1F781E019
:1004B00090E060960FB6F894DEBF0FBECDBFDF911F
:1004C000CF911F910F910895FF920F931F93CF9398
:1004D000DF93CDB7DEB722970FB6F894DEBF0FBE1D
:1004E000CDBF82E0F82EF98205E012E042E060E242
:1004F00070E0C8010E9427028A83A0E0B0E0FE01FC
:1005000031961F2C0E94771380E2A2E0B0E0F80140
:10051000182E0E94771381E090E022960FB6F8948F
:10052000DEBF0FBECDBFDF91CF911F910F91FF9026
:1005300008951F93CF93DF93CDB7DEB722970FB601
:10054000F894DEBF0FBECDBF82E0A0E0B0E0FE01B8
:100550003196182E0E9472138981823019F080E042
:1005600090E017C080E225E032E0A2E0B0E0F901BF
:10057000182E0E9472131A8142E060E270E0C901F5
:100580000E94270290E0181391E081E09827892FBC
:10059000992722960FB6F894DEBF0FBECDBFDF912C
:1005A000CF911F91089584B7877F84BFE0E6F0E084
:1005B000808188618083108208958091EA018E7F16
:1005C0008093EA010E942E0988E880936000FFCFA3
:1005D00090912E0280912502981718F4891B815062
:1005E00003C0981B87E0891B9927089540E050E0DD
:1005F0006BE18AE10E94EC0140E050E06DE18CE1AA
:100600000E94EC0140E050E06FE18EE10E94EC01BD
:1006100040E050E069E188E10E94EC011092FB01AA
:100620000E94E8028093FC010895AF92BF92CF929E
:10063000DF92EF92FF920F931F9310922602109277
:100640002702109228021092290210922A02109278
:100650002B0210922C0210922D0210922E02109258
:1006600025021092090110920801AA2797FDA09572
:10067000BA2FBC01CD010E9479109B01AC0160939F
:100680000A0170930B0180930C0190930D0180E09F
:1006900090E0A0E0B0E080930E0190930F01A09352
:1006A0001001B09311018093120190931301A09354
:1006B0001401B0931501BF93AF939F938F935C0187
:1006C0006D0179018A0160E070E080E090E00E94B5
:1006D000D10A0E94F6020F900F900F900F901F9179
:1006E0000F91FF90EF90DF90CF90BF90AF90089563
:1006F000AF92BF92CF92DF92EF92FF920F931F9330
:1007000010922602109227021092280210922902BB
:1007100010922A0210922B0210922C0210922D029B
:1007200010922E02109225021092090110920801D7
:1007300080E090E0A0E0B4E480930A0190930B0184
:10074000A0930C01B0930D0180E090E0A0E0B0E038
:1007500080930E0190930F01A0931001B0931101AB
:100760008093120190931301A0931401B09315018B
:10077000BF93AF939F938F935C016D010F2EF0E0B9
:10078000EF2EF0E0FF2EF0E00F2FF4E41F2FF02DFE
:10079000A801970160E070E080E090E00E94D10A3B
:1007A0000E94F6020F900F900F900F901F910F91E3
:1007B000FF90EF90DF90CF90BF90AF900895AF92F1
:1007C000BF92CF92DF92EF92FF920F931F93CF933E
:1007D000DF93CDB7DEB728970FB6F894DEBF0FBE14
:1007E000CDBF9C018091EA0182FF23C19091250237
:1007F00080912E02981789F41092260210922702F7
:10080000109228021092290210922A0210922B02B2
:1008100010922C0210922D02CEC0442755278091B1
:10082000260290912702A0912802B0912902820FFE
:10083000931FA41FB51F8093260290932702A093B5
:100840002802B0932902A2C02E193F09400B510B78
:1008500020932602309327024093280250932902C6
:1008600080912A0290912B02A0912C02B0912D022E
:100870008E199F09A00BB10B80932A0290932B0233
:10088000A0932C02B0932D02209125022F5F277098
:100890002093250280912E02422F55272817A1F57B
:1008A000CA01880F991FFC01A3E0EE0FFF1FAA9554
:1008B000E1F7E81BF90BE85FFE4F228133814481A9
:1008C000558180E090E0A0E0B0E0BF93AF939F93AC
:1008D0008F935C016D0179018A0160E070E080E036
:1008E00090E00E94D10A10922602109227021092E4
:1008F00028021092290210922A0210922B021092C2
:100900002C0210922D023AC02F5F27703327CA01A4
:10091000880F991FDC0163E0AA0FBB1F6A95E1F7FE
:10092000A81BB90BA85FBE4FFD01A284B384C48489
:10093000D584220F331FC90143E0880F991F4A95C0
:10094000E1F7821B930B885F9E4FFC01E280F380EE
:1009500004811581FD012281338144815581FC018F
:100960006081718186819781A085B185BF93AF93A6
:100970009F938F9380E090E00E94D10A0F900F9098
:100980000F900F900E94E8028093FC0120912602B4
:100990003091270240912802509129028091430210
:1009A000909144027C0100271127E216F306040708
:1009B000150708F449CFAE014F5F5F4FBE016B5F73
:1009C0007F4F80912602909127020E94D80B20E051
:1009D00030E040E251E469817A818B819C810E9400
:1009E000A10E69837A838B839C8320E030E040E012
:1009F0005FE36D817E818F8198850E94740E0E94D5
:100A0000E210AB01BC0161E180E10E94EC0120E059
:100A100030E040E05FE369817A818B819C810E94B4
:100A2000740E0E94E210AB01BC0163E182E10E94FE
:100A3000EC0128960FB6F894DEBF0FBECDBFDF9154
:100A4000CF911F910F91FF90EF90DF90CF90BF90CB
:100A5000AF9008955F926F927F928F929F92AF9224
:100A6000BF92CF92DF92EF92FF920F931F93CF939B
:100A7000DF9350902E02539487E0582280912502F4
:100A8000581609F49BC06BE18AE10E94D9017C01F0
:100A90006DE18CE10E94D9016C016FE18EE10E9451
:100AA000D9015C0169E188E10E94D901EC01892B3F
:100AB00009F484C0852D9927880F991F8C0123E0A4
:100AC000000F111F2A95E1F7081B190B085F1E4F35
:100AD000F801D183C083B701882777FD8095982FCF
:100AE0000E9479103B014C01F80162837383848377
:100AF0009583B601882777FD8095982F0E947910FD
:100B000020E030E040E85AE30E94A10EF80166833D
:100B1000778380879187B501882777FD8095982F07
:100B20000E94791020E030E040E85AE30E94A10ED4
:100B3000F801628773878487958790912502809159
:100B40002E029817E9F42091390230913A0240912F
:100B50003B0250913C0280E090E0A0E0B0E0BF9307
:100B6000AF939F938F935C016D0184017301BE016C
:100B700080E090E00E94D10A0F900F900F900F90AC
:100B80009E014427552780912A0290912B02A09123
:100B90002C02B0912D02820F931FA41FB51F8093CA
:100BA0002A0290932B02A0932C02B0932D02509214
:100BB0002E020E94F60281E090E002C080E090E008
:100BC000DF91CF911F910F91FF90EF90DF90CF9029
:100BD000BF90AF909F908F907F906F905F9008959F
:100BE000109297011092960110929901109298011B
:100BF00008951092060240E050E063E282E20E9413
:100C0000EC0140E050E065E284E20E94EC0140E04B
:100C100050E067E286E20E94EC0140E650E06BE2C1
:100C20008AE20E94EC0140EA53E06DE28CE20E940D
:100C3000EC011092130208950F931F93CF93DF934B
:100C4000EC018091920190919301A0919401B09157
:100C500095019C01AD015595479537952795821BC8
:100C6000930BA40BB50B9E01442737FD4095542FE1
:100C7000820F931FA41FB51F80939201909393013D
:100C8000A0939401B0939501B595A79597958795F5
:100C90009C01909381018093800140919801509133
:100CA0009901241B350B309383012093820190938B
:100CB00099018093980161E180E10E94D9019093AC
:100CC0008B0180938A0163E182E10E94D9019093B4
:100CD0008901809388016BE28AE20E94D901909396
:100CE0008701809386016DE28CE20E94D901909386
:100CF000850180938401809113028823A9F10FEF6D
:100D000013E0A8014C1B5D0B69E088E00E94EC0138
:100D10004091820150918301509541955F4F6BE066
:100D20008AE00E94EC0180918A0190918B019801E8
:100D3000281B390B30938B0120938A018091860107
:100D4000909187019801281B390B309387012093DC
:100D500086018091840190918501081B190B1093E5
:100D60008501009384010DC0AE0169E088E00E9416
:100D7000EC0140918201509183016BE08AE00E9476
:100D8000EC01809106029927909391018093900144
:100D900020918A0130918B01809196019091970169
:100DA0002817390721F4C0918001D0918101309337
:100DB00097012093960180918601909187012817D1
:100DC000390724F490938B0180938A012091840148
:100DD0003091850180918A0190918B012817390704
:100DE00024F430938B0120938A0180918A019091A1
:100DF0008B018C1B9D0B90938F0180938E018091B2
:100E00008801909189012091820130918301821B98
:100E1000930B90938D0180938C0163E282E20E9498
:100E2000D901909379018093780165E284E20E9470
:100E3000D901EC0190937B0180937A0110927C019F
:100E400010927D0110927E0110927F0160918E01BF
:100E500070918F0180919001909191018617970771
:100E600034F0909581959F4F68177907A4F48827EF
:100E700077FD8095982F2091780130917901442752
:100E800055270E94FA1260937C0170937D01809334
:100E90007E0190937F0160918C0170918D01882774
:100EA00077FD8095982F9E01442755270E94FA12BE
:100EB00020917C0130917D0140917E0150917F0114
:100EC000260F371F481F591F232F342F452F552713
:100ED00047FD5A9520937C0130937D0140937E011C
:100EE00050937F012F3F31054105510531F02CF022
:100EF0008FEF90E0A0E0B0E009C021503F4F4F4F8E
:100F00005F4F64F481E09FEFAFEFBFEF80937C0110
:100F100090937D01A0937E01B0937F0180917C012D
:100F200090917D01DF91CF911F910F9108952091B4
:100F30009A01E22FFF27EE0FFF1FE556FE4F918328
:100F400080832F5F277020939A0140E050E0EBE907
:100F5000F1E081919191480F591F81E0EB3AF80738
:100F6000C1F783E0569547958A95E1F76DE08CE0EF
:100F70000E94EC01089510929A01EBE9F1E01192C0
:100F8000119281E0EB3AF807D1F740E050E06DE0D4
:100F90008CE00E94EC0108958F77803328F0803632
:100FA000B0F0803738F48053E82FFF27EB51FE4F25
:100FB00080810BC08054E82FFF27EB51FE4F8081CA
:100FC0009927803720F40E94CC079927089580E064
:100FD00090E00895E82F8091EA019927827090703F
:100FE000EF77E031B8F0E03248F0009799F0E03365
:100FF00028F0E03678F0E03730F4E053FF27EB518B
:10100000FE4F60830895E055FF27EB51FE4FE081CE
:10101000E03730F308951092AE011092AD01880FC1
:101020008093BA008FEF8093BB0085EC8093BC0067
:1010300008959091AD018091AE019817D1F3809100
:10104000AE018F5F83708093AE01E091AE01FF2708
:10105000E155FE4F8081992708959091AD018091CF
:10106000AE0120E030E0981711F021E030E0C90136
:1010700008951F920F920FB60F9211240F931F9392
:101080002F933F934F935F936F937F938F939F9390
:10109000AF93BF93EF93FF938091B900803A09F427
:1010A000C7C0813A60F4803609F43FC0813620F42D
:1010B000882309F4BBC0BCC08038D1F1B9C0803CE2
:1010C00009F4B6C0813C30F4883A59F0883B09F005
:1010D000AFC007C0883C09F4ABC0883F09F0A8C086
:1010E000AAC08091AB010E94CC07982F8091AC01DF
:1010F000843089F43091B3018091B4012091B5011D
:10110000381738F4290F2093B5013F5F3093B301AE
:1011100002C0922F05C08091AB018F5F8093AB011D
:10112000892F99278093BB0083C01092AC0180C0A7
:101130006091BB008091AC01823089F1833030F442
:10114000882351F0813009F073C01FC0833089F1CA
:10115000843009F06DC038C067FD04C06093AB01F6
:1011600081E003C0613821F482E08093AC0160C06B
:101170008091AD018F5F83708093AD01E091AD01EF
:10118000FF27E155FE4F608353C08091AB010E9461
:10119000EA078091AB018F5F8093AB0149C0862F36
:1011A0008F708093B4018093B5011092B30183E0F6
:1011B000DCCF8091B5016093AB019091AB01890FB9
:1011C0008093B50184E0D1CF8091B3010091B40147
:1011D0002091B501801770F4E82FFF27EF70F070B1
:1011E000EA54FE4F6083260F2093B5018F5F8093F2
:1011F000B3011EC06217E1F41092B30110E011C0F8
:101200008091AB01E12FFF27EF70F070EA54FE4FA1
:1012100060810E94EA078091AB018F5F8093AB01F0
:101220001F5F101768F31093B30102C085ED01C072
:1012300085EC8093BC00FF91EF91BF91AF919F919E
:101240008F917F916F915F914F913F912F911F915E
:101250000F910F900FBE0F901F901895F8948091EA
:10126000C601882321F48091C7018823A1F08BB1A6
:1012700080698BB91092800085B1897F85B980E043
:1012800000008F5F8431E1F78BB18C608BB91092D5
:10129000C6011092C7011092890010928800109226
:1012A0008B0010928A0078948091C6018093F3019C
:1012B0008091C7018093F401089540E450E069E211
:1012C00088E20E94EC01089569E288E20E94D90157
:1012D0009093C9018093C8012BB1237F2BB92BB107
:1012E00020692BB92AB12C692AB925B1297F25B9E2
:1012F00024B1266024B91092850010928400E0E8A1
:10130000F0E01082A1E8B0E01C92109282001092EE
:101310006F0024E0880F991F2A95E1F701979093B9
:1013200087008093860010928900109288001092A6
:101330008B0010928A00108281E18C931092F3014D
:101340001092F4010895EF92FF920F931F93CF93A1
:10135000DF937C01EB0169E288E20E94D9012091D0
:10136000C8013091C9018217930791F185B1897F36
:1013700085B9809180008F73809380008091800078
:101380008F7C809380008BB1837F8BB91092C601D4
:101390001092C70169E288E20E94D9019093C901C5
:1013A0008093C801A4E0880F991FAA95E1F70197DF
:1013B000909387008093860010928500109284009D
:1013C000109289001092880010928B0010928A006F
:1013D000809113028823F1F06DE28CE20E94D90122
:1013E0008C016BE28AE20E94D901A80100501440EE
:1013F00010F04FEF53E09C018050944010F02FEF1D
:1014000033E08FEF93E0BC01641B750BAB01821BD3
:10141000930B15C06BE28AE20E94D9018C016DE248
:101420008CE20E94D901A8010050144010F04FEF47
:1014300053E024E08030920710F08FEF93E0E41641
:10144000F50620F4D7FF02C0C0E0D0E08E159F055E
:1014500028F41C161D0614F4C0E0D0E08091EA01C7
:1014600080FF96C0D7FF4DC0BE016195062F209129
:10147000C8013091C901F8948091C6018823B1F464
:101480008BB180698BB95B981092800085B1897FA0
:1014900085B980E000008F5F8431E1F780918000A2
:1014A0008068809380005A9A1092C7010093C60109
:1014B000602F77278827992744275527F4E0220FA4
:1014C000331F441F551FFA95D1F72150304040403B
:1014D00050400E94FA122FEF30E040E050E00E94AE
:1014E0001913309389002093880010928B0010927A
:1014F0008A0078940093F3018091C7018093F401EE
:1015000049C0209709F444C00C2F2091C8013091A4
:10151000C901F8948091C701882379F48BB180695F
:101520008BB95A981092800085B1897F85B980E285
:10153000809380005B9A1092C6010093C7011092BD
:10154000890010928800602F7727882799274427E1
:101550005527E4E0220F331F441F551FEA95D1F7AA
:1015600021503040404050400E94FA122FEF30E0AE
:1015700040E050E00E94191330938B0020938A00C2
:1015800078948091C6018093F3010093F40102C026
:101590000E942E09DF91CF911F910F91FF90EF9044
:1015A00008952F923F924F925F926F927F928F9207
:1015B0009F92AF92BF92CF92DF92EF92FF920F93E2
:1015C0001F93CF93DF93CDB7DEB724970FB6F89470
:1015D000DEBF0FBECDBF4B0119012A01E982FA829D
:1015E0000B831C83909342028093410270933402D8
:1015F00060933302881A990A9092440280924302BF
:10160000B401882777FD8095982F0E9479107B017F
:101610008C0197FE08C020E030E040E857E40E94CB
:10162000740E7B018C01E092CA01F092CB01009311
:10163000CC011093CD01A8019701C601B5010E940C
:10164000A10E5B016C01A8019701698D7A8D8B8DCC
:101650009C8D0E94A10E3B014C0120922F023092E2
:101660003002409231025092320289819A81AB81DC
:10167000BC818093390290933A02A0933B02B093CD
:101680003C02A0923D02B0923E02C0923F02D09234
:101690004002609235027092360280923702909238
:1016A0003802A2019101C201B1010E94740E7B01B6
:1016B0008C0120E030E040E050EC69817A818B8140
:1016C0009C810E94A10E9B01AC01C801B7010E9440
:1016D000740EA60195010E94740EA40193010E944C
:1016E000740E6093CE017093CF018093D0019093DC
:1016F000D10120E030E040E450ECC201B1010E9491
:10170000A10E7B018C0120E030E040E450E46981CF
:101710007A818B819C810E94A10E9B01AC01C80142
:10172000B7010E94740E7B018C0120E030E040E0A4
:1017300050ECC601B5010E94A10E9B01AC01C8018D
:10174000B7010E94740EA40193010E94430E60939E
:10175000D2017093D3018093D4019093D501A092CC
:10176000D601B092D701C092D801D092D90120926F
:10177000DA013092DB014092DC015092DD012496C7
:101780000FB6F894DEBF0FBECDBFDF91CF911F9192
:101790000F91FF90EF90DF90CF90BF90AF909F9010
:1017A0008F907F906F905F904F903F902F90089513
:1017B0002F923F924F925F926F927F928F929F9261
:1017C000AF92BF92CF92DF92EF92FF920F931F934F
:1017D000CF93DF93CDB7DEB760970FB6F894DEBF37
:1017E0000FBECDBF8C01788B6F875E874D872091B0
:1017F00041023091420228173907C8F080912F0228
:1018000090913002A0913102B0913202FB018083AD
:101810009183A283B3830217130708F180913D02DD
:1018200090913E02A0913F02B091400225C04091AC
:101830003302509134028417950728F180913902C0
:1018400090913A02A0913B02B0913C02EF85F88959
:1018500080839183A283B3834017510728F480E0EB
:1018600090E0A0E0B0E008C080913502909136028F
:10187000A0913702B0913802ED85FE858083918377
:10188000A283B383BAC08091CA019091CB01A09189
:10189000CC01B091CD0189879A87AB87BC87021BA9
:1018A000130BB801882777FD8095982F0E94791037
:1018B00017FF06C020E030E040E857E40E94740EB5
:1018C00029853A854B855C850E94BF0F5B016C01C1
:1018D0009B01AC010E94A10E3B014C018091CE0105
:1018E0009091CF01A091D001B091D1018D839E83C1
:1018F000AF83B8872090D2013090D3014090D401BB
:101900005090D5018091D6019091D701A091D80136
:10191000B091D90189839A83AB83BC83A6019501D9
:10192000C401B3010E94A10E9B01AC016D817E81B7
:101930008F8198850E94A10E7B018C01A4019301E7
:10194000C201B1010E94A10E9B01AC01C801B70107
:101950000E94740E7B018C01A601950169817A8138
:101960008B819C810E94A10E9B01AC01C801B70133
:101970000E94740E2091DA013091DB014091DC016C
:101980005091DD010E94740EAF85B8896D937D93EF
:101990008D939C93139720E030E040E450E46D81F8
:1019A0007E818F8198850E94A10EA40193010E94DF
:1019B000A10E7B018C01A2019101C201B1010E9423
:1019C000740EA60195010E94A10E9B01AC01C801F5
:1019D000B7010E94740E29813A814B815C810E947B
:1019E000740E29853A854B855C850E94BF0FED8575
:1019F000FE85608371838283938360960FB6F8942B
:101A0000DEBF0FBECDBFDF91CF911F910F91FF9031
:101A1000EF90DF90CF90BF90AF909F908F907F908E
:101A20006F905F904F903F902F900895A0E0B0E0AE
:101A3000ECE1FDE00C943F13FC016A0190819230CF
:101A400008F41BC1DB018C91823080F0943061F48A
:101A5000843009F012C19181EB018981981709F452
:101A60000CC1E0E0F1E009C1843011F4FB0105C1D3
:101A7000823091F4923009F000C1EA01DF0188E080
:101A80000D9009928150E1F78181FB0191818923B9
:101A9000E6018983F601F1C0923041F362807380E0
:101AA000EB018A809B80E480F580068117812C8180
:101AB0003D814E815F815301A818B908C501B7FC6B
:101AC000ABC080970CF457C0861497040CF4BEC0CA
:101AD0003401EE24FF2487019181FB018181981755
:101AE00009F4A6C0992309F49CC02E193F09400BA4
:101AF000510B57FDB0C0E60119827B826A82F60164
:101B00002483358346835783E6012C813D814E81B2
:101B10005F8179018A01DA01C9010197A109B1093F
:101B20008F5F9F4FAF4FBF43F8F4E6016A817B811F
:101B3000A8019701220F331F441F551F61507040A9
:101B400079018A01DA01C9010197A109B1098F5F01
:101B50009F4FAF4FBF4360F3E6017B836A83F6017B
:101B6000248335834683578383E0D6018C9357FDC6
:101B700039C0F60182C086149704B4F4C0E0D0E006
:101B8000DA01C90181709070A070B07056954795C8
:101B900037952795282B392B4A2B5B2B2196AC1692
:101BA000BD0671F78A0C9B1C681479040CF094CF65
:101BB000C0E0D0E05401A618B708D801C701817071
:101BC0009070A070B07016950795F794E794E82A86
:101BD000F92A0A2B1B2B2196AC16BD0671F76A0C4D
:101BE0007B1C7ACFDA01C901B695A79597958795A1
:101BF0002170307040705070282B392B4A2B5B2B92
:101C0000E6012C833D834E835F838A819B8101960D
:101C10009B838A83F60131C0882799278A199B09FB
:101C200050CFE21AF30A040B150BA801970161CFFC
:101C3000E60199837B826A822E0D3F1D401F511F52
:101C4000F60124833583468357838ECF20E030E02E
:101C500040E050E041CF81E0E60189837B826A82E7
:101C600050954095309521953F4F4F4F5F4FF6016E
:101C7000248335834683578347CFCF01EEE0CDB72A
:101C8000DEB70C945B13A0E2B0E0E9E4FEE00C9454
:101C9000471369837A838B839C832D833E834F8391
:101CA000588789E1E82EF12CEC0EFD1EB701CE011C
:101CB00001960E9454128E010F5E1F4FB801CE0193
:101CC00005960E9454128A8991E089278A8BAE0179
:101CD000475F5F4FB801C7010E94160D0E94321185
:101CE000E6E0A0960C946313A0E2B0E0EAE7FEE021
:101CF0000C94471369837A838B839C832D833E8363
:101D00004F83588799E1E92EF12CEC0EFD1EB701A7
:101D1000CE0101960E9454128E010F5E1F4FB80132
:101D2000CE0105960E945412AE01475F5F4FB80185
:101D3000C7010E94160D0E943211E6E0A0960C9495
:101D40006313A0E2B0E0E7EAFEE00C943B13698382
:101D50007A838B839C832D833E834F8358878E01A8
:101D6000075E1F4FB801CE0101960E945412F1E1A7
:101D7000EF2EF12CEC0EFD1EB701CE0105960E9450
:101D80005412898D823078F09989923040F420E0A5
:101D90009A8D8A89981321E02A8BB701E9C0843093
:101DA00051F4923061F020E09A8D8A89981321E0F5
:101DB0002A8FB801DDC0943029F4823041F760E009
:101DC00071E0D6C0823079F3923009F32D8D3E8DCB
:101DD0004F8D58A18D899E89AF89B88D22243324D7
:101DE0002101AA24BB246501EE24FF24870160E0C1
:101DF00070E00DC06F5F7F4F6032710599F1880F01
:101E0000991FAA1FBB1F569547953795279520FF09
:101E100019C0280E391E4A1E5B1E66247724430112
:101E2000281639064A065B0628F4E1E06E2E712C6E
:101E3000812C912CAE0CBF1CC01ED11EA60CB71C51
:101E4000C81CD91CEE0CFF1C001F111FB7FFD2CFFE
:101E5000E1E06E2E712C812C912CE628F7280829C0
:101E60001929C8CF8B8D9C8D2B893C89820F931F9C
:101E700002969C878B871A869A8D8A89981711F00B
:101E800081E08A87D7FE17C08B859C85A0FE0CC099
:101E9000569447943794279420E030E040E050E88F
:101EA000222A332A442A552AD694C794B794A79451
:101EB00001969C878B8730E0A31630E0B30630E0B4
:101EC000C30630E4D30618F58B859C850EC0220C22
:101ED000331C441C551C019720E0A21620E0B206DA
:101EE00020E0C20620E4D20680F4AA0CBB1CCC1C65
:101EF000DD1C57FEECCF31E0632E712C812C912C30
:101F0000A628B728C828D928E2CF9C878B87D60176
:101F1000C5018F779070A070B07080349105A105D5
:101F2000B10551F0AD86BE86CF86D88A83E0898719
:101F3000BE01675F7F4F1CC0A7FCF4CF21143104A2
:101F40004104510479F380E490E0A0E0B0E0A80EF1
:101F5000B91ECA1EDB1E80E8682E8FEF782E8FEF29
:101F6000882E8FEF982EA620B720C820D920DACF50
:101F7000CB010E943211E2E1A0960C945713A8E124
:101F8000B0E0E5ECFFE00C94411369837A838B8326
:101F90009C832D833E834F835887B1E18B2E912CF8
:101FA0008C0E9D1EB401CE0101960E9454128E012A
:101FB000075F1F4FB801CE0105960E945412298970
:101FC000223008F46AC03985323008F468C08A8942
:101FD0009A8589278A8B243009F463C0223009F45A
:101FE00060C0343041F41D8A1E8A1F8A188E1C8AF4
:101FF0001B8AB40177C0323009F458C06B897C89E0
:102000008B859C85681B790B7C8B6B8B2D893E891E
:102010004F89588DED84FE840F8518892E153F0554
:102020004007510740F4220F331F441F551F6150D2
:1020300070407C8B6B8B80E090E0A0E0B0E4AA2441
:10204000BB24650160E070E02E153F054007510795
:1020500040F0A82AB92ACA2ADB2A2E193F09400BC8
:10206000510BB695A79597958795220F331F441F5F
:10207000551F6F5F7F4F6F31710531F7D601C50175
:102080008F779070A070B07080349105A105B10574
:1020900089F0AD8ABE8ACF8AD88EB40123C0B80138
:1020A00021C03217D1F760E071E01CC084E0898B59
:1020B000B40118C0A7FCEDCF21153105410551052C
:1020C00041F380E490E0A0E0B0E0A80EB91ECA1E83
:1020D000DB1E80E89FEFAFEFBFEFA822B922CA2234
:1020E000DB22D7CFCB010E943211ECE068960C9432
:1020F0005D13A8E0B0E0EFE7F0E10C944A139B0118
:10210000AC0183E089831A8257FD51C02115310546
:102110004105510539F482E08983CE0101960E9480
:1021200032114CC0EEE1F0E0FC83EB838A8188231E
:10213000C9F1203010E0310710E0410710E85107E5
:10214000C9F188279927DC01821B930BA40BB50BDF
:102150008D839E83AF83B8872D813E814F815885C3
:10216000203080E0380780E0480780E45807A8F670
:10217000EB81FC81DA01C901880F991FAA1FBB1FDF
:1021800031979C01AD01803010E0910710E0A1076C
:1021900010E4B10778F3FC83EB838D839E83AF83D8
:1021A000B887BBCF2D833E834F835887D5CF81E03F
:1021B0008A83ACCF60E070E080E09FECE3E028969B
:1021C0000C946613ACE0B0E0E8EEF0E10C944B1335
:1021D00069837A838B839C83BE016B5F7F4FCE01C3
:1021E00001960E9454128D81823061F0823050F04D
:1021F000843069F48E81882359F52FEF3FEF4FEF3C
:102200005FE72AC020E030E040E050E025C02F81A9
:10221000388537FDF7CF2F31310564F78EE190E037
:10222000821B930B29853A854B855C8504C05695A6
:102230004795379527958A95D2F78E81882361F047
:1022400050954095309521953F4F4F4F5F4F04C0BB
:1022500020E030E040E050E8CA01B901E2E02C960D
:102260000C9467134F925F926F927F928F929F921E
:10227000AF92BF92DF92EF92FF920F931F9320E0F5
:1022800030E040E050E0FC01E480F58006811781F9
:10229000D1808081823038F4D801C701A061AF7746
:1022A000B0706FEFD9C0843009F46EC0823009F489
:1022B00071C0E114F1040105110509F46BC08281BC
:1022C00093816FEF823896070CF06AC062E87FEF67
:1022D000681B790B6A3171050CF080C04701580109
:1022E000062E04C0B694A794979487940A94D2F7C4
:1022F00044245524320181E090E0A0E0B0E004C025
:10230000880F991FAA1FBB1F6A95D2F70197A109D1
:10231000B109E822F9220A231B23E114F104010583
:10232000110529F061E0462E512C612C712C85019C
:102330007401E428F52806291729D801C7018F77E9
:102340009070A070B07080349105A105B10509F4BA
:1023500057C0D801C701CF96A11DB11D60E070E044
:102360008030E0E09E07E0E0AE07E0E4BE0710F05A
:1023700061E070E027E0B695A795979587952A9537
:10238000D1F7AF77B07068C080E090E0A0E0B0E037
:102390006FEF62C080E090E0A0E0B0E060E05CC081
:1023A000803891058CF7BC0161587F4FD801C70177
:1023B0008F779070A070B07080349105A105B10541
:1023C000A1F08FE390E0A0E0B0E0E80EF91E0A1F54
:1023D0001B1F17FD28C0D801C701CCCF60E070E0FB
:1023E00080E090E0A0E0B0E0CCCFE7FEF2CF80E468
:1023F00090E0A0E0B0E0E80EF91E0A1F1B1FE9CF35
:10240000E7FC18C080E090E060E0E61660E0F606C9
:1024100060E0060760E4160710F081E090E0BC0180
:10242000D801C701A7CF16950795F794E7946F5F7A
:102430007F4FD1CFD801C701805C9F4FAF4FBF4FB7
:1024400060E070E08030E0E09E07E0E0AE07E0E4AE
:10245000BE0708F48FCF8CCF282F392F9A2F9F7764
:10246000842F8078892B962F9795992797958F772A
:10247000482F492B6695852F8078862BD794DD24AD
:10248000D7948F77582F5D29CA01B9011F910F91F9
:10249000FF90EF90DF90BF90AF909F908F907F90D4
:1024A0006F905F904F900895FC01DB012081318196
:1024B0009281492F4F7750E0991F9927991F838167
:1024C000682F660F692B881F8827881FFD0181836D
:1024D000662309F049C0211531054105510509F46C
:1024E00070C082E89FEFFD0193838283220F331F28
:1024F000441F551F220F331F441F551F220F331F28
:10250000441F551F220F331F441F551F220F331F17
:10251000441F551F220F331F441F551F220F331F07
:10252000441F551F83E08C932030F0E03F07F0E01C
:102530004F07F0E45F0790F482E89FEF220F331F0C
:10254000441F551F0197203060E0360760E04607C2
:1025500060E4560798F3FD0193838283FD01248391
:1025600035834683578308956F3F71F1862F9927EE
:102570008F579040FD019383828383E08C93220FD9
:10258000331F441F551F220F331F441F551F220F97
:10259000331F441F551F220F331F441F551F220F87
:1025A000331F441F551F220F331F441F551F220F77
:1025B000331F441F551F506424833583468357833C
:1025C000089582E08C930895211531054105510548
:1025D00019F484E08C93089544FD02C01C92BECF90
:1025E00081E08C93BBCFDC0101C06D934150504022
:1025F000E0F70895629FD001739FF001829FE00D84
:10260000F11D649FE00DF11D929FF00D839FF00D71
:10261000749FF00D659FF00D9927729FB00DE11D1D
:10262000F91F639FB00DE11DF91FBD01CF011124FA
:102630000895A1E21A2EAA1BBB1BFD010DC0AA1F03
:10264000BB1FEE1FFF1FA217B307E407F50720F01B
:10265000A21BB30BE40BF50B661F771F881F991F96
:102660001A9469F760957095809590959B01AC01DF
:10267000BD01CF0108952F923F924F925F926F92CA
:102680007F928F929F92AF92BF92CF92DF92EF9202
:10269000FF920F931F93CF93DF93CDB7DEB7CA1B83
:1026A000DB0B0FB6F894DEBF0FBECDBF09942A88AE
:1026B000398848885F846E847D848C849B84AA8456
:1026C000B984C884DF80EE80FD800C811B81AA81E3
:1026D000B981CE0FD11D0FB6F894DEBF0FBECDBFAE
:1026E000ED01089509D001921A94E1F7089501903F
:1026F0000BD01A94E1F70895F999FECFB2BDA1BDB0
:10270000F89A119600B40895F999FECFB2BDA1BD13
:1027100000BC11960FB6F894FA9AF99A0FBE089574
:082720000000000000000000B1
:00000001FF
