:100000000C9436000C9451000C9451000C94510047
:100010000C9451000C9451000C9451000C9451001C
:100020000C9451000C9451000C9451000C9451000C
:100030000C9451000C9451000C947E010C945100CE
:100040000C9451000C9451000C9451000C945100EC
:100050000C9451000C9427010C9451000C94510005
:100060000C940A050C9451000C94360011241FBE08
:10007000CFEFD4E0DEBFCDBF11E0A0E0B1E0E0E023
:10008000F0E102C005900D92A030B107D9F711E060
:10009000A0E0B1E001C01D92A939B107E1F70C94CD
:1000A00053000C940000CFEFD4E0DEBFCDBF86E05C
:1000B00084B989EF85B917B88FE788B98CE98AB90F
:1000C00083EF8BB90E94AC020E94DC010E943806CB
:1000D0000E94FB000E94C1020E948C048091790161
:1000E0000E949D0440E050E067E086E00E94C50168
:1000F0007894809152018823E1F31092520140914B
:1001000054015091550161E180E10E94C50140E038
:1001100050E063E182E10E94C50180915E0183604D
:1001200080935E0180915201882369F01092520100
:100130000091540110915501C8010E94ED02BC01CB
:10014000C8010E94770680915301882341F01092E4
:10015000530180915601909157010E9468040E94BA
:10016000BF048823F9F20E94AB04853881F18638F8
:1001700060F48238E1F0833818F4803899F614C0BE
:100180008338C9F0843871F61EC0883851F1893837
:1001900028F4863801F1873829F620C0893821F102
:1001A000803909F0BFCF23C00E94B602BBCF809137
:1001B0005E018160B5CF80915E018E7F80935E018C
:1001C0000E940606AFCF80915E018260A9CF809128
:1001D0005E018D7FA5CF0E943D02A4CF0E947202D6
:1001E000A1CF0E94D4019ECF0E940C029BCF81E040
:1001F0008093580197CF109253011092570110929B
:10020000560110925201109255011092540181E052
:100210008093580188B1887F88B9EEE7F0E080814B
:100220008760808382E480937C0093E090937B00DE
:100230008FE880937A0095BB92E090936E0016BC95
:1002400083EC87BD18BC94BD85E085BD08951F92E1
:100250000F920FB60F9211242F933F934F935F93FA
:100260006F937F938F939F93AF93BF93EF93FF937E
:10027000409178005091790080917C0099278F708F
:1002800090708130910519F18230910519F0892B18
:1002900051F023C0509355014093540181E0809365
:1002A000520180E40CC0509357014093560181E005
:1002B0008093530180915801882379F081E48093E1
:1002C0007C0080917A00806480937A0006C010924E
:1002D000580165E184E10E94C501FF91EF91BF9152
:1002E000AF919F918F917F916F915F914F913F91CE
:1002F0002F910F900FBE0F901F9018951F920F9285
:100300000FB60F9211242F933F934F935F936F93E8
:100310007F938F939F93AF93BF93EF93FF9367E088
:1003200086E00E94B2010196AC0167E086E00E947F
:10033000C50182E480937C00EAE7F0E0808180647C
:100340008083FF91EF91BF91AF919F918F917F91AA
:100350006F915F914F913F912F910F900FBE0F9032
:100360001F9018959FB7F8949FBFA9E5B1E0FD01D4
:10037000E80FF11D80819927982F8827A60FB11DBE
:100380002C913327822B932B08952FB7F894E9E50E
:10039000F1E0DF01A80FB11D852F99278C93E60F9F
:1003A000F11D40832FBF089580E1809379010E9461
:1003B000FF050E94CA020895CF93DF93C9E5D1E0FB
:1003C00080E4FE0111928A95E9F781E0809359015A
:1003D00080935A0110925B0182E080935C010E943D
:1003E0007202882351F440E450E060E270E0CE01F4
:1003F00080960E949A070E94D401DF91CF910895C0
:10040000FC0104C08191480F615070406115710575
:10041000C9F7842F992708950F931F93CF93DF93E4
:10042000CDB7DEB760970FB6F894DEBF0FBECDBF75
:1004300040E150E06FEF70E08E010F5F1F4FC80189
:100440000E949A0780E090E040E19801DC01F90108
:10045000142E0E94E7074096F2E080309F07B1F724
:1004600081E090E060960FB6F894DEBF0FBECDBF7E
:10047000DF91CF911F910F910895FF920F931F93DA
:10048000CF93DF93CDB7DEB722970FB6F894DEBFD8
:100490000FBECDBF82E0F82EF98209E711E042E0FD
:1004A00060E270E0C8010E9400028A83A0E0B0E030
:1004B000FE0131961F2C0E94E70780E2A2E0B0E027
:1004C000F801182E0E94E70781E090E022960FB60F
:1004D000F894DEBF0FBECDBFDF91CF911F910F917A
:1004E000FF9008951F93CF93DF93CDB7DEB7229788
:1004F0000FB6F894DEBF0FBECDBF82E0A0E0B0E043
:10050000FE013196182E0E94E2078981823019F08F
:1005100080E090E017C080E229E731E0A2E0B0E09F
:10052000F901182E0E94E2071A8142E060E270E0B1
:10053000C9010E94000290E0181391E081E0982721
:10054000892F992722960FB6F894DEBF0FBECDBF34
:10055000DF91CF911F91089584B7877F84BFE0E634
:10056000F0E08081886180831082089580915E012F
:100570008E7F80935E010E94060688E8809360006B
:10058000FFCF10921F0110921E01109221011092B4
:100590002001089510927A0140E050E063E282E287
:1005A0000E94C50140E050E065E284E20E94C5017E
:1005B00040E050E067E286E20E94C50140E650E07C
:1005C0006BE28AE20E94C50140EA53E06DE28CE2F0
:1005D0000E94C5011092870108950F931F93CF9336
:1005E000DF93EC0180911A0190911B01A0911C01F5
:1005F000B0911D019C01AD01559547953795279503
:10060000821B930BA40BB50B9E01442737FD40952D
:10061000542F820F931FA41FB51F80931A0190932C
:100620001B01A0931C01B0931D01B595A79597954B
:1006300087959C01909309018093080140912001C6
:1006400050912101241B350B30930B0120930A019B
:10065000909321018093200161E180E10E94B20129
:10066000909313018093120163E182E10E94B20131
:1006700090931101809310016BE28AE20E94B20113
:1006800090930F0180930E016DE28CE20E94B20103
:1006900090930D0180930C01809187018823A9F12B
:1006A0000FEF13E0A8014C1B5D0B69E088E00E948E
:1006B000C50140910A0150910B01509541955F4F42
:1006C0006BE08AE00E94C5018091120190911301B4
:1006D0009801281B390B309313012093120180914C
:1006E0000E0190910F019801281B390B30930F01D7
:1006F00020930E0180910C0190910D01081B190BA4
:1007000010930D0100930C010DC0AE0169E088E06B
:100710000E94C50140910A0150910B016BE08AE0F3
:100720000E94C50180917A019927909319018093C5
:100730001801209112013091130180911E019091B6
:100740001F012817390721F4C0910801D091090130
:1007500030931F0120931E0180910E0190910F0193
:100760002817390724F490931301809312012091E4
:100770000C0130910D018091120190911301281705
:10078000390724F430931301209312018091120150
:10079000909113018C1B9D0B909317018093160170
:1007A000809110019091110120910A0130910B016B
:1007B000821B930B909315018093140163E282E2F4
:1007C0000E94B201909301018093000165E284E2EE
:1007D0000E94B201EC0190930301809302011092F8
:1007E0000401109205011092060110920701609118
:1007F00016017091170180911801909119018617C7
:10080000970734F0909581959F4F68177907A4F466
:10081000882777FD8095982F209100013091010164
:10082000442755270E94A107609304017093050196
:100830008093060190930701609114017091150156
:10084000882777FD8095982F9E01442755270E9481
:10085000A1072091040130910501409106015091BA
:100860000701260F371F481F591F232F342F452FED
:10087000552747FD5A952093040130930501409375
:100880000601509307012F3F31054105510531F015
:100890002CF08FEF90E0A0E0B0E009C021503F4F76
:1008A0004F4F5F4F64F481E09FEFAFEFBFEF809356
:1008B000040190930501A0930601B0930701809174
:1008C000040190910501DF91CF911F910F9108953F
:1008D00020912201E22FFF27EE0FFF1FED5DFE4F5B
:1008E000918380832F5F27702093220140E050E0A6
:1008F000E3E2F1E081919191480F591F81E0E333E8
:10090000F807C1F783E0569547958A95E1F76DE0C2
:100910008CE00E94C501089510922201E3E2F1E00B
:100920001192119281E0E333F807D1F740E050E0F3
:100930006DE08CE00E94C50108951092360110927E
:100940003501880F8093BA008FEF8093BB0085EC50
:100950008093BC00089590913501809136019817DD
:10096000D1F3809136018F5F837080933601E091DF
:100970003601FF27E95CFE4F808199270895909109
:1009800035018091360120E030E0981711F021E028
:1009900030E0C90108958F77803328F08036B0F0B9
:1009A000803738F48053E82FFF27E75AFE4F8081C5
:1009B0000BC08054E82FFF27E75AFE4F808199270C
:1009C000803720F40E94CB049927089580E090E0BE
:1009D0000895E82F80915E01992782709070EF77DB
:1009E000E031B8F0E03248F0009799F0E03328F0B9
:1009F000E03678F0E03730F4E053FF27E75AFE4F57
:100A000060830895E055FF27E75AFE4FE081E03705
:100A100030F308951F920F920FB60F9211240F9387
:100A20001F932F933F934F935F936F937F938F9376
:100A30009F93AF93BF93EF93FF938091B900803A58
:100A400009F4C7C0813A60F4803609F43FC08136AA
:100A500020F4882309F4BBC0BCC08038D1F1B9C0F0
:100A6000803C09F4B6C0813C30F4883A59F0883BA8
:100A700009F0AFC007C0883C09F4ABC0883F09F05B
:100A8000A8C0AAC0809133010E94CB04982F809106
:100A90003401843089F430913B0180913C012091F4
:100AA0003D01381738F4290F20933D013F5F309303
:100AB0003B0102C0922F05C0809133018F5F80936C
:100AC0003301892F99278093BB0083C01092340192
:100AD00080C06091BB0080913401823089F1833005
:100AE00030F4882351F0813009F073C01FC0833087
:100AF00089F1843009F06DC038C067FD04C060938F
:100B0000330181E003C0613821F482E08093340135
:100B100060C0809135018F5F837080933501E091D3
:100B20003501FF27E95CFE4F608353C0809133019C
:100B30000E94E904809133018F5F8093330149C0A3
:100B4000862F8F7080933C0180933D0110923B0172
:100B500083E0DCCF80913D016093330190913301BC
:100B6000890F80933D0184E0D1CF80913B010091BA
:100B70003C0120913D01801770F4E82FFF27EF70B2
:100B8000F070E25CFE4F6083260F20933D018F5F83
:100B900080933B011EC06217E1F410923B0110E00C
:100BA00011C080913301E12FFF27EF70F070E25CFC
:100BB000FE4F60810E94E904809133018F5F809332
:100BC00033011F5F101768F310933B0102C085EDDE
:100BD00001C085EC8093BC00FF91EF91BF91AF9174
:100BE0009F918F917F916F915F914F913F912F9145
:100BF0001F910F910F900FBE0F901F90189540E41A
:100C000050E069E288E20E94C5010895F89480915D
:100C10004E01882321F480914F018823B9F08BB1D4
:100C200080698BB985B1897F85B9809180008F7388
:100C300080938000809180008F7C809380008BB1B6
:100C40008C608BB910924E0110924F011092890066
:100C50001092880010928B0010928A0078948091F4
:100C60004E018093670180914F0180936801089540
:100C700069E288E20E94B201909351018093500191
:100C80002BB1237F2BB92BB120692BB92AB12C6949
:100C90002AB925B1297F25B924B1266024B910923B
:100CA000850010928400E0E8F0E01082A1E8B0E056
:100CB0001C921092820010926F0024E0880F991FFE
:100CC0002A95E1F701979093870080938600109210
:100CD00089001092880010928B0010928A00108276
:100CE00081E18C9310926701109268010895EF9250
:100CF000FF920F931F93CF93DF937C01EB0169E287
:100D000088E20E94B2012091500130915101821776
:100D1000930791F185B1897F85B9809180008F73A8
:100D200080938000809180008F7C809380008BB1C5
:100D3000837F8BB910924E0110924F0169E288E2D5
:100D40000E94B2019093510180935001A4E0880F5A
:100D5000991FAA95E1F701979093870080938600E9
:100D600010928500109284001092890010928800E1
:100D700010928B0010928A00809187018823F1F0F5
:100D80006DE28CE20E94B2018C016BE28AE20E9469
:100D9000B201A8010050144010F04FEF53E09C0145
:100DA0008050944010F02FEF33E08FEF93E0BC01C0
:100DB000641B750BAB01821B930B15C06BE28AE2BF
:100DC0000E94B2018C016DE28CE20E94B201A80186
:100DD0000050144010F04FEF53E024E080309207B1
:100DE00010F08FEF93E0E416F50620F4D7FF02C071
:100DF000C0E0D0E08E159F0528F41C161D0614F4E3
:100E0000C0E0D0E080915E0180FF8BC0D7FF44C07E
:100E1000BE016195062F2091500130915101F89447
:100E200080914E01882369F485B1897F85B98BB1A2
:100E300080698BB95B9880E8809380005A9A109201
:100E40004F0100934E01602F772788279927442769
:100E50005527F4E0220F331F441F551FFA95D1F791
:100E600021503040404050400E94A1072FEF30E019
:100E700040E050E00E94C007309389002093880032
:100E800010928B0010928A007894009367018091F1
:100E90004F018093680147C0209709F442C00C2F8E
:100EA0002091500130915101F89480914F01882395
:100EB00069F485B1897F85B98BB180698BB95A98FE
:100EC00080E2809380005B9A10924E0100934F0164
:100ED0001092890010928800602F77278827992721
:100EE00044275527E4E0220F331F441F551FEA957E
:100EF000D1F721503040404050400E94A1072FEFD1
:100F000030E040E050E00E94C00730938B00209317
:100F10008A00789480914E01809367010093680164
:100F200002C00E940606DF91CF911F910F91FF90A2
:100F3000EF900895DC0101C06D9341505040E0F7FF
:100F40000895629FD001739FF001829FE00DF11D13
:100F5000649FE00DF11D929FF00D839FF00D749F33
:100F6000F00D659FF00D9927729FB00DE11DF91FDF
:100F7000639FB00DE11DF91FBD01CF01112408953C
:100F8000A1E21A2EAA1BBB1BFD010DC0AA1FBB1F8D
:100F9000EE1FFF1FA217B307E407F50720F0A21BFF
:100FA000B30BE40BF50B661F771F881F991F1A946C
:100FB00069F760957095809590959B01AC01BD0196
:100FC000CF01089509D001921A94E1F70895019094
:100FD0000BD01A94E1F70895F999FECFB2BDA1BDE7
:100FE000F89A119600B40895F999FECFB2BDA1BD4B
:100FF00000BC11960FB6F894FA9AF99A0FBE0895AC
:00000001FF
